{
  "contractName": "EquityToken",
  "abi": [
    {
      "constant": true,
      "inputs": [
        {
          "name": "",
          "type": "uint256"
        }
      ],
      "name": "AllEquityToken",
      "outputs": [
        {
          "name": "tokenId",
          "type": "uint256"
        },
        {
          "name": "companyName",
          "type": "string"
        },
        {
          "name": "tokenTicker",
          "type": "string"
        },
        {
          "name": "totalamount",
          "type": "uint256"
        },
        {
          "name": "nominalvalue",
          "type": "uint256"
        }
      ],
      "payable": false,
      "stateMutability": "view",
      "type": "function"
    },
    {
      "constant": false,
      "inputs": [
        {
          "name": "_companyName",
          "type": "string"
        },
        {
          "name": "_tokenTicker",
          "type": "string"
        },
        {
          "name": "_totalamount",
          "type": "uint256"
        },
        {
          "name": "_nominalvalue",
          "type": "uint256"
        }
      ],
      "name": "createEquityToken",
      "outputs": [],
      "payable": false,
      "stateMutability": "nonpayable",
      "type": "function"
    },
    {
      "anonymous": false,
      "inputs": [
        {
          "indexed": true,
          "name": "tokenId",
          "type": "uint256"
        },
        {
          "indexed": false,
          "name": "totalamount",
          "type": "uint256"
        },
        {
          "indexed": false,
          "name": "nominalvalue",
          "type": "uint256"
        }
      ],
      "name": "newTokenIssuance",
      "type": "event"
    },
    {
      "constant": true,
      "inputs": [
        {
          "name": "addr",
          "type": "address"
        }
      ],
      "name": "getBalanceInEth",
      "outputs": [
        {
          "name": "",
          "type": "uint256"
        }
      ],
      "payable": false,
      "stateMutability": "view",
      "type": "function"
    },
    {
      "constant": true,
      "inputs": [
        {
          "name": "addr",
          "type": "address"
        }
      ],
      "name": "getBalance",
      "outputs": [
        {
          "name": "",
          "type": "uint256"
        }
      ],
      "payable": false,
      "stateMutability": "view",
      "type": "function"
    },
    {
      "constant": true,
      "inputs": [
        {
          "name": "index",
          "type": "uint256"
        }
      ],
      "name": "getInfosEquityToken",
      "outputs": [
        {
          "name": "",
          "type": "uint256"
        },
        {
          "name": "",
          "type": "string"
        },
        {
          "name": "",
          "type": "string"
        },
        {
          "name": "",
          "type": "uint256"
        },
        {
          "name": "",
          "type": "uint256"
        }
      ],
      "payable": false,
      "stateMutability": "view",
      "type": "function"
    }
  ],
  "bytecode": "0x60806040526305f5e100600455610c458061001b6000396000f30060806040526004361061006d576000357c0100000000000000000000000000000000000000000000000000000000900463ffffffff168063124748e2146100725780637bd703e814610199578063923a8919146101f0578063c9cca20d146102b3578063f8b2cb4f146103da575b600080fd5b34801561007e57600080fd5b5061009d60048036038101908080359060200190929190505050610431565b604051808681526020018060200180602001858152602001848152602001838103835287818151815260200191508051906020019080838360005b838110156100f35780820151818401526020810190506100d8565b50505050905090810190601f1680156101205780820380516001836020036101000a031916815260200191505b50838103825286818151815260200191508051906020019080838360005b8381101561015957808201518184015260208101905061013e565b50505050905090810190601f1680156101865780820380516001836020036101000a031916815260200191505b5097505050505050505060405180910390f35b3480156101a557600080fd5b506101da600480360381019080803573ffffffffffffffffffffffffffffffffffffffff1690602001909291905050506105a6565b6040518082815260200191505060405180910390f35b3480156101fc57600080fd5b506102b1600480360381019080803590602001908201803590602001908080601f0160208091040260200160405190810160405280939291908181526020018383808284378201915050505050509192919290803590602001908201803590602001908080601f01602080910402602001604051908101604052809392919081815260200183838082843782019150505050505091929192908035906020019092919080359060200190929190505050610666565b005b3480156102bf57600080fd5b506102de60048036038101908080359060200190929190505050610687565b604051808681526020018060200180602001858152602001848152602001838103835287818151815260200191508051906020019080838360005b83811015610334578082015181840152602081019050610319565b50505050905090810190601f1680156103615780820380516001836020036101000a031916815260200191505b50838103825286818151815260200191508051906020019080838360005b8381101561039a57808201518184015260208101905061037f565b50505050905090810190601f1680156103c75780820380516001836020036101000a031916815260200191505b5097505050505050505060405180910390f35b3480156103e657600080fd5b5061041b600480360381019080803573ffffffffffffffffffffffffffffffffffffffff16906020019092919050505061087d565b6040518082815260200191505060405180910390f35b60038181548110151561044057fe5b9060005260206000209060050201600091509050806000015490806001018054600181600116156101000203166002900480601f0160208091040260200160405190810160405280929190818152602001828054600181600116156101000203166002900480156104f25780601f106104c7576101008083540402835291602001916104f2565b820191906000526020600020905b8154815290600101906020018083116104d557829003601f168201915b505050505090806002018054600181600116156101000203166002900480601f0160208091040260200160405190810160405280929190818152602001828054600181600116156101000203166002900480156105905780601f1061056557610100808354040283529160200191610590565b820191906000526020600020905b81548152906001019060200180831161057357829003601f168201915b5050505050908060030154908060040154905085565b600073__ConvertLib____________________________6396e4ee3d6105cb8461087d565b60026040518363ffffffff167c0100000000000000000000000000000000000000000000000000000000028152600401808381526020018281526020019250505060206040518083038186803b15801561062457600080fd5b505af4158015610638573d6000803e3d6000fd5b505050506040513d602081101561064e57600080fd5b81019080805190602001909291905050509050919050565b6000610671856108c5565b905061068081868686866109c9565b5050505050565b600060608060008060038681548110151561069e57fe5b9060005260206000209060050201600001546003878154811015156106bf57fe5b90600052602060002090600502016001016003888154811015156106df57fe5b90600052602060002090600502016002016003898154811015156106ff57fe5b90600052602060002090600502016003015460038a81548110151561072057fe5b906000526020600020906005020160040154838054600181600116156101000203166002900480601f0160208091040260200160405190810160405280929190818152602001828054600181600116156101000203166002900480156107c75780601f1061079c576101008083540402835291602001916107c7565b820191906000526020600020905b8154815290600101906020018083116107aa57829003601f168201915b50505050509350828054600181600116156101000203166002900480601f0160208091040260200160405190810160405280929190818152602001828054600181600116156101000203166002900480156108635780601f1061083857610100808354040283529160200191610863565b820191906000526020600020905b81548152906001019060200180831161084657829003601f168201915b505050505092509450945094509450945091939590929450565b60008060008373ffffffffffffffffffffffffffffffffffffffff1673ffffffffffffffffffffffffffffffffffffffff168152602001908152602001600020549050919050565b600080600080915083826040516020018083805190602001908083835b60208310151561090757805182526020820191506020810190506020830392506108e2565b6001836020036101000a038019825116818451168082178552505050505050905001828152602001925050506040516020818303038152906040526040518082805190602001908083835b6020831015156109775780518252602082019150602081019050602083039250610952565b6001836020036101000a03801982511681845116808217855250505050505090500191505060405180910390206001900490508180600101925050600454818115156109bf57fe5b0692505050919050565b60006001600360a0604051908101604052808981526020018881526020018781526020018681526020018581525090806001815401808255809150509060018203906000526020600020906005020160009091929091909150600082015181600001556020820151816001019080519060200190610a48929190610b74565b506040820151816002019080519060200190610a65929190610b74565b5060608201518160030155608082015181600401555050039050826000803373ffffffffffffffffffffffffffffffffffffffff1673ffffffffffffffffffffffffffffffffffffffff16815260200190815260200160002081905550336001600088815260200190815260200160002060006101000a81548173ffffffffffffffffffffffffffffffffffffffff021916908373ffffffffffffffffffffffffffffffffffffffff160217905550806002600088815260200190815260200160002081905550857f53a17e314a0d49dac5969913b5815abbebc5582aacfbbafb2536bc1f22ef6c438484604051808381526020018281526020019250505060405180910390a2505050505050565b828054600181600116156101000203166002900490600052602060002090601f016020900481019282601f10610bb557805160ff1916838001178555610be3565b82800160010185558215610be3579182015b82811115610be2578251825591602001919060010190610bc7565b5b509050610bf09190610bf4565b5090565b610c1691905b80821115610c12576000816000905550600101610bfa565b5090565b905600a165627a7a723058203470ac7d110120e0c9fcf9042dbb0cfc14d25def870478164671d2894319163c0029",
  "source": "pragma solidity ^0.4.24;\r\n\r\nimport \"./ConvertLib.sol\";\r\nimport \"./EquityTokenFactory.sol\";\r\n\r\ncontract EquityToken is EquityTokenFactory {\r\n\t\r\n\tfunction getBalanceInEth(address addr) public view returns(uint){\r\n\t\treturn ConvertLib.convert(getBalance(addr),2);\r\n\t}\r\n\r\n\tfunction getBalance(address addr) public view returns(uint) {\r\n\t\treturn OwnerAmountCount[addr];\r\n\t}\r\n\r\n\tfunction getInfosEquityToken(uint index) public view returns (uint, string, string, uint, uint) {\r\n    return (AllEquityToken[index].tokenId, AllEquityToken[index].companyName, AllEquityToken[index].tokenTicker, \r\n    AllEquityToken[index].totalamount, AllEquityToken[index].nominalvalue);\r\n  }\r\n\t\r\n}\r\n",
  "sourcePath": "/mnt/c/Solidity/solidity_eto/contracts/EquityToken.sol",
  "compiler": {
    "name": "solc",
    "version": "0.4.24+commit.e67f0147.Emscripten.clang"
  },
  "schemaVersion": "2.0.1",
  "updatedAt": "2018-09-22T15:58:09.705Z"
}