{
  "contractName": "EquityTokenTransaction",
  "abi": [
    {
      "constant": false,
      "inputs": [
        {
          "name": "_name",
          "type": "bytes32"
        },
        {
          "name": "_key",
          "type": "string"
        },
        {
          "name": "_documentHash",
          "type": "bytes32"
        }
      ],
      "name": "setDocument",
      "outputs": [],
      "payable": true,
      "stateMutability": "payable",
      "type": "function"
    },
    {
      "constant": false,
      "inputs": [
        {
          "name": "_proposal",
          "type": "uint256"
        }
      ],
      "name": "vote",
      "outputs": [],
      "payable": false,
      "stateMutability": "nonpayable",
      "type": "function"
    },
    {
      "constant": true,
      "inputs": [],
      "name": "defaultOperators",
      "outputs": [
        {
          "name": "",
          "type": "address[2]"
        }
      ],
      "payable": false,
      "stateMutability": "view",
      "type": "function"
    },
    {
      "constant": true,
      "inputs": [],
      "name": "name",
      "outputs": [
        {
          "name": "",
          "type": "bytes32"
        }
      ],
      "payable": false,
      "stateMutability": "view",
      "type": "function"
    },
    {
      "constant": false,
      "inputs": [],
      "name": "enableERC20",
      "outputs": [],
      "payable": false,
      "stateMutability": "nonpayable",
      "type": "function"
    },
    {
      "constant": false,
      "inputs": [
        {
          "name": "_spender",
          "type": "address"
        },
        {
          "name": "_txamount",
          "type": "uint256"
        }
      ],
      "name": "approve",
      "outputs": [
        {
          "name": "success_",
          "type": "bool"
        }
      ],
      "payable": false,
      "stateMutability": "nonpayable",
      "type": "function"
    },
    {
      "constant": true,
      "inputs": [
        {
          "name": "",
          "type": "uint256"
        }
      ],
      "name": "TotalDistribution",
      "outputs": [
        {
          "name": "",
          "type": "address"
        }
      ],
      "payable": false,
      "stateMutability": "view",
      "type": "function"
    },
    {
      "constant": true,
      "inputs": [],
      "name": "getInfosEquityToken",
      "outputs": [
        {
          "name": "",
          "type": "uint256"
        },
        {
          "name": "",
          "type": "bytes32"
        },
        {
          "name": "",
          "type": "bytes32"
        },
        {
          "name": "",
          "type": "uint256"
        },
        {
          "name": "",
          "type": "uint256"
        }
      ],
      "payable": false,
      "stateMutability": "view",
      "type": "function"
    },
    {
      "constant": true,
      "inputs": [],
      "name": "totalSupply",
      "outputs": [
        {
          "name": "",
          "type": "uint256"
        }
      ],
      "payable": false,
      "stateMutability": "view",
      "type": "function"
    },
    {
      "constant": true,
      "inputs": [
        {
          "name": "_addr",
          "type": "address"
        }
      ],
      "name": "getBalanceOfInEth",
      "outputs": [
        {
          "name": "",
          "type": "uint256"
        }
      ],
      "payable": false,
      "stateMutability": "view",
      "type": "function"
    },
    {
      "constant": false,
      "inputs": [
        {
          "name": "_trancheId",
          "type": "uint256"
        },
        {
          "name": "_from",
          "type": "address"
        },
        {
          "name": "_amount",
          "type": "uint256"
        },
        {
          "name": "_operatorData",
          "type": "bytes"
        }
      ],
      "name": "burnByTranche",
      "outputs": [],
      "payable": false,
      "stateMutability": "nonpayable",
      "type": "function"
    },
    {
      "constant": false,
      "inputs": [
        {
          "name": "_addr",
          "type": "address"
        }
      ],
      "name": "setCompanyOwner",
      "outputs": [],
      "payable": false,
      "stateMutability": "nonpayable",
      "type": "function"
    },
    {
      "constant": true,
      "inputs": [],
      "name": "isIssuable",
      "outputs": [
        {
          "name": "",
          "type": "bool"
        }
      ],
      "payable": false,
      "stateMutability": "view",
      "type": "function"
    },
    {
      "constant": true,
      "inputs": [],
      "name": "decimals",
      "outputs": [
        {
          "name": "",
          "type": "uint8"
        }
      ],
      "payable": false,
      "stateMutability": "view",
      "type": "function"
    },
    {
      "constant": false,
      "inputs": [
        {
          "name": "_from",
          "type": "address"
        },
        {
          "name": "_amount",
          "type": "uint256"
        },
        {
          "name": "_operatorData",
          "type": "bytes"
        }
      ],
      "name": "burn",
      "outputs": [],
      "payable": false,
      "stateMutability": "nonpayable",
      "type": "function"
    },
    {
      "constant": true,
      "inputs": [],
      "name": "isControllable",
      "outputs": [
        {
          "name": "",
          "type": "bool"
        }
      ],
      "payable": false,
      "stateMutability": "view",
      "type": "function"
    },
    {
      "constant": false,
      "inputs": [
        {
          "name": "_name",
          "type": "bytes32"
        },
        {
          "name": "_key",
          "type": "string"
        },
        {
          "name": "_documentHash",
          "type": "bytes32"
        }
      ],
      "name": "uploadDocument",
      "outputs": [],
      "payable": true,
      "stateMutability": "payable",
      "type": "function"
    },
    {
      "constant": true,
      "inputs": [],
      "name": "granularity",
      "outputs": [
        {
          "name": "",
          "type": "uint256"
        }
      ],
      "payable": false,
      "stateMutability": "view",
      "type": "function"
    },
    {
      "constant": false,
      "inputs": [
        {
          "name": "_to",
          "type": "address"
        }
      ],
      "name": "delegate",
      "outputs": [],
      "payable": false,
      "stateMutability": "nonpayable",
      "type": "function"
    },
    {
      "constant": false,
      "inputs": [],
      "name": "winningProposal",
      "outputs": [
        {
          "name": "winnerName_",
          "type": "bytes32"
        }
      ],
      "payable": false,
      "stateMutability": "nonpayable",
      "type": "function"
    },
    {
      "constant": true,
      "inputs": [],
      "name": "getProposals",
      "outputs": [
        {
          "name": "",
          "type": "bytes32[]"
        }
      ],
      "payable": false,
      "stateMutability": "view",
      "type": "function"
    },
    {
      "constant": false,
      "inputs": [
        {
          "name": "_addr",
          "type": "address"
        }
      ],
      "name": "setGovernmentAddress",
      "outputs": [],
      "payable": false,
      "stateMutability": "nonpayable",
      "type": "function"
    },
    {
      "constant": false,
      "inputs": [
        {
          "name": "_adjustedLockup",
          "type": "uint256"
        }
      ],
      "name": "setLockup",
      "outputs": [],
      "payable": false,
      "stateMutability": "nonpayable",
      "type": "function"
    },
    {
      "constant": true,
      "inputs": [],
      "name": "accreditationFee",
      "outputs": [
        {
          "name": "",
          "type": "uint256"
        }
      ],
      "payable": false,
      "stateMutability": "view",
      "type": "function"
    },
    {
      "constant": true,
      "inputs": [
        {
          "name": "_addr",
          "type": "address"
        }
      ],
      "name": "balanceOf",
      "outputs": [
        {
          "name": "",
          "type": "uint256"
        }
      ],
      "payable": false,
      "stateMutability": "view",
      "type": "function"
    },
    {
      "constant": false,
      "inputs": [
        {
          "name": "_authorizedInvestor",
          "type": "address"
        }
      ],
      "name": "authorizeRequest",
      "outputs": [],
      "payable": false,
      "stateMutability": "nonpayable",
      "type": "function"
    },
    {
      "constant": false,
      "inputs": [
        {
          "name": "_operator",
          "type": "address"
        }
      ],
      "name": "authorizeOperator",
      "outputs": [],
      "payable": false,
      "stateMutability": "nonpayable",
      "type": "function"
    },
    {
      "constant": true,
      "inputs": [],
      "name": "symbol",
      "outputs": [
        {
          "name": "",
          "type": "bytes32"
        }
      ],
      "payable": false,
      "stateMutability": "view",
      "type": "function"
    },
    {
      "constant": false,
      "inputs": [
        {
          "name": "_amount",
          "type": "uint256"
        },
        {
          "name": "_userData",
          "type": "bytes"
        },
        {
          "name": "_operatorData",
          "type": "bytes"
        }
      ],
      "name": "mint",
      "outputs": [],
      "payable": false,
      "stateMutability": "nonpayable",
      "type": "function"
    },
    {
      "constant": true,
      "inputs": [
        {
          "name": "_name",
          "type": "bytes32"
        }
      ],
      "name": "getDocument",
      "outputs": [
        {
          "name": "",
          "type": "string"
        },
        {
          "name": "",
          "type": "bytes32"
        }
      ],
      "payable": false,
      "stateMutability": "view",
      "type": "function"
    },
    {
      "constant": true,
      "inputs": [
        {
          "name": "_index",
          "type": "uint256"
        }
      ],
      "name": "getVoteCount",
      "outputs": [
        {
          "name": "voteCount_",
          "type": "uint256"
        }
      ],
      "payable": false,
      "stateMutability": "view",
      "type": "function"
    },
    {
      "constant": false,
      "inputs": [],
      "name": "stopIssuance",
      "outputs": [],
      "payable": false,
      "stateMutability": "nonpayable",
      "type": "function"
    },
    {
      "constant": false,
      "inputs": [
        {
          "name": "_message",
          "type": "string"
        }
      ],
      "name": "sendAdHocMessage",
      "outputs": [],
      "payable": false,
      "stateMutability": "nonpayable",
      "type": "function"
    },
    {
      "constant": true,
      "inputs": [],
      "name": "getAllAddressesEquityToken",
      "outputs": [
        {
          "name": "",
          "type": "address[]"
        }
      ],
      "payable": false,
      "stateMutability": "view",
      "type": "function"
    },
    {
      "constant": false,
      "inputs": [
        {
          "name": "_from",
          "type": "address"
        },
        {
          "name": "_amount",
          "type": "uint256"
        },
        {
          "name": "_operatorData",
          "type": "bytes"
        }
      ],
      "name": "operatorBurn",
      "outputs": [],
      "payable": false,
      "stateMutability": "nonpayable",
      "type": "function"
    },
    {
      "constant": true,
      "inputs": [
        {
          "name": "",
          "type": "uint256"
        }
      ],
      "name": "Proposals",
      "outputs": [
        {
          "name": "name",
          "type": "bytes32"
        },
        {
          "name": "voteCount",
          "type": "uint256"
        }
      ],
      "payable": false,
      "stateMutability": "view",
      "type": "function"
    },
    {
      "constant": true,
      "inputs": [],
      "name": "governmentAddress",
      "outputs": [
        {
          "name": "",
          "type": "address"
        }
      ],
      "payable": false,
      "stateMutability": "view",
      "type": "function"
    },
    {
      "constant": true,
      "inputs": [
        {
          "name": "_operator",
          "type": "address"
        },
        {
          "name": "_tokenHolder",
          "type": "address"
        }
      ],
      "name": "isOperatorFor",
      "outputs": [
        {
          "name": "",
          "type": "bool"
        }
      ],
      "payable": false,
      "stateMutability": "view",
      "type": "function"
    },
    {
      "constant": true,
      "inputs": [],
      "name": "getCompanyOwner",
      "outputs": [
        {
          "name": "",
          "type": "address"
        }
      ],
      "payable": false,
      "stateMutability": "view",
      "type": "function"
    },
    {
      "constant": false,
      "inputs": [
        {
          "name": "_trancheId",
          "type": "uint256"
        },
        {
          "name": "_from",
          "type": "address"
        },
        {
          "name": "_amount",
          "type": "uint256"
        },
        {
          "name": "_operatorData",
          "type": "bytes"
        }
      ],
      "name": "operatorBurnByTranche",
      "outputs": [],
      "payable": false,
      "stateMutability": "nonpayable",
      "type": "function"
    },
    {
      "constant": true,
      "inputs": [
        {
          "name": "_owner",
          "type": "address"
        },
        {
          "name": "_spender",
          "type": "address"
        }
      ],
      "name": "allowance",
      "outputs": [
        {
          "name": "remaining",
          "type": "uint256"
        }
      ],
      "payable": false,
      "stateMutability": "view",
      "type": "function"
    },
    {
      "constant": false,
      "inputs": [
        {
          "name": "_companyName",
          "type": "bytes32"
        },
        {
          "name": "_tokenTicker",
          "type": "bytes32"
        },
        {
          "name": "_granularity",
          "type": "uint256"
        }
      ],
      "name": "createToken",
      "outputs": [],
      "payable": false,
      "stateMutability": "nonpayable",
      "type": "function"
    },
    {
      "constant": true,
      "inputs": [
        {
          "name": "_addr",
          "type": "address"
        }
      ],
      "name": "tranchesOf",
      "outputs": [
        {
          "name": "",
          "type": "uint256[]"
        }
      ],
      "payable": false,
      "stateMutability": "view",
      "type": "function"
    },
    {
      "constant": false,
      "inputs": [
        {
          "name": "_companyName",
          "type": "bytes32"
        }
      ],
      "name": "clearRequest",
      "outputs": [],
      "payable": false,
      "stateMutability": "nonpayable",
      "type": "function"
    },
    {
      "constant": true,
      "inputs": [
        {
          "name": "_addr",
          "type": "address"
        },
        {
          "name": "_trancheId",
          "type": "uint256"
        }
      ],
      "name": "balanceOfByTranche",
      "outputs": [
        {
          "name": "",
          "type": "uint256"
        }
      ],
      "payable": false,
      "stateMutability": "view",
      "type": "function"
    },
    {
      "constant": false,
      "inputs": [],
      "name": "disableERC20",
      "outputs": [],
      "payable": false,
      "stateMutability": "nonpayable",
      "type": "function"
    },
    {
      "constant": false,
      "inputs": [
        {
          "name": "_operator",
          "type": "address"
        }
      ],
      "name": "revokeOperator",
      "outputs": [],
      "payable": false,
      "stateMutability": "nonpayable",
      "type": "function"
    },
    {
      "constant": false,
      "inputs": [
        {
          "name": "proposalNames",
          "type": "bytes32[]"
        }
      ],
      "name": "startBallot",
      "outputs": [],
      "payable": false,
      "stateMutability": "nonpayable",
      "type": "function"
    },
    {
      "anonymous": false,
      "inputs": [
        {
          "indexed": false,
          "name": "operator",
          "type": "address"
        },
        {
          "indexed": false,
          "name": "from",
          "type": "address"
        },
        {
          "indexed": false,
          "name": "to",
          "type": "address"
        },
        {
          "indexed": false,
          "name": "amount",
          "type": "uint256"
        },
        {
          "indexed": false,
          "name": "userData",
          "type": "bytes"
        },
        {
          "indexed": false,
          "name": "operatorData",
          "type": "bytes"
        }
      ],
      "name": "Sent",
      "type": "event"
    },
    {
      "anonymous": false,
      "inputs": [
        {
          "indexed": false,
          "name": "fromTranche",
          "type": "uint256"
        },
        {
          "indexed": false,
          "name": "operator",
          "type": "address"
        },
        {
          "indexed": false,
          "name": "from",
          "type": "address"
        },
        {
          "indexed": false,
          "name": "to",
          "type": "address"
        },
        {
          "indexed": false,
          "name": "amount",
          "type": "uint256"
        },
        {
          "indexed": false,
          "name": "userData",
          "type": "bytes"
        },
        {
          "indexed": false,
          "name": "operatorData",
          "type": "bytes"
        }
      ],
      "name": "SentByTranche",
      "type": "event"
    },
    {
      "anonymous": false,
      "inputs": [
        {
          "indexed": false,
          "name": "_message",
          "type": "string"
        },
        {
          "indexed": false,
          "name": "_company",
          "type": "address"
        }
      ],
      "name": "adHocMessage",
      "type": "event"
    },
    {
      "anonymous": false,
      "inputs": [
        {
          "indexed": false,
          "name": "winnerName",
          "type": "bytes32"
        },
        {
          "indexed": false,
          "name": "countVotes",
          "type": "uint256"
        }
      ],
      "name": "votingSuccessful",
      "type": "event"
    },
    {
      "anonymous": false,
      "inputs": [
        {
          "indexed": false,
          "name": "_from",
          "type": "address"
        },
        {
          "indexed": false,
          "name": "_to",
          "type": "address"
        },
        {
          "indexed": false,
          "name": "_txamount",
          "type": "uint256"
        }
      ],
      "name": "Approval",
      "type": "event"
    },
    {
      "anonymous": false,
      "inputs": [
        {
          "indexed": false,
          "name": "companyName",
          "type": "bytes32"
        },
        {
          "indexed": false,
          "name": "tokenTicker",
          "type": "bytes32"
        },
        {
          "indexed": false,
          "name": "companyOwner",
          "type": "address"
        }
      ],
      "name": "newTokenIssuance",
      "type": "event"
    },
    {
      "anonymous": false,
      "inputs": [
        {
          "indexed": false,
          "name": "operator",
          "type": "address"
        },
        {
          "indexed": false,
          "name": "to",
          "type": "address"
        },
        {
          "indexed": false,
          "name": "amount",
          "type": "uint256"
        },
        {
          "indexed": false,
          "name": "userData",
          "type": "bytes"
        },
        {
          "indexed": false,
          "name": "operatorData",
          "type": "bytes"
        }
      ],
      "name": "Minted",
      "type": "event"
    },
    {
      "anonymous": false,
      "inputs": [
        {
          "indexed": false,
          "name": "operator",
          "type": "address"
        },
        {
          "indexed": false,
          "name": "from",
          "type": "address"
        },
        {
          "indexed": false,
          "name": "amount",
          "type": "uint256"
        },
        {
          "indexed": false,
          "name": "operatorData",
          "type": "bytes"
        }
      ],
      "name": "Burned",
      "type": "event"
    },
    {
      "anonymous": false,
      "inputs": [
        {
          "indexed": false,
          "name": "trancheId",
          "type": "uint256"
        },
        {
          "indexed": false,
          "name": "operator",
          "type": "address"
        },
        {
          "indexed": false,
          "name": "to",
          "type": "address"
        },
        {
          "indexed": false,
          "name": "amount",
          "type": "uint256"
        },
        {
          "indexed": false,
          "name": "userData",
          "type": "bytes"
        },
        {
          "indexed": false,
          "name": "operatorData",
          "type": "bytes"
        }
      ],
      "name": "MintedByTranche",
      "type": "event"
    },
    {
      "anonymous": false,
      "inputs": [
        {
          "indexed": false,
          "name": "trancheId",
          "type": "uint256"
        },
        {
          "indexed": false,
          "name": "operator",
          "type": "address"
        },
        {
          "indexed": false,
          "name": "from",
          "type": "address"
        },
        {
          "indexed": false,
          "name": "amount",
          "type": "uint256"
        },
        {
          "indexed": false,
          "name": "operatorData",
          "type": "bytes"
        }
      ],
      "name": "BurnedByTranche",
      "type": "event"
    },
    {
      "anonymous": false,
      "inputs": [
        {
          "indexed": false,
          "name": "newShareholder",
          "type": "address"
        },
        {
          "indexed": false,
          "name": "length",
          "type": "uint256"
        }
      ],
      "name": "newShareholder",
      "type": "event"
    },
    {
      "anonymous": false,
      "inputs": [
        {
          "indexed": false,
          "name": "_from",
          "type": "address"
        },
        {
          "indexed": false,
          "name": "_to",
          "type": "address"
        },
        {
          "indexed": false,
          "name": "_txamount",
          "type": "uint256"
        }
      ],
      "name": "Transfer",
      "type": "event"
    },
    {
      "anonymous": false,
      "inputs": [
        {
          "indexed": false,
          "name": "operator",
          "type": "address"
        },
        {
          "indexed": false,
          "name": "tokenHolder",
          "type": "address"
        }
      ],
      "name": "AuthorizedOperator",
      "type": "event"
    },
    {
      "anonymous": false,
      "inputs": [
        {
          "indexed": true,
          "name": "operator",
          "type": "address"
        },
        {
          "indexed": true,
          "name": "tokenHolder",
          "type": "address"
        }
      ],
      "name": "RevokedOperator",
      "type": "event"
    },
    {
      "constant": true,
      "inputs": [
        {
          "name": "_from",
          "type": "address"
        }
      ],
      "name": "getDefaultTranches",
      "outputs": [
        {
          "name": "",
          "type": "uint256[]"
        }
      ],
      "payable": false,
      "stateMutability": "view",
      "type": "function"
    }
  ],
  "bytecode": "0x60806040526301e133806016556001601760006101000a81548160ff021916908315150217905550600060185564e8d4a51000601955670de0b6b3a7640000601b5534801561004d57600080fd5b50615c46806200005e6000396000f300608060405260043610610251576000357c0100000000000000000000000000000000000000000000000000000000900463ffffffff168063010648ca146102565780630121b93f146102a057806306e48538146102cd57806306fdde0314610320578063070c87f914610353578063095ea7b31461036a5780630b366df1146103cf5780631348bf221461043c57806318160ddd1461049357806318d46718146104be5780632a88511a146105155780632d3d3f9c146105b25780632f1cae85146105f5578063313ce5671461062457806344d17187146106555780634c783bf5146106e85780635547641b14610717578063556f0dc7146107615780635c19a95c1461078c578063609ff1bd146107cf57806362564c48146108025780636a1372191461086e5780636ae6b459146108b15780636e4a2194146108de57806370a08231146109095780638cbd5f4514610960578063959b8c3f146109a357806395d89b41146109e6578063a3cba09a14610a19578063b10d6b4114610ad2578063b2c2f2e814610b8b578063b8fe4c3f14610bcc578063c018f1d014610be3578063c073d83614610c4c578063ce30b8d914610cb8578063d1dbe7d814610d4b578063d570ab3414610d9b578063d95b637114610df2578063dad3e6dd14610e6d578063dbb8299b14610ec4578063dd62ed3e14610f61578063dfa9429214610fd8578063e3da9f8f14611021578063e53286c5146110b9578063e75b0cf5146110ea578063f3be07eb1461114b578063f922f216146111e3578063fad8b32a146111fa578063fc1865a01461123d575b600080fd5b61029e600480360381019080803560001916906020019092919080359060200190820180359060200191909192939192939080356000191690602001909291905050506112a3565b005b3480156102ac57600080fd5b506102cb6004803603810190808035906020019092919050505061140b565b005b3480156102d957600080fd5b506102e261155a565b6040518082600260200280838360005b8381101561030d5780820151818401526020810190506102f2565b5050505090500191505060405180910390f35b34801561032c57600080fd5b506103356115db565b60405180826000191660001916815260200191505060405180910390f35b34801561035f57600080fd5b506103686115e5565b005b34801561037657600080fd5b506103b5600480360381019080803573ffffffffffffffffffffffffffffffffffffffff169060200190929190803590602001909291905050506116ed565b604051808215151515815260200191505060405180910390f35b3480156103db57600080fd5b506103fa60048036038101908080359060200190929190505050611970565b604051808273ffffffffffffffffffffffffffffffffffffffff1673ffffffffffffffffffffffffffffffffffffffff16815260200191505060405180910390f35b34801561044857600080fd5b506104516119ae565b60405180868152602001856000191660001916815260200184600019166000191681526020018381526020018281526020019550505050505060405180910390f35b34801561049f57600080fd5b506104a86119d6565b6040518082815260200191505060405180910390f35b3480156104ca57600080fd5b506104ff600480360381019080803573ffffffffffffffffffffffffffffffffffffffff1690602001909291905050506119e0565b6040518082815260200191505060405180910390f35b34801561052157600080fd5b506105b060048036038101908080359060200190929190803573ffffffffffffffffffffffffffffffffffffffff16906020019092919080359060200190929190803590602001908201803590602001908080601f0160208091040260200160405190810160405280939291908181526020018383808284378201915050505050509192919290505050611aa0565b005b3480156105be57600080fd5b506105f3600480360381019080803573ffffffffffffffffffffffffffffffffffffffff169060200190929190505050611b57565b005b34801561060157600080fd5b5061060a611c86565b604051808215151515815260200191505060405180910390f35b34801561063057600080fd5b50610639611c99565b604051808260ff1660ff16815260200191505060405180910390f35b34801561066157600080fd5b506106e6600480360381019080803573ffffffffffffffffffffffffffffffffffffffff16906020019092919080359060200190929190803590602001908201803590602001908080601f0160208091040260200160405190810160405280939291908181526020018383808284378201915050505050509192919290505050611d4c565b005b3480156106f457600080fd5b506106fd611e01565b604051808215151515815260200191505060405180910390f35b61075f60048036038101908080356000191690602001909291908035906020019082018035906020019190919293919293908035600019169060200190929190505050611e6b565b005b34801561076d57600080fd5b50610776611fd3565b6040518082815260200191505060405180910390f35b34801561079857600080fd5b506107cd600480360381019080803573ffffffffffffffffffffffffffffffffffffffff169060200190929190505050611fdd565b005b3480156107db57600080fd5b506107e4612435565b60405180826000191660001916815260200191505060405180910390f35b34801561080e57600080fd5b50610817612520565b6040518080602001828103825283818151815260200191508051906020019060200280838360005b8381101561085a57808201518184015260208101905061083f565b505050509050019250505060405180910390f35b34801561087a57600080fd5b506108af600480360381019080803573ffffffffffffffffffffffffffffffffffffffff169060200190929190505050612592565b005b3480156108bd57600080fd5b506108dc6004803603810190808035906020019092919050505061276b565b005b3480156108ea57600080fd5b506108f3612860565b6040518082815260200191505060405180910390f35b34801561091557600080fd5b5061094a600480360381019080803573ffffffffffffffffffffffffffffffffffffffff169060200190929190505050612866565b6040518082815260200191505060405180910390f35b34801561096c57600080fd5b506109a1600480360381019080803573ffffffffffffffffffffffffffffffffffffffff1690602001909291905050506128ae565b005b3480156109af57600080fd5b506109e4600480360381019080803573ffffffffffffffffffffffffffffffffffffffff1690602001909291905050506129e2565b005b3480156109f257600080fd5b506109fb612bdb565b60405180826000191660001916815260200191505060405180910390f35b348015610a2557600080fd5b50610ad060048036038101908080359060200190929190803590602001908201803590602001908080601f0160208091040260200160405190810160405280939291908181526020018383808284378201915050505050509192919290803590602001908201803590602001908080601f0160208091040260200160405190810160405280939291908181526020018383808284378201915050505050509192919290505050612be5565b005b348015610ade57600080fd5b50610b0160048036038101908080356000191690602001909291905050506134a2565b60405180806020018360001916600019168152602001828103825284818151815260200191508051906020019080838360005b83811015610b4f578082015181840152602081019050610b34565b50505050905090810190601f168015610b7c5780820380516001836020036101000a031916815260200191505b50935050505060405180910390f35b348015610b9757600080fd5b50610bb6600480360381019080803590602001909291905050506136c0565b6040518082815260200191505060405180910390f35b348015610bd857600080fd5b50610be16136ed565b005b348015610bef57600080fd5b50610c4a600480360381019080803590602001908201803590602001908080601f01602080910402602001604051908101604052809392919081815260200183838082843782019150505050505091929192905050506137f5565b005b348015610c5857600080fd5b50610c616138c8565b6040518080602001828103825283818151815260200191508051906020019060200280838360005b83811015610ca4578082015181840152602081019050610c89565b505050509050019250505060405180910390f35b348015610cc457600080fd5b50610d49600480360381019080803573ffffffffffffffffffffffffffffffffffffffff16906020019092919080359060200190929190803590602001908201803590602001908080601f0160208091040260200160405190810160405280939291908181526020018383808284378201915050505050509192919290505050613956565b005b348015610d5757600080fd5b50610d7660048036038101908080359060200190929190505050613a0a565b6040518083600019166000191681526020018281526020019250505060405180910390f35b348015610da757600080fd5b50610db0613a3d565b604051808273ffffffffffffffffffffffffffffffffffffffff1673ffffffffffffffffffffffffffffffffffffffff16815260200191505060405180910390f35b348015610dfe57600080fd5b50610e53600480360381019080803573ffffffffffffffffffffffffffffffffffffffff169060200190929190803573ffffffffffffffffffffffffffffffffffffffff169060200190929190505050613a63565b604051808215151515815260200191505060405180910390f35b348015610e7957600080fd5b50610e82613b2d565b604051808273ffffffffffffffffffffffffffffffffffffffff1673ffffffffffffffffffffffffffffffffffffffff16815260200191505060405180910390f35b348015610ed057600080fd5b50610f5f60048036038101908080359060200190929190803573ffffffffffffffffffffffffffffffffffffffff16906020019092919080359060200190929190803590602001908201803590602001908080601f0160208091040260200160405190810160405280939291908181526020018383808284378201915050505050509192919290505050613b57565b005b348015610f6d57600080fd5b50610fc2600480360381019080803573ffffffffffffffffffffffffffffffffffffffff169060200190929190803573ffffffffffffffffffffffffffffffffffffffff169060200190929190505050613c0d565b6040518082815260200191505060405180910390f35b348015610fe457600080fd5b5061101f6004803603810190808035600019169060200190929190803560001916906020019092919080359060200190929190505050613d3e565b005b34801561102d57600080fd5b50611062600480360381019080803573ffffffffffffffffffffffffffffffffffffffff169060200190929190505050613f7f565b6040518080602001828103825283818151815260200191508051906020019060200280838360005b838110156110a557808201518184015260208101905061108a565b505050509050019250505060405180910390f35b3480156110c557600080fd5b506110e86004803603810190808035600019169060200190929190505050614016565b005b3480156110f657600080fd5b50611135600480360381019080803573ffffffffffffffffffffffffffffffffffffffff1690602001909291908035906020019092919050505061404d565b6040518082815260200191505060405180910390f35b34801561115757600080fd5b5061118c600480360381019080803573ffffffffffffffffffffffffffffffffffffffff1690602001909291905050506140a8565b6040518080602001828103825283818151815260200191508051906020019060200280838360005b838110156111cf5780820151818401526020810190506111b4565b505050509050019250505060405180910390f35b3480156111ef57600080fd5b506111f86140ba565b005b34801561120657600080fd5b5061123b600480360381019080803573ffffffffffffffffffffffffffffffffffffffff1690602001909291905050506141c2565b005b34801561124957600080fd5b506112a160048036038101908080359060200190820180359060200190808060200260200160405190810160405280939291908181526020018383602002808284378201915050505050509192919290505050614358565b005b601b5434141515611342576040517f08c379a00000000000000000000000000000000000000000000000000000000081526004018080602001828103825260288152602001807f6e6f7420656e6f75676820657468657220696e20666f722070617961626c652081526020017f66756e6374696f6e00000000000000000000000000000000000000000000000081525060400191505060405180910390fd5b60156060604051908101604052808660001916815260200185858080601f01602080910402602001604051908101604052809392919081815260200183838082843782019150505050505081526020018360001916815250908060018154018082558091505090600182039060005260206000209060030201600090919290919091506000820151816000019060001916905560208201518160010190805190602001906113f1929190615a93565b506040820151816002019060001916905550505050505050565b6000601e60003373ffffffffffffffffffffffffffffffffffffffff1673ffffffffffffffffffffffffffffffffffffffff16815260200190815260200160002090508060010160009054906101000a900460ff161515156114d5576040517f08c379a000000000000000000000000000000000000000000000000000000000815260040180806020018281038252600d8152602001807f416c726561647920766f7465640000000000000000000000000000000000000081525060200191505060405180910390fd5b60018160010160006101000a81548160ff0219169083151502179055508181600201819055506115328160000154601f8481548110151561151257fe5b90600052602060002090600202016001015461448090919063ffffffff16565b601f8381548110151561154157fe5b9060005260206000209060020201600101819055505050565b611562615b13565b60106002806020026040519081016040528092919082600280156115d1576020028201915b8160009054906101000a900473ffffffffffffffffffffffffffffffffffffffff1673ffffffffffffffffffffffffffffffffffffffff1681526020019060010190808311611587575b5050505050905090565b6000600a54905090565b600f60009054906101000a900473ffffffffffffffffffffffffffffffffffffffff1673ffffffffffffffffffffffffffffffffffffffff163373ffffffffffffffffffffffffffffffffffffffff161415156116d0576040517f08c379a00000000000000000000000000000000000000000000000000000000081526004018080602001828103825260298152602001807f726571756972656d656e74206f6e6c794f776e6572206f6620436f6d70616e7981526020017f206d6f646966696572000000000000000000000000000000000000000000000081525060400191505060405180910390fd5b6001601c60006101000a81548160ff021916908315150217905550565b6000816000600d54828115156116ff57fe5b0614151561179b576040517f08c379a00000000000000000000000000000000000000000000000000000000081526004018080602001828103825260338152602001807f756e61626c6520746f206d6f6469667920746f6b656e2062616c616e6365732081526020017f61742074686973206772616e756c61726974790000000000000000000000000081525060400191505060405180910390fd5b601c60009054906101000a900460ff161515611845576040517f08c379a00000000000000000000000000000000000000000000000000000000081526004018080602001828103825260258152602001807f657263323020636f6d7061746962696c69747920686173206265656e2064697381526020017f61626c656400000000000000000000000000000000000000000000000000000081525060400191505060405180910390fd5b82600660003373ffffffffffffffffffffffffffffffffffffffff1673ffffffffffffffffffffffffffffffffffffffff16815260200190815260200160002060008673ffffffffffffffffffffffffffffffffffffffff1673ffffffffffffffffffffffffffffffffffffffff168152602001908152602001600020819055507f8c5be1e5ebec7d5bd14f71427d1e84f3dd0314c0f7b2291e5b200ac8c7c3b925338585604051808473ffffffffffffffffffffffffffffffffffffffff1673ffffffffffffffffffffffffffffffffffffffff1681526020018373ffffffffffffffffffffffffffffffffffffffff1673ffffffffffffffffffffffffffffffffffffffff168152602001828152602001935050505060405180910390a1600191505092915050565b60148181548110151561197f57fe5b906000526020600020016000915054906101000a900473ffffffffffffffffffffffffffffffffffffffff1681565b6000806000806000600954600a54600b54600d54600e54945094509450945094509091929394565b6000600e54905090565b600073__ConvertLib____________________________6396e4ee3d611a0584612866565b60036040518363ffffffff167c0100000000000000000000000000000000000000000000000000000000028152600401808381526020018281526020019250505060206040518083038186803b158015611a5e57600080fd5b505af4158015611a72573d6000803e3d6000fd5b505050506040513d6020811015611a8857600080fd5b81019080805190602001909291905050509050919050565b828073ffffffffffffffffffffffffffffffffffffffff163373ffffffffffffffffffffffffffffffffffffffff16141515611b44576040517f08c379a00000000000000000000000000000000000000000000000000000000081526004018080602001828103825260158152602001807f726571756972656d656e74206f6e6c794f776e6572000000000000000000000081525060200191505060405180910390fd5b611b50858585856144a1565b5050505050565b600f60009054906101000a900473ffffffffffffffffffffffffffffffffffffffff1673ffffffffffffffffffffffffffffffffffffffff163373ffffffffffffffffffffffffffffffffffffffff16141515611c42576040517f08c379a00000000000000000000000000000000000000000000000000000000081526004018080602001828103825260298152602001807f726571756972656d656e74206f6e6c794f776e6572206f6620436f6d70616e7981526020017f206d6f646966696572000000000000000000000000000000000000000000000081525060400191505060405180910390fd5b80600f60006101000a81548173ffffffffffffffffffffffffffffffffffffffff021916908373ffffffffffffffffffffffffffffffffffffffff16021790555050565b601760009054906101000a900460ff1681565b6000601c60009054906101000a900460ff161515611d45576040517f08c379a00000000000000000000000000000000000000000000000000000000081526004018080602001828103825260258152602001807f657263323020636f6d7061746962696c69747920686173206265656e2064697381526020017f61626c656400000000000000000000000000000000000000000000000000000081525060400191505060405180910390fd5b6012905090565b828073ffffffffffffffffffffffffffffffffffffffff163373ffffffffffffffffffffffffffffffffffffffff16141515611df0576040517f08c379a00000000000000000000000000000000000000000000000000000000081526004018080602001828103825260158152602001807f726571756972656d656e74206f6e6c794f776e6572000000000000000000000081525060200191505060405180910390fd5b611dfb848484614a7c565b50505050565b60008073ffffffffffffffffffffffffffffffffffffffff16601a60009054906101000a900473ffffffffffffffffffffffffffffffffffffffff1673ffffffffffffffffffffffffffffffffffffffff16141515611e635760009050611e68565b600190505b90565b601b5434141515611f0a576040517f08c379a00000000000000000000000000000000000000000000000000000000081526004018080602001828103825260288152602001807f6e6f7420656e6f75676820657468657220696e20666f722070617961626c652081526020017f66756e6374696f6e00000000000000000000000000000000000000000000000081525060400191505060405180910390fd5b60156060604051908101604052808660001916815260200185858080601f0160208091040260200160405190810160405280939291908181526020018383808284378201915050505050508152602001836000191681525090806001815401808255809150509060018203906000526020600020906003020160009091929091909150600082015181600001906000191690556020820151816001019080519060200190611fb9929190615a93565b506040820151816002019060001916905550505050505050565b6000600d54905090565b600080601e60003373ffffffffffffffffffffffffffffffffffffffff1673ffffffffffffffffffffffffffffffffffffffff16815260200190815260200160002091508160010160009054906101000a900460ff161515156120a8576040517f08c379a00000000000000000000000000000000000000000000000000000000081526004018080602001828103825260118152602001807f596f7520616c726561647920766f74656400000000000000000000000000000081525060200191505060405180910390fd5b3373ffffffffffffffffffffffffffffffffffffffff168373ffffffffffffffffffffffffffffffffffffffff161415151561214c576040517f08c379a000000000000000000000000000000000000000000000000000000000815260040180806020018281038252601d8152602001807f53656c662d64656c65676174696f6e20697320646973616c6c6f77656400000081525060200191505060405180910390fd5b5b600073ffffffffffffffffffffffffffffffffffffffff16601e60008573ffffffffffffffffffffffffffffffffffffffff1673ffffffffffffffffffffffffffffffffffffffff16815260200190815260200160002060010160019054906101000a900473ffffffffffffffffffffffffffffffffffffffff1673ffffffffffffffffffffffffffffffffffffffff161415156122f357601e60008473ffffffffffffffffffffffffffffffffffffffff1673ffffffffffffffffffffffffffffffffffffffff16815260200190815260200160002060010160019054906101000a900473ffffffffffffffffffffffffffffffffffffffff1692503373ffffffffffffffffffffffffffffffffffffffff168373ffffffffffffffffffffffffffffffffffffffff16141515156122ee576040517f08c379a000000000000000000000000000000000000000000000000000000000815260040180806020018281038252601a8152602001807f466f756e642073656c662d64656c65676174696f6e206c6f6f7000000000000081525060200191505060405180910390fd5b61214d565b60018260010160006101000a81548160ff021916908315150217905550828260010160016101000a81548173ffffffffffffffffffffffffffffffffffffffff021916908373ffffffffffffffffffffffffffffffffffffffff160217905550601e60008473ffffffffffffffffffffffffffffffffffffffff1673ffffffffffffffffffffffffffffffffffffffff16815260200190815260200160002090508060010160009054906101000a900460ff1615612413576123e68260000154601f83600201548154811015156123c657fe5b90600052602060002090600202016001015461448090919063ffffffff16565b601f82600201548154811015156123f957fe5b906000526020600020906002020160010181905550612430565b61242e8260000154826000015461448090919063ffffffff16565b505b505050565b60008060008060009250600091505b601f805490508210156124ad5782601f8381548110151561246157fe5b90600052602060002090600202016001015411156124a057601f8281548110151561248857fe5b90600052602060002090600202016001015492508190505b8180600101925050612444565b601f818154811015156124bc57fe5b90600052602060002090600202016000015493507f64cc588a379a8af63188f3443e70b4fa4e3cdad188fd65e3b7b283c2084cddc784846040518083600019166000191681526020018281526020019250505060405180910390a183935050505090565b60608060008090505b601f8054905081101561258a57601f8181548110151561254557fe5b906000526020600020906002020160000154828281518110151561256557fe5b9060200190602002019060001916908160001916815250508080600101915050612529565b819250505090565b600f60009054906101000a900473ffffffffffffffffffffffffffffffffffffffff1673ffffffffffffffffffffffffffffffffffffffff163373ffffffffffffffffffffffffffffffffffffffff1614151561267d576040517f08c379a00000000000000000000000000000000000000000000000000000000081526004018080602001828103825260298152602001807f726571756972656d656e74206f6e6c794f776e6572206f6620436f6d70616e7981526020017f206d6f646966696572000000000000000000000000000000000000000000000081525060400191505060405180910390fd5b6001151561268a82615438565b1515141515612727576040517f08c379a00000000000000000000000000000000000000000000000000000000081526004018080602001828103825260308152602001807f5f61646472206164647265737320646f6573206e6f74206578697374206f722081526020017f69732030783020286275726e696e67290000000000000000000000000000000081525060400191505060405180910390fd5b80601a60006101000a81548173ffffffffffffffffffffffffffffffffffffffff021916908373ffffffffffffffffffffffffffffffffffffffff16021790555050565b600f60009054906101000a900473ffffffffffffffffffffffffffffffffffffffff1673ffffffffffffffffffffffffffffffffffffffff163373ffffffffffffffffffffffffffffffffffffffff16141515612856576040517f08c379a00000000000000000000000000000000000000000000000000000000081526004018080602001828103825260298152602001807f726571756972656d656e74206f6e6c794f776e6572206f6620436f6d70616e7981526020017f206d6f646966696572000000000000000000000000000000000000000000000081525060400191505060405180910390fd5b8060168190555050565b601b5481565b60008060008373ffffffffffffffffffffffffffffffffffffffff1673ffffffffffffffffffffffffffffffffffffffff168152602001908152602001600020549050919050565b6002600760008373ffffffffffffffffffffffffffffffffffffffff1673ffffffffffffffffffffffffffffffffffffffff1681526020019081526020016000205410151561298b576040517f08c379a00000000000000000000000000000000000000000000000000000000081526004018080602001828103825260298152602001807f696e766573746f7220616c726561647920617574686f72697a656420616e206181526020017f636372656469746564000000000000000000000000000000000000000000000081525060400191505060405180910390fd5b6129de6001600760008473ffffffffffffffffffffffffffffffffffffffff1673ffffffffffffffffffffffffffffffffffffffff1681526020019081526020016000205461448090919063ffffffff16565b5050565b3373ffffffffffffffffffffffffffffffffffffffff168173ffffffffffffffffffffffffffffffffffffffff1614151515612aac576040517f08c379a00000000000000000000000000000000000000000000000000000000081526004018080602001828103825260248152602001807f6d73672e73656e6465722063616e6e6f7420617574686f72697a65642068696d81526020017f73656c660000000000000000000000000000000000000000000000000000000081525060400191505060405180910390fd5b6001601d60008373ffffffffffffffffffffffffffffffffffffffff1673ffffffffffffffffffffffffffffffffffffffff16815260200190815260200160002060003373ffffffffffffffffffffffffffffffffffffffff1673ffffffffffffffffffffffffffffffffffffffff16815260200190815260200160002060006101000a81548160ff0219169083151502179055507ff4caeb2d6ca8932a215a353d0703c326ec2d81fc68170f320eb2ab49e9df61f98133604051808373ffffffffffffffffffffffffffffffffffffffff1673ffffffffffffffffffffffffffffffffffffffff1681526020018273ffffffffffffffffffffffffffffffffffffffff1673ffffffffffffffffffffffffffffffffffffffff1681526020019250505060405180910390a150565b6000600b54905090565b6000836000600d5482811515612bf757fe5b06141515612c93576040517f08c379a00000000000000000000000000000000000000000000000000000000081526004018080602001828103825260338152602001807f756e61626c6520746f206d6f6469667920746f6b656e2062616c616e6365732081526020017f61742074686973206772616e756c61726974790000000000000000000000000081525060400191505060405180910390fd5b600f60009054906101000a900473ffffffffffffffffffffffffffffffffffffffff1673ffffffffffffffffffffffffffffffffffffffff163373ffffffffffffffffffffffffffffffffffffffff16141515612d7e576040517f08c379a00000000000000000000000000000000000000000000000000000000081526004018080602001828103825260298152602001807f726571756972656d656e74206f6e6c794f776e6572206f6620436f6d70616e7981526020017f206d6f646966696572000000000000000000000000000000000000000000000081525060400191505060405180910390fd5b6001151560086000600a546000191660001916815260200190815260200160002060009054906101000a900460ff161515141515612e4a576040517f08c379a000000000000000000000000000000000000000000000000000000000815260040180806020018281038252602e8152602001807f7265717569726573206368616e676564207374617475732066726f6d2070656e81526020017f64696e6720746f2061637469766500000000000000000000000000000000000081525060400191505060405180910390fd5b60011515601760009054906101000a900460ff161515141515612ed5576040517f08c379a000000000000000000000000000000000000000000000000000000000815260040180806020018281038252601a8152602001807f746f6b656e2069737375616e63652069732066696e697368656400000000000081525060200191505060405180910390fd5b612ee0600a54615474565b9150606060405190810160405280868152602001428152602001600081525060036000848152602001908152602001600020600082015181600001556020820151816001015560408201518160020155905050612f4885600e5461448090919063ffffffff16565b600e81905550612f9f856000803373ffffffffffffffffffffffffffffffffffffffff1673ffffffffffffffffffffffffffffffffffffffff1681526020019081526020016000205461448090919063ffffffff16565b6000803373ffffffffffffffffffffffffffffffffffffffff1673ffffffffffffffffffffffffffffffffffffffff1681526020019081526020016000208190555061304485600160003373ffffffffffffffffffffffffffffffffffffffff1673ffffffffffffffffffffffffffffffffffffffff16815260200190815260200160002060008581526020019081526020016000205461448090919063ffffffff16565b600160003373ffffffffffffffffffffffffffffffffffffffff1673ffffffffffffffffffffffffffffffffffffffff168152602001908152602001600020600084815260200190815260200160002081905550600260003373ffffffffffffffffffffffffffffffffffffffff1673ffffffffffffffffffffffffffffffffffffffff1681526020019081526020016000208290806001815401808255809150509060018203906000526020600020016000909192909190915055507f2fe5be0146f74c5bce36c0b80911af6c7d86ff27e89d5cfa61fc681327954e5d3333878787604051808673ffffffffffffffffffffffffffffffffffffffff1673ffffffffffffffffffffffffffffffffffffffff1681526020018573ffffffffffffffffffffffffffffffffffffffff1673ffffffffffffffffffffffffffffffffffffffff1681526020018481526020018060200180602001838103835285818151815260200191508051906020019080838360005b838110156131d55780820151818401526020810190506131ba565b50505050905090810190601f1680156132025780820380516001836020036101000a031916815260200191505b50838103825284818151815260200191508051906020019080838360005b8381101561323b578082015181840152602081019050613220565b50505050905090810190601f1680156132685780820380516001836020036101000a031916815260200191505b5097505050505050505060405180910390a17fc8d64290e05791ddb8e7c779289e066d776a0630d8fb0adb646a94b9ae85b772823333888888604051808781526020018673ffffffffffffffffffffffffffffffffffffffff1673ffffffffffffffffffffffffffffffffffffffff1681526020018573ffffffffffffffffffffffffffffffffffffffff1673ffffffffffffffffffffffffffffffffffffffff1681526020018481526020018060200180602001838103835285818151815260200191508051906020019080838360005b8381101561335557808201518184015260208101905061333a565b50505050905090810190601f1680156133825780820380516001836020036101000a031916815260200191505b50838103825284818151815260200191508051906020019080838360005b838110156133bb5780820151818401526020810190506133a0565b50505050905090810190601f1680156133e85780820380516001836020036101000a031916815260200191505b509850505050505050505060405180910390a1601c60009054906101000a900460ff161561349b577fddf252ad1be2c89b69c2b068fc378daa952ba7f163c4a11628f55a4df523b3ef60003387604051808473ffffffffffffffffffffffffffffffffffffffff1681526020018373ffffffffffffffffffffffffffffffffffffffff1673ffffffffffffffffffffffffffffffffffffffff168152602001828152602001935050505060405180910390a15b5050505050565b60606000806002600760003373ffffffffffffffffffffffffffffffffffffffff1673ffffffffffffffffffffffffffffffffffffffff16815260200190815260200160002054141515613584576040517f08c379a00000000000000000000000000000000000000000000000000000000081526004018080602001828103825260278152602001807f7265717569726573206164766f6361746520746f2073656520646f776e6c6f6181526020017f642066696c65730000000000000000000000000000000000000000000000000081525060400191505060405180910390fd5b600090505b6015805490508110156136b95783600019166015828154811015156135aa57fe5b9060005260206000209060030201600001546000191614156136ac576015818154811015156135d557fe5b90600052602060002090600302016001016015828154811015156135f557fe5b906000526020600020906003020160020154818054600181600116156101000203166002900480601f01602080910402602001604051908101604052809291908181526020018280546001816001161561010002031660029004801561369c5780601f106136715761010080835404028352916020019161369c565b820191906000526020600020905b81548152906001019060200180831161367f57829003601f168201915b50505050509150925092506136ba565b8080600101915050613589565b5b50915091565b6000601f828154811015156136d157fe5b9060005260206000209060020201600101549050809050919050565b600f60009054906101000a900473ffffffffffffffffffffffffffffffffffffffff1673ffffffffffffffffffffffffffffffffffffffff163373ffffffffffffffffffffffffffffffffffffffff161415156137d8576040517f08c379a00000000000000000000000000000000000000000000000000000000081526004018080602001828103825260298152602001807f726571756972656d656e74206f6e6c794f776e6572206f6620436f6d70616e7981526020017f206d6f646966696572000000000000000000000000000000000000000000000081525060400191505060405180910390fd5b6000601760006101000a81548160ff021916908315150217905550565b7f075025aecd552649e85b634e268857a6a478f698de831a3b01d0055e73888d20813360405180806020018373ffffffffffffffffffffffffffffffffffffffff1673ffffffffffffffffffffffffffffffffffffffff168152602001828103825284818151815260200191508051906020019080838360005b8381101561388a57808201518184015260208101905061386f565b50505050905090810190601f1680156138b75780820380516001836020036101000a031916815260200191505b50935050505060405180910390a150565b6060601480548060200260200160405190810160405280929190818152602001828054801561394c57602002820191906000526020600020905b8160009054906101000a900473ffffffffffffffffffffffffffffffffffffffff1673ffffffffffffffffffffffffffffffffffffffff1681526020019060010190808311613902575b5050505050905090565b6139603384613a63565b15156139fa576040517f08c379a00000000000000000000000000000000000000000000000000000000081526004018080602001828103825260388152602001807f73656e646572206973206e6f7420617574686f72697a656420746f206f70657281526020017f6174652077697468205f66726f6d2773206163636f756e74000000000000000081525060400191505060405180910390fd5b613a05838383614a7c565b505050565b601f81815481101515613a1957fe5b90600052602060002090600202016000915090508060000154908060010154905082565b601a60009054906101000a900473ffffffffffffffffffffffffffffffffffffffff1681565b60008173ffffffffffffffffffffffffffffffffffffffff168373ffffffffffffffffffffffffffffffffffffffff161480613b255750601d60008473ffffffffffffffffffffffffffffffffffffffff1673ffffffffffffffffffffffffffffffffffffffff16815260200190815260200160002060008373ffffffffffffffffffffffffffffffffffffffff1673ffffffffffffffffffffffffffffffffffffffff16815260200190815260200160002060009054906101000a900460ff165b905092915050565b6000600f60009054906101000a900473ffffffffffffffffffffffffffffffffffffffff16905090565b613b613384613a63565b1515613bfb576040517f08c379a00000000000000000000000000000000000000000000000000000000081526004018080602001828103825260388152602001807f73656e646572206973206e6f7420617574686f72697a656420746f206f70657281526020017f6174652077697468205f66726f6d2773206163636f756e74000000000000000081525060400191505060405180910390fd5b613c07848484846144a1565b50505050565b6000601c60009054906101000a900460ff161515613cb9576040517f08c379a00000000000000000000000000000000000000000000000000000000081526004018080602001828103825260258152602001807f657263323020636f6d7061746962696c69747920686173206265656e2064697381526020017f61626c656400000000000000000000000000000000000000000000000000000081525060400191505060405180910390fd5b600660008473ffffffffffffffffffffffffffffffffffffffff1673ffffffffffffffffffffffffffffffffffffffff16815260200190815260200160002060008373ffffffffffffffffffffffffffffffffffffffff1673ffffffffffffffffffffffffffffffffffffffff16815260200190815260200160002054905092915050565b60018110151515613d4b57fe5b613d5483615474565b60098190555082600a816000191690555081600b81600019169055507f4100000000000000000000000000000000000000000000000000000000000000600c60006101000a81548160ff02191690837f0100000000000000000000000000000000000000000000000000000000000000900402179055506000600e8190555080600d819055506001601c60006101000a81548160ff02191690831515021790555033600f60006101000a81548173ffffffffffffffffffffffffffffffffffffffff021916908373ffffffffffffffffffffffffffffffffffffffff16021790555060408051908101604052803373ffffffffffffffffffffffffffffffffffffffff1673ffffffffffffffffffffffffffffffffffffffff168152602001601a60009054906101000a900473ffffffffffffffffffffffffffffffffffffffff1673ffffffffffffffffffffffffffffffffffffffff1673ffffffffffffffffffffffffffffffffffffffff168152506010906002613ed5929190615b35565b50612710601281905550620f4240601381905550613ef23361553e565b507f9ae979c8e1266c2f250aee2ce3946e415bd909a9cf1821aab705834932fd12ad600a54600b543360405180846000191660001916815260200183600019166000191681526020018273ffffffffffffffffffffffffffffffffffffffff1673ffffffffffffffffffffffffffffffffffffffff168152602001935050505060405180910390a1505050565b6060600260008373ffffffffffffffffffffffffffffffffffffffff1673ffffffffffffffffffffffffffffffffffffffff16815260200190815260200160002080548060200260200160405190810160405280929190818152602001828054801561400a57602002820191906000526020600020905b815481526020019060010190808311613ff6575b50505050509050919050565b600160086000836000191660001916815260200190815260200160002060006101000a81548160ff02191690831515021790555050565b6000600160008473ffffffffffffffffffffffffffffffffffffffff1673ffffffffffffffffffffffffffffffffffffffff168152602001908152602001600020600083815260200190815260200160002054905092915050565b60606140b382613f7f565b9050919050565b600f60009054906101000a900473ffffffffffffffffffffffffffffffffffffffff1673ffffffffffffffffffffffffffffffffffffffff163373ffffffffffffffffffffffffffffffffffffffff161415156141a5576040517f08c379a00000000000000000000000000000000000000000000000000000000081526004018080602001828103825260298152602001807f726571756972656d656e74206f6e6c794f776e6572206f6620436f6d70616e7981526020017f206d6f646966696572000000000000000000000000000000000000000000000081525060400191505060405180910390fd5b6000601c60006101000a81548160ff021916908315150217905550565b3373ffffffffffffffffffffffffffffffffffffffff168173ffffffffffffffffffffffffffffffffffffffff1614151515614266576040517f08c379a00000000000000000000000000000000000000000000000000000000081526004018080602001828103825260208152602001807f6d73672e73656e6465722063616e6e6f74207265766f6b652068696d73656c6681525060200191505060405180910390fd5b6000601d60008373ffffffffffffffffffffffffffffffffffffffff1673ffffffffffffffffffffffffffffffffffffffff16815260200190815260200160002060003373ffffffffffffffffffffffffffffffffffffffff1673ffffffffffffffffffffffffffffffffffffffff16815260200190815260200160002060006101000a81548160ff0219169083151502179055503373ffffffffffffffffffffffffffffffffffffffff168173ffffffffffffffffffffffffffffffffffffffff167f50546e66e5f44d728365dc3908c63bc5cfeeab470722c1677e3073a6ac294aa160405160405180910390a350565b60008090505b81518110156143ef57601f6040805190810160405280848481518110151561438257fe5b906020019060200201516000191681526020016000815250908060018154018082558091505090600182039060005260206000209060020201600090919290919091506000820151816000019060001916905560208201518160010155505050808060010191505061435e565b6000803373ffffffffffffffffffffffffffffffffffffffff1673ffffffffffffffffffffffffffffffffffffffff16815260200190815260200160002054601e60003373ffffffffffffffffffffffffffffffffffffffff1673ffffffffffffffffffffffffffffffffffffffff1681526020019081526020016000206000018190555061447c6156d9565b5050565b600080828401905083811015151561449757600080fd5b8091505092915050565b816000600d54828115156144b157fe5b0614151561454d576040517f08c379a00000000000000000000000000000000000000000000000000000000081526004018080602001828103825260338152602001807f756e61626c6520746f206d6f6469667920746f6b656e2062616c616e6365732081526020017f61742074686973206772616e756c61726974790000000000000000000000000081525060400191505060405180910390fd5b82600160008673ffffffffffffffffffffffffffffffffffffffff1673ffffffffffffffffffffffffffffffffffffffff1681526020019081526020016000206000878152602001908152602001600020541015151561463b576040517f08c379a000000000000000000000000000000000000000000000000000000000815260040180806020018281038252602b8152602001807f6e6f7420656e6f756768207472616e6368652d73706563696669632066756e6481526020017f696e6720746f206275726e00000000000000000000000000000000000000000081525060400191505060405180910390fd5b61465083600e5461590d90919063ffffffff16565b600e819055506146a7836000808773ffffffffffffffffffffffffffffffffffffffff1673ffffffffffffffffffffffffffffffffffffffff1681526020019081526020016000205461590d90919063ffffffff16565b6000808673ffffffffffffffffffffffffffffffffffffffff1673ffffffffffffffffffffffffffffffffffffffff1681526020019081526020016000208190555061474c83600160008773ffffffffffffffffffffffffffffffffffffffff1673ffffffffffffffffffffffffffffffffffffffff16815260200190815260200160002060008881526020019081526020016000205461590d90919063ffffffff16565b507fa1c85a30dec08aa526dc5a3ca33087f723335ec5c1614ecf0036da150a6971c88533868686604051808681526020018573ffffffffffffffffffffffffffffffffffffffff1673ffffffffffffffffffffffffffffffffffffffff1681526020018473ffffffffffffffffffffffffffffffffffffffff1673ffffffffffffffffffffffffffffffffffffffff16815260200183815260200180602001828103825283818151815260200191508051906020019080838360005b83811015614823578082015181840152602081019050614808565b50505050905090810190601f1680156148505780820380516001836020036101000a031916815260200191505b50965050505050505060405180910390a17fea01d24fee0ecbb349ab449ea41d11599fd91ba758653579b30d38d63e2adedb33858585604051808573ffffffffffffffffffffffffffffffffffffffff1673ffffffffffffffffffffffffffffffffffffffff1681526020018473ffffffffffffffffffffffffffffffffffffffff1673ffffffffffffffffffffffffffffffffffffffff16815260200183815260200180602001828103825283818151815260200191508051906020019080838360005b83811015614930578082015181840152602081019050614915565b50505050905090810190601f16801561495d5780820380516001836020036101000a031916815260200191505b509550505050505060405180910390a160008060008673ffffffffffffffffffffffffffffffffffffffff1673ffffffffffffffffffffffffffffffffffffffff1681526020019081526020016000205414156149bf576149bd8461592e565b505b601c60009054906101000a900460ff1615614a75577fddf252ad1be2c89b69c2b068fc378daa952ba7f163c4a11628f55a4df523b3ef84600085604051808473ffffffffffffffffffffffffffffffffffffffff1673ffffffffffffffffffffffffffffffffffffffff1681526020018373ffffffffffffffffffffffffffffffffffffffff1673ffffffffffffffffffffffffffffffffffffffff168152602001828152602001935050505060405180910390a15b5050505050565b6000806060600080866000600d5482811515614a9457fe5b06141515614b30576040517f08c379a00000000000000000000000000000000000000000000000000000000081526004018080602001828103825260338152602001807f756e61626c6520746f206d6f6469667920746f6b656e2062616c616e6365732081526020017f61742074686973206772616e756c61726974790000000000000000000000000081525060400191505060405180910390fd5b876000808b73ffffffffffffffffffffffffffffffffffffffff1673ffffffffffffffffffffffffffffffffffffffff1681526020019081526020016000205410151515614be6576040517f08c379a000000000000000000000000000000000000000000000000000000000815260040180806020018281038252601a8152602001807f6e6f7420656e6f7567682066756e64696e6720746f206275726e00000000000081525060200191505060405180910390fd5b60009550600194505b8786101561521957600260008a73ffffffffffffffffffffffffffffffffffffffff1673ffffffffffffffffffffffffffffffffffffffff168152602001908152602001600020805480602002602001604051908101604052809291908181526020018280548015614c8057602002820191906000526020600020905b815481526020019060010190808311614c6c575b505050505093508385855103815181101515614c9857fe5b906020019060200201519250614cb7868961590d90919063ffffffff16565b600160008b73ffffffffffffffffffffffffffffffffffffffff1673ffffffffffffffffffffffffffffffffffffffff168152602001908152602001600020600085815260200190815260200160002054101515614f7057614d36614d25878a61590d90919063ffffffff16565b600e5461590d90919063ffffffff16565b600e81905550614d9f614d52878a61590d90919063ffffffff16565b6000808c73ffffffffffffffffffffffffffffffffffffffff1673ffffffffffffffffffffffffffffffffffffffff1681526020019081526020016000205461590d90919063ffffffff16565b6000808b73ffffffffffffffffffffffffffffffffffffffff1673ffffffffffffffffffffffffffffffffffffffff16815260200190815260200160002081905550614e56614df7878a61590d90919063ffffffff16565b600160008c73ffffffffffffffffffffffffffffffffffffffff1673ffffffffffffffffffffffffffffffffffffffff16815260200190815260200160002060008681526020019081526020016000205461590d90919063ffffffff16565b507fa1c85a30dec08aa526dc5a3ca33087f723335ec5c1614ecf0036da150a6971c883338b8b8b604051808681526020018573ffffffffffffffffffffffffffffffffffffffff1673ffffffffffffffffffffffffffffffffffffffff1681526020018473ffffffffffffffffffffffffffffffffffffffff1673ffffffffffffffffffffffffffffffffffffffff16815260200183815260200180602001828103825283818151815260200191508051906020019080838360005b83811015614f2d578082015181840152602081019050614f12565b50505050905090810190601f168015614f5a5780820380516001836020036101000a031916815260200191505b50965050505050505060405180910390a1615219565b600160008a73ffffffffffffffffffffffffffffffffffffffff1673ffffffffffffffffffffffffffffffffffffffff1681526020019081526020016000206000848152602001908152602001600020549150614fd882600e5461590d90919063ffffffff16565b600e8190555061502f826000808c73ffffffffffffffffffffffffffffffffffffffff1673ffffffffffffffffffffffffffffffffffffffff1681526020019081526020016000205461590d90919063ffffffff16565b6000808b73ffffffffffffffffffffffffffffffffffffffff1673ffffffffffffffffffffffffffffffffffffffff168152602001908152602001600020819055506150d482600160008c73ffffffffffffffffffffffffffffffffffffffff1673ffffffffffffffffffffffffffffffffffffffff16815260200190815260200160002060008681526020019081526020016000205461590d90919063ffffffff16565b506150e8828761448090919063ffffffff16565b95506150fe60018661448090919063ffffffff16565b94507fa1c85a30dec08aa526dc5a3ca33087f723335ec5c1614ecf0036da150a6971c883338b8b8b604051808681526020018573ffffffffffffffffffffffffffffffffffffffff1673ffffffffffffffffffffffffffffffffffffffff1681526020018473ffffffffffffffffffffffffffffffffffffffff1673ffffffffffffffffffffffffffffffffffffffff16815260200183815260200180602001828103825283818151815260200191508051906020019080838360005b838110156151d65780820151818401526020810190506151bb565b50505050905090810190601f1680156152035780820380516001836020036101000a031916815260200191505b50965050505050505060405180910390a1614bef565b7fea01d24fee0ecbb349ab449ea41d11599fd91ba758653579b30d38d63e2adedb338a8a8a604051808573ffffffffffffffffffffffffffffffffffffffff1673ffffffffffffffffffffffffffffffffffffffff1681526020018473ffffffffffffffffffffffffffffffffffffffff1673ffffffffffffffffffffffffffffffffffffffff16815260200183815260200180602001828103825283818151815260200191508051906020019080838360005b838110156152e85780820151818401526020810190506152cd565b50505050905090810190601f1680156153155780820380516001836020036101000a031916815260200191505b509550505050505060405180910390a160008060008b73ffffffffffffffffffffffffffffffffffffffff1673ffffffffffffffffffffffffffffffffffffffff168152602001908152602001600020541415615377576153758961592e565b505b601c60009054906101000a900460ff161561542d577fddf252ad1be2c89b69c2b068fc378daa952ba7f163c4a11628f55a4df523b3ef8960008a604051808473ffffffffffffffffffffffffffffffffffffffff1673ffffffffffffffffffffffffffffffffffffffff1681526020018373ffffffffffffffffffffffffffffffffffffffff1673ffffffffffffffffffffffffffffffffffffffff168152602001828152602001935050505060405180910390a15b505050505050505050565b60008060008373ffffffffffffffffffffffffffffffffffffffff161415615463576000915061546e565b823b90506000811491505b50919050565b60008082601854604051602001808360001916600019168152602001828152602001925050506040516020818303038152906040526040518082805190602001908083835b6020831015156154de57805182526020820191506020810190506020830392506154b9565b6001836020036101000a0380198251168184511680821785525050505050509050019150506040518091039020600190049050615527600160185461448090919063ffffffff16565b506019548181151561553557fe5b06915050919050565b60008061554a836159b9565b1561555857600091506156d3565b600160148490806001815401808255809150509060018203906000526020600020016000909192909190916101000a81548173ffffffffffffffffffffffffffffffffffffffff021916908373ffffffffffffffffffffffffffffffffffffffff16021790555003905080600560008573ffffffffffffffffffffffffffffffffffffffff1673ffffffffffffffffffffffffffffffffffffffff168152602001908152602001600020819055506001600460008573ffffffffffffffffffffffffffffffffffffffff1673ffffffffffffffffffffffffffffffffffffffff16815260200190815260200160002060006101000a81548160ff0219169083151502179055507f33dda5dca20a95bec563f7c6e810061b24d464536df0636a17d2d041b8b0c66d83601480549050604051808373ffffffffffffffffffffffffffffffffffffffff1673ffffffffffffffffffffffffffffffffffffffff1681526020018281526020019250505060405180910390a1600191505b50919050565b6000600190505b60148054905081101561590a576000601e600060148481548110151561570257fe5b9060005260206000200160009054906101000a900473ffffffffffffffffffffffffffffffffffffffff1673ffffffffffffffffffffffffffffffffffffffff1673ffffffffffffffffffffffffffffffffffffffff16815260200190815260200160002060000154141515615806576040517f08c379a000000000000000000000000000000000000000000000000000000000815260040180806020018281038252602a8152602001807f54686520726967687420746f20766f746520616c72656164792068617320626581526020017f656e206772616e7465640000000000000000000000000000000000000000000081525060400191505060405180910390fd5b60008060148381548110151561581857fe5b9060005260206000200160009054906101000a900473ffffffffffffffffffffffffffffffffffffffff1673ffffffffffffffffffffffffffffffffffffffff1673ffffffffffffffffffffffffffffffffffffffff16815260200190815260200160002054601e600060148481548110151561589157fe5b9060005260206000200160009054906101000a900473ffffffffffffffffffffffffffffffffffffffff1673ffffffffffffffffffffffffffffffffffffffff1673ffffffffffffffffffffffffffffffffffffffff1681526020019081526020016000206000018190555080806001019150506156e0565b50565b60008083831115151561591f57600080fd5b82840390508091505092915050565b600080600560008473ffffffffffffffffffffffffffffffffffffffff1673ffffffffffffffffffffffffffffffffffffffff16815260200190815260200160002054905060148181548110151561598257fe5b9060005260206000200160006101000a81549073ffffffffffffffffffffffffffffffffffffffff02191690556001915050919050565b6000600115156159c883615438565b1515141515615a3f576040517f08c379a00000000000000000000000000000000000000000000000000000000081526004018080602001828103825260158152602001807f6e6f74206120726567756c61722061646472657373000000000000000000000081525060200191505060405180910390fd5b600460008373ffffffffffffffffffffffffffffffffffffffff1673ffffffffffffffffffffffffffffffffffffffff16815260200190815260200160002060009054906101000a900460ff169050919050565b828054600181600116156101000203166002900490600052602060002090601f016020900481019282601f10615ad457805160ff1916838001178555615b02565b82800160010185558215615b02579182015b82811115615b01578251825591602001919060010190615ae6565b5b509050615b0f9190615bb2565b5090565b6040805190810160405280600290602082028038833980820191505090505090565b8260028101928215615ba1579160200282015b82811115615ba05782518260006101000a81548173ffffffffffffffffffffffffffffffffffffffff021916908373ffffffffffffffffffffffffffffffffffffffff16021790555091602001919060010190615b48565b5b509050615bae9190615bd7565b5090565b615bd491905b80821115615bd0576000816000905550600101615bb8565b5090565b90565b615c1791905b80821115615c1357600081816101000a81549073ffffffffffffffffffffffffffffffffffffffff021916905550600101615bdd565b5090565b905600a165627a7a723058207444a1b8c4be531a507235558d0b86990957fab218c1c2706553769e4fcbea200029",
  "source": "pragma solidity ^0.4.24;\r\n\r\nimport \"./ConvertLib.sol\";\r\nimport \"./SafeMath.sol\";\r\nimport \"./EquityTokenFactory.sol\";\r\nimport \"./EquityToken.sol\";\r\n\r\ncontract EquityTokenTransaction is EquityToken {\r\n\r\n//-----TokenTransactions------------------------------------------------------------------------------------------------------------------\r\n  /* This section determines transaction protocolls of the issued equity token\r\n        - this section has the internal but executing send functions!\r\n        -\r\n        */  \r\n\r\n    ///@notice fires event of after regular token transfer defined by ERC777 or EIP1410\r\n    event Sent(address operator, address from, address to, uint amount, bytes userData, bytes operatorData);\r\n    event SentByTranche(uint fromTranche, address operator, address from, address to, uint amount, bytes userData, bytes operatorData);\r\n\r\n    ///@notice function actually performing the sending of tokens.\r\n    ///@param _trancheId tranche for transfer\r\n    ///@param _userData data generated by the user to be passed to the recipient. The rules determining if a security token can be sent may require off-chain inputs\r\n    /// therefore functions accept an additional bytes _userData parameter which can be signed by an approved party and used to validate a transfer (e.g signature).\r\n    ///@param _operatorData data generated by the operator to be passed to the recipient\r\n    ///@dev _preventLocking true if you want this function to throw when tokens are sent to or sent by a contract not implementing ERC777.\r\n    /// ERC777 native Send functions MUST set this parameter to true, and backwards compatible ERC20 transfer functions SHOULD set this parameter to false.\r\n    /// In this testing environment _preventLocking is not implemented stick to official ERC777 for further information and implementation of this feature.\r\n    function _doSend(uint _trancheId, address _from, address _to, uint _txamount, bytes _userData, address _operator, bytes _operatorData) \r\n    internal checkGranularity(_txamount) checkAccreditation(_to) returns(uint receiverTrancheId_) {\r\n        require((_isRegularAddress(_to) == true), \"_to address does not exist or is 0x0 (burning)\");\r\n        require((LevelOfAccreditation[_to] == 1), \"_to address is not authorized or accredited\");     \r\n        require((OwnerToTrancheToBalance[_from][_trancheId] >= _txamount), \"not enough tranche-specific funding for transaction on account\");\r\n        require((_isReady(_trancheId) == true),\"lockup period not over for this tranche\");\r\n        require((TotalDistribution.length <= regulationMaximumInvestors), \"max. amount of investors\");\r\n        \r\n        OwnerToBalance[_from] = OwnerToBalance[_from].sub(_txamount);\r\n        OwnerToBalance[_to] = OwnerToBalance[_to].add(_txamount);\r\n        require((OwnerToBalance[_to] <= regulationMaximumSharesPerInvestor), \"max. amount of shares by one investor (10%)\");\r\n\r\n        _toShareholderbook(_to);\r\n        \r\n        emit Sent(_operator, _from, _to, _txamount, _userData, _operatorData);\r\n        \r\n        receiverTrancheId_ = _generateRandomId();\r\n        IdToMetaData[receiverTrancheId_] = (TrancheMetaData(_txamount, block.timestamp, defaultLockupPeriod));\r\n\r\n        OwnerToTrancheToBalance[_from][_trancheId] = OwnerToTrancheToBalance[_from][_trancheId].sub(_txamount);\r\n        OwnerToTrancheToBalance[_to][receiverTrancheId_] = OwnerToTrancheToBalance[_to][receiverTrancheId_].add(_txamount);\r\n        OwnerToTranches[_to].push(uint(receiverTrancheId_));\r\n        emit SentByTranche(_trancheId, _operator, _from, _to, _txamount, _userData, _operatorData);\r\n        \r\n        if(OwnerToBalance[_from] == 0) {_deleteShareholder(_from);}\r\n        if(erc20compatible) {emit Transfer(_from, _to, _txamount);}\r\n\r\n        return receiverTrancheId_;\r\n    }\r\n\r\n    ///@notice private send function used if no tranche is initially defined, then uses default tranche\r\n    function _doSend(address _from, address _to, uint _txamount, bytes _userData, address _operator, bytes _operatorData) \r\n    internal {\r\n        require((OwnerToBalance[_from] >= _txamount), \"not enough general funding for transaction on account\");\r\n        uint[] memory tempSenderTranches = OwnerToTranches[_from];\r\n        uint sentAmount = 0;\r\n        uint counter = 1;\r\n        \r\n        while(sentAmount < _txamount) {\r\n            uint tempTrancheId = tempSenderTranches[tempSenderTranches.length - counter];\r\n                \r\n            if(OwnerToTrancheToBalance[_from][tempTrancheId] >= _txamount.sub(sentAmount)) {\r\n                _doSend(tempTrancheId, _from, _to, _txamount.sub(sentAmount), _userData, _operator, _operatorData);\r\n                break;\r\n            }\r\n            else {\r\n                uint sentTx = OwnerToTrancheToBalance[_from][tempTrancheId];\r\n                _doSend(tempTrancheId, _from, _to, sentTx, _userData, _operator, _operatorData);\r\n                sentAmount = sentAmount.add(sentTx);\r\n                counter = counter.add(1);\r\n            }\r\n        } \r\n    }\r\n    \r\n    ///@notice gets the tranches of a token holder, in general the default tranche for a transaction is the latest issued tranche an owner posseses\r\n    ///@dev mandatory for backward interoperability with ERC777 and ERC20\r\n    function getDefaultTranches(address _from) public view returns(uint[]) {\r\n        return tranchesOf(_from);\r\n    }\r\n\r\n//-----TokenTransactions------------------------------------------------------------------------------------------------------------------    \r\n\r\n}",
  "sourcePath": "/mnt/c/Solidity/solidity_eto/contracts/EquityTokenTransaction.sol",
  "compiler": {
    "name": "solc",
    "version": "0.4.24+commit.e67f0147.Emscripten.clang"
  },
  "schemaVersion": "2.0.1",
  "updatedAt": "2018-12-17T21:08:18.020Z"
}