{
  "contractName": "EquityTokenFactory",
  "abi": [
    {
      "constant": true,
      "inputs": [
        {
          "name": "",
          "type": "uint256"
        }
      ],
      "name": "TotalDistribution",
      "outputs": [
        {
          "name": "",
          "type": "address"
        }
      ],
      "payable": false,
      "stateMutability": "view",
      "type": "function"
    },
    {
      "constant": true,
      "inputs": [],
      "name": "isIssuable",
      "outputs": [
        {
          "name": "",
          "type": "bool"
        }
      ],
      "payable": false,
      "stateMutability": "view",
      "type": "function"
    },
    {
      "constant": true,
      "inputs": [],
      "name": "accreditationFee",
      "outputs": [
        {
          "name": "",
          "type": "uint256"
        }
      ],
      "payable": false,
      "stateMutability": "view",
      "type": "function"
    },
    {
      "constant": true,
      "inputs": [
        {
          "name": "",
          "type": "uint256"
        }
      ],
      "name": "AllTranches",
      "outputs": [
        {
          "name": "",
          "type": "uint256"
        }
      ],
      "payable": false,
      "stateMutability": "view",
      "type": "function"
    },
    {
      "constant": true,
      "inputs": [],
      "name": "governmentAddress",
      "outputs": [
        {
          "name": "",
          "type": "address"
        }
      ],
      "payable": false,
      "stateMutability": "view",
      "type": "function"
    },
    {
      "anonymous": false,
      "inputs": [
        {
          "indexed": false,
          "name": "companyName",
          "type": "bytes32"
        },
        {
          "indexed": false,
          "name": "tokenTicker",
          "type": "bytes32"
        },
        {
          "indexed": false,
          "name": "companyOwner",
          "type": "address"
        }
      ],
      "name": "newTokenIssuance",
      "type": "event"
    },
    {
      "anonymous": false,
      "inputs": [
        {
          "indexed": false,
          "name": "operator",
          "type": "address"
        },
        {
          "indexed": false,
          "name": "to",
          "type": "address"
        },
        {
          "indexed": false,
          "name": "amount",
          "type": "uint256"
        },
        {
          "indexed": false,
          "name": "userData",
          "type": "bytes"
        },
        {
          "indexed": false,
          "name": "operatorData",
          "type": "bytes"
        }
      ],
      "name": "Minted",
      "type": "event"
    },
    {
      "anonymous": false,
      "inputs": [
        {
          "indexed": false,
          "name": "operator",
          "type": "address"
        },
        {
          "indexed": false,
          "name": "from",
          "type": "address"
        },
        {
          "indexed": false,
          "name": "amount",
          "type": "uint256"
        },
        {
          "indexed": false,
          "name": "operatorData",
          "type": "bytes"
        }
      ],
      "name": "Burned",
      "type": "event"
    },
    {
      "anonymous": false,
      "inputs": [
        {
          "indexed": false,
          "name": "trancheId",
          "type": "uint256"
        },
        {
          "indexed": false,
          "name": "operator",
          "type": "address"
        },
        {
          "indexed": false,
          "name": "to",
          "type": "address"
        },
        {
          "indexed": false,
          "name": "amount",
          "type": "uint256"
        },
        {
          "indexed": false,
          "name": "userData",
          "type": "bytes"
        },
        {
          "indexed": false,
          "name": "operatorData",
          "type": "bytes"
        }
      ],
      "name": "MintedByTranche",
      "type": "event"
    },
    {
      "anonymous": false,
      "inputs": [
        {
          "indexed": false,
          "name": "trancheId",
          "type": "uint256"
        },
        {
          "indexed": false,
          "name": "operator",
          "type": "address"
        },
        {
          "indexed": false,
          "name": "from",
          "type": "address"
        },
        {
          "indexed": false,
          "name": "amount",
          "type": "uint256"
        },
        {
          "indexed": false,
          "name": "operatorData",
          "type": "bytes"
        }
      ],
      "name": "BurnedByTranche",
      "type": "event"
    },
    {
      "anonymous": false,
      "inputs": [
        {
          "indexed": false,
          "name": "_from",
          "type": "address"
        },
        {
          "indexed": false,
          "name": "_to",
          "type": "address"
        },
        {
          "indexed": false,
          "name": "_txamount",
          "type": "uint256"
        }
      ],
      "name": "Transfer",
      "type": "event"
    },
    {
      "anonymous": false,
      "inputs": [
        {
          "indexed": false,
          "name": "newShareholder",
          "type": "address"
        },
        {
          "indexed": false,
          "name": "length",
          "type": "uint256"
        }
      ],
      "name": "newShareholder",
      "type": "event"
    },
    {
      "anonymous": false,
      "inputs": [
        {
          "indexed": false,
          "name": "operator",
          "type": "address"
        },
        {
          "indexed": false,
          "name": "tokenHolder",
          "type": "address"
        }
      ],
      "name": "AuthorizedOperator",
      "type": "event"
    },
    {
      "anonymous": false,
      "inputs": [
        {
          "indexed": true,
          "name": "operator",
          "type": "address"
        },
        {
          "indexed": true,
          "name": "tokenHolder",
          "type": "address"
        }
      ],
      "name": "RevokedOperator",
      "type": "event"
    },
    {
      "constant": false,
      "inputs": [
        {
          "name": "_companyName",
          "type": "bytes32"
        },
        {
          "name": "_tokenTicker",
          "type": "bytes32"
        },
        {
          "name": "_granularity",
          "type": "uint256"
        }
      ],
      "name": "createToken",
      "outputs": [],
      "payable": false,
      "stateMutability": "nonpayable",
      "type": "function"
    },
    {
      "constant": false,
      "inputs": [
        {
          "name": "_companyOwner",
          "type": "address"
        },
        {
          "name": "_amount",
          "type": "uint256"
        },
        {
          "name": "_userData",
          "type": "bytes"
        },
        {
          "name": "_operatorData",
          "type": "bytes"
        }
      ],
      "name": "mint",
      "outputs": [],
      "payable": false,
      "stateMutability": "nonpayable",
      "type": "function"
    },
    {
      "constant": false,
      "inputs": [
        {
          "name": "_from",
          "type": "address"
        },
        {
          "name": "_amount",
          "type": "uint256"
        },
        {
          "name": "_operatorData",
          "type": "bytes"
        }
      ],
      "name": "burn",
      "outputs": [],
      "payable": false,
      "stateMutability": "nonpayable",
      "type": "function"
    },
    {
      "constant": false,
      "inputs": [
        {
          "name": "_trancheId",
          "type": "uint256"
        },
        {
          "name": "_from",
          "type": "address"
        },
        {
          "name": "_amount",
          "type": "uint256"
        },
        {
          "name": "_operatorData",
          "type": "bytes"
        }
      ],
      "name": "burnByTranche",
      "outputs": [],
      "payable": false,
      "stateMutability": "nonpayable",
      "type": "function"
    },
    {
      "constant": false,
      "inputs": [
        {
          "name": "_from",
          "type": "address"
        },
        {
          "name": "_amount",
          "type": "uint256"
        },
        {
          "name": "_operatorData",
          "type": "bytes"
        }
      ],
      "name": "operatorBurn",
      "outputs": [],
      "payable": false,
      "stateMutability": "nonpayable",
      "type": "function"
    },
    {
      "constant": false,
      "inputs": [
        {
          "name": "_trancheId",
          "type": "uint256"
        },
        {
          "name": "_from",
          "type": "address"
        },
        {
          "name": "_amount",
          "type": "uint256"
        },
        {
          "name": "_operatorData",
          "type": "bytes"
        }
      ],
      "name": "operatorBurnByTranche",
      "outputs": [],
      "payable": false,
      "stateMutability": "nonpayable",
      "type": "function"
    },
    {
      "constant": false,
      "inputs": [
        {
          "name": "_companyName",
          "type": "bytes32"
        }
      ],
      "name": "clearRequest",
      "outputs": [],
      "payable": false,
      "stateMutability": "nonpayable",
      "type": "function"
    },
    {
      "constant": true,
      "inputs": [],
      "name": "defaultOperators",
      "outputs": [
        {
          "name": "",
          "type": "address[2]"
        }
      ],
      "payable": false,
      "stateMutability": "view",
      "type": "function"
    },
    {
      "constant": false,
      "inputs": [
        {
          "name": "_operator",
          "type": "address"
        }
      ],
      "name": "authorizeOperator",
      "outputs": [],
      "payable": false,
      "stateMutability": "nonpayable",
      "type": "function"
    },
    {
      "constant": false,
      "inputs": [
        {
          "name": "_operator",
          "type": "address"
        }
      ],
      "name": "revokeOperator",
      "outputs": [],
      "payable": false,
      "stateMutability": "nonpayable",
      "type": "function"
    },
    {
      "constant": true,
      "inputs": [
        {
          "name": "_operator",
          "type": "address"
        },
        {
          "name": "_tokenHolder",
          "type": "address"
        }
      ],
      "name": "isOperatorFor",
      "outputs": [
        {
          "name": "",
          "type": "bool"
        }
      ],
      "payable": false,
      "stateMutability": "view",
      "type": "function"
    },
    {
      "constant": false,
      "inputs": [
        {
          "name": "_addr",
          "type": "address"
        }
      ],
      "name": "setGovernmentAddress",
      "outputs": [],
      "payable": false,
      "stateMutability": "nonpayable",
      "type": "function"
    },
    {
      "constant": false,
      "inputs": [],
      "name": "stopIssuance",
      "outputs": [],
      "payable": false,
      "stateMutability": "nonpayable",
      "type": "function"
    },
    {
      "constant": true,
      "inputs": [],
      "name": "isControllable",
      "outputs": [
        {
          "name": "",
          "type": "bool"
        }
      ],
      "payable": false,
      "stateMutability": "view",
      "type": "function"
    },
    {
      "constant": false,
      "inputs": [
        {
          "name": "_address",
          "type": "address"
        }
      ],
      "name": "approveAccreditation",
      "outputs": [],
      "payable": false,
      "stateMutability": "nonpayable",
      "type": "function"
    },
    {
      "constant": false,
      "inputs": [
        {
          "name": "adjustedLockup",
          "type": "uint256"
        }
      ],
      "name": "setLockup",
      "outputs": [],
      "payable": false,
      "stateMutability": "nonpayable",
      "type": "function"
    }
  ],
  "bytecode": "0x60806040526001601160006101000a81548160ff02191690831515021790555060006012556305f5e100601355612710601455620f4240601555670de0b6b3a76400006017556301e13380601a5534801561005957600080fd5b506135ce806100696000396000f30060806040526004361061011d576000357c0100000000000000000000000000000000000000000000000000000000900463ffffffff16806306e48538146101225780630b366df1146101755780631f2515b9146101e25780632a88511a146102255780632f1cae85146102c257806344d17187146102f15780634c783bf5146103845780636a137219146103b35780636ae6b459146103f65780636e4a21941461042357806380d987ca1461044e578063959b8c3f1461048f578063b8fe4c3f146104d2578063ce30b8d9146104e9578063d570ab341461057c578063d95b6371146105d3578063dbb8299b1461064e578063dcdc7dd0146106eb578063dfa94292146107c4578063e53286c51461080d578063fad8b32a1461083e575b600080fd5b34801561012e57600080fd5b50610137610881565b6040518082600260200280838360005b83811015610162578082015181840152602081019050610147565b5050505090500191505060405180910390f35b34801561018157600080fd5b506101a060048036038101908080359060200190929190505050610902565b604051808273ffffffffffffffffffffffffffffffffffffffff1673ffffffffffffffffffffffffffffffffffffffff16815260200191505060405180910390f35b3480156101ee57600080fd5b50610223600480360381019080803573ffffffffffffffffffffffffffffffffffffffff169060200190929190505050610940565b005b34801561023157600080fd5b506102c060048036038101908080359060200190929190803573ffffffffffffffffffffffffffffffffffffffff16906020019092919080359060200190929190803590602001908201803590602001908080601f0160208091040260200160405190810160405280939291908181526020018383808284378201915050505050509192919290505050610a89565b005b3480156102ce57600080fd5b506102d7610b40565b604051808215151515815260200191505060405180910390f35b3480156102fd57600080fd5b50610382600480360381019080803573ffffffffffffffffffffffffffffffffffffffff16906020019092919080359060200190929190803590602001908201803590602001908080601f0160208091040260200160405190810160405280939291908181526020018383808284378201915050505050509192919290505050610b53565b005b34801561039057600080fd5b50610399610c08565b604051808215151515815260200191505060405180910390f35b3480156103bf57600080fd5b506103f4600480360381019080803573ffffffffffffffffffffffffffffffffffffffff169060200190929190505050610c72565b005b34801561040257600080fd5b5061042160048036038101908080359060200190929190505050610e6c565b005b34801561042f57600080fd5b50610438610f61565b6040518082815260200191505060405180910390f35b34801561045a57600080fd5b5061047960048036038101908080359060200190929190505050610f67565b6040518082815260200191505060405180910390f35b34801561049b57600080fd5b506104d0600480360381019080803573ffffffffffffffffffffffffffffffffffffffff169060200190929190505050610f8a565b005b3480156104de57600080fd5b506104e7611183565b005b3480156104f557600080fd5b5061057a600480360381019080803573ffffffffffffffffffffffffffffffffffffffff16906020019092919080359060200190929190803590602001908201803590602001908080601f016020809104026020016040519081016040528093929190818152602001838380828437820191505050505050919291929050505061128b565b005b34801561058857600080fd5b5061059161133f565b604051808273ffffffffffffffffffffffffffffffffffffffff1673ffffffffffffffffffffffffffffffffffffffff16815260200191505060405180910390f35b3480156105df57600080fd5b50610634600480360381019080803573ffffffffffffffffffffffffffffffffffffffff169060200190929190803573ffffffffffffffffffffffffffffffffffffffff169060200190929190505050611365565b604051808215151515815260200191505060405180910390f35b34801561065a57600080fd5b506106e960048036038101908080359060200190929190803573ffffffffffffffffffffffffffffffffffffffff16906020019092919080359060200190929190803590602001908201803590602001908080601f016020809104026020016040519081016040528093929190818152602001838380828437820191505050505050919291929050505061142f565b005b3480156106f757600080fd5b506107c2600480360381019080803573ffffffffffffffffffffffffffffffffffffffff16906020019092919080359060200190929190803590602001908201803590602001908080601f0160208091040260200160405190810160405280939291908181526020018383808284378201915050505050509192919290803590602001908201803590602001908080601f01602080910402602001604051908101604052809392919081815260200183838082843782019150505050505091929192905050506114e5565b005b3480156107d057600080fd5b5061080b6004803603810190808035600019169060200190929190803560001916906020019092919080359060200190929190505050611d9f565b005b34801561081957600080fd5b5061083c600480360381019080803560001916906020019092919050505061202d565b005b34801561084a57600080fd5b5061087f600480360381019080803573ffffffffffffffffffffffffffffffffffffffff169060200190929190505050612151565b005b6108896134c0565b600d6002806020026040519081016040528092919082600280156108f8576020028201915b8160009054906101000a900473ffffffffffffffffffffffffffffffffffffffff1673ffffffffffffffffffffffffffffffffffffffff16815260200190600101908083116108ae575b5050505050905090565b600f8181548110151561091157fe5b906000526020600020016000915054906101000a900473ffffffffffffffffffffffffffffffffffffffff1681565b6002600660003373ffffffffffffffffffffffffffffffffffffffff1673ffffffffffffffffffffffffffffffffffffffff16815260200190815260200160002060009054906101000a900460ff1660ff16141515610a2d576040517f08c379a00000000000000000000000000000000000000000000000000000000081526004018080602001828103825260258152602001807f7265717569726573206164766f6361746520746f20617070726f766520696e7681526020017f6573746f7200000000000000000000000000000000000000000000000000000081525060400191505060405180910390fd5b6001600660008373ffffffffffffffffffffffffffffffffffffffff1673ffffffffffffffffffffffffffffffffffffffff16815260200190815260200160002060006101000a81548160ff021916908360ff16021790555050565b828073ffffffffffffffffffffffffffffffffffffffff163373ffffffffffffffffffffffffffffffffffffffff16141515610b2d576040517f08c379a00000000000000000000000000000000000000000000000000000000081526004018080602001828103825260158152602001807f726571756972656d656e74206f6e6c794f776e6572000000000000000000000081525060200191505060405180910390fd5b610b39858585856122e7565b5050505050565b601160009054906101000a900460ff1681565b828073ffffffffffffffffffffffffffffffffffffffff163373ffffffffffffffffffffffffffffffffffffffff16141515610bf7576040517f08c379a00000000000000000000000000000000000000000000000000000000081526004018080602001828103825260158152602001807f726571756972656d656e74206f6e6c794f776e6572000000000000000000000081525060200191505060405180910390fd5b610c02848484612870565b50505050565b60008073ffffffffffffffffffffffffffffffffffffffff16601660009054906101000a900473ffffffffffffffffffffffffffffffffffffffff1673ffffffffffffffffffffffffffffffffffffffff16141515610c6a5760009050610c6f565b600190505b90565b600c60009054906101000a900473ffffffffffffffffffffffffffffffffffffffff1673ffffffffffffffffffffffffffffffffffffffff163373ffffffffffffffffffffffffffffffffffffffff16141515610d5d576040517f08c379a00000000000000000000000000000000000000000000000000000000081526004018080602001828103825260298152602001807f726571756972656d656e74206f6e6c794f776e6572206f6620436f6d70616e7981526020017f206d6f646966696572000000000000000000000000000000000000000000000081525060400191505060405180910390fd5b600073ffffffffffffffffffffffffffffffffffffffff168173ffffffffffffffffffffffffffffffffffffffff1614151515610e28576040517f08c379a00000000000000000000000000000000000000000000000000000000081526004018080602001828103825260308152602001807f5f61646472206164647265737320646f6573206e6f74206578697374206f722081526020017f69732030783020286275726e696e67290000000000000000000000000000000081525060400191505060405180910390fd5b80601660006101000a81548173ffffffffffffffffffffffffffffffffffffffff021916908373ffffffffffffffffffffffffffffffffffffffff16021790555050565b600c60009054906101000a900473ffffffffffffffffffffffffffffffffffffffff1673ffffffffffffffffffffffffffffffffffffffff163373ffffffffffffffffffffffffffffffffffffffff16141515610f57576040517f08c379a00000000000000000000000000000000000000000000000000000000081526004018080602001828103825260298152602001807f726571756972656d656e74206f6e6c794f776e6572206f6620436f6d70616e7981526020017f206d6f646966696572000000000000000000000000000000000000000000000081525060400191505060405180910390fd5b80601a8190555050565b60175481565b601081815481101515610f7657fe5b906000526020600020016000915090505481565b3373ffffffffffffffffffffffffffffffffffffffff168173ffffffffffffffffffffffffffffffffffffffff1614151515611054576040517f08c379a00000000000000000000000000000000000000000000000000000000081526004018080602001828103825260248152602001807f6d73672e73656e6465722063616e6e6f7420617574686f72697a65642068696d81526020017f73656c660000000000000000000000000000000000000000000000000000000081525060400191505060405180910390fd5b6001601960008373ffffffffffffffffffffffffffffffffffffffff1673ffffffffffffffffffffffffffffffffffffffff16815260200190815260200160002060003373ffffffffffffffffffffffffffffffffffffffff1673ffffffffffffffffffffffffffffffffffffffff16815260200190815260200160002060006101000a81548160ff0219169083151502179055507ff4caeb2d6ca8932a215a353d0703c326ec2d81fc68170f320eb2ab49e9df61f98133604051808373ffffffffffffffffffffffffffffffffffffffff1673ffffffffffffffffffffffffffffffffffffffff1681526020018273ffffffffffffffffffffffffffffffffffffffff1673ffffffffffffffffffffffffffffffffffffffff1681526020019250505060405180910390a150565b600c60009054906101000a900473ffffffffffffffffffffffffffffffffffffffff1673ffffffffffffffffffffffffffffffffffffffff163373ffffffffffffffffffffffffffffffffffffffff1614151561126e576040517f08c379a00000000000000000000000000000000000000000000000000000000081526004018080602001828103825260298152602001807f726571756972656d656e74206f6e6c794f776e6572206f6620436f6d70616e7981526020017f206d6f646966696572000000000000000000000000000000000000000000000081525060400191505060405180910390fd5b6000601160006101000a81548160ff021916908315150217905550565b6112953384611365565b151561132f576040517f08c379a00000000000000000000000000000000000000000000000000000000081526004018080602001828103825260388152602001807f73656e646572206973206e6f7420617574686f72697a656420746f206f70657281526020017f6174652077697468205f66726f6d2773206163636f756e74000000000000000081525060400191505060405180910390fd5b61133a838383612870565b505050565b601660009054906101000a900473ffffffffffffffffffffffffffffffffffffffff1681565b60008173ffffffffffffffffffffffffffffffffffffffff168373ffffffffffffffffffffffffffffffffffffffff1614806114275750601960008473ffffffffffffffffffffffffffffffffffffffff1673ffffffffffffffffffffffffffffffffffffffff16815260200190815260200160002060008373ffffffffffffffffffffffffffffffffffffffff1673ffffffffffffffffffffffffffffffffffffffff16815260200190815260200160002060009054906101000a900460ff165b905092915050565b6114393384611365565b15156114d3576040517f08c379a00000000000000000000000000000000000000000000000000000000081526004018080602001828103825260388152602001807f73656e646572206973206e6f7420617574686f72697a656420746f206f70657281526020017f6174652077697468205f66726f6d2773206163636f756e74000000000000000081525060400191505060405180910390fd5b6114df848484846122e7565b50505050565b6000836000600a54828115156114f757fe5b06141515611593576040517f08c379a00000000000000000000000000000000000000000000000000000000081526004018080602001828103825260338152602001807f756e61626c6520746f206d6f6469667920746f6b656e2062616c616e6365732081526020017f61742074686973206772616e756c61726974790000000000000000000000000081525060400191505060405180910390fd5b600c60009054906101000a900473ffffffffffffffffffffffffffffffffffffffff1673ffffffffffffffffffffffffffffffffffffffff163373ffffffffffffffffffffffffffffffffffffffff1614151561167e576040517f08c379a00000000000000000000000000000000000000000000000000000000081526004018080602001828103825260298152602001807f726571756972656d656e74206f6e6c794f776e6572206f6620436f6d70616e7981526020017f206d6f646966696572000000000000000000000000000000000000000000000081525060400191505060405180910390fd5b60011515601160009054906101000a900460ff161515141515611709576040517f08c379a000000000000000000000000000000000000000000000000000000000815260040180806020018281038252601a8152602001807f746f6b656e2069737375616e63652069732066696e697368656400000000000081525060200191505060405180910390fd5b61171460085461314d565b9150601082908060018154018082558091505090600182039060005260206000200160009091929091909150555060a0604051908101604052808681526020017f41000000000000000000000000000000000000000000000000000000000000007effffffffffffffffffffffffffffffffffffffffffffffffffffffffffffff191681526020014281526020016014548152602001601554815250600360008481526020019081526020016000206000820151816000015560208201518160010160006101000a81548160ff02191690837f01000000000000000000000000000000000000000000000000000000000000009004021790555060408201518160020155606082015181600301556080820151816004015590505061184485600b5461321790919063ffffffff16565b600b8190555061189b856000808973ffffffffffffffffffffffffffffffffffffffff1673ffffffffffffffffffffffffffffffffffffffff1681526020019081526020016000205461321790919063ffffffff16565b6000808873ffffffffffffffffffffffffffffffffffffffff1673ffffffffffffffffffffffffffffffffffffffff1681526020019081526020016000208190555061194085600160008973ffffffffffffffffffffffffffffffffffffffff1673ffffffffffffffffffffffffffffffffffffffff16815260200190815260200160002060008581526020019081526020016000205461321790919063ffffffff16565b600160008873ffffffffffffffffffffffffffffffffffffffff1673ffffffffffffffffffffffffffffffffffffffff168152602001908152602001600020600084815260200190815260200160002081905550600260008773ffffffffffffffffffffffffffffffffffffffff1673ffffffffffffffffffffffffffffffffffffffff1681526020019081526020016000208290806001815401808255809150509060018203906000526020600020016000909192909190915055507f2fe5be0146f74c5bce36c0b80911af6c7d86ff27e89d5cfa61fc681327954e5d3387878787604051808673ffffffffffffffffffffffffffffffffffffffff1673ffffffffffffffffffffffffffffffffffffffff1681526020018573ffffffffffffffffffffffffffffffffffffffff1673ffffffffffffffffffffffffffffffffffffffff1681526020018481526020018060200180602001838103835285818151815260200191508051906020019080838360005b83811015611ad1578082015181840152602081019050611ab6565b50505050905090810190601f168015611afe5780820380516001836020036101000a031916815260200191505b50838103825284818151815260200191508051906020019080838360005b83811015611b37578082015181840152602081019050611b1c565b50505050905090810190601f168015611b645780820380516001836020036101000a031916815260200191505b5097505050505050505060405180910390a17fc8d64290e05791ddb8e7c779289e066d776a0630d8fb0adb646a94b9ae85b772823388888888604051808781526020018673ffffffffffffffffffffffffffffffffffffffff1673ffffffffffffffffffffffffffffffffffffffff1681526020018573ffffffffffffffffffffffffffffffffffffffff1673ffffffffffffffffffffffffffffffffffffffff1681526020018481526020018060200180602001838103835285818151815260200191508051906020019080838360005b83811015611c51578082015181840152602081019050611c36565b50505050905090810190601f168015611c7e5780820380516001836020036101000a031916815260200191505b50838103825284818151815260200191508051906020019080838360005b83811015611cb7578082015181840152602081019050611c9c565b50505050905090810190601f168015611ce45780820380516001836020036101000a031916815260200191505b509850505050505050505060405180910390a1601860009054906101000a900460ff1615611d97577fddf252ad1be2c89b69c2b068fc378daa952ba7f163c4a11628f55a4df523b3ef60008787604051808473ffffffffffffffffffffffffffffffffffffffff1681526020018373ffffffffffffffffffffffffffffffffffffffff1673ffffffffffffffffffffffffffffffffffffffff168152602001828152602001935050505060405180910390a15b505050505050565b6001151560076000856000191660001916815260200190815260200160002060009054906101000a900460ff161515141515611e69576040517f08c379a000000000000000000000000000000000000000000000000000000000815260040180806020018281038252602e8152602001807f7265717569726573206368616e676564207374617475732066726f6d2070656e81526020017f64696e6720746f2061637469766500000000000000000000000000000000000081525060400191505060405180910390fd5b60018110151515611e7657fe5b826008816000191690555081600981600019169055506000600b8190555080600a819055506001601860006101000a81548160ff02191690831515021790555033600c60006101000a81548173ffffffffffffffffffffffffffffffffffffffff021916908373ffffffffffffffffffffffffffffffffffffffff16021790555060408051908101604052803373ffffffffffffffffffffffffffffffffffffffff1673ffffffffffffffffffffffffffffffffffffffff168152602001601660009054906101000a900473ffffffffffffffffffffffffffffffffffffffff1673ffffffffffffffffffffffffffffffffffffffff1673ffffffffffffffffffffffffffffffffffffffff16815250600d906002611f969291906134e2565b50611fa033613238565b507f9ae979c8e1266c2f250aee2ce3946e415bd909a9cf1821aab705834932fd12ad6008546009543360405180846000191660001916815260200183600019166000191681526020018273ffffffffffffffffffffffffffffffffffffffff1673ffffffffffffffffffffffffffffffffffffffff168152602001935050505060405180910390a1505050565b6002600660003373ffffffffffffffffffffffffffffffffffffffff1673ffffffffffffffffffffffffffffffffffffffff16815260200190815260200160002060009054906101000a900460ff1660ff1614151561211a576040517f08c379a00000000000000000000000000000000000000000000000000000000081526004018080602001828103825260238152602001807f7265717569726573206164766f6361746520746f20616374697661746520746f81526020017f6b656e000000000000000000000000000000000000000000000000000000000081525060400191505060405180910390fd5b600160076000836000191660001916815260200190815260200160002060006101000a81548160ff02191690831515021790555050565b3373ffffffffffffffffffffffffffffffffffffffff168173ffffffffffffffffffffffffffffffffffffffff16141515156121f5576040517f08c379a00000000000000000000000000000000000000000000000000000000081526004018080602001828103825260208152602001807f6d73672e73656e6465722063616e6e6f74207265766f6b652068696d73656c6681525060200191505060405180910390fd5b6000601960008373ffffffffffffffffffffffffffffffffffffffff1673ffffffffffffffffffffffffffffffffffffffff16815260200190815260200160002060003373ffffffffffffffffffffffffffffffffffffffff1673ffffffffffffffffffffffffffffffffffffffff16815260200190815260200160002060006101000a81548160ff0219169083151502179055503373ffffffffffffffffffffffffffffffffffffffff168173ffffffffffffffffffffffffffffffffffffffff167f50546e66e5f44d728365dc3908c63bc5cfeeab470722c1677e3073a6ac294aa160405160405180910390a350565b816000600a54828115156122f757fe5b06141515612393576040517f08c379a00000000000000000000000000000000000000000000000000000000081526004018080602001828103825260338152602001807f756e61626c6520746f206d6f6469667920746f6b656e2062616c616e6365732081526020017f61742074686973206772616e756c61726974790000000000000000000000000081525060400191505060405180910390fd5b82600160008673ffffffffffffffffffffffffffffffffffffffff1673ffffffffffffffffffffffffffffffffffffffff16815260200190815260200160002060008781526020019081526020016000205410151515612481576040517f08c379a000000000000000000000000000000000000000000000000000000000815260040180806020018281038252602b8152602001807f6e6f7420656e6f756768207472616e6368652d73706563696669632066756e6481526020017f696e6720746f206275726e00000000000000000000000000000000000000000081525060400191505060405180910390fd5b61249683600b5461338990919063ffffffff16565b600b819055506124ed836000808773ffffffffffffffffffffffffffffffffffffffff1673ffffffffffffffffffffffffffffffffffffffff1681526020019081526020016000205461338990919063ffffffff16565b6000808673ffffffffffffffffffffffffffffffffffffffff1673ffffffffffffffffffffffffffffffffffffffff1681526020019081526020016000208190555061259283600160008773ffffffffffffffffffffffffffffffffffffffff1673ffffffffffffffffffffffffffffffffffffffff16815260200190815260200160002060008881526020019081526020016000205461338990919063ffffffff16565b507fa1c85a30dec08aa526dc5a3ca33087f723335ec5c1614ecf0036da150a6971c88533868686604051808681526020018573ffffffffffffffffffffffffffffffffffffffff1673ffffffffffffffffffffffffffffffffffffffff1681526020018473ffffffffffffffffffffffffffffffffffffffff1673ffffffffffffffffffffffffffffffffffffffff16815260200183815260200180602001828103825283818151815260200191508051906020019080838360005b8381101561266957808201518184015260208101905061264e565b50505050905090810190601f1680156126965780820380516001836020036101000a031916815260200191505b50965050505050505060405180910390a17fea01d24fee0ecbb349ab449ea41d11599fd91ba758653579b30d38d63e2adedb33858585604051808573ffffffffffffffffffffffffffffffffffffffff1673ffffffffffffffffffffffffffffffffffffffff1681526020018473ffffffffffffffffffffffffffffffffffffffff1673ffffffffffffffffffffffffffffffffffffffff16815260200183815260200180602001828103825283818151815260200191508051906020019080838360005b8381101561277657808201518184015260208101905061275b565b50505050905090810190601f1680156127a35780820380516001836020036101000a031916815260200191505b509550505050505060405180910390a1601860009054906101000a900460ff1615612869577fddf252ad1be2c89b69c2b068fc378daa952ba7f163c4a11628f55a4df523b3ef84600085604051808473ffffffffffffffffffffffffffffffffffffffff1673ffffffffffffffffffffffffffffffffffffffff1681526020018373ffffffffffffffffffffffffffffffffffffffff1673ffffffffffffffffffffffffffffffffffffffff168152602001828152602001935050505060405180910390a15b5050505050565b600080600080856000600a548281151561288657fe5b06141515612922576040517f08c379a00000000000000000000000000000000000000000000000000000000081526004018080602001828103825260338152602001807f756e61626c6520746f206d6f6469667920746f6b656e2062616c616e6365732081526020017f61742074686973206772616e756c61726974790000000000000000000000000081525060400191505060405180910390fd5b866000808a73ffffffffffffffffffffffffffffffffffffffff1673ffffffffffffffffffffffffffffffffffffffff16815260200190815260200160002054101515156129d8576040517f08c379a000000000000000000000000000000000000000000000000000000000815260040180806020018281038252601a8152602001807f6e6f7420656e6f7567682066756e64696e6720746f206275726e00000000000081525060200191505060405180910390fd5b60009450600193505b86851015612f8157601084601080549050038154811015156129ff57fe5b90600052602060002001549250612a1f858861338990919063ffffffff16565b600160008a73ffffffffffffffffffffffffffffffffffffffff1673ffffffffffffffffffffffffffffffffffffffff168152602001908152602001600020600085815260200190815260200160002054101515612cd857612a9e612a8d868961338990919063ffffffff16565b600b5461338990919063ffffffff16565b600b81905550612b07612aba868961338990919063ffffffff16565b6000808b73ffffffffffffffffffffffffffffffffffffffff1673ffffffffffffffffffffffffffffffffffffffff1681526020019081526020016000205461338990919063ffffffff16565b6000808a73ffffffffffffffffffffffffffffffffffffffff1673ffffffffffffffffffffffffffffffffffffffff16815260200190815260200160002081905550612bbe612b5f868961338990919063ffffffff16565b600160008b73ffffffffffffffffffffffffffffffffffffffff1673ffffffffffffffffffffffffffffffffffffffff16815260200190815260200160002060008681526020019081526020016000205461338990919063ffffffff16565b507fa1c85a30dec08aa526dc5a3ca33087f723335ec5c1614ecf0036da150a6971c883338a8a8a604051808681526020018573ffffffffffffffffffffffffffffffffffffffff1673ffffffffffffffffffffffffffffffffffffffff1681526020018473ffffffffffffffffffffffffffffffffffffffff1673ffffffffffffffffffffffffffffffffffffffff16815260200183815260200180602001828103825283818151815260200191508051906020019080838360005b83811015612c95578082015181840152602081019050612c7a565b50505050905090810190601f168015612cc25780820380516001836020036101000a031916815260200191505b50965050505050505060405180910390a1612f81565b600160008973ffffffffffffffffffffffffffffffffffffffff1673ffffffffffffffffffffffffffffffffffffffff1681526020019081526020016000206000848152602001908152602001600020549150612d4082600b5461338990919063ffffffff16565b600b81905550612d97826000808b73ffffffffffffffffffffffffffffffffffffffff1673ffffffffffffffffffffffffffffffffffffffff1681526020019081526020016000205461338990919063ffffffff16565b6000808a73ffffffffffffffffffffffffffffffffffffffff1673ffffffffffffffffffffffffffffffffffffffff16815260200190815260200160002081905550612e3c82600160008b73ffffffffffffffffffffffffffffffffffffffff1673ffffffffffffffffffffffffffffffffffffffff16815260200190815260200160002060008681526020019081526020016000205461338990919063ffffffff16565b50612e50828661321790919063ffffffff16565b9450612e6660018561321790919063ffffffff16565b93507fa1c85a30dec08aa526dc5a3ca33087f723335ec5c1614ecf0036da150a6971c883338a8a8a604051808681526020018573ffffffffffffffffffffffffffffffffffffffff1673ffffffffffffffffffffffffffffffffffffffff1681526020018473ffffffffffffffffffffffffffffffffffffffff1673ffffffffffffffffffffffffffffffffffffffff16815260200183815260200180602001828103825283818151815260200191508051906020019080838360005b83811015612f3e578082015181840152602081019050612f23565b50505050905090810190601f168015612f6b5780820380516001836020036101000a031916815260200191505b50965050505050505060405180910390a16129e1565b7fea01d24fee0ecbb349ab449ea41d11599fd91ba758653579b30d38d63e2adedb33898989604051808573ffffffffffffffffffffffffffffffffffffffff1673ffffffffffffffffffffffffffffffffffffffff1681526020018473ffffffffffffffffffffffffffffffffffffffff1673ffffffffffffffffffffffffffffffffffffffff16815260200183815260200180602001828103825283818151815260200191508051906020019080838360005b83811015613050578082015181840152602081019050613035565b50505050905090810190601f16801561307d5780820380516001836020036101000a031916815260200191505b509550505050505060405180910390a1601860009054906101000a900460ff1615613143577fddf252ad1be2c89b69c2b068fc378daa952ba7f163c4a11628f55a4df523b3ef88600089604051808473ffffffffffffffffffffffffffffffffffffffff1673ffffffffffffffffffffffffffffffffffffffff1681526020018373ffffffffffffffffffffffffffffffffffffffff1673ffffffffffffffffffffffffffffffffffffffff168152602001828152602001935050505060405180910390a15b5050505050505050565b60008082601254604051602001808360001916600019168152602001828152602001925050506040516020818303038152906040526040518082805190602001908083835b6020831015156131b75780518252602082019150602081019050602083039250613192565b6001836020036101000a0380198251168184511680821785525050505050509050019150506040518091039020600190049050613200600160125461321790919063ffffffff16565b506013548181151561320e57fe5b06915050919050565b600080828401905083811015151561322e57600080fd5b8091505092915050565b6000613243826133aa565b156132515760009050613384565b600f8290806001815401808255809150509060018203906000526020600020016000909192909190916101000a81548173ffffffffffffffffffffffffffffffffffffffff021916908373ffffffffffffffffffffffffffffffffffffffff160217905550506001600460008473ffffffffffffffffffffffffffffffffffffffff1673ffffffffffffffffffffffffffffffffffffffff16815260200190815260200160002060006101000a81548160ff0219169083151502179055507f33dda5dca20a95bec563f7c6e810061b24d464536df0636a17d2d041b8b0c66d82600f80549050604051808373ffffffffffffffffffffffffffffffffffffffff1673ffffffffffffffffffffffffffffffffffffffff1681526020018281526020019250505060405180910390a1600190505b919050565b60008083831115151561339b57600080fd5b82840390508091505092915050565b6000600115156133b983613484565b1515141515613430576040517f08c379a00000000000000000000000000000000000000000000000000000000081526004018080602001828103825260158152602001807f6e6f74206120726567756c61722061646472657373000000000000000000000081525060200191505060405180910390fd5b600460008373ffffffffffffffffffffffffffffffffffffffff1673ffffffffffffffffffffffffffffffffffffffff16815260200190815260200160002060009054906101000a900460ff169050919050565b60008060008373ffffffffffffffffffffffffffffffffffffffff1614156134af57600091506134ba565b823b90506000811491505b50919050565b6040805190810160405280600290602082028038833980820191505090505090565b826002810192821561354e579160200282015b8281111561354d5782518260006101000a81548173ffffffffffffffffffffffffffffffffffffffff021916908373ffffffffffffffffffffffffffffffffffffffff160217905550916020019190600101906134f5565b5b50905061355b919061355f565b5090565b61359f91905b8082111561359b57600081816101000a81549073ffffffffffffffffffffffffffffffffffffffff021916905550600101613565565b5090565b905600a165627a7a72305820ba89eab536645d0dab5099d7fbd80cb0b79d42e3879fe2d53b1978e47f8854e80029",
  "source": "pragma solidity ^0.4.24;\r\n\r\nimport \"./SafeMath.sol\";\r\n\r\ncontract EquityTokenFactory /* is ERC20Interface, ERC777Interface, EIP1410Interface, EIP1400Interface */ {\r\n\r\n    using SafeMath for uint;\r\n\r\n    mapping (address => uint) OwnerToBalance; ///@notice wallet of tokens and balances of an owner\r\n    ///@notice wallet of tokens and balances of an owner depending on tranche\r\n    mapping (address => mapping (uint => uint)) OwnerToTrancheToBalance; \r\n    mapping (address => uint[]) OwnerToTranches; ///@notice tranches array of an owner\r\n    mapping (uint => TranchesMetaData) IdToMetaData; ///@notice mapping of metadata belonging to a token tranche\r\n    mapping (address => bool) AddressExists; ///@notice required for check if address is already stakeholder, more efficient than iterating array\r\n    ///@notice allowance for transfer from _owner to _receiver to withdraw (ERC20 & ERC777)\r\n    mapping (address => mapping (address => uint)) allowed; \r\n    ///@notice maps an address if it passed KYC protocol; 0 = not accredited, 1 = investor, 2 = advocate)\r\n    mapping (address => uint8) LevelOfAccreditation; \r\n    mapping (bytes32 => bool) CompanyToRequest; ///@notice maps if a company went through KYC/AML protocol;\r\n\r\n    modifier checkGranularity(uint _amount){\r\n        require((_amount % granular == 0), \"unable to modify token balances at this granularity\");\r\n        _;\r\n    }\r\n    \r\n    modifier onlyOwnerOfCom() {\r\n        require(msg.sender == companyOwner, \"requirement onlyOwner of Company modifier\");\r\n        _;\r\n    }\r\n\r\n    modifier onlyOwner(address _from) {\r\n        require((msg.sender == _from), \"requirement onlyOwner\");\r\n        _;\r\n    }\r\n\r\n    modifier checkAccreditation(address _to) {\r\n        require((LevelOfAccreditation[_to] == 1),\"requirement of successful KYC protocol\");\r\n        _;\r\n    }\r\n\r\n\r\n//-----EquityTokenFactory-----------------------------------------------------------------------------------------------------------------  \r\n      /* This structure allows a company to issue equity via token (quasi-shares) and determines the issuance process\r\n          - the creating company is an administrator and can start various equity related processes (e.g. pay dividend, recapitalize, ...)\r\n          - in general the contracts tracks and calculates two seperate balances, first the overall balance of a token holder and second\r\n            the tranche-specific balance of a token holder (e.g. if minting, sending, burning tokens)\r\n          - ERC20 is a de facto standard for trading of tokens\r\n          - ERC777 introduces operators (higher level administration), in order to e.g prepare for governmental control\r\n          - EIP1410 proposes tranching of a token (partial fungible tokens)\r\n          - EIP1400 proposes in-depth token management (e.g. transfer restrictions and regulation)\r\n          */\r\n\r\n\r\n    //@ToDo indexing of from and to and tokenId beneficial, but dropped for mocha testing environment\r\n    event newTokenIssuance(bytes32 companyName, bytes32 tokenTicker, address companyOwner);\r\n\r\n    ///@notice events for issuance of additional equity (recapitalization) and burning of existing capital\r\n    ///@notice ERC777 and EIP1410 mandatory\r\n    event Minted(address operator, address to, uint amount, bytes userData, bytes operatorData);\r\n    event Burned(address operator, address from, uint amount, bytes operatorData);\r\n    event MintedByTranche(uint trancheId, address operator, address to, uint amount, bytes userData, bytes operatorData);\r\n    event BurnedByTranche(uint trancheId, address operator, address from, uint amount, bytes operatorData);\r\n\r\n    ///@notice the core data of a issued token\r\n    ///@param granular for explanation see constructor\r\n    ///@param defaultOperator every token has two higher level administrators by default -> issuing company and government; can be changed\r\n    bytes32 internal companyName;\r\n    bytes32 internal tokenTicker;\r\n    uint internal granular;\r\n    uint internal totalAmount;\r\n    address internal companyOwner;\r\n    address[2] internal defaultOperator;\r\n  \r\n    ///@notice array of all owner of one equity token, thus the shareholder book\r\n    address[] public TotalDistribution;\r\n\r\n    ///@notice array of all tranches of one equity token and struct with metadata of every tranche.\r\n    uint[] public AllTranches;\r\n    struct TranchesMetaData {\r\n        uint trancheAmount;\r\n        byte categoryShare;\r\n        uint mintedTimeStamp;\r\n        uint regulationMaximumInvestors;\r\n        uint regulationMaximumSharesPerInvestor;\r\n    }\r\n\r\n    ///@notice token issuer can specify to stop token issuance, cannot be reverted\r\n    bool public isIssuable = true;\r\n    \r\n    ///@dev declares a random nonce which increases every time random number generator is used\r\n    ///@dev ensures, that randomId is always 8 digits\r\n    uint internal randNonce = 0;\r\n    uint internal idModulus = 10 ** 8;\r\n\r\n    ///@dev solidity declares a variable by default to 0, thus in the test environment we have to simulate regulation requirements\r\n    uint internal regulationMaxInvest = 10 ** 4;\r\n    uint internal regulationMaxSharesPInvest = 10 ** 6;\r\n\r\n    ///@notice address of government, by default operator of any token; can be changed by companyOwner\r\n    address public governmentAddress;\r\n\r\n    ///@notice fee in order to get KYC/AML process\r\n    uint public accreditationFee = 1 ether;\r\n\r\n    ///@notice set if token should be interoperable with exchanges\r\n    bool internal erc20compatible;\r\n\r\n    ///@dev creates new token shell (status pending), safes information in storage\r\n    ///@param _granularity ensures, that granularity of shares is always a positive natural figure, cannot be changed ever\r\n    function createToken(bytes32 _companyName, bytes32 _tokenTicker, uint _granularity) public {\r\n        require((CompanyToRequest[_companyName] == true), \"requires changed status from pending to active\");\r\n        assert(_granularity >= 1); // \"granularity has to be greater or equal 1\"\r\n        companyName = _companyName;\r\n        tokenTicker = _tokenTicker;\r\n        totalAmount = 0;\r\n        granular = _granularity;\r\n        erc20compatible = true;\r\n        companyOwner = msg.sender;\r\n        defaultOperator = [msg.sender, governmentAddress];\r\n\r\n        _toShareholderbook(msg.sender);\r\n\r\n        emit newTokenIssuance(companyName, tokenTicker, msg.sender);\r\n    }\r\n  \r\n    ///@notice process to mint new equity\r\n    ///@notice compliant with ERC777 & EIP1410\r\n    function mint(address _companyOwner, uint _amount, bytes _userData, bytes _operatorData) public checkGranularity(_amount) onlyOwnerOfCom {\r\n        require((isIssuable == true), \"token issuance is finished\");\r\n   \r\n        ///@notice creates random Id for new tranche of equity, stores only Id in array and metadata in metadata struct\r\n        uint trancheId = _generateRandomId(companyName);\r\n        AllTranches.push(uint(trancheId));\r\n        IdToMetaData[trancheId] = (TranchesMetaData(_amount, \"A\", block.timestamp, regulationMaxInvest, regulationMaxSharesPInvest));\r\n\r\n        ///@notice increase balance in two ways, first overall balance of owner, second tranche-specific balanche of owner\r\n        totalAmount = totalAmount.add(_amount);\r\n        OwnerToBalance[_companyOwner] = OwnerToBalance[_companyOwner].add(_amount);\r\n        OwnerToTrancheToBalance[_companyOwner][trancheId] = OwnerToTrancheToBalance[_companyOwner][trancheId].add(_amount);\r\n\r\n        OwnerToTranches[_companyOwner].push(uint(trancheId));\r\n\r\n        emit Minted(msg.sender, _companyOwner, _amount, _userData, _operatorData);\r\n        emit MintedByTranche(trancheId, msg.sender, _companyOwner, _amount, _userData, _operatorData);\r\n        if (erc20compatible) {emit Transfer(0x0, _companyOwner, _amount);}\r\n    }\r\n        \r\n    ///@notice process to burn equity\r\n    ///@notice _burn function can be used by Company AND private token holder, burn is a shell and important to fullfil onlyOwner requirement\r\n    ///@notice compliant with ERC777 & EIP1410\r\n    function burn(address _from, uint _amount, bytes _operatorData) public onlyOwner(_from) {\r\n        _burn(_from, _amount, _operatorData);\r\n    }\r\n    function _burn(address _from, uint _amount, bytes _operatorData) private checkGranularity(_amount) {\r\n        require((OwnerToBalance[_from] >= _amount), \"not enough funding to burn\");\r\n        \r\n        uint burnedAmount = 0;\r\n        uint counter = 1;\r\n\r\n        ///@dev this loop and its break requirement is either fullfiled if a single tranche balance is > _amount, or the sum of different tranche balances > _amount\r\n        ///@dev if not otherwise stated all functions use the latest tranche first to send/burn tokens (First In First Out), this can be changed in detail by owners\r\n        while(burnedAmount < _amount) {\r\n            uint trancheId = AllTranches[AllTranches.length - counter];\r\n                \r\n            if(OwnerToTrancheToBalance[_from][trancheId] >= _amount.sub(burnedAmount)) {\r\n                totalAmount = totalAmount.sub((_amount.sub(burnedAmount)));\r\n                OwnerToBalance[_from] = OwnerToBalance[_from].sub((_amount.sub(burnedAmount)));\r\n                OwnerToTrancheToBalance[_from][trancheId].sub((_amount.sub(burnedAmount)));\r\n                emit BurnedByTranche(trancheId, msg.sender, _from, _amount, _operatorData);\r\n                break;\r\n            }\r\n            else {\r\n                uint burnTx = OwnerToTrancheToBalance[_from][trancheId];\r\n                totalAmount = totalAmount.sub(burnTx);\r\n                OwnerToBalance[_from] = OwnerToBalance[_from].sub(burnTx);\r\n                OwnerToTrancheToBalance[_from][trancheId].sub(burnTx);\r\n\r\n                burnedAmount = burnedAmount.add(burnTx);\r\n                counter = counter.add(1);\r\n                emit BurnedByTranche(trancheId, msg.sender, _from, _amount, _operatorData);\r\n            }\r\n        }\r\n        emit Burned(msg.sender, _from, _amount, _operatorData);\r\n        if (erc20compatible) {emit Transfer(_from, address(0x0), _amount);}\r\n    }\r\n\r\n    ///@notice burn function can be used by Company AND private token holder, important to fullfil onlyOwner requirement\r\n    function burnByTranche(uint _trancheId, address _from, uint _amount, bytes _operatorData) public onlyOwner(_from) {\r\n        _burnByTranche(_trancheId, _from, _amount, _operatorData);\r\n    }\r\n    function _burnByTranche(uint _trancheId, address _from, uint _amount, bytes _operatorData) private checkGranularity(_amount) {\r\n        require((OwnerToTrancheToBalance[_from][_trancheId] >= _amount), \"not enough tranche-specific funding to burn\");\r\n                \r\n        totalAmount = totalAmount.sub(_amount);\r\n        OwnerToBalance[_from] = OwnerToBalance[_from].sub(_amount);\r\n        OwnerToTrancheToBalance[_from][_trancheId].sub(_amount);\r\n\r\n        emit BurnedByTranche(_trancheId, msg.sender, _from, _amount, _operatorData);\r\n        emit Burned(msg.sender, _from, _amount, _operatorData);\r\n        if (erc20compatible) {emit Transfer(_from, address(0x0), _amount);}\r\n    }\r\n\r\n    ///@notice ERC777 mandatory\r\n    function operatorBurn(address _from, uint _amount, bytes _operatorData) public {\r\n        require((isOperatorFor(msg.sender, _from)), \"sender is not authorized to operate with _from's account\");\r\n        _burn(_from, _amount, _operatorData);\r\n    }\r\n\r\n    ///@notice EIP1400 mandatory\r\n    function operatorBurnByTranche(uint _trancheId, address _from, uint _amount, bytes _operatorData) public {\r\n        require((isOperatorFor(msg.sender, _from)), \"sender is not authorized to operate with _from's account\");\r\n        _burnByTranche(_trancheId, _from, _amount, _operatorData);\r\n    }\r\n\r\n    ///@dev generates an unique 8 digit tokenId by hashing string and a nonce\r\n    function _generateRandomId(bytes32 _companyName) private view returns(uint) {\r\n        uint random = uint(keccak256(abi.encodePacked(_companyName, randNonce)));\r\n        randNonce.add(1);\r\n        return random % idModulus;\r\n    }\r\n    ///@dev iternal function to push new address to shareholder book, checks if address exists first\r\n    function _toShareholderbook(address _addr) internal returns(bool success_) {\r\n        if (_checkExistence(_addr)) return false;\r\n\r\n        TotalDistribution.push(address(_addr));\r\n        AddressExists[_addr] = true;\r\n\r\n        emit newShareholder(_addr, TotalDistribution.length);\r\n        return true;\r\n    }\r\n\r\n    /*\r\n    ///@dev manage documents associated with token\r\n    ///@notice EIP1400 proposal\r\n    function setDocument(bytes32 _name, string _url, bytes32 _documentHash) external payable {\r\n        require(msg.value == accreditationFee);\r\n    }\r\n    function getDocument(bytes32 _name) external view returns(string, bytes32){\r\n        return (url_, documentHash_);\r\n    }\r\n    */\r\n\r\n    ///@notice advocate can clear a companies request, changing status pending into active token\r\n    function clearRequest(bytes32 _companyName) external {\r\n        require((LevelOfAccreditation[msg.sender] == 2), \"requires advocate to activate token\");\r\n        CompanyToRequest[_companyName] = true;\r\n    }\r\n\r\n    ///@notice ERC20 mandatory\r\n    event Transfer(address _from, address _to, uint _txamount);\r\n    ///@dev adjustments and new length of shareholder book\r\n    event newShareholder(address newShareholder, uint length);\r\n\r\n//-----EquityTokenFactory-----------------------------------------------------------------------------------------------------------------\r\n\r\n\r\n//-----TokenGovernance-------------------------------------------------------------------------------------------------------------------- \r\n    ///@notice fires event if authorization of operator for an address\r\n    ///@notice ERC777 mandatory\r\n    event AuthorizedOperator(address operator, address tokenHolder);\r\n    event RevokedOperator(address indexed operator, address indexed tokenHolder);\r\n\r\n    mapping(address => mapping(address => bool)) internal mAuthorized;\r\n\r\n    ///@notice ERC777 mandatory\r\n    function defaultOperators() public view returns(address[2]) {\r\n        return defaultOperator;\r\n    }\r\n\r\n    ///@notice authorize a third party _operator to manage (send) msg.sender's tokens. msg.sender always operator himself, thus requirement\r\n    ///@notice ERC777 mandatory\r\n    function authorizeOperator(address _operator) public {\r\n        require((_operator != msg.sender), \"msg.sender cannot authorized himself\");\r\n        mAuthorized[_operator][msg.sender] = true;\r\n        emit AuthorizedOperator(_operator, msg.sender);\r\n    }\r\n\r\n    ///@notice revoke a third party _operator's rights to manage (send) msg.sender's tokens.\r\n    ///@notice ERC777 mandatory, EIP1400 & EIP1410 in discussion\r\n    ///@notice it may be that regulations require an issuer or a trusted third party to retain the power thus it can be that revoking an operator\r\n    /// MUST NOT be allowed\r\n    function revokeOperator(address _operator) public {\r\n        require((_operator != msg.sender), \"msg.sender cannot revoke himself\");\r\n        mAuthorized[_operator][msg.sender] = false;\r\n        emit RevokedOperator(_operator, msg.sender);\r\n    }\r\n\r\n    ///@notice check whether the _operator address is allowed to manage the tokens held by _tokenHolder address.\r\n    ///@return true if _operator is authorized for _tokenHolder\r\n    ///@notice ERC777 mandatory\r\n    function isOperatorFor(address _operator, address _tokenHolder) public view returns(bool) {\r\n        return _operator == _tokenHolder || mAuthorized[_operator][_tokenHolder];\r\n    }\r\n\r\n    function setGovernmentAddress(address _addr) external onlyOwnerOfCom {\r\n        require((_addr != address(0x0)), \"_addr address does not exist or is 0x0 (burning)\");\r\n        governmentAddress = _addr;\r\n    }\r\n\r\n    ///@notice owner can stop issuance, not revertable!\r\n    ///@notice EIP1400 mandatory\r\n    function stopIssuance() external onlyOwnerOfCom {\r\n        isIssuable = false;\r\n    }\r\n\r\n    ///@notice provides transparency wether defaultOperators can be adjusted by company: if government address is set company changed it and is thus not controllable (return false)\r\n    function isControllable() external view returns(bool) {\r\n        if(governmentAddress != address(0x0)) {return false;}\r\n        return true;\r\n    }\r\n\r\n    ///@dev checks existence of address in shareholder book by using mapping (address => bool)\r\n    function _checkExistence(address _addr) internal view returns(bool success_) {\r\n        require((_isRegularAddress(_addr) == true), \"not a regular address\");\r\n        return AddressExists[_addr];\r\n    }\r\n    \r\n    ///@notice check whether an address is a regular address (0x0 address and length of address). Suppress warning by \"// solhint-disable-line no-inline-assembly\"\r\n    function _isRegularAddress(address _addr) internal view returns(bool) {\r\n        if (_addr == 0x0) { \r\n            return false; }\r\n        uint size;\r\n        assembly { size := extcodesize(_addr) }\r\n        return size == 0;\r\n    }\r\n\r\n\r\n    /*\r\n    ///@dev manage documents associated with investor\r\n    function uploadDocument(bytes32 _name, string _url, bytes32 _documentHash) payable external {\r\n        require(msg.value == accreditationFee);\r\n    }\r\n\r\n    function checkDocument(bytes32 _name) external view returns(string, bytes32) {\r\n        return (url_, documentHash_);\r\n    } */\r\n\r\n    ///@notice advocate can approve investor to another level of accreditation; 0 = no investor, 1 = approved investor, 2 = advocate\r\n    function approveAccreditation(address _address) external {\r\n        require((LevelOfAccreditation[msg.sender] == 2), \"requires advocate to approve investor\");\r\n        LevelOfAccreditation[_address] = 1;\r\n    }\r\n\r\n    ///@notice this modul implements lockup periods, for the sake of simplicity it is not active within the contract.\r\n    /// one has to set LockupPeriod within minting function, and the require _isReady == true within transaction functions.\r\n    uint internal LockupPeriod = 365 days;\r\n\r\n    function _isReady(uint _trancheId) internal view returns(bool) {\r\n        uint readyTime = uint(IdToMetaData[_trancheId].mintedTimeStamp + LockupPeriod);\r\n        return (block.timestamp >= readyTime);\r\n    }\r\n\r\n    function setLockup(uint adjustedLockup) public onlyOwnerOfCom {\r\n        LockupPeriod = adjustedLockup;\r\n    }\r\n\r\n//-----TokenGovernance-------------------------------------------------------------------------------------------------------------------- \r\n\r\n}",
  "sourcePath": "/mnt/c/Solidity/solidity_eto/contracts/EquityTokenFactory.sol",
  "compiler": {
    "name": "solc",
    "version": "0.4.24+commit.e67f0147.Emscripten.clang"
  },
  "schemaVersion": "2.0.1",
  "updatedAt": "2018-11-02T12:13:24.708Z"
}