{
  "contractName": "EquityToken",
  "abi": [
    {
      "constant": false,
      "inputs": [
        {
          "name": "_name",
          "type": "bytes32"
        },
        {
          "name": "_key",
          "type": "string"
        },
        {
          "name": "_documentHash",
          "type": "bytes32"
        }
      ],
      "name": "setDocument",
      "outputs": [],
      "payable": true,
      "stateMutability": "payable",
      "type": "function"
    },
    {
      "constant": true,
      "inputs": [],
      "name": "defaultOperators",
      "outputs": [
        {
          "name": "",
          "type": "address[2]"
        }
      ],
      "payable": false,
      "stateMutability": "view",
      "type": "function"
    },
    {
      "constant": true,
      "inputs": [
        {
          "name": "",
          "type": "uint256"
        }
      ],
      "name": "TotalDistribution",
      "outputs": [
        {
          "name": "",
          "type": "address"
        }
      ],
      "payable": false,
      "stateMutability": "view",
      "type": "function"
    },
    {
      "constant": false,
      "inputs": [
        {
          "name": "_trancheId",
          "type": "uint256"
        },
        {
          "name": "_from",
          "type": "address"
        },
        {
          "name": "_amount",
          "type": "uint256"
        },
        {
          "name": "_operatorData",
          "type": "bytes"
        }
      ],
      "name": "burnByTranche",
      "outputs": [],
      "payable": false,
      "stateMutability": "nonpayable",
      "type": "function"
    },
    {
      "constant": true,
      "inputs": [],
      "name": "isIssuable",
      "outputs": [
        {
          "name": "",
          "type": "bool"
        }
      ],
      "payable": false,
      "stateMutability": "view",
      "type": "function"
    },
    {
      "constant": false,
      "inputs": [
        {
          "name": "_from",
          "type": "address"
        },
        {
          "name": "_amount",
          "type": "uint256"
        },
        {
          "name": "_operatorData",
          "type": "bytes"
        }
      ],
      "name": "burn",
      "outputs": [],
      "payable": false,
      "stateMutability": "nonpayable",
      "type": "function"
    },
    {
      "constant": true,
      "inputs": [],
      "name": "isControllable",
      "outputs": [
        {
          "name": "",
          "type": "bool"
        }
      ],
      "payable": false,
      "stateMutability": "view",
      "type": "function"
    },
    {
      "constant": false,
      "inputs": [
        {
          "name": "_name",
          "type": "bytes32"
        },
        {
          "name": "_key",
          "type": "string"
        },
        {
          "name": "_documentHash",
          "type": "bytes32"
        }
      ],
      "name": "uploadDocument",
      "outputs": [],
      "payable": true,
      "stateMutability": "payable",
      "type": "function"
    },
    {
      "constant": false,
      "inputs": [
        {
          "name": "_addr",
          "type": "address"
        }
      ],
      "name": "setGovernmentAddress",
      "outputs": [],
      "payable": false,
      "stateMutability": "nonpayable",
      "type": "function"
    },
    {
      "constant": false,
      "inputs": [
        {
          "name": "_adjustedLockup",
          "type": "uint256"
        }
      ],
      "name": "setLockup",
      "outputs": [],
      "payable": false,
      "stateMutability": "nonpayable",
      "type": "function"
    },
    {
      "constant": true,
      "inputs": [],
      "name": "accreditationFee",
      "outputs": [
        {
          "name": "",
          "type": "uint256"
        }
      ],
      "payable": false,
      "stateMutability": "view",
      "type": "function"
    },
    {
      "constant": false,
      "inputs": [
        {
          "name": "_authorizedInvestor",
          "type": "address"
        }
      ],
      "name": "authorizeRequest",
      "outputs": [],
      "payable": false,
      "stateMutability": "nonpayable",
      "type": "function"
    },
    {
      "constant": false,
      "inputs": [
        {
          "name": "_operator",
          "type": "address"
        }
      ],
      "name": "authorizeOperator",
      "outputs": [],
      "payable": false,
      "stateMutability": "nonpayable",
      "type": "function"
    },
    {
      "constant": false,
      "inputs": [
        {
          "name": "_amount",
          "type": "uint256"
        },
        {
          "name": "_userData",
          "type": "bytes"
        },
        {
          "name": "_operatorData",
          "type": "bytes"
        }
      ],
      "name": "mint",
      "outputs": [],
      "payable": false,
      "stateMutability": "nonpayable",
      "type": "function"
    },
    {
      "constant": true,
      "inputs": [
        {
          "name": "_name",
          "type": "bytes32"
        }
      ],
      "name": "getDocument",
      "outputs": [
        {
          "name": "",
          "type": "string"
        },
        {
          "name": "",
          "type": "bytes32"
        }
      ],
      "payable": false,
      "stateMutability": "view",
      "type": "function"
    },
    {
      "constant": false,
      "inputs": [],
      "name": "stopIssuance",
      "outputs": [],
      "payable": false,
      "stateMutability": "nonpayable",
      "type": "function"
    },
    {
      "constant": false,
      "inputs": [
        {
          "name": "_from",
          "type": "address"
        },
        {
          "name": "_amount",
          "type": "uint256"
        },
        {
          "name": "_operatorData",
          "type": "bytes"
        }
      ],
      "name": "operatorBurn",
      "outputs": [],
      "payable": false,
      "stateMutability": "nonpayable",
      "type": "function"
    },
    {
      "constant": true,
      "inputs": [
        {
          "name": "",
          "type": "uint256"
        }
      ],
      "name": "Proposals",
      "outputs": [
        {
          "name": "name",
          "type": "bytes32"
        },
        {
          "name": "voteCount",
          "type": "uint256"
        }
      ],
      "payable": false,
      "stateMutability": "view",
      "type": "function"
    },
    {
      "constant": true,
      "inputs": [],
      "name": "governmentAddress",
      "outputs": [
        {
          "name": "",
          "type": "address"
        }
      ],
      "payable": false,
      "stateMutability": "view",
      "type": "function"
    },
    {
      "constant": true,
      "inputs": [
        {
          "name": "_operator",
          "type": "address"
        },
        {
          "name": "_tokenHolder",
          "type": "address"
        }
      ],
      "name": "isOperatorFor",
      "outputs": [
        {
          "name": "",
          "type": "bool"
        }
      ],
      "payable": false,
      "stateMutability": "view",
      "type": "function"
    },
    {
      "constant": false,
      "inputs": [
        {
          "name": "_trancheId",
          "type": "uint256"
        },
        {
          "name": "_from",
          "type": "address"
        },
        {
          "name": "_amount",
          "type": "uint256"
        },
        {
          "name": "_operatorData",
          "type": "bytes"
        }
      ],
      "name": "operatorBurnByTranche",
      "outputs": [],
      "payable": false,
      "stateMutability": "nonpayable",
      "type": "function"
    },
    {
      "constant": false,
      "inputs": [
        {
          "name": "_companyName",
          "type": "bytes32"
        },
        {
          "name": "_tokenTicker",
          "type": "bytes32"
        },
        {
          "name": "_granularity",
          "type": "uint256"
        }
      ],
      "name": "createToken",
      "outputs": [],
      "payable": false,
      "stateMutability": "nonpayable",
      "type": "function"
    },
    {
      "constant": false,
      "inputs": [
        {
          "name": "_companyName",
          "type": "bytes32"
        }
      ],
      "name": "clearRequest",
      "outputs": [],
      "payable": false,
      "stateMutability": "nonpayable",
      "type": "function"
    },
    {
      "constant": false,
      "inputs": [
        {
          "name": "_operator",
          "type": "address"
        }
      ],
      "name": "revokeOperator",
      "outputs": [],
      "payable": false,
      "stateMutability": "nonpayable",
      "type": "function"
    },
    {
      "anonymous": false,
      "inputs": [
        {
          "indexed": false,
          "name": "_message",
          "type": "string"
        },
        {
          "indexed": false,
          "name": "_company",
          "type": "address"
        }
      ],
      "name": "adHocMessage",
      "type": "event"
    },
    {
      "anonymous": false,
      "inputs": [
        {
          "indexed": false,
          "name": "winnerName",
          "type": "bytes32"
        },
        {
          "indexed": false,
          "name": "countVotes",
          "type": "uint256"
        }
      ],
      "name": "votingSuccessful",
      "type": "event"
    },
    {
      "anonymous": false,
      "inputs": [
        {
          "indexed": false,
          "name": "_from",
          "type": "address"
        },
        {
          "indexed": false,
          "name": "_to",
          "type": "address"
        },
        {
          "indexed": false,
          "name": "_txamount",
          "type": "uint256"
        }
      ],
      "name": "Approval",
      "type": "event"
    },
    {
      "anonymous": false,
      "inputs": [
        {
          "indexed": false,
          "name": "companyName",
          "type": "bytes32"
        },
        {
          "indexed": false,
          "name": "tokenTicker",
          "type": "bytes32"
        },
        {
          "indexed": false,
          "name": "companyOwner",
          "type": "address"
        }
      ],
      "name": "newTokenIssuance",
      "type": "event"
    },
    {
      "anonymous": false,
      "inputs": [
        {
          "indexed": false,
          "name": "operator",
          "type": "address"
        },
        {
          "indexed": false,
          "name": "to",
          "type": "address"
        },
        {
          "indexed": false,
          "name": "amount",
          "type": "uint256"
        },
        {
          "indexed": false,
          "name": "userData",
          "type": "bytes"
        },
        {
          "indexed": false,
          "name": "operatorData",
          "type": "bytes"
        }
      ],
      "name": "Minted",
      "type": "event"
    },
    {
      "anonymous": false,
      "inputs": [
        {
          "indexed": false,
          "name": "operator",
          "type": "address"
        },
        {
          "indexed": false,
          "name": "from",
          "type": "address"
        },
        {
          "indexed": false,
          "name": "amount",
          "type": "uint256"
        },
        {
          "indexed": false,
          "name": "operatorData",
          "type": "bytes"
        }
      ],
      "name": "Burned",
      "type": "event"
    },
    {
      "anonymous": false,
      "inputs": [
        {
          "indexed": false,
          "name": "trancheId",
          "type": "uint256"
        },
        {
          "indexed": false,
          "name": "operator",
          "type": "address"
        },
        {
          "indexed": false,
          "name": "to",
          "type": "address"
        },
        {
          "indexed": false,
          "name": "amount",
          "type": "uint256"
        },
        {
          "indexed": false,
          "name": "userData",
          "type": "bytes"
        },
        {
          "indexed": false,
          "name": "operatorData",
          "type": "bytes"
        }
      ],
      "name": "MintedByTranche",
      "type": "event"
    },
    {
      "anonymous": false,
      "inputs": [
        {
          "indexed": false,
          "name": "trancheId",
          "type": "uint256"
        },
        {
          "indexed": false,
          "name": "operator",
          "type": "address"
        },
        {
          "indexed": false,
          "name": "from",
          "type": "address"
        },
        {
          "indexed": false,
          "name": "amount",
          "type": "uint256"
        },
        {
          "indexed": false,
          "name": "operatorData",
          "type": "bytes"
        }
      ],
      "name": "BurnedByTranche",
      "type": "event"
    },
    {
      "anonymous": false,
      "inputs": [
        {
          "indexed": false,
          "name": "newShareholder",
          "type": "address"
        },
        {
          "indexed": false,
          "name": "length",
          "type": "uint256"
        }
      ],
      "name": "newShareholder",
      "type": "event"
    },
    {
      "anonymous": false,
      "inputs": [
        {
          "indexed": false,
          "name": "_from",
          "type": "address"
        },
        {
          "indexed": false,
          "name": "_to",
          "type": "address"
        },
        {
          "indexed": false,
          "name": "_txamount",
          "type": "uint256"
        }
      ],
      "name": "Transfer",
      "type": "event"
    },
    {
      "anonymous": false,
      "inputs": [
        {
          "indexed": false,
          "name": "operator",
          "type": "address"
        },
        {
          "indexed": false,
          "name": "tokenHolder",
          "type": "address"
        }
      ],
      "name": "AuthorizedOperator",
      "type": "event"
    },
    {
      "anonymous": false,
      "inputs": [
        {
          "indexed": true,
          "name": "operator",
          "type": "address"
        },
        {
          "indexed": true,
          "name": "tokenHolder",
          "type": "address"
        }
      ],
      "name": "RevokedOperator",
      "type": "event"
    },
    {
      "constant": true,
      "inputs": [],
      "name": "name",
      "outputs": [
        {
          "name": "",
          "type": "bytes32"
        }
      ],
      "payable": false,
      "stateMutability": "view",
      "type": "function"
    },
    {
      "constant": true,
      "inputs": [],
      "name": "symbol",
      "outputs": [
        {
          "name": "",
          "type": "bytes32"
        }
      ],
      "payable": false,
      "stateMutability": "view",
      "type": "function"
    },
    {
      "constant": true,
      "inputs": [],
      "name": "granularity",
      "outputs": [
        {
          "name": "",
          "type": "uint256"
        }
      ],
      "payable": false,
      "stateMutability": "view",
      "type": "function"
    },
    {
      "constant": true,
      "inputs": [
        {
          "name": "_addr",
          "type": "address"
        }
      ],
      "name": "getBalanceOfInEth",
      "outputs": [
        {
          "name": "",
          "type": "uint256"
        }
      ],
      "payable": false,
      "stateMutability": "view",
      "type": "function"
    },
    {
      "constant": true,
      "inputs": [
        {
          "name": "_addr",
          "type": "address"
        }
      ],
      "name": "balanceOf",
      "outputs": [
        {
          "name": "",
          "type": "uint256"
        }
      ],
      "payable": false,
      "stateMutability": "view",
      "type": "function"
    },
    {
      "constant": true,
      "inputs": [
        {
          "name": "_addr",
          "type": "address"
        },
        {
          "name": "_trancheId",
          "type": "uint256"
        }
      ],
      "name": "balanceOfByTranche",
      "outputs": [
        {
          "name": "",
          "type": "uint256"
        }
      ],
      "payable": false,
      "stateMutability": "view",
      "type": "function"
    },
    {
      "constant": true,
      "inputs": [
        {
          "name": "_addr",
          "type": "address"
        }
      ],
      "name": "tranchesOf",
      "outputs": [
        {
          "name": "",
          "type": "uint256[]"
        }
      ],
      "payable": false,
      "stateMutability": "view",
      "type": "function"
    },
    {
      "constant": true,
      "inputs": [],
      "name": "totalSupply",
      "outputs": [
        {
          "name": "",
          "type": "uint256"
        }
      ],
      "payable": false,
      "stateMutability": "view",
      "type": "function"
    },
    {
      "constant": true,
      "inputs": [],
      "name": "getInfosEquityToken",
      "outputs": [
        {
          "name": "",
          "type": "uint256"
        },
        {
          "name": "",
          "type": "bytes32"
        },
        {
          "name": "",
          "type": "bytes32"
        },
        {
          "name": "",
          "type": "uint256"
        },
        {
          "name": "",
          "type": "uint256"
        }
      ],
      "payable": false,
      "stateMutability": "view",
      "type": "function"
    },
    {
      "constant": true,
      "inputs": [],
      "name": "getAllAddressesEquityToken",
      "outputs": [
        {
          "name": "",
          "type": "address[]"
        }
      ],
      "payable": false,
      "stateMutability": "view",
      "type": "function"
    },
    {
      "constant": true,
      "inputs": [],
      "name": "getCompanyOwner",
      "outputs": [
        {
          "name": "",
          "type": "address"
        }
      ],
      "payable": false,
      "stateMutability": "view",
      "type": "function"
    },
    {
      "constant": false,
      "inputs": [
        {
          "name": "_addr",
          "type": "address"
        }
      ],
      "name": "setCompanyOwner",
      "outputs": [],
      "payable": false,
      "stateMutability": "nonpayable",
      "type": "function"
    },
    {
      "constant": false,
      "inputs": [
        {
          "name": "_message",
          "type": "string"
        }
      ],
      "name": "sendAdHocMessage",
      "outputs": [],
      "payable": false,
      "stateMutability": "nonpayable",
      "type": "function"
    },
    {
      "constant": false,
      "inputs": [
        {
          "name": "proposalNames",
          "type": "bytes32[]"
        }
      ],
      "name": "startBallot",
      "outputs": [],
      "payable": false,
      "stateMutability": "nonpayable",
      "type": "function"
    },
    {
      "constant": false,
      "inputs": [
        {
          "name": "_to",
          "type": "address"
        }
      ],
      "name": "delegate",
      "outputs": [],
      "payable": false,
      "stateMutability": "nonpayable",
      "type": "function"
    },
    {
      "constant": false,
      "inputs": [
        {
          "name": "_proposal",
          "type": "uint256"
        }
      ],
      "name": "vote",
      "outputs": [],
      "payable": false,
      "stateMutability": "nonpayable",
      "type": "function"
    },
    {
      "constant": false,
      "inputs": [],
      "name": "winningProposal",
      "outputs": [
        {
          "name": "winnerName_",
          "type": "bytes32"
        }
      ],
      "payable": false,
      "stateMutability": "nonpayable",
      "type": "function"
    },
    {
      "constant": true,
      "inputs": [],
      "name": "getProposals",
      "outputs": [
        {
          "name": "",
          "type": "bytes32[]"
        }
      ],
      "payable": false,
      "stateMutability": "view",
      "type": "function"
    },
    {
      "constant": true,
      "inputs": [
        {
          "name": "_index",
          "type": "uint256"
        }
      ],
      "name": "getVoteCount",
      "outputs": [
        {
          "name": "voteCount_",
          "type": "uint256"
        }
      ],
      "payable": false,
      "stateMutability": "view",
      "type": "function"
    },
    {
      "constant": false,
      "inputs": [],
      "name": "disableERC20",
      "outputs": [],
      "payable": false,
      "stateMutability": "nonpayable",
      "type": "function"
    },
    {
      "constant": false,
      "inputs": [],
      "name": "enableERC20",
      "outputs": [],
      "payable": false,
      "stateMutability": "nonpayable",
      "type": "function"
    },
    {
      "constant": true,
      "inputs": [],
      "name": "decimals",
      "outputs": [
        {
          "name": "",
          "type": "uint8"
        }
      ],
      "payable": false,
      "stateMutability": "view",
      "type": "function"
    },
    {
      "constant": false,
      "inputs": [
        {
          "name": "_spender",
          "type": "address"
        },
        {
          "name": "_txamount",
          "type": "uint256"
        }
      ],
      "name": "approve",
      "outputs": [
        {
          "name": "success_",
          "type": "bool"
        }
      ],
      "payable": false,
      "stateMutability": "nonpayable",
      "type": "function"
    },
    {
      "constant": true,
      "inputs": [
        {
          "name": "_owner",
          "type": "address"
        },
        {
          "name": "_spender",
          "type": "address"
        }
      ],
      "name": "allowance",
      "outputs": [
        {
          "name": "remaining",
          "type": "uint256"
        }
      ],
      "payable": false,
      "stateMutability": "view",
      "type": "function"
    }
  ],
  "bytecode": "0x60806040526301e133806016556001601760006101000a81548160ff021916908315150217905550600060185564e8d4a51000601955670de0b6b3a7640000601b5534801561004d57600080fd5b50615b91806200005e6000396000f300608060405260043610610246576000357c0100000000000000000000000000000000000000000000000000000000900463ffffffff168063010648ca1461024b5780630121b93f1461029557806306e48538146102c257806306fdde0314610315578063070c87f914610348578063095ea7b31461035f5780630b366df1146103c45780631348bf221461043157806318160ddd1461048857806318d46718146104b35780632a88511a1461050a5780632d3d3f9c146105a75780632f1cae85146105ea578063313ce5671461061957806344d171871461064a5780634c783bf5146106dd5780635547641b1461070c578063556f0dc7146107565780635c19a95c14610781578063609ff1bd146107c457806362564c48146107f75780636a137219146108635780636ae6b459146108a65780636e4a2194146108d357806370a08231146108fe5780638cbd5f4514610955578063959b8c3f1461099857806395d89b41146109db578063a3cba09a14610a0e578063b10d6b4114610ac7578063b2c2f2e814610b80578063b8fe4c3f14610bc1578063c018f1d014610bd8578063c073d83614610c41578063ce30b8d914610cad578063d1dbe7d814610d40578063d570ab3414610d90578063d95b637114610de7578063dad3e6dd14610e62578063dbb8299b14610eb9578063dd62ed3e14610f56578063dfa9429214610fcd578063e3da9f8f14611016578063e53286c5146110ae578063e75b0cf5146110df578063f922f21614611140578063fad8b32a14611157578063fc1865a01461119a575b600080fd5b61029360048036038101908080356000191690602001909291908035906020019082018035906020019190919293919293908035600019169060200190929190505050611200565b005b3480156102a157600080fd5b506102c060048036038101908080359060200190929190505050611368565b005b3480156102ce57600080fd5b506102d76114b7565b6040518082600260200280838360005b838110156103025780820151818401526020810190506102e7565b5050505090500191505060405180910390f35b34801561032157600080fd5b5061032a611538565b60405180826000191660001916815260200191505060405180910390f35b34801561035457600080fd5b5061035d611542565b005b34801561036b57600080fd5b506103aa600480360381019080803573ffffffffffffffffffffffffffffffffffffffff1690602001909291908035906020019092919050505061164a565b604051808215151515815260200191505060405180910390f35b3480156103d057600080fd5b506103ef600480360381019080803590602001909291905050506118cd565b604051808273ffffffffffffffffffffffffffffffffffffffff1673ffffffffffffffffffffffffffffffffffffffff16815260200191505060405180910390f35b34801561043d57600080fd5b5061044661190b565b60405180868152602001856000191660001916815260200184600019166000191681526020018381526020018281526020019550505050505060405180910390f35b34801561049457600080fd5b5061049d611933565b6040518082815260200191505060405180910390f35b3480156104bf57600080fd5b506104f4600480360381019080803573ffffffffffffffffffffffffffffffffffffffff16906020019092919050505061193d565b6040518082815260200191505060405180910390f35b34801561051657600080fd5b506105a560048036038101908080359060200190929190803573ffffffffffffffffffffffffffffffffffffffff16906020019092919080359060200190929190803590602001908201803590602001908080601f01602080910402602001604051908101604052809392919081815260200183838082843782019150505050505091929192905050506119fd565b005b3480156105b357600080fd5b506105e8600480360381019080803573ffffffffffffffffffffffffffffffffffffffff169060200190929190505050611ab4565b005b3480156105f657600080fd5b506105ff611be3565b604051808215151515815260200191505060405180910390f35b34801561062557600080fd5b5061062e611bf6565b604051808260ff1660ff16815260200191505060405180910390f35b34801561065657600080fd5b506106db600480360381019080803573ffffffffffffffffffffffffffffffffffffffff16906020019092919080359060200190929190803590602001908201803590602001908080601f0160208091040260200160405190810160405280939291908181526020018383808284378201915050505050509192919290505050611ca9565b005b3480156106e957600080fd5b506106f2611d5e565b604051808215151515815260200191505060405180910390f35b61075460048036038101908080356000191690602001909291908035906020019082018035906020019190919293919293908035600019169060200190929190505050611dc8565b005b34801561076257600080fd5b5061076b611f30565b6040518082815260200191505060405180910390f35b34801561078d57600080fd5b506107c2600480360381019080803573ffffffffffffffffffffffffffffffffffffffff169060200190929190505050611f3a565b005b3480156107d057600080fd5b506107d9612392565b60405180826000191660001916815260200191505060405180910390f35b34801561080357600080fd5b5061080c61247d565b6040518080602001828103825283818151815260200191508051906020019060200280838360005b8381101561084f578082015181840152602081019050610834565b505050509050019250505060405180910390f35b34801561086f57600080fd5b506108a4600480360381019080803573ffffffffffffffffffffffffffffffffffffffff1690602001909291905050506124ef565b005b3480156108b257600080fd5b506108d1600480360381019080803590602001909291905050506126c8565b005b3480156108df57600080fd5b506108e86127bd565b6040518082815260200191505060405180910390f35b34801561090a57600080fd5b5061093f600480360381019080803573ffffffffffffffffffffffffffffffffffffffff1690602001909291905050506127c3565b6040518082815260200191505060405180910390f35b34801561096157600080fd5b50610996600480360381019080803573ffffffffffffffffffffffffffffffffffffffff16906020019092919050505061280b565b005b3480156109a457600080fd5b506109d9600480360381019080803573ffffffffffffffffffffffffffffffffffffffff16906020019092919050505061293f565b005b3480156109e757600080fd5b506109f0612b38565b60405180826000191660001916815260200191505060405180910390f35b348015610a1a57600080fd5b50610ac560048036038101908080359060200190929190803590602001908201803590602001908080601f0160208091040260200160405190810160405280939291908181526020018383808284378201915050505050509192919290803590602001908201803590602001908080601f0160208091040260200160405190810160405280939291908181526020018383808284378201915050505050509192919290505050612b42565b005b348015610ad357600080fd5b50610af660048036038101908080356000191690602001909291905050506133ff565b60405180806020018360001916600019168152602001828103825284818151815260200191508051906020019080838360005b83811015610b44578082015181840152602081019050610b29565b50505050905090810190601f168015610b715780820380516001836020036101000a031916815260200191505b50935050505060405180910390f35b348015610b8c57600080fd5b50610bab6004803603810190808035906020019092919050505061361d565b6040518082815260200191505060405180910390f35b348015610bcd57600080fd5b50610bd661364a565b005b348015610be457600080fd5b50610c3f600480360381019080803590602001908201803590602001908080601f0160208091040260200160405190810160405280939291908181526020018383808284378201915050505050509192919290505050613752565b005b348015610c4d57600080fd5b50610c56613825565b6040518080602001828103825283818151815260200191508051906020019060200280838360005b83811015610c99578082015181840152602081019050610c7e565b505050509050019250505060405180910390f35b348015610cb957600080fd5b50610d3e600480360381019080803573ffffffffffffffffffffffffffffffffffffffff16906020019092919080359060200190929190803590602001908201803590602001908080601f01602080910402602001604051908101604052809392919081815260200183838082843782019150505050505091929192905050506138b3565b005b348015610d4c57600080fd5b50610d6b60048036038101908080359060200190929190505050613967565b6040518083600019166000191681526020018281526020019250505060405180910390f35b348015610d9c57600080fd5b50610da561399a565b604051808273ffffffffffffffffffffffffffffffffffffffff1673ffffffffffffffffffffffffffffffffffffffff16815260200191505060405180910390f35b348015610df357600080fd5b50610e48600480360381019080803573ffffffffffffffffffffffffffffffffffffffff169060200190929190803573ffffffffffffffffffffffffffffffffffffffff1690602001909291905050506139c0565b604051808215151515815260200191505060405180910390f35b348015610e6e57600080fd5b50610e77613a8a565b604051808273ffffffffffffffffffffffffffffffffffffffff1673ffffffffffffffffffffffffffffffffffffffff16815260200191505060405180910390f35b348015610ec557600080fd5b50610f5460048036038101908080359060200190929190803573ffffffffffffffffffffffffffffffffffffffff16906020019092919080359060200190929190803590602001908201803590602001908080601f0160208091040260200160405190810160405280939291908181526020018383808284378201915050505050509192919290505050613ab4565b005b348015610f6257600080fd5b50610fb7600480360381019080803573ffffffffffffffffffffffffffffffffffffffff169060200190929190803573ffffffffffffffffffffffffffffffffffffffff169060200190929190505050613b6a565b6040518082815260200191505060405180910390f35b348015610fd957600080fd5b506110146004803603810190808035600019169060200190929190803560001916906020019092919080359060200190929190505050613c9b565b005b34801561102257600080fd5b50611057600480360381019080803573ffffffffffffffffffffffffffffffffffffffff169060200190929190505050613edc565b6040518080602001828103825283818151815260200191508051906020019060200280838360005b8381101561109a57808201518184015260208101905061107f565b505050509050019250505060405180910390f35b3480156110ba57600080fd5b506110dd6004803603810190808035600019169060200190929190505050613f73565b005b3480156110eb57600080fd5b5061112a600480360381019080803573ffffffffffffffffffffffffffffffffffffffff16906020019092919080359060200190929190505050613faa565b6040518082815260200191505060405180910390f35b34801561114c57600080fd5b50611155614005565b005b34801561116357600080fd5b50611198600480360381019080803573ffffffffffffffffffffffffffffffffffffffff16906020019092919050505061410d565b005b3480156111a657600080fd5b506111fe600480360381019080803590602001908201803590602001908080602002602001604051908101604052809392919081815260200183836020028082843782019150505050505091929192905050506142a3565b005b601b543414151561129f576040517f08c379a00000000000000000000000000000000000000000000000000000000081526004018080602001828103825260288152602001807f6e6f7420656e6f75676820657468657220696e20666f722070617961626c652081526020017f66756e6374696f6e00000000000000000000000000000000000000000000000081525060400191505060405180910390fd5b60156060604051908101604052808660001916815260200185858080601f016020809104026020016040519081016040528093929190818152602001838380828437820191505050505050815260200183600019168152509080600181540180825580915050906001820390600052602060002090600302016000909192909190915060008201518160000190600019169055602082015181600101908051906020019061134e9291906159de565b506040820151816002019060001916905550505050505050565b6000601e60003373ffffffffffffffffffffffffffffffffffffffff1673ffffffffffffffffffffffffffffffffffffffff16815260200190815260200160002090508060010160009054906101000a900460ff16151515611432576040517f08c379a000000000000000000000000000000000000000000000000000000000815260040180806020018281038252600d8152602001807f416c726561647920766f7465640000000000000000000000000000000000000081525060200191505060405180910390fd5b60018160010160006101000a81548160ff02191690831515021790555081816002018190555061148f8160000154601f8481548110151561146f57fe5b9060005260206000209060020201600101546143cb90919063ffffffff16565b601f8381548110151561149e57fe5b9060005260206000209060020201600101819055505050565b6114bf615a5e565b601060028060200260405190810160405280929190826002801561152e576020028201915b8160009054906101000a900473ffffffffffffffffffffffffffffffffffffffff1673ffffffffffffffffffffffffffffffffffffffff16815260200190600101908083116114e4575b5050505050905090565b6000600a54905090565b600f60009054906101000a900473ffffffffffffffffffffffffffffffffffffffff1673ffffffffffffffffffffffffffffffffffffffff163373ffffffffffffffffffffffffffffffffffffffff1614151561162d576040517f08c379a00000000000000000000000000000000000000000000000000000000081526004018080602001828103825260298152602001807f726571756972656d656e74206f6e6c794f776e6572206f6620436f6d70616e7981526020017f206d6f646966696572000000000000000000000000000000000000000000000081525060400191505060405180910390fd5b6001601c60006101000a81548160ff021916908315150217905550565b6000816000600d548281151561165c57fe5b061415156116f8576040517f08c379a00000000000000000000000000000000000000000000000000000000081526004018080602001828103825260338152602001807f756e61626c6520746f206d6f6469667920746f6b656e2062616c616e6365732081526020017f61742074686973206772616e756c61726974790000000000000000000000000081525060400191505060405180910390fd5b601c60009054906101000a900460ff1615156117a2576040517f08c379a00000000000000000000000000000000000000000000000000000000081526004018080602001828103825260258152602001807f657263323020636f6d7061746962696c69747920686173206265656e2064697381526020017f61626c656400000000000000000000000000000000000000000000000000000081525060400191505060405180910390fd5b82600660003373ffffffffffffffffffffffffffffffffffffffff1673ffffffffffffffffffffffffffffffffffffffff16815260200190815260200160002060008673ffffffffffffffffffffffffffffffffffffffff1673ffffffffffffffffffffffffffffffffffffffff168152602001908152602001600020819055507f8c5be1e5ebec7d5bd14f71427d1e84f3dd0314c0f7b2291e5b200ac8c7c3b925338585604051808473ffffffffffffffffffffffffffffffffffffffff1673ffffffffffffffffffffffffffffffffffffffff1681526020018373ffffffffffffffffffffffffffffffffffffffff1673ffffffffffffffffffffffffffffffffffffffff168152602001828152602001935050505060405180910390a1600191505092915050565b6014818154811015156118dc57fe5b906000526020600020016000915054906101000a900473ffffffffffffffffffffffffffffffffffffffff1681565b6000806000806000600954600a54600b54600d54600e54945094509450945094509091929394565b6000600e54905090565b600073__ConvertLib____________________________6396e4ee3d611962846127c3565b60036040518363ffffffff167c0100000000000000000000000000000000000000000000000000000000028152600401808381526020018281526020019250505060206040518083038186803b1580156119bb57600080fd5b505af41580156119cf573d6000803e3d6000fd5b505050506040513d60208110156119e557600080fd5b81019080805190602001909291905050509050919050565b828073ffffffffffffffffffffffffffffffffffffffff163373ffffffffffffffffffffffffffffffffffffffff16141515611aa1576040517f08c379a00000000000000000000000000000000000000000000000000000000081526004018080602001828103825260158152602001807f726571756972656d656e74206f6e6c794f776e6572000000000000000000000081525060200191505060405180910390fd5b611aad858585856143ec565b5050505050565b600f60009054906101000a900473ffffffffffffffffffffffffffffffffffffffff1673ffffffffffffffffffffffffffffffffffffffff163373ffffffffffffffffffffffffffffffffffffffff16141515611b9f576040517f08c379a00000000000000000000000000000000000000000000000000000000081526004018080602001828103825260298152602001807f726571756972656d656e74206f6e6c794f776e6572206f6620436f6d70616e7981526020017f206d6f646966696572000000000000000000000000000000000000000000000081525060400191505060405180910390fd5b80600f60006101000a81548173ffffffffffffffffffffffffffffffffffffffff021916908373ffffffffffffffffffffffffffffffffffffffff16021790555050565b601760009054906101000a900460ff1681565b6000601c60009054906101000a900460ff161515611ca2576040517f08c379a00000000000000000000000000000000000000000000000000000000081526004018080602001828103825260258152602001807f657263323020636f6d7061746962696c69747920686173206265656e2064697381526020017f61626c656400000000000000000000000000000000000000000000000000000081525060400191505060405180910390fd5b6012905090565b828073ffffffffffffffffffffffffffffffffffffffff163373ffffffffffffffffffffffffffffffffffffffff16141515611d4d576040517f08c379a00000000000000000000000000000000000000000000000000000000081526004018080602001828103825260158152602001807f726571756972656d656e74206f6e6c794f776e6572000000000000000000000081525060200191505060405180910390fd5b611d588484846149c7565b50505050565b60008073ffffffffffffffffffffffffffffffffffffffff16601a60009054906101000a900473ffffffffffffffffffffffffffffffffffffffff1673ffffffffffffffffffffffffffffffffffffffff16141515611dc05760009050611dc5565b600190505b90565b601b5434141515611e67576040517f08c379a00000000000000000000000000000000000000000000000000000000081526004018080602001828103825260288152602001807f6e6f7420656e6f75676820657468657220696e20666f722070617961626c652081526020017f66756e6374696f6e00000000000000000000000000000000000000000000000081525060400191505060405180910390fd5b60156060604051908101604052808660001916815260200185858080601f0160208091040260200160405190810160405280939291908181526020018383808284378201915050505050508152602001836000191681525090806001815401808255809150509060018203906000526020600020906003020160009091929091909150600082015181600001906000191690556020820151816001019080519060200190611f169291906159de565b506040820151816002019060001916905550505050505050565b6000600d54905090565b600080601e60003373ffffffffffffffffffffffffffffffffffffffff1673ffffffffffffffffffffffffffffffffffffffff16815260200190815260200160002091508160010160009054906101000a900460ff16151515612005576040517f08c379a00000000000000000000000000000000000000000000000000000000081526004018080602001828103825260118152602001807f596f7520616c726561647920766f74656400000000000000000000000000000081525060200191505060405180910390fd5b3373ffffffffffffffffffffffffffffffffffffffff168373ffffffffffffffffffffffffffffffffffffffff16141515156120a9576040517f08c379a000000000000000000000000000000000000000000000000000000000815260040180806020018281038252601d8152602001807f53656c662d64656c65676174696f6e20697320646973616c6c6f77656400000081525060200191505060405180910390fd5b5b600073ffffffffffffffffffffffffffffffffffffffff16601e60008573ffffffffffffffffffffffffffffffffffffffff1673ffffffffffffffffffffffffffffffffffffffff16815260200190815260200160002060010160019054906101000a900473ffffffffffffffffffffffffffffffffffffffff1673ffffffffffffffffffffffffffffffffffffffff1614151561225057601e60008473ffffffffffffffffffffffffffffffffffffffff1673ffffffffffffffffffffffffffffffffffffffff16815260200190815260200160002060010160019054906101000a900473ffffffffffffffffffffffffffffffffffffffff1692503373ffffffffffffffffffffffffffffffffffffffff168373ffffffffffffffffffffffffffffffffffffffff161415151561224b576040517f08c379a000000000000000000000000000000000000000000000000000000000815260040180806020018281038252601a8152602001807f466f756e642073656c662d64656c65676174696f6e206c6f6f7000000000000081525060200191505060405180910390fd5b6120aa565b60018260010160006101000a81548160ff021916908315150217905550828260010160016101000a81548173ffffffffffffffffffffffffffffffffffffffff021916908373ffffffffffffffffffffffffffffffffffffffff160217905550601e60008473ffffffffffffffffffffffffffffffffffffffff1673ffffffffffffffffffffffffffffffffffffffff16815260200190815260200160002090508060010160009054906101000a900460ff1615612370576123438260000154601f836002015481548110151561232357fe5b9060005260206000209060020201600101546143cb90919063ffffffff16565b601f826002015481548110151561235657fe5b90600052602060002090600202016001018190555061238d565b61238b826000015482600001546143cb90919063ffffffff16565b505b505050565b60008060008060009250600091505b601f8054905082101561240a5782601f838154811015156123be57fe5b90600052602060002090600202016001015411156123fd57601f828154811015156123e557fe5b90600052602060002090600202016001015492508190505b81806001019250506123a1565b601f8181548110151561241957fe5b90600052602060002090600202016000015493507f64cc588a379a8af63188f3443e70b4fa4e3cdad188fd65e3b7b283c2084cddc784846040518083600019166000191681526020018281526020019250505060405180910390a183935050505090565b60608060008090505b601f805490508110156124e757601f818154811015156124a257fe5b90600052602060002090600202016000015482828151811015156124c257fe5b9060200190602002019060001916908160001916815250508080600101915050612486565b819250505090565b600f60009054906101000a900473ffffffffffffffffffffffffffffffffffffffff1673ffffffffffffffffffffffffffffffffffffffff163373ffffffffffffffffffffffffffffffffffffffff161415156125da576040517f08c379a00000000000000000000000000000000000000000000000000000000081526004018080602001828103825260298152602001807f726571756972656d656e74206f6e6c794f776e6572206f6620436f6d70616e7981526020017f206d6f646966696572000000000000000000000000000000000000000000000081525060400191505060405180910390fd5b600115156125e782615383565b1515141515612684576040517f08c379a00000000000000000000000000000000000000000000000000000000081526004018080602001828103825260308152602001807f5f61646472206164647265737320646f6573206e6f74206578697374206f722081526020017f69732030783020286275726e696e67290000000000000000000000000000000081525060400191505060405180910390fd5b80601a60006101000a81548173ffffffffffffffffffffffffffffffffffffffff021916908373ffffffffffffffffffffffffffffffffffffffff16021790555050565b600f60009054906101000a900473ffffffffffffffffffffffffffffffffffffffff1673ffffffffffffffffffffffffffffffffffffffff163373ffffffffffffffffffffffffffffffffffffffff161415156127b3576040517f08c379a00000000000000000000000000000000000000000000000000000000081526004018080602001828103825260298152602001807f726571756972656d656e74206f6e6c794f776e6572206f6620436f6d70616e7981526020017f206d6f646966696572000000000000000000000000000000000000000000000081525060400191505060405180910390fd5b8060168190555050565b601b5481565b60008060008373ffffffffffffffffffffffffffffffffffffffff1673ffffffffffffffffffffffffffffffffffffffff168152602001908152602001600020549050919050565b6002600760008373ffffffffffffffffffffffffffffffffffffffff1673ffffffffffffffffffffffffffffffffffffffff168152602001908152602001600020541015156128e8576040517f08c379a00000000000000000000000000000000000000000000000000000000081526004018080602001828103825260298152602001807f696e766573746f7220616c726561647920617574686f72697a656420616e206181526020017f636372656469746564000000000000000000000000000000000000000000000081525060400191505060405180910390fd5b61293b6001600760008473ffffffffffffffffffffffffffffffffffffffff1673ffffffffffffffffffffffffffffffffffffffff168152602001908152602001600020546143cb90919063ffffffff16565b5050565b3373ffffffffffffffffffffffffffffffffffffffff168173ffffffffffffffffffffffffffffffffffffffff1614151515612a09576040517f08c379a00000000000000000000000000000000000000000000000000000000081526004018080602001828103825260248152602001807f6d73672e73656e6465722063616e6e6f7420617574686f72697a65642068696d81526020017f73656c660000000000000000000000000000000000000000000000000000000081525060400191505060405180910390fd5b6001601d60008373ffffffffffffffffffffffffffffffffffffffff1673ffffffffffffffffffffffffffffffffffffffff16815260200190815260200160002060003373ffffffffffffffffffffffffffffffffffffffff1673ffffffffffffffffffffffffffffffffffffffff16815260200190815260200160002060006101000a81548160ff0219169083151502179055507ff4caeb2d6ca8932a215a353d0703c326ec2d81fc68170f320eb2ab49e9df61f98133604051808373ffffffffffffffffffffffffffffffffffffffff1673ffffffffffffffffffffffffffffffffffffffff1681526020018273ffffffffffffffffffffffffffffffffffffffff1673ffffffffffffffffffffffffffffffffffffffff1681526020019250505060405180910390a150565b6000600b54905090565b6000836000600d5482811515612b5457fe5b06141515612bf0576040517f08c379a00000000000000000000000000000000000000000000000000000000081526004018080602001828103825260338152602001807f756e61626c6520746f206d6f6469667920746f6b656e2062616c616e6365732081526020017f61742074686973206772616e756c61726974790000000000000000000000000081525060400191505060405180910390fd5b600f60009054906101000a900473ffffffffffffffffffffffffffffffffffffffff1673ffffffffffffffffffffffffffffffffffffffff163373ffffffffffffffffffffffffffffffffffffffff16141515612cdb576040517f08c379a00000000000000000000000000000000000000000000000000000000081526004018080602001828103825260298152602001807f726571756972656d656e74206f6e6c794f776e6572206f6620436f6d70616e7981526020017f206d6f646966696572000000000000000000000000000000000000000000000081525060400191505060405180910390fd5b6001151560086000600a546000191660001916815260200190815260200160002060009054906101000a900460ff161515141515612da7576040517f08c379a000000000000000000000000000000000000000000000000000000000815260040180806020018281038252602e8152602001807f7265717569726573206368616e676564207374617475732066726f6d2070656e81526020017f64696e6720746f2061637469766500000000000000000000000000000000000081525060400191505060405180910390fd5b60011515601760009054906101000a900460ff161515141515612e32576040517f08c379a000000000000000000000000000000000000000000000000000000000815260040180806020018281038252601a8152602001807f746f6b656e2069737375616e63652069732066696e697368656400000000000081525060200191505060405180910390fd5b612e3d600a546153bf565b9150606060405190810160405280868152602001428152602001600081525060036000848152602001908152602001600020600082015181600001556020820151816001015560408201518160020155905050612ea585600e546143cb90919063ffffffff16565b600e81905550612efc856000803373ffffffffffffffffffffffffffffffffffffffff1673ffffffffffffffffffffffffffffffffffffffff168152602001908152602001600020546143cb90919063ffffffff16565b6000803373ffffffffffffffffffffffffffffffffffffffff1673ffffffffffffffffffffffffffffffffffffffff16815260200190815260200160002081905550612fa185600160003373ffffffffffffffffffffffffffffffffffffffff1673ffffffffffffffffffffffffffffffffffffffff1681526020019081526020016000206000858152602001908152602001600020546143cb90919063ffffffff16565b600160003373ffffffffffffffffffffffffffffffffffffffff1673ffffffffffffffffffffffffffffffffffffffff168152602001908152602001600020600084815260200190815260200160002081905550600260003373ffffffffffffffffffffffffffffffffffffffff1673ffffffffffffffffffffffffffffffffffffffff1681526020019081526020016000208290806001815401808255809150509060018203906000526020600020016000909192909190915055507f2fe5be0146f74c5bce36c0b80911af6c7d86ff27e89d5cfa61fc681327954e5d3333878787604051808673ffffffffffffffffffffffffffffffffffffffff1673ffffffffffffffffffffffffffffffffffffffff1681526020018573ffffffffffffffffffffffffffffffffffffffff1673ffffffffffffffffffffffffffffffffffffffff1681526020018481526020018060200180602001838103835285818151815260200191508051906020019080838360005b83811015613132578082015181840152602081019050613117565b50505050905090810190601f16801561315f5780820380516001836020036101000a031916815260200191505b50838103825284818151815260200191508051906020019080838360005b8381101561319857808201518184015260208101905061317d565b50505050905090810190601f1680156131c55780820380516001836020036101000a031916815260200191505b5097505050505050505060405180910390a17fc8d64290e05791ddb8e7c779289e066d776a0630d8fb0adb646a94b9ae85b772823333888888604051808781526020018673ffffffffffffffffffffffffffffffffffffffff1673ffffffffffffffffffffffffffffffffffffffff1681526020018573ffffffffffffffffffffffffffffffffffffffff1673ffffffffffffffffffffffffffffffffffffffff1681526020018481526020018060200180602001838103835285818151815260200191508051906020019080838360005b838110156132b2578082015181840152602081019050613297565b50505050905090810190601f1680156132df5780820380516001836020036101000a031916815260200191505b50838103825284818151815260200191508051906020019080838360005b838110156133185780820151818401526020810190506132fd565b50505050905090810190601f1680156133455780820380516001836020036101000a031916815260200191505b509850505050505050505060405180910390a1601c60009054906101000a900460ff16156133f8577fddf252ad1be2c89b69c2b068fc378daa952ba7f163c4a11628f55a4df523b3ef60003387604051808473ffffffffffffffffffffffffffffffffffffffff1681526020018373ffffffffffffffffffffffffffffffffffffffff1673ffffffffffffffffffffffffffffffffffffffff168152602001828152602001935050505060405180910390a15b5050505050565b60606000806002600760003373ffffffffffffffffffffffffffffffffffffffff1673ffffffffffffffffffffffffffffffffffffffff168152602001908152602001600020541415156134e1576040517f08c379a00000000000000000000000000000000000000000000000000000000081526004018080602001828103825260278152602001807f7265717569726573206164766f6361746520746f2073656520646f776e6c6f6181526020017f642066696c65730000000000000000000000000000000000000000000000000081525060400191505060405180910390fd5b600090505b60158054905081101561361657836000191660158281548110151561350757fe5b9060005260206000209060030201600001546000191614156136095760158181548110151561353257fe5b906000526020600020906003020160010160158281548110151561355257fe5b906000526020600020906003020160020154818054600181600116156101000203166002900480601f0160208091040260200160405190810160405280929190818152602001828054600181600116156101000203166002900480156135f95780601f106135ce576101008083540402835291602001916135f9565b820191906000526020600020905b8154815290600101906020018083116135dc57829003601f168201915b5050505050915092509250613617565b80806001019150506134e6565b5b50915091565b6000601f8281548110151561362e57fe5b9060005260206000209060020201600101549050809050919050565b600f60009054906101000a900473ffffffffffffffffffffffffffffffffffffffff1673ffffffffffffffffffffffffffffffffffffffff163373ffffffffffffffffffffffffffffffffffffffff16141515613735576040517f08c379a00000000000000000000000000000000000000000000000000000000081526004018080602001828103825260298152602001807f726571756972656d656e74206f6e6c794f776e6572206f6620436f6d70616e7981526020017f206d6f646966696572000000000000000000000000000000000000000000000081525060400191505060405180910390fd5b6000601760006101000a81548160ff021916908315150217905550565b7f075025aecd552649e85b634e268857a6a478f698de831a3b01d0055e73888d20813360405180806020018373ffffffffffffffffffffffffffffffffffffffff1673ffffffffffffffffffffffffffffffffffffffff168152602001828103825284818151815260200191508051906020019080838360005b838110156137e75780820151818401526020810190506137cc565b50505050905090810190601f1680156138145780820380516001836020036101000a031916815260200191505b50935050505060405180910390a150565b606060148054806020026020016040519081016040528092919081815260200182805480156138a957602002820191906000526020600020905b8160009054906101000a900473ffffffffffffffffffffffffffffffffffffffff1673ffffffffffffffffffffffffffffffffffffffff168152602001906001019080831161385f575b5050505050905090565b6138bd33846139c0565b1515613957576040517f08c379a00000000000000000000000000000000000000000000000000000000081526004018080602001828103825260388152602001807f73656e646572206973206e6f7420617574686f72697a656420746f206f70657281526020017f6174652077697468205f66726f6d2773206163636f756e74000000000000000081525060400191505060405180910390fd5b6139628383836149c7565b505050565b601f8181548110151561397657fe5b90600052602060002090600202016000915090508060000154908060010154905082565b601a60009054906101000a900473ffffffffffffffffffffffffffffffffffffffff1681565b60008173ffffffffffffffffffffffffffffffffffffffff168373ffffffffffffffffffffffffffffffffffffffff161480613a825750601d60008473ffffffffffffffffffffffffffffffffffffffff1673ffffffffffffffffffffffffffffffffffffffff16815260200190815260200160002060008373ffffffffffffffffffffffffffffffffffffffff1673ffffffffffffffffffffffffffffffffffffffff16815260200190815260200160002060009054906101000a900460ff165b905092915050565b6000600f60009054906101000a900473ffffffffffffffffffffffffffffffffffffffff16905090565b613abe33846139c0565b1515613b58576040517f08c379a00000000000000000000000000000000000000000000000000000000081526004018080602001828103825260388152602001807f73656e646572206973206e6f7420617574686f72697a656420746f206f70657281526020017f6174652077697468205f66726f6d2773206163636f756e74000000000000000081525060400191505060405180910390fd5b613b64848484846143ec565b50505050565b6000601c60009054906101000a900460ff161515613c16576040517f08c379a00000000000000000000000000000000000000000000000000000000081526004018080602001828103825260258152602001807f657263323020636f6d7061746962696c69747920686173206265656e2064697381526020017f61626c656400000000000000000000000000000000000000000000000000000081525060400191505060405180910390fd5b600660008473ffffffffffffffffffffffffffffffffffffffff1673ffffffffffffffffffffffffffffffffffffffff16815260200190815260200160002060008373ffffffffffffffffffffffffffffffffffffffff1673ffffffffffffffffffffffffffffffffffffffff16815260200190815260200160002054905092915050565b60018110151515613ca857fe5b613cb1836153bf565b60098190555082600a816000191690555081600b81600019169055507f4100000000000000000000000000000000000000000000000000000000000000600c60006101000a81548160ff02191690837f0100000000000000000000000000000000000000000000000000000000000000900402179055506000600e8190555080600d819055506001601c60006101000a81548160ff02191690831515021790555033600f60006101000a81548173ffffffffffffffffffffffffffffffffffffffff021916908373ffffffffffffffffffffffffffffffffffffffff16021790555060408051908101604052803373ffffffffffffffffffffffffffffffffffffffff1673ffffffffffffffffffffffffffffffffffffffff168152602001601a60009054906101000a900473ffffffffffffffffffffffffffffffffffffffff1673ffffffffffffffffffffffffffffffffffffffff1673ffffffffffffffffffffffffffffffffffffffff168152506010906002613e32929190615a80565b50612710601281905550620f4240601381905550613e4f33615489565b507f9ae979c8e1266c2f250aee2ce3946e415bd909a9cf1821aab705834932fd12ad600a54600b543360405180846000191660001916815260200183600019166000191681526020018273ffffffffffffffffffffffffffffffffffffffff1673ffffffffffffffffffffffffffffffffffffffff168152602001935050505060405180910390a1505050565b6060600260008373ffffffffffffffffffffffffffffffffffffffff1673ffffffffffffffffffffffffffffffffffffffff168152602001908152602001600020805480602002602001604051908101604052809291908181526020018280548015613f6757602002820191906000526020600020905b815481526020019060010190808311613f53575b50505050509050919050565b600160086000836000191660001916815260200190815260200160002060006101000a81548160ff02191690831515021790555050565b6000600160008473ffffffffffffffffffffffffffffffffffffffff1673ffffffffffffffffffffffffffffffffffffffff168152602001908152602001600020600083815260200190815260200160002054905092915050565b600f60009054906101000a900473ffffffffffffffffffffffffffffffffffffffff1673ffffffffffffffffffffffffffffffffffffffff163373ffffffffffffffffffffffffffffffffffffffff161415156140f0576040517f08c379a00000000000000000000000000000000000000000000000000000000081526004018080602001828103825260298152602001807f726571756972656d656e74206f6e6c794f776e6572206f6620436f6d70616e7981526020017f206d6f646966696572000000000000000000000000000000000000000000000081525060400191505060405180910390fd5b6000601c60006101000a81548160ff021916908315150217905550565b3373ffffffffffffffffffffffffffffffffffffffff168173ffffffffffffffffffffffffffffffffffffffff16141515156141b1576040517f08c379a00000000000000000000000000000000000000000000000000000000081526004018080602001828103825260208152602001807f6d73672e73656e6465722063616e6e6f74207265766f6b652068696d73656c6681525060200191505060405180910390fd5b6000601d60008373ffffffffffffffffffffffffffffffffffffffff1673ffffffffffffffffffffffffffffffffffffffff16815260200190815260200160002060003373ffffffffffffffffffffffffffffffffffffffff1673ffffffffffffffffffffffffffffffffffffffff16815260200190815260200160002060006101000a81548160ff0219169083151502179055503373ffffffffffffffffffffffffffffffffffffffff168173ffffffffffffffffffffffffffffffffffffffff167f50546e66e5f44d728365dc3908c63bc5cfeeab470722c1677e3073a6ac294aa160405160405180910390a350565b60008090505b815181101561433a57601f604080519081016040528084848151811015156142cd57fe5b90602001906020020151600019168152602001600081525090806001815401808255809150509060018203906000526020600020906002020160009091929091909150600082015181600001906000191690556020820151816001015550505080806001019150506142a9565b6000803373ffffffffffffffffffffffffffffffffffffffff1673ffffffffffffffffffffffffffffffffffffffff16815260200190815260200160002054601e60003373ffffffffffffffffffffffffffffffffffffffff1673ffffffffffffffffffffffffffffffffffffffff168152602001908152602001600020600001819055506143c7615624565b5050565b60008082840190508381101515156143e257600080fd5b8091505092915050565b816000600d54828115156143fc57fe5b06141515614498576040517f08c379a00000000000000000000000000000000000000000000000000000000081526004018080602001828103825260338152602001807f756e61626c6520746f206d6f6469667920746f6b656e2062616c616e6365732081526020017f61742074686973206772616e756c61726974790000000000000000000000000081525060400191505060405180910390fd5b82600160008673ffffffffffffffffffffffffffffffffffffffff1673ffffffffffffffffffffffffffffffffffffffff16815260200190815260200160002060008781526020019081526020016000205410151515614586576040517f08c379a000000000000000000000000000000000000000000000000000000000815260040180806020018281038252602b8152602001807f6e6f7420656e6f756768207472616e6368652d73706563696669632066756e6481526020017f696e6720746f206275726e00000000000000000000000000000000000000000081525060400191505060405180910390fd5b61459b83600e5461585890919063ffffffff16565b600e819055506145f2836000808773ffffffffffffffffffffffffffffffffffffffff1673ffffffffffffffffffffffffffffffffffffffff1681526020019081526020016000205461585890919063ffffffff16565b6000808673ffffffffffffffffffffffffffffffffffffffff1673ffffffffffffffffffffffffffffffffffffffff1681526020019081526020016000208190555061469783600160008773ffffffffffffffffffffffffffffffffffffffff1673ffffffffffffffffffffffffffffffffffffffff16815260200190815260200160002060008881526020019081526020016000205461585890919063ffffffff16565b507fa1c85a30dec08aa526dc5a3ca33087f723335ec5c1614ecf0036da150a6971c88533868686604051808681526020018573ffffffffffffffffffffffffffffffffffffffff1673ffffffffffffffffffffffffffffffffffffffff1681526020018473ffffffffffffffffffffffffffffffffffffffff1673ffffffffffffffffffffffffffffffffffffffff16815260200183815260200180602001828103825283818151815260200191508051906020019080838360005b8381101561476e578082015181840152602081019050614753565b50505050905090810190601f16801561479b5780820380516001836020036101000a031916815260200191505b50965050505050505060405180910390a17fea01d24fee0ecbb349ab449ea41d11599fd91ba758653579b30d38d63e2adedb33858585604051808573ffffffffffffffffffffffffffffffffffffffff1673ffffffffffffffffffffffffffffffffffffffff1681526020018473ffffffffffffffffffffffffffffffffffffffff1673ffffffffffffffffffffffffffffffffffffffff16815260200183815260200180602001828103825283818151815260200191508051906020019080838360005b8381101561487b578082015181840152602081019050614860565b50505050905090810190601f1680156148a85780820380516001836020036101000a031916815260200191505b509550505050505060405180910390a160008060008673ffffffffffffffffffffffffffffffffffffffff1673ffffffffffffffffffffffffffffffffffffffff16815260200190815260200160002054141561490a5761490884615879565b505b601c60009054906101000a900460ff16156149c0577fddf252ad1be2c89b69c2b068fc378daa952ba7f163c4a11628f55a4df523b3ef84600085604051808473ffffffffffffffffffffffffffffffffffffffff1673ffffffffffffffffffffffffffffffffffffffff1681526020018373ffffffffffffffffffffffffffffffffffffffff1673ffffffffffffffffffffffffffffffffffffffff168152602001828152602001935050505060405180910390a15b5050505050565b6000806060600080866000600d54828115156149df57fe5b06141515614a7b576040517f08c379a00000000000000000000000000000000000000000000000000000000081526004018080602001828103825260338152602001807f756e61626c6520746f206d6f6469667920746f6b656e2062616c616e6365732081526020017f61742074686973206772616e756c61726974790000000000000000000000000081525060400191505060405180910390fd5b876000808b73ffffffffffffffffffffffffffffffffffffffff1673ffffffffffffffffffffffffffffffffffffffff1681526020019081526020016000205410151515614b31576040517f08c379a000000000000000000000000000000000000000000000000000000000815260040180806020018281038252601a8152602001807f6e6f7420656e6f7567682066756e64696e6720746f206275726e00000000000081525060200191505060405180910390fd5b60009550600194505b8786101561516457600260008a73ffffffffffffffffffffffffffffffffffffffff1673ffffffffffffffffffffffffffffffffffffffff168152602001908152602001600020805480602002602001604051908101604052809291908181526020018280548015614bcb57602002820191906000526020600020905b815481526020019060010190808311614bb7575b505050505093508385855103815181101515614be357fe5b906020019060200201519250614c02868961585890919063ffffffff16565b600160008b73ffffffffffffffffffffffffffffffffffffffff1673ffffffffffffffffffffffffffffffffffffffff168152602001908152602001600020600085815260200190815260200160002054101515614ebb57614c81614c70878a61585890919063ffffffff16565b600e5461585890919063ffffffff16565b600e81905550614cea614c9d878a61585890919063ffffffff16565b6000808c73ffffffffffffffffffffffffffffffffffffffff1673ffffffffffffffffffffffffffffffffffffffff1681526020019081526020016000205461585890919063ffffffff16565b6000808b73ffffffffffffffffffffffffffffffffffffffff1673ffffffffffffffffffffffffffffffffffffffff16815260200190815260200160002081905550614da1614d42878a61585890919063ffffffff16565b600160008c73ffffffffffffffffffffffffffffffffffffffff1673ffffffffffffffffffffffffffffffffffffffff16815260200190815260200160002060008681526020019081526020016000205461585890919063ffffffff16565b507fa1c85a30dec08aa526dc5a3ca33087f723335ec5c1614ecf0036da150a6971c883338b8b8b604051808681526020018573ffffffffffffffffffffffffffffffffffffffff1673ffffffffffffffffffffffffffffffffffffffff1681526020018473ffffffffffffffffffffffffffffffffffffffff1673ffffffffffffffffffffffffffffffffffffffff16815260200183815260200180602001828103825283818151815260200191508051906020019080838360005b83811015614e78578082015181840152602081019050614e5d565b50505050905090810190601f168015614ea55780820380516001836020036101000a031916815260200191505b50965050505050505060405180910390a1615164565b600160008a73ffffffffffffffffffffffffffffffffffffffff1673ffffffffffffffffffffffffffffffffffffffff1681526020019081526020016000206000848152602001908152602001600020549150614f2382600e5461585890919063ffffffff16565b600e81905550614f7a826000808c73ffffffffffffffffffffffffffffffffffffffff1673ffffffffffffffffffffffffffffffffffffffff1681526020019081526020016000205461585890919063ffffffff16565b6000808b73ffffffffffffffffffffffffffffffffffffffff1673ffffffffffffffffffffffffffffffffffffffff1681526020019081526020016000208190555061501f82600160008c73ffffffffffffffffffffffffffffffffffffffff1673ffffffffffffffffffffffffffffffffffffffff16815260200190815260200160002060008681526020019081526020016000205461585890919063ffffffff16565b5061503382876143cb90919063ffffffff16565b95506150496001866143cb90919063ffffffff16565b94507fa1c85a30dec08aa526dc5a3ca33087f723335ec5c1614ecf0036da150a6971c883338b8b8b604051808681526020018573ffffffffffffffffffffffffffffffffffffffff1673ffffffffffffffffffffffffffffffffffffffff1681526020018473ffffffffffffffffffffffffffffffffffffffff1673ffffffffffffffffffffffffffffffffffffffff16815260200183815260200180602001828103825283818151815260200191508051906020019080838360005b83811015615121578082015181840152602081019050615106565b50505050905090810190601f16801561514e5780820380516001836020036101000a031916815260200191505b50965050505050505060405180910390a1614b3a565b7fea01d24fee0ecbb349ab449ea41d11599fd91ba758653579b30d38d63e2adedb338a8a8a604051808573ffffffffffffffffffffffffffffffffffffffff1673ffffffffffffffffffffffffffffffffffffffff1681526020018473ffffffffffffffffffffffffffffffffffffffff1673ffffffffffffffffffffffffffffffffffffffff16815260200183815260200180602001828103825283818151815260200191508051906020019080838360005b83811015615233578082015181840152602081019050615218565b50505050905090810190601f1680156152605780820380516001836020036101000a031916815260200191505b509550505050505060405180910390a160008060008b73ffffffffffffffffffffffffffffffffffffffff1673ffffffffffffffffffffffffffffffffffffffff1681526020019081526020016000205414156152c2576152c089615879565b505b601c60009054906101000a900460ff1615615378577fddf252ad1be2c89b69c2b068fc378daa952ba7f163c4a11628f55a4df523b3ef8960008a604051808473ffffffffffffffffffffffffffffffffffffffff1673ffffffffffffffffffffffffffffffffffffffff1681526020018373ffffffffffffffffffffffffffffffffffffffff1673ffffffffffffffffffffffffffffffffffffffff168152602001828152602001935050505060405180910390a15b505050505050505050565b60008060008373ffffffffffffffffffffffffffffffffffffffff1614156153ae57600091506153b9565b823b90506000811491505b50919050565b60008082601854604051602001808360001916600019168152602001828152602001925050506040516020818303038152906040526040518082805190602001908083835b6020831015156154295780518252602082019150602081019050602083039250615404565b6001836020036101000a038019825116818451168082178552505050505050905001915050604051809103902060019004905061547260016018546143cb90919063ffffffff16565b506019548181151561548057fe5b06915050919050565b60008061549583615904565b156154a3576000915061561e565b600160148490806001815401808255809150509060018203906000526020600020016000909192909190916101000a81548173ffffffffffffffffffffffffffffffffffffffff021916908373ffffffffffffffffffffffffffffffffffffffff16021790555003905080600560008573ffffffffffffffffffffffffffffffffffffffff1673ffffffffffffffffffffffffffffffffffffffff168152602001908152602001600020819055506001600460008573ffffffffffffffffffffffffffffffffffffffff1673ffffffffffffffffffffffffffffffffffffffff16815260200190815260200160002060006101000a81548160ff0219169083151502179055507f33dda5dca20a95bec563f7c6e810061b24d464536df0636a17d2d041b8b0c66d83601480549050604051808373ffffffffffffffffffffffffffffffffffffffff1673ffffffffffffffffffffffffffffffffffffffff1681526020018281526020019250505060405180910390a1600191505b50919050565b6000600190505b601480549050811015615855576000601e600060148481548110151561564d57fe5b9060005260206000200160009054906101000a900473ffffffffffffffffffffffffffffffffffffffff1673ffffffffffffffffffffffffffffffffffffffff1673ffffffffffffffffffffffffffffffffffffffff16815260200190815260200160002060000154141515615751576040517f08c379a000000000000000000000000000000000000000000000000000000000815260040180806020018281038252602a8152602001807f54686520726967687420746f20766f746520616c72656164792068617320626581526020017f656e206772616e7465640000000000000000000000000000000000000000000081525060400191505060405180910390fd5b60008060148381548110151561576357fe5b9060005260206000200160009054906101000a900473ffffffffffffffffffffffffffffffffffffffff1673ffffffffffffffffffffffffffffffffffffffff1673ffffffffffffffffffffffffffffffffffffffff16815260200190815260200160002054601e60006014848154811015156157dc57fe5b9060005260206000200160009054906101000a900473ffffffffffffffffffffffffffffffffffffffff1673ffffffffffffffffffffffffffffffffffffffff1673ffffffffffffffffffffffffffffffffffffffff16815260200190815260200160002060000181905550808060010191505061562b565b50565b60008083831115151561586a57600080fd5b82840390508091505092915050565b600080600560008473ffffffffffffffffffffffffffffffffffffffff1673ffffffffffffffffffffffffffffffffffffffff1681526020019081526020016000205490506014818154811015156158cd57fe5b9060005260206000200160006101000a81549073ffffffffffffffffffffffffffffffffffffffff02191690556001915050919050565b60006001151561591383615383565b151514151561598a576040517f08c379a00000000000000000000000000000000000000000000000000000000081526004018080602001828103825260158152602001807f6e6f74206120726567756c61722061646472657373000000000000000000000081525060200191505060405180910390fd5b600460008373ffffffffffffffffffffffffffffffffffffffff1673ffffffffffffffffffffffffffffffffffffffff16815260200190815260200160002060009054906101000a900460ff169050919050565b828054600181600116156101000203166002900490600052602060002090601f016020900481019282601f10615a1f57805160ff1916838001178555615a4d565b82800160010185558215615a4d579182015b82811115615a4c578251825591602001919060010190615a31565b5b509050615a5a9190615afd565b5090565b6040805190810160405280600290602082028038833980820191505090505090565b8260028101928215615aec579160200282015b82811115615aeb5782518260006101000a81548173ffffffffffffffffffffffffffffffffffffffff021916908373ffffffffffffffffffffffffffffffffffffffff16021790555091602001919060010190615a93565b5b509050615af99190615b22565b5090565b615b1f91905b80821115615b1b576000816000905550600101615b03565b5090565b90565b615b6291905b80821115615b5e57600081816101000a81549073ffffffffffffffffffffffffffffffffffffffff021916905550600101615b28565b5090565b905600a165627a7a723058207da8c336430c3e46400eaef36c717e7cf18781260411de467596bd2ab280da100029",
  "source": "pragma solidity ^0.4.24;\r\n\r\nimport \"./ConvertLib.sol\";\r\nimport \"./SafeMath.sol\";\r\nimport \"./EquityTokenFactory.sol\";\r\n\r\ncontract EquityToken is EquityTokenFactory {\r\n\r\n//-----EquityToken------------------------------------------------------------------------------------------------------------------------\r\n    /* This structure determines the business logic of a token (i.e. quasi-share)\r\n        - \r\n        */\r\n\r\n    ///@notice string as bytes32 only has space for 32 characters\r\n    event adHocMessage(string _message, address _company);\r\n\r\n    ///event quaterlyUpdate(uint _revenue, uint _revenueforecast);\r\n\r\n    ///@notice ERC20 optional, ERC777 mandatory\r\n    function name() public view returns(bytes32) {\r\n        return companyName;\r\n    }\r\n\r\n    ///@notice ERC20 optional, ERC777 mandatory\r\n    function symbol() public view returns(bytes32) {\r\n        return tokenTicker;\r\n    }\r\n\r\n    ///@dev smallest part of token not divisible\r\n    ///@notice ERC777 mandatory\r\n    function granularity() public view returns(uint) {\r\n        return granular;\r\n    }\r\n\r\n    ///@notice convert balance of token in ETH or other currencies\r\n    function getBalanceOfInEth(address _addr) public view returns(uint) {\r\n\t\treturn ConvertLib.convert(balanceOf(_addr), 3);\r\n    }\r\n\r\n    ///@dev balance for any owner\r\n    ///@notice ERC20 mandatory, ERC777 mandatory\r\n    function balanceOf(address _addr) public view returns(uint) {\r\n\t\treturn OwnerToBalance[_addr];\r\n\t}\r\n\r\n    ///@dev balance for any owner for specific tranche\r\n    ///@notice EIP1410 proposal\r\n    function balanceOfByTranche(address _addr, uint _trancheId) public view returns(uint) {\r\n\t    return OwnerToTrancheToBalance[_addr][_trancheId];\r\n\t}\r\n    \r\n    ///@dev tranches of a tokenholder\r\n    ///@notice EIP1410 proposal\r\n    function tranchesOf(address _addr) public view returns(uint[]) {\r\n        return OwnerToTranches[_addr];\r\n    }\r\n\r\n    ///@dev total amount of a token \r\n    ///@notice ERC20 mandatory, ERC777 mandatory\r\n    function totalSupply() public view returns(uint) {\r\n        return totalAmount;\r\n    }\r\n    \r\n    ///@dev returns Infos of equity token, as struct is not returnable in current solidity version\r\n    function getInfosEquityToken() public view returns(uint, bytes32, bytes32, uint, uint) {\r\n        return (tokenId, companyName, tokenTicker, granular, totalAmount);\r\n    } \r\n   \r\n    ///@dev getter for TotalDistribution array\r\n    ///@return array with all addresses (owner)\r\n    function getAllAddressesEquityToken() public view returns(address[]) {\r\n        return TotalDistribution;\r\n    }\r\n\r\n    function getCompanyOwner() public view returns(address) {\r\n        return companyOwner;\r\n    }\r\n\r\n    function setCompanyOwner(address _addr) public onlyOwnerOfCom {\r\n        companyOwner = _addr;\r\n    }\r\n\r\n    ///@dev possibility to broadcast adHocMessages for any size\r\n    function sendAdHocMessage(string _message) public {\r\n        // require(msg.sender == companyOwner, \"requirement onlyOwner of Company modifier\");  omitted for testing\r\n        emit adHocMessage(_message, msg.sender);\r\n    }\r\n//-----EquityToken------------------------------------------------------------------------------------------------------------------------\r\n\r\n//-----Voting-----------------------------------------------------------------------------------------------------------------------------\r\n    /* This structure allows a company to propose multiple proposals for an issue, voters can than choose one of the proposals \r\n        - the owning company works as an administrator and can start ballots\r\n        - the number of votes are linked to the amount of shares a voter posseses (1:1)\r\n        - voters can pass their right to vote\r\n        - the winning proposal is calculated and broadcasted automatically\r\n        */\r\n\r\n    event votingSuccessful(bytes32 winnerName, uint countVotes); \r\n        \r\n    mapping(address => Voter) AddressToVoter;\r\n\r\n    struct Voter {\r\n        uint weight; ///@notice weight is accumulated by # shares\r\n        bool voted;  ///@notice if true, that person already voted\r\n        address delegate; ///@notice person delegates right to vote to\r\n        uint vote;   ///@notice index of the voted proposal\r\n    }\r\n\r\n    ///@dev this is a type for a single proposal\r\n    struct Proposal {\r\n        bytes32 name; \r\n        uint voteCount; // number of accumulated votes\r\n    }\r\n \r\n    ///@notice all proposals of that company\r\n    Proposal[] public Proposals;\r\n\r\n    ///@notice create a new ballot, only possible for owner of company\r\n    function startBallot(bytes32[] proposalNames) public {\r\n        /// require(msg.sender == companyOwner, \"requirement onlyOwner of Company modifier\"); omitted for tests\r\n        for (uint i = 0; i < proposalNames.length; i++) {\r\n            Proposals.push(Proposal({name: proposalNames[i], voteCount: 0}));\r\n        }\r\n\r\n        ///@dev allocates voting weight = # of shares\r\n        AddressToVoter[msg.sender].weight = OwnerToBalance[msg.sender];\r\n        _giveRightToVote();\r\n    }\r\n\r\n    ///@dev give voter the right to vote on this ballot\r\n    ///@notice starts with index 1 in array, as 0 is ballot starter = companyowner in most cases\r\n    function _giveRightToVote() internal {\r\n        for (uint j = 1; j < TotalDistribution.length; j++) {\r\n            require(AddressToVoter[TotalDistribution[j]].weight == 0, \"The right to vote already has been granted\");\r\n            AddressToVoter[TotalDistribution[j]].weight = OwnerToBalance[TotalDistribution[j]];\r\n        }\r\n    }\r\n\r\n    ///@dev possibility to delegate your vote to another voter\r\n    function delegate(address _to) public {\r\n        Voter storage sender = AddressToVoter[msg.sender];\r\n        require(!sender.voted, \"You already voted\");\r\n        require(_to != msg.sender, \"Self-delegation is disallowed\");\r\n        ///@dev forwards delegation as long as _to also forwarded his right to vote\r\n        //@security use careful, as could get looped -> high gas costs\r\n        while (AddressToVoter[_to].delegate != address(0)) {\r\n            _to = AddressToVoter[_to].delegate;\r\n\r\n            require(_to != msg.sender, \"Found self-delegation loop\");\r\n        }\r\n\r\n        ///@notice since \"sender\" is a reference, this modifies AddressToVoter[msg.sender].voted\r\n        sender.voted = true;\r\n        sender.delegate = _to;\r\n        Voter storage delegate_ = AddressToVoter[_to];\r\n        \r\n        ///@notice if delegate already voted, add sender weight to proposal, else add weight of sender and delegate\r\n        if (delegate_.voted) {\r\n            Proposals[delegate_.vote].voteCount = Proposals[delegate_.vote].voteCount.add(sender.weight);\r\n        } else {\r\n            delegate_.weight.add(sender.weight);\r\n        }\r\n    }\r\n\r\n    ///@dev give your vote for specific proposal\r\n    //@security if proposal is out of range, this will automatically throw and revert changes\r\n    function vote(uint _proposal) public {\r\n        Voter storage sender = AddressToVoter[msg.sender];\r\n        require(!sender.voted, \"Already voted\");\r\n        sender.voted = true;\r\n        sender.vote = _proposal;\r\n        \r\n        Proposals[_proposal].voteCount = Proposals[_proposal].voteCount.add(sender.weight);\r\n    }\r\n\r\n    ///@dev computes the winning proposal, gets proposal name from array and returns, fires event\r\n    function winningProposal() public returns(bytes32 winnerName_) {\r\n        // require(msg.sender == companyOwner, \"requirement onlyOwner of Company modifier\"); omitted for tests\r\n        uint winningVoteCount = 0;\r\n        for (uint p = 0; p < Proposals.length; p++) {\r\n            if (Proposals[p].voteCount > winningVoteCount) {\r\n                winningVoteCount = Proposals[p].voteCount;\r\n                uint winningProposal_ = p;\r\n            }\r\n        }\r\n\r\n        winnerName_ = Proposals[winningProposal_].name;\r\n        emit votingSuccessful(winnerName_, winningVoteCount);\r\n        return winnerName_;  \r\n    }\r\n\r\n    ///@notice for EVM could be possible to work with fixed array e.g. 3 proposals\r\n    function getProposals() public view returns(bytes32[]){\r\n        bytes32[] memory proposals_;\r\n        for (uint i = 0; i < Proposals.length; i++){\r\n            proposals_[i] = Proposals[i].name;\r\n        }\r\n        return proposals_;\r\n    }\r\n\r\n    function getVoteCount(uint _index) public view returns(uint voteCount_) {\r\n        return voteCount_ = Proposals[_index].voteCount;\r\n    }\r\n//-----Voting-----------------------------------------------------------------------------------------------------------------------------\r\n\r\n//-----ERC20BackwardCompatibility---------------------------------------------------------------------------------------------------------\r\n    /* This section determines obsolete erc20 methods that are only implemented to maintain backwards compatibility.\r\n       Further erc20 compatibility can be disabled, then the methods will fail.\r\n        - \r\n        */\r\n\r\n    ///@notice indexing of from and to and tokenId beneficial, but dropped for mocha testing environment\r\n    event Approval(address _from, address _to, uint _txamount);\r\n\r\n    modifier isERC20() {\r\n        require((erc20compatible), \"erc20 compatibility has been disabled\");\r\n        _;\r\n    }  \r\n\r\n    ///@notice disables the ERC20 interface. \r\n    function disableERC20() public onlyOwnerOfCom {\r\n        erc20compatible = false;\r\n        //setInterfaceImplementation(\"ERC20Token\", 0x0);\r\n    }\r\n\r\n    ///@notice enables the ERC20 interface.\r\n    function enableERC20() public onlyOwnerOfCom {\r\n        erc20compatible = true;\r\n        ///setInterfaceImplementation(\"ERC20Token\", this);\r\n    }\r\n\r\n    ///@dev number of decimals token uses, divide token amount by number of decimals to get user representation\r\n    ///@notice ERC20 optional, ERC777 mandatory to be 18\r\n    function decimals() public view isERC20 returns(uint8) { \r\n        return uint8(18);\r\n    }\r\n\r\n    ///@dev sender can approve an amount to be withdrawn by spender\r\n    ///@notice ERC20 mandatory\r\n    function approve(address _spender, uint _txamount) public checkGranularity(_txamount) isERC20 returns(bool success_) {\r\n        allowed[msg.sender][_spender] = _txamount;\r\n        emit Approval(msg.sender, _spender, _txamount);\r\n        return true;\r\n    }\r\n  \r\n    ///@notice ERC20 mandatory\r\n    function allowance(address _owner, address _spender) public view isERC20 returns(uint remaining) {\r\n        return allowed[_owner][_spender];\r\n    }\r\n\r\n  //-----ERC20BackwardCompatibility---------------------------------------------------------------------------------------------------------    \r\n\r\n}",
  "sourcePath": "/mnt/c/Solidity/solidity_eto/contracts/EquityToken.sol",
  "compiler": {
    "name": "solc",
    "version": "0.4.24+commit.e67f0147.Emscripten.clang"
  },
  "schemaVersion": "2.0.1",
  "updatedAt": "2018-12-17T21:08:18.053Z"
}