{
  "contractName": "EquityTokenFactory",
  "abi": [
    {
      "constant": true,
      "inputs": [
        {
          "name": "",
          "type": "uint256"
        }
      ],
      "name": "TotalDistribution",
      "outputs": [
        {
          "name": "",
          "type": "address"
        }
      ],
      "payable": false,
      "stateMutability": "view",
      "type": "function"
    },
    {
      "constant": true,
      "inputs": [],
      "name": "isIssuable",
      "outputs": [
        {
          "name": "",
          "type": "bool"
        }
      ],
      "payable": false,
      "stateMutability": "view",
      "type": "function"
    },
    {
      "constant": true,
      "inputs": [
        {
          "name": "",
          "type": "uint256"
        }
      ],
      "name": "AllTranches",
      "outputs": [
        {
          "name": "",
          "type": "uint256"
        }
      ],
      "payable": false,
      "stateMutability": "view",
      "type": "function"
    },
    {
      "constant": true,
      "inputs": [
        {
          "name": "",
          "type": "uint256"
        }
      ],
      "name": "Proposals",
      "outputs": [
        {
          "name": "name",
          "type": "bytes32"
        },
        {
          "name": "voteCount",
          "type": "uint256"
        }
      ],
      "payable": false,
      "stateMutability": "view",
      "type": "function"
    },
    {
      "constant": true,
      "inputs": [],
      "name": "governmentAddress",
      "outputs": [
        {
          "name": "",
          "type": "address"
        }
      ],
      "payable": false,
      "stateMutability": "view",
      "type": "function"
    },
    {
      "anonymous": false,
      "inputs": [
        {
          "indexed": false,
          "name": "companyName",
          "type": "bytes32"
        },
        {
          "indexed": false,
          "name": "tokenTicker",
          "type": "bytes32"
        },
        {
          "indexed": false,
          "name": "companyOwner",
          "type": "address"
        }
      ],
      "name": "newTokenIssuance",
      "type": "event"
    },
    {
      "anonymous": false,
      "inputs": [
        {
          "indexed": false,
          "name": "operator",
          "type": "address"
        },
        {
          "indexed": false,
          "name": "to",
          "type": "address"
        },
        {
          "indexed": false,
          "name": "amount",
          "type": "uint256"
        },
        {
          "indexed": false,
          "name": "userData",
          "type": "bytes"
        },
        {
          "indexed": false,
          "name": "operatorData",
          "type": "bytes"
        }
      ],
      "name": "Minted",
      "type": "event"
    },
    {
      "anonymous": false,
      "inputs": [
        {
          "indexed": false,
          "name": "operator",
          "type": "address"
        },
        {
          "indexed": false,
          "name": "from",
          "type": "address"
        },
        {
          "indexed": false,
          "name": "amount",
          "type": "uint256"
        },
        {
          "indexed": false,
          "name": "operatorData",
          "type": "bytes"
        }
      ],
      "name": "Burned",
      "type": "event"
    },
    {
      "anonymous": false,
      "inputs": [
        {
          "indexed": false,
          "name": "trancheId",
          "type": "uint256"
        },
        {
          "indexed": false,
          "name": "operator",
          "type": "address"
        },
        {
          "indexed": false,
          "name": "to",
          "type": "address"
        },
        {
          "indexed": false,
          "name": "amount",
          "type": "uint256"
        },
        {
          "indexed": false,
          "name": "userData",
          "type": "bytes"
        },
        {
          "indexed": false,
          "name": "operatorData",
          "type": "bytes"
        }
      ],
      "name": "MintedByTranche",
      "type": "event"
    },
    {
      "anonymous": false,
      "inputs": [
        {
          "indexed": false,
          "name": "trancheId",
          "type": "uint256"
        },
        {
          "indexed": false,
          "name": "operator",
          "type": "address"
        },
        {
          "indexed": false,
          "name": "from",
          "type": "address"
        },
        {
          "indexed": false,
          "name": "amount",
          "type": "uint256"
        },
        {
          "indexed": false,
          "name": "operatorData",
          "type": "bytes"
        }
      ],
      "name": "BurnedByTranche",
      "type": "event"
    },
    {
      "anonymous": false,
      "inputs": [
        {
          "indexed": false,
          "name": "newShareholder",
          "type": "address"
        },
        {
          "indexed": false,
          "name": "length",
          "type": "uint256"
        }
      ],
      "name": "newShareholder",
      "type": "event"
    },
    {
      "anonymous": false,
      "inputs": [
        {
          "indexed": false,
          "name": "_message",
          "type": "string"
        },
        {
          "indexed": false,
          "name": "_company",
          "type": "address"
        }
      ],
      "name": "adHocMessage",
      "type": "event"
    },
    {
      "anonymous": false,
      "inputs": [
        {
          "indexed": false,
          "name": "_txpercentage",
          "type": "uint256"
        }
      ],
      "name": "Dividend",
      "type": "event"
    },
    {
      "anonymous": false,
      "inputs": [
        {
          "indexed": false,
          "name": "operator",
          "type": "address"
        },
        {
          "indexed": false,
          "name": "from",
          "type": "address"
        },
        {
          "indexed": false,
          "name": "to",
          "type": "address"
        },
        {
          "indexed": false,
          "name": "amount",
          "type": "uint256"
        },
        {
          "indexed": false,
          "name": "userData",
          "type": "bytes"
        },
        {
          "indexed": false,
          "name": "operatorData",
          "type": "bytes"
        }
      ],
      "name": "Sent",
      "type": "event"
    },
    {
      "anonymous": false,
      "inputs": [
        {
          "indexed": false,
          "name": "fromTranche",
          "type": "uint256"
        },
        {
          "indexed": false,
          "name": "operator",
          "type": "address"
        },
        {
          "indexed": false,
          "name": "from",
          "type": "address"
        },
        {
          "indexed": false,
          "name": "to",
          "type": "address"
        },
        {
          "indexed": false,
          "name": "amount",
          "type": "uint256"
        },
        {
          "indexed": false,
          "name": "userData",
          "type": "bytes"
        },
        {
          "indexed": false,
          "name": "operatorData",
          "type": "bytes"
        }
      ],
      "name": "SentByTranche",
      "type": "event"
    },
    {
      "anonymous": false,
      "inputs": [
        {
          "indexed": false,
          "name": "operator",
          "type": "address"
        },
        {
          "indexed": false,
          "name": "tokenHolder",
          "type": "address"
        }
      ],
      "name": "AuthorizedOperator",
      "type": "event"
    },
    {
      "anonymous": false,
      "inputs": [
        {
          "indexed": true,
          "name": "operator",
          "type": "address"
        },
        {
          "indexed": true,
          "name": "tokenHolder",
          "type": "address"
        }
      ],
      "name": "RevokedOperator",
      "type": "event"
    },
    {
      "anonymous": false,
      "inputs": [
        {
          "indexed": false,
          "name": "winnerName",
          "type": "bytes32"
        },
        {
          "indexed": false,
          "name": "countVotes",
          "type": "uint256"
        }
      ],
      "name": "votingSuccessful",
      "type": "event"
    },
    {
      "anonymous": false,
      "inputs": [
        {
          "indexed": false,
          "name": "_from",
          "type": "address"
        },
        {
          "indexed": false,
          "name": "_to",
          "type": "address"
        },
        {
          "indexed": false,
          "name": "_txamount",
          "type": "uint256"
        }
      ],
      "name": "Transfer",
      "type": "event"
    },
    {
      "anonymous": false,
      "inputs": [
        {
          "indexed": false,
          "name": "_from",
          "type": "address"
        },
        {
          "indexed": false,
          "name": "_to",
          "type": "address"
        },
        {
          "indexed": false,
          "name": "_txamount",
          "type": "uint256"
        }
      ],
      "name": "Approval",
      "type": "event"
    },
    {
      "constant": false,
      "inputs": [
        {
          "name": "_companyName",
          "type": "bytes32"
        },
        {
          "name": "_tokenTicker",
          "type": "bytes32"
        },
        {
          "name": "_granularity",
          "type": "uint256"
        }
      ],
      "name": "createToken",
      "outputs": [],
      "payable": false,
      "stateMutability": "nonpayable",
      "type": "function"
    },
    {
      "constant": false,
      "inputs": [
        {
          "name": "_companyOwner",
          "type": "address"
        },
        {
          "name": "_amount",
          "type": "uint256"
        },
        {
          "name": "_userData",
          "type": "bytes"
        },
        {
          "name": "_operatorData",
          "type": "bytes"
        }
      ],
      "name": "mint",
      "outputs": [],
      "payable": false,
      "stateMutability": "nonpayable",
      "type": "function"
    },
    {
      "constant": false,
      "inputs": [
        {
          "name": "_from",
          "type": "address"
        },
        {
          "name": "_amount",
          "type": "uint256"
        },
        {
          "name": "_operatorData",
          "type": "bytes"
        }
      ],
      "name": "burn",
      "outputs": [],
      "payable": false,
      "stateMutability": "nonpayable",
      "type": "function"
    },
    {
      "constant": false,
      "inputs": [
        {
          "name": "_trancheId",
          "type": "uint256"
        },
        {
          "name": "_from",
          "type": "address"
        },
        {
          "name": "_amount",
          "type": "uint256"
        },
        {
          "name": "_operatorData",
          "type": "bytes"
        }
      ],
      "name": "burnByTranche",
      "outputs": [],
      "payable": false,
      "stateMutability": "nonpayable",
      "type": "function"
    },
    {
      "constant": false,
      "inputs": [
        {
          "name": "_from",
          "type": "address"
        },
        {
          "name": "_amount",
          "type": "uint256"
        },
        {
          "name": "_operatorData",
          "type": "bytes"
        }
      ],
      "name": "operatorBurn",
      "outputs": [],
      "payable": false,
      "stateMutability": "nonpayable",
      "type": "function"
    },
    {
      "constant": false,
      "inputs": [
        {
          "name": "_trancheId",
          "type": "uint256"
        },
        {
          "name": "_from",
          "type": "address"
        },
        {
          "name": "_amount",
          "type": "uint256"
        },
        {
          "name": "_operatorData",
          "type": "bytes"
        }
      ],
      "name": "operatorBurnByTranche",
      "outputs": [],
      "payable": false,
      "stateMutability": "nonpayable",
      "type": "function"
    },
    {
      "constant": true,
      "inputs": [],
      "name": "name",
      "outputs": [
        {
          "name": "",
          "type": "bytes32"
        }
      ],
      "payable": false,
      "stateMutability": "view",
      "type": "function"
    },
    {
      "constant": true,
      "inputs": [],
      "name": "symbol",
      "outputs": [
        {
          "name": "",
          "type": "bytes32"
        }
      ],
      "payable": false,
      "stateMutability": "view",
      "type": "function"
    },
    {
      "constant": true,
      "inputs": [],
      "name": "granularity",
      "outputs": [
        {
          "name": "",
          "type": "uint256"
        }
      ],
      "payable": false,
      "stateMutability": "view",
      "type": "function"
    },
    {
      "constant": true,
      "inputs": [
        {
          "name": "_addr",
          "type": "address"
        }
      ],
      "name": "getBalanceOfInEth",
      "outputs": [
        {
          "name": "",
          "type": "uint256"
        }
      ],
      "payable": false,
      "stateMutability": "view",
      "type": "function"
    },
    {
      "constant": true,
      "inputs": [
        {
          "name": "_addr",
          "type": "address"
        }
      ],
      "name": "balanceOf",
      "outputs": [
        {
          "name": "",
          "type": "uint256"
        }
      ],
      "payable": false,
      "stateMutability": "view",
      "type": "function"
    },
    {
      "constant": true,
      "inputs": [
        {
          "name": "_addr",
          "type": "address"
        },
        {
          "name": "_tranche",
          "type": "uint256"
        }
      ],
      "name": "balanceOfByTranche",
      "outputs": [
        {
          "name": "",
          "type": "uint256"
        }
      ],
      "payable": false,
      "stateMutability": "view",
      "type": "function"
    },
    {
      "constant": true,
      "inputs": [
        {
          "name": "_addr",
          "type": "address"
        }
      ],
      "name": "tranchesOf",
      "outputs": [
        {
          "name": "",
          "type": "uint256[]"
        }
      ],
      "payable": false,
      "stateMutability": "view",
      "type": "function"
    },
    {
      "constant": true,
      "inputs": [],
      "name": "totalSupply",
      "outputs": [
        {
          "name": "",
          "type": "uint256"
        }
      ],
      "payable": false,
      "stateMutability": "view",
      "type": "function"
    },
    {
      "constant": true,
      "inputs": [],
      "name": "getInfosEquityToken",
      "outputs": [
        {
          "name": "",
          "type": "bytes32"
        },
        {
          "name": "",
          "type": "bytes32"
        },
        {
          "name": "",
          "type": "uint256"
        },
        {
          "name": "",
          "type": "uint256"
        },
        {
          "name": "",
          "type": "uint256[]"
        }
      ],
      "payable": false,
      "stateMutability": "view",
      "type": "function"
    },
    {
      "constant": true,
      "inputs": [],
      "name": "getAllAddressesEquityToken",
      "outputs": [
        {
          "name": "",
          "type": "address[]"
        }
      ],
      "payable": false,
      "stateMutability": "view",
      "type": "function"
    },
    {
      "constant": true,
      "inputs": [],
      "name": "getCompanyOwner",
      "outputs": [
        {
          "name": "",
          "type": "address"
        }
      ],
      "payable": false,
      "stateMutability": "view",
      "type": "function"
    },
    {
      "constant": false,
      "inputs": [
        {
          "name": "_addr",
          "type": "address"
        }
      ],
      "name": "setCompanyOwner",
      "outputs": [],
      "payable": false,
      "stateMutability": "nonpayable",
      "type": "function"
    },
    {
      "constant": false,
      "inputs": [
        {
          "name": "_message",
          "type": "string"
        }
      ],
      "name": "sendAdHocMessage",
      "outputs": [],
      "payable": false,
      "stateMutability": "nonpayable",
      "type": "function"
    },
    {
      "constant": false,
      "inputs": [
        {
          "name": "_to",
          "type": "address"
        },
        {
          "name": "_txamount",
          "type": "uint256"
        },
        {
          "name": "_userData",
          "type": "bytes"
        }
      ],
      "name": "send",
      "outputs": [],
      "payable": false,
      "stateMutability": "nonpayable",
      "type": "function"
    },
    {
      "constant": false,
      "inputs": [
        {
          "name": "_to",
          "type": "address"
        },
        {
          "name": "_txamount",
          "type": "uint256"
        }
      ],
      "name": "send",
      "outputs": [],
      "payable": false,
      "stateMutability": "nonpayable",
      "type": "function"
    },
    {
      "constant": false,
      "inputs": [
        {
          "name": "_from",
          "type": "address"
        },
        {
          "name": "_to",
          "type": "address"
        },
        {
          "name": "_txamount",
          "type": "uint256"
        },
        {
          "name": "_userData",
          "type": "bytes"
        },
        {
          "name": "_operatorData",
          "type": "bytes"
        }
      ],
      "name": "operatorSend",
      "outputs": [],
      "payable": false,
      "stateMutability": "nonpayable",
      "type": "function"
    },
    {
      "constant": false,
      "inputs": [
        {
          "name": "_trancheId",
          "type": "uint256"
        },
        {
          "name": "_to",
          "type": "address"
        },
        {
          "name": "_txamount",
          "type": "uint256"
        },
        {
          "name": "_userData",
          "type": "bytes"
        }
      ],
      "name": "sendByTranche",
      "outputs": [
        {
          "name": "",
          "type": "uint256"
        }
      ],
      "payable": false,
      "stateMutability": "nonpayable",
      "type": "function"
    },
    {
      "constant": false,
      "inputs": [
        {
          "name": "_trancheId",
          "type": "uint256"
        },
        {
          "name": "_to",
          "type": "address"
        },
        {
          "name": "_txamount",
          "type": "uint256"
        }
      ],
      "name": "sendByTranche",
      "outputs": [
        {
          "name": "",
          "type": "uint256"
        }
      ],
      "payable": false,
      "stateMutability": "nonpayable",
      "type": "function"
    },
    {
      "constant": false,
      "inputs": [
        {
          "name": "_trancheId",
          "type": "uint256"
        },
        {
          "name": "_from",
          "type": "address"
        },
        {
          "name": "_to",
          "type": "address"
        },
        {
          "name": "_txamount",
          "type": "uint256"
        },
        {
          "name": "_userData",
          "type": "bytes"
        },
        {
          "name": "_operatorData",
          "type": "bytes"
        }
      ],
      "name": "operatorSendByTranche",
      "outputs": [
        {
          "name": "",
          "type": "uint256"
        }
      ],
      "payable": false,
      "stateMutability": "nonpayable",
      "type": "function"
    },
    {
      "constant": true,
      "inputs": [
        {
          "name": "_from",
          "type": "address"
        }
      ],
      "name": "getDefaultTranches",
      "outputs": [
        {
          "name": "",
          "type": "uint256[]"
        }
      ],
      "payable": false,
      "stateMutability": "view",
      "type": "function"
    },
    {
      "constant": false,
      "inputs": [
        {
          "name": "_trancheId",
          "type": "uint256"
        },
        {
          "name": "_from",
          "type": "address"
        },
        {
          "name": "_to",
          "type": "address"
        },
        {
          "name": "_txamount",
          "type": "uint256"
        },
        {
          "name": "_userData",
          "type": "bytes"
        }
      ],
      "name": "canSend",
      "outputs": [
        {
          "name": "",
          "type": "bytes1"
        },
        {
          "name": "",
          "type": "bytes32"
        },
        {
          "name": "",
          "type": "uint256"
        }
      ],
      "payable": false,
      "stateMutability": "nonpayable",
      "type": "function"
    },
    {
      "constant": false,
      "inputs": [
        {
          "name": "_txpercentage",
          "type": "uint256"
        }
      ],
      "name": "payDividend",
      "outputs": [],
      "payable": false,
      "stateMutability": "nonpayable",
      "type": "function"
    },
    {
      "constant": false,
      "inputs": [
        {
          "name": "adjustedLockup",
          "type": "uint256"
        }
      ],
      "name": "setLockup",
      "outputs": [],
      "payable": false,
      "stateMutability": "nonpayable",
      "type": "function"
    },
    {
      "constant": true,
      "inputs": [],
      "name": "defaultOperators",
      "outputs": [
        {
          "name": "",
          "type": "address[2]"
        }
      ],
      "payable": false,
      "stateMutability": "view",
      "type": "function"
    },
    {
      "constant": false,
      "inputs": [
        {
          "name": "_operator",
          "type": "address"
        }
      ],
      "name": "authorizeOperator",
      "outputs": [],
      "payable": false,
      "stateMutability": "nonpayable",
      "type": "function"
    },
    {
      "constant": false,
      "inputs": [
        {
          "name": "_operator",
          "type": "address"
        }
      ],
      "name": "revokeOperator",
      "outputs": [],
      "payable": false,
      "stateMutability": "nonpayable",
      "type": "function"
    },
    {
      "constant": true,
      "inputs": [
        {
          "name": "_operator",
          "type": "address"
        },
        {
          "name": "_tokenHolder",
          "type": "address"
        }
      ],
      "name": "isOperatorFor",
      "outputs": [
        {
          "name": "",
          "type": "bool"
        }
      ],
      "payable": false,
      "stateMutability": "view",
      "type": "function"
    },
    {
      "constant": false,
      "inputs": [
        {
          "name": "_addr",
          "type": "address"
        }
      ],
      "name": "setGovernmentAddress",
      "outputs": [],
      "payable": false,
      "stateMutability": "nonpayable",
      "type": "function"
    },
    {
      "constant": false,
      "inputs": [],
      "name": "stopIssuance",
      "outputs": [],
      "payable": false,
      "stateMutability": "nonpayable",
      "type": "function"
    },
    {
      "constant": true,
      "inputs": [],
      "name": "isControllable",
      "outputs": [
        {
          "name": "",
          "type": "bool"
        }
      ],
      "payable": false,
      "stateMutability": "view",
      "type": "function"
    },
    {
      "constant": false,
      "inputs": [
        {
          "name": "_name",
          "type": "bytes32"
        },
        {
          "name": "_url",
          "type": "string"
        },
        {
          "name": "_documentHash",
          "type": "bytes32"
        }
      ],
      "name": "uploadDocument",
      "outputs": [],
      "payable": true,
      "stateMutability": "payable",
      "type": "function"
    },
    {
      "constant": false,
      "inputs": [
        {
          "name": "_address",
          "type": "address"
        }
      ],
      "name": "approveAccreditation",
      "outputs": [],
      "payable": false,
      "stateMutability": "nonpayable",
      "type": "function"
    },
    {
      "constant": false,
      "inputs": [
        {
          "name": "proposalNames",
          "type": "bytes32[]"
        }
      ],
      "name": "startBallot",
      "outputs": [],
      "payable": false,
      "stateMutability": "nonpayable",
      "type": "function"
    },
    {
      "constant": false,
      "inputs": [
        {
          "name": "_to",
          "type": "address"
        }
      ],
      "name": "delegate",
      "outputs": [],
      "payable": false,
      "stateMutability": "nonpayable",
      "type": "function"
    },
    {
      "constant": false,
      "inputs": [
        {
          "name": "_proposal",
          "type": "uint256"
        }
      ],
      "name": "vote",
      "outputs": [],
      "payable": false,
      "stateMutability": "nonpayable",
      "type": "function"
    },
    {
      "constant": false,
      "inputs": [],
      "name": "winningProposal",
      "outputs": [
        {
          "name": "winnerName_",
          "type": "bytes32"
        }
      ],
      "payable": false,
      "stateMutability": "nonpayable",
      "type": "function"
    },
    {
      "constant": true,
      "inputs": [],
      "name": "getProposals",
      "outputs": [
        {
          "name": "",
          "type": "bytes32[]"
        }
      ],
      "payable": false,
      "stateMutability": "view",
      "type": "function"
    },
    {
      "constant": true,
      "inputs": [
        {
          "name": "_index",
          "type": "uint256"
        }
      ],
      "name": "getVoteCount",
      "outputs": [
        {
          "name": "voteCount_",
          "type": "uint256"
        }
      ],
      "payable": false,
      "stateMutability": "view",
      "type": "function"
    },
    {
      "constant": false,
      "inputs": [],
      "name": "disableERC20",
      "outputs": [],
      "payable": false,
      "stateMutability": "nonpayable",
      "type": "function"
    },
    {
      "constant": false,
      "inputs": [],
      "name": "enableERC20",
      "outputs": [],
      "payable": false,
      "stateMutability": "nonpayable",
      "type": "function"
    },
    {
      "constant": true,
      "inputs": [],
      "name": "decimals",
      "outputs": [
        {
          "name": "",
          "type": "uint8"
        }
      ],
      "payable": false,
      "stateMutability": "view",
      "type": "function"
    },
    {
      "constant": false,
      "inputs": [
        {
          "name": "_to",
          "type": "address"
        },
        {
          "name": "_txamount",
          "type": "uint256"
        }
      ],
      "name": "transfer",
      "outputs": [
        {
          "name": "success_",
          "type": "bool"
        }
      ],
      "payable": false,
      "stateMutability": "nonpayable",
      "type": "function"
    },
    {
      "constant": false,
      "inputs": [
        {
          "name": "_from",
          "type": "address"
        },
        {
          "name": "_to",
          "type": "address"
        },
        {
          "name": "_txamount",
          "type": "uint256"
        }
      ],
      "name": "transferFrom",
      "outputs": [
        {
          "name": "success_",
          "type": "bool"
        }
      ],
      "payable": false,
      "stateMutability": "nonpayable",
      "type": "function"
    },
    {
      "constant": false,
      "inputs": [
        {
          "name": "_spender",
          "type": "address"
        },
        {
          "name": "_txamount",
          "type": "uint256"
        }
      ],
      "name": "approve",
      "outputs": [
        {
          "name": "success_",
          "type": "bool"
        }
      ],
      "payable": false,
      "stateMutability": "nonpayable",
      "type": "function"
    },
    {
      "constant": true,
      "inputs": [
        {
          "name": "_owner",
          "type": "address"
        },
        {
          "name": "_spender",
          "type": "address"
        }
      ],
      "name": "allowance",
      "outputs": [
        {
          "name": "remaining",
          "type": "uint256"
        }
      ],
      "payable": false,
      "stateMutability": "view",
      "type": "function"
    }
  ],
  "bytecode": "0x60806040526001601060006101000a81548160ff02191690831515021790555060006011556305f5e100601255612710601355620f42406014556301e1338060165534801561004d57600080fd5b5061731f806200005e6000396000f30060806040526004361061029e576000357c0100000000000000000000000000000000000000000000000000000000900463ffffffff1680630121b93f146102a357806306e48538146102d057806306fdde0314610323578063070c87f914610356578063095ea7b31461036d5780630b366df1146103d257806312497cc81461043f5780631348bf22146104c257806318160ddd1461055a57806318d46718146105855780631f2515b9146105dc57806323b872dd1461061f5780632515994e146106a45780632a88511a146106d15780632d3d3f9c1461076e5780632f1cae85146107b1578063313ce567146107e057806344d17187146108115780634c783bf5146108a45780634f8d620b146108d35780635547641b1461093e578063556f0dc7146109885780635c19a95c146109b3578063609ff1bd146109f657806362564c4814610a2957806362ad1b8314610a955780636a13721914610b8e5780636ae6b45914610bd157806370a0823114610bfe57806380d987ca14610c55578063959b8c3f14610c9657806395d89b4114610cd95780639bd9bbc614610d0c578063a9059cbb14610d9f578063b2c2f2e814610e04578063b8fe4c3f14610e45578063c018f1d014610e5c578063c073d83614610ec5578063c3d9b9b114610f31578063ce30b8d91461102e578063ce9d1fd7146110c1578063d0679d341461117c578063d1dbe7d8146111c9578063d570ab3414611219578063d95b637114611270578063dad3e6dd146112eb578063dbb8299b14611342578063dcdc7dd0146113df578063dd62ed3e146114b8578063dfa942921461152f578063e3da9f8f14611578578063e75b0cf514611610578063f3be07eb14611671578063f922f21614611709578063fad8b32a14611720578063fc1865a014611763575b600080fd5b3480156102af57600080fd5b506102ce600480360381019080803590602001909291905050506117c9565b005b3480156102dc57600080fd5b506102e5611918565b6040518082600260200280838360005b838110156103105780820151818401526020810190506102f5565b5050505090500191505060405180910390f35b34801561032f57600080fd5b50610338611999565b60405180826000191660001916815260200191505060405180910390f35b34801561036257600080fd5b5061036b6119a3565b005b34801561037957600080fd5b506103b8600480360381019080803573ffffffffffffffffffffffffffffffffffffffff16906020019092919080359060200190929190505050611aab565b604051808215151515815260200191505060405180910390f35b3480156103de57600080fd5b506103fd60048036038101908080359060200190929190505050611d2e565b604051808273ffffffffffffffffffffffffffffffffffffffff1673ffffffffffffffffffffffffffffffffffffffff16815260200191505060405180910390f35b34801561044b57600080fd5b506104ac60048036038101908080359060200190929190803573ffffffffffffffffffffffffffffffffffffffff16906020019092919080359060200190929190803590602001908201803590602001919091929391929390505050611d6c565b6040518082815260200191505060405180910390f35b3480156104ce57600080fd5b506104d7611dce565b604051808660001916600019168152602001856000191660001916815260200184815260200183815260200180602001828103825283818151815260200191508051906020019060200280838360005b83811015610542578082015181840152602081019050610527565b50505050905001965050505050505060405180910390f35b34801561056657600080fd5b5061056f611e47565b6040518082815260200191505060405180910390f35b34801561059157600080fd5b506105c6600480360381019080803573ffffffffffffffffffffffffffffffffffffffff169060200190929190505050611e51565b6040518082815260200191505060405180910390f35b3480156105e857600080fd5b5061061d600480360381019080803573ffffffffffffffffffffffffffffffffffffffff169060200190929190505050611f11565b005b34801561062b57600080fd5b5061068a600480360381019080803573ffffffffffffffffffffffffffffffffffffffff169060200190929190803573ffffffffffffffffffffffffffffffffffffffff16906020019092919080359060200190929190505050611fa7565b604051808215151515815260200191505060405180910390f35b3480156106b057600080fd5b506106cf60048036038101908080359060200190929190505050612291565b005b3480156106dd57600080fd5b5061076c60048036038101908080359060200190929190803573ffffffffffffffffffffffffffffffffffffffff16906020019092919080359060200190929190803590602001908201803590602001908080601f016020809104026020016040519081016040528093929190818152602001838380828437820191505050505050919291929050505061264e565b005b34801561077a57600080fd5b506107af600480360381019080803573ffffffffffffffffffffffffffffffffffffffff169060200190929190505050612705565b005b3480156107bd57600080fd5b506107c6612834565b604051808215151515815260200191505060405180910390f35b3480156107ec57600080fd5b506107f5612847565b604051808260ff1660ff16815260200191505060405180910390f35b34801561081d57600080fd5b506108a2600480360381019080803573ffffffffffffffffffffffffffffffffffffffff16906020019092919080359060200190929190803590602001908201803590602001908080601f01602080910402602001604051908101604052809392919081815260200183838082843782019150505050505091929192905050506128fa565b005b3480156108b057600080fd5b506108b96129af565b604051808215151515815260200191505060405180910390f35b3480156108df57600080fd5b5061092860048036038101908080359060200190929190803573ffffffffffffffffffffffffffffffffffffffff16906020019092919080359060200190929190505050612a19565b6040518082815260200191505060405180910390f35b61098660048036038101908080356000191690602001909291908035906020019082018035906020019190919293919293908035600019169060200190929190505050612a57565b005b34801561099457600080fd5b5061099d612a5d565b6040518082815260200191505060405180910390f35b3480156109bf57600080fd5b506109f4600480360381019080803573ffffffffffffffffffffffffffffffffffffffff169060200190929190505050612a67565b005b348015610a0257600080fd5b50610a0b612ebf565b60405180826000191660001916815260200191505060405180910390f35b348015610a3557600080fd5b50610a3e613095565b6040518080602001828103825283818151815260200191508051906020019060200280838360005b83811015610a81578082015181840152602081019050610a66565b505050509050019250505060405180910390f35b348015610aa157600080fd5b50610b8c600480360381019080803573ffffffffffffffffffffffffffffffffffffffff169060200190929190803573ffffffffffffffffffffffffffffffffffffffff16906020019092919080359060200190929190803590602001908201803590602001908080601f0160208091040260200160405190810160405280939291908181526020018383808284378201915050505050509192919290803590602001908201803590602001908080601f0160208091040260200160405190810160405280939291908181526020018383808284378201915050505050509192919290505050613107565b005b348015610b9a57600080fd5b50610bcf600480360381019080803573ffffffffffffffffffffffffffffffffffffffff1690602001909291905050506131c2565b005b348015610bdd57600080fd5b50610bfc600480360381019080803590602001909291905050506133bc565b005b348015610c0a57600080fd5b50610c3f600480360381019080803573ffffffffffffffffffffffffffffffffffffffff1690602001909291905050506134b1565b6040518082815260200191505060405180910390f35b348015610c6157600080fd5b50610c80600480360381019080803590602001909291905050506134f9565b6040518082815260200191505060405180910390f35b348015610ca257600080fd5b50610cd7600480360381019080803573ffffffffffffffffffffffffffffffffffffffff16906020019092919050505061351c565b005b348015610ce557600080fd5b50610cee613715565b60405180826000191660001916815260200191505060405180910390f35b348015610d1857600080fd5b50610d9d600480360381019080803573ffffffffffffffffffffffffffffffffffffffff16906020019092919080359060200190929190803590602001908201803590602001908080601f016020809104026020016040519081016040528093929190818152602001838380828437820191505050505050919291929050505061371f565b005b348015610dab57600080fd5b50610dea600480360381019080803573ffffffffffffffffffffffffffffffffffffffff16906020019092919080359060200190929190505050613744565b604051808215151515815260200191505060405180910390f35b348015610e1057600080fd5b50610e2f6004803603810190808035906020019092919050505061382a565b6040518082815260200191505060405180910390f35b348015610e5157600080fd5b50610e5a613857565b005b348015610e6857600080fd5b50610ec3600480360381019080803590602001908201803590602001908080601f016020809104026020016040519081016040528093929190818152602001838380828437820191505050505050919291929050505061395f565b005b348015610ed157600080fd5b50610eda613b1d565b6040518080602001828103825283818151815260200191508051906020019060200280838360005b83811015610f1d578082015181840152602081019050610f02565b505050509050019250505060405180910390f35b348015610f3d57600080fd5b50610fbe60048036038101908080359060200190929190803573ffffffffffffffffffffffffffffffffffffffff169060200190929190803573ffffffffffffffffffffffffffffffffffffffff16906020019092919080359060200190929190803590602001908201803590602001919091929391929390505050613bab565b60405180847effffffffffffffffffffffffffffffffffffffffffffffffffffffffffffff19167effffffffffffffffffffffffffffffffffffffffffffffffffffffffffffff191681526020018360001916600019168152602001828152602001935050505060405180910390f35b34801561103a57600080fd5b506110bf600480360381019080803573ffffffffffffffffffffffffffffffffffffffff16906020019092919080359060200190929190803590602001908201803590602001908080601f0160208091040260200160405190810160405280939291908181526020018383808284378201915050505050509192919290505050613c91565b005b3480156110cd57600080fd5b5061116660048036038101908080359060200190929190803573ffffffffffffffffffffffffffffffffffffffff169060200190929190803573ffffffffffffffffffffffffffffffffffffffff16906020019092919080359060200190929190803590602001908201803590602001919091929391929390803590602001908201803590602001919091929391929390505050613d45565b6040518082815260200191505060405180910390f35b34801561118857600080fd5b506111c7600480360381019080803573ffffffffffffffffffffffffffffffffffffffff16906020019092919080359060200190929190505050613e70565b005b3480156111d557600080fd5b506111f460048036038101908080359060200190929190505050613ea4565b6040518083600019166000191681526020018281526020019250505060405180910390f35b34801561122557600080fd5b5061122e613ed7565b604051808273ffffffffffffffffffffffffffffffffffffffff1673ffffffffffffffffffffffffffffffffffffffff16815260200191505060405180910390f35b34801561127c57600080fd5b506112d1600480360381019080803573ffffffffffffffffffffffffffffffffffffffff169060200190929190803573ffffffffffffffffffffffffffffffffffffffff169060200190929190505050613efd565b604051808215151515815260200191505060405180910390f35b3480156112f757600080fd5b50611300613fc7565b604051808273ffffffffffffffffffffffffffffffffffffffff1673ffffffffffffffffffffffffffffffffffffffff16815260200191505060405180910390f35b34801561134e57600080fd5b506113dd60048036038101908080359060200190929190803573ffffffffffffffffffffffffffffffffffffffff16906020019092919080359060200190929190803590602001908201803590602001908080601f0160208091040260200160405190810160405280939291908181526020018383808284378201915050505050509192919290505050613ff1565b005b3480156113eb57600080fd5b506114b6600480360381019080803573ffffffffffffffffffffffffffffffffffffffff16906020019092919080359060200190929190803590602001908201803590602001908080601f0160208091040260200160405190810160405280939291908181526020018383808284378201915050505050509192919290803590602001908201803590602001908080601f01602080910402602001604051908101604052809392919081815260200183838082843782019150505050505091929192905050506140a7565b005b3480156114c457600080fd5b50611519600480360381019080803573ffffffffffffffffffffffffffffffffffffffff169060200190929190803573ffffffffffffffffffffffffffffffffffffffff169060200190929190505050614961565b6040518082815260200191505060405180910390f35b34801561153b57600080fd5b506115766004803603810190808035600019169060200190929190803560001916906020019092919080359060200190929190505050614a92565b005b34801561158457600080fd5b506115b9600480360381019080803573ffffffffffffffffffffffffffffffffffffffff169060200190929190505050614ce8565b6040518080602001828103825283818151815260200191508051906020019060200280838360005b838110156115fc5780820151818401526020810190506115e1565b505050509050019250505060405180910390f35b34801561161c57600080fd5b5061165b600480360381019080803573ffffffffffffffffffffffffffffffffffffffff16906020019092919080359060200190929190505050614d7f565b6040518082815260200191505060405180910390f35b34801561167d57600080fd5b506116b2600480360381019080803573ffffffffffffffffffffffffffffffffffffffff169060200190929190505050614dda565b6040518080602001828103825283818151815260200191508051906020019060200280838360005b838110156116f55780820151818401526020810190506116da565b505050509050019250505060405180910390f35b34801561171557600080fd5b5061171e614dec565b005b34801561172c57600080fd5b50611761600480360381019080803573ffffffffffffffffffffffffffffffffffffffff169060200190929190505050614ef4565b005b34801561176f57600080fd5b506117c76004803603810190808035906020019082018035906020019080806020026020016040519081016040528093929190818152602001838360200280828437820191505050505050919291929050505061508a565b005b6000601860003373ffffffffffffffffffffffffffffffffffffffff1673ffffffffffffffffffffffffffffffffffffffff16815260200190815260200160002090508060010160009054906101000a900460ff16151515611893576040517f08c379a000000000000000000000000000000000000000000000000000000000815260040180806020018281038252600d8152602001807f416c726561647920766f7465640000000000000000000000000000000000000081525060200191505060405180910390fd5b60018160010160006101000a81548160ff0219169083151502179055508181600201819055506118f081600001546019848154811015156118d057fe5b90600052602060002090600202016001015461529e90919063ffffffff16565b6019838154811015156118ff57fe5b9060005260206000209060020201600101819055505050565b611920617211565b600c60028060200260405190810160405280929190826002801561198f576020028201915b8160009054906101000a900473ffffffffffffffffffffffffffffffffffffffff1673ffffffffffffffffffffffffffffffffffffffff1681526020019060010190808311611945575b5050505050905090565b6000600754905090565b600b60009054906101000a900473ffffffffffffffffffffffffffffffffffffffff1673ffffffffffffffffffffffffffffffffffffffff163373ffffffffffffffffffffffffffffffffffffffff16141515611a8e576040517f08c379a00000000000000000000000000000000000000000000000000000000081526004018080602001828103825260298152602001807f726571756972656d656e74206f6e6c794f776e6572206f6620436f6d70616e7981526020017f206d6f646966696572000000000000000000000000000000000000000000000081525060400191505060405180910390fd5b6001601a60006101000a81548160ff021916908315150217905550565b600081600060095482811515611abd57fe5b06141515611b59576040517f08c379a00000000000000000000000000000000000000000000000000000000081526004018080602001828103825260338152602001807f756e61626c6520746f206d6f6469667920746f6b656e2062616c616e6365732081526020017f61742074686973206772616e756c61726974790000000000000000000000000081525060400191505060405180910390fd5b601a60009054906101000a900460ff161515611c03576040517f08c379a00000000000000000000000000000000000000000000000000000000081526004018080602001828103825260258152602001807f657263323020636f6d7061746962696c69747920686173206265656e2064697381526020017f61626c656400000000000000000000000000000000000000000000000000000081525060400191505060405180910390fd5b82600560003373ffffffffffffffffffffffffffffffffffffffff1673ffffffffffffffffffffffffffffffffffffffff16815260200190815260200160002060008673ffffffffffffffffffffffffffffffffffffffff1673ffffffffffffffffffffffffffffffffffffffff168152602001908152602001600020819055507f8c5be1e5ebec7d5bd14f71427d1e84f3dd0314c0f7b2291e5b200ac8c7c3b925338585604051808473ffffffffffffffffffffffffffffffffffffffff1673ffffffffffffffffffffffffffffffffffffffff1681526020018373ffffffffffffffffffffffffffffffffffffffff1673ffffffffffffffffffffffffffffffffffffffff168152602001828152602001935050505060405180910390a1600191505092915050565b600e81815481101515611d3d57fe5b906000526020600020016000915054906101000a900473ffffffffffffffffffffffffffffffffffffffff1681565b6000611dc18633878787878080601f01602080910402602001604051908101604052809392919081815260200183838082843782019150505050505033602060405190810160405280600081525060016152bf565b5085905095945050505050565b6000806000806060600754600854600954600a54600f80805480602002602001604051908101604052809291908181526020018280548015611e2f57602002820191906000526020600020905b815481526020019060010190808311611e1b575b50505050509050945094509450945094509091929394565b6000600a54905090565b600073__ConvertLib____________________________6396e4ee3d611e76846134b1565b60036040518363ffffffff167c0100000000000000000000000000000000000000000000000000000000028152600401808381526020018281526020019250505060206040518083038186803b158015611ecf57600080fd5b505af4158015611ee3573d6000803e3d6000fd5b505050506040513d6020811015611ef957600080fd5b81019080805190602001909291905050509050919050565b6002600660003373ffffffffffffffffffffffffffffffffffffffff1673ffffffffffffffffffffffffffffffffffffffff16815260200190815260200160002054141515611f5f57600080fd5b6001600660008373ffffffffffffffffffffffffffffffffffffffff1673ffffffffffffffffffffffffffffffffffffffff1681526020019081526020016000208190555050565b6000601a60009054906101000a900460ff161515612053576040517f08c379a00000000000000000000000000000000000000000000000000000000081526004018080602001828103825260258152602001807f657263323020636f6d7061746962696c69747920686173206265656e2064697381526020017f61626c656400000000000000000000000000000000000000000000000000000081525060400191505060405180910390fd5b600560008573ffffffffffffffffffffffffffffffffffffffff1673ffffffffffffffffffffffffffffffffffffffff16815260200190815260200160002060003373ffffffffffffffffffffffffffffffffffffffff1673ffffffffffffffffffffffffffffffffffffffff168152602001908152602001600020548211151515612147576040517f08c379a000000000000000000000000000000000000000000000000000000000815260040180806020018281038252601b8152602001807f6e6f20617070726f76616c20666f72207472616e73616374696f6e000000000081525060200191505060405180910390fd5b6121d682600560008773ffffffffffffffffffffffffffffffffffffffff1673ffffffffffffffffffffffffffffffffffffffff16815260200190815260200160002060003373ffffffffffffffffffffffffffffffffffffffff1673ffffffffffffffffffffffffffffffffffffffff16815260200190815260200160002054615d3190919063ffffffff16565b600560008673ffffffffffffffffffffffffffffffffffffffff1673ffffffffffffffffffffffffffffffffffffffff16815260200190815260200160002060003373ffffffffffffffffffffffffffffffffffffffff1673ffffffffffffffffffffffffffffffffffffffff1681526020019081526020016000208190555061228684848460206040519081016040528060008152503360206040519081016040528060008152506000615d52565b600190509392505050565b6000806000806000600b60009054906101000a900473ffffffffffffffffffffffffffffffffffffffff1673ffffffffffffffffffffffffffffffffffffffff163373ffffffffffffffffffffffffffffffffffffffff16141515612384576040517f08c379a00000000000000000000000000000000000000000000000000000000081526004018080602001828103825260298152602001807f726571756972656d656e74206f6e6c794f776e6572206f6620436f6d70616e7981526020017f206d6f646966696572000000000000000000000000000000000000000000000081525060400191505060405180910390fd5b600193505b600e8054905084101561244457612420600080600e878154811015156123ab57fe5b9060005260206000200160009054906101000a900473ffffffffffffffffffffffffffffffffffffffff1673ffffffffffffffffffffffffffffffffffffffff1673ffffffffffffffffffffffffffffffffffffffff1681526020019081526020016000205487615ec890919063ffffffff16565b9250612435838661529e90919063ffffffff16565b94508380600101945050612389565b846000803373ffffffffffffffffffffffffffffffffffffffff1673ffffffffffffffffffffffffffffffffffffffff1681526020019081526020016000205410151515612520576040517f08c379a00000000000000000000000000000000000000000000000000000000081526004018080602001828103825260248152602001807f696e73756666696369656e742066756e64696e6720746f20706179206469766981526020017f64656e640000000000000000000000000000000000000000000000000000000081525060400191505060405180910390fd5b600191505b600e8054905082101561260f576125bc600080600e8581548110151561254757fe5b9060005260206000200160009054906101000a900473ffffffffffffffffffffffffffffffffffffffff1673ffffffffffffffffffffffffffffffffffffffff1673ffffffffffffffffffffffffffffffffffffffff1681526020019081526020016000205487615ec890919063ffffffff16565b9050612601600e838154811015156125d057fe5b9060005260206000200160009054906101000a900473ffffffffffffffffffffffffffffffffffffffff1682613744565b508180600101925050612525565b7f69c382338c74e0d3a990efe1a52ae89dcf6a9ab705628ec4424f49cddd4e2f89866040518082815260200191505060405180910390a1505050505050565b828073ffffffffffffffffffffffffffffffffffffffff163373ffffffffffffffffffffffffffffffffffffffff161415156126f2576040517f08c379a00000000000000000000000000000000000000000000000000000000081526004018080602001828103825260158152602001807f726571756972656d656e74206f6e6c794f776e6572000000000000000000000081525060200191505060405180910390fd5b6126fe85858585615f06565b5050505050565b600b60009054906101000a900473ffffffffffffffffffffffffffffffffffffffff1673ffffffffffffffffffffffffffffffffffffffff163373ffffffffffffffffffffffffffffffffffffffff161415156127f0576040517f08c379a00000000000000000000000000000000000000000000000000000000081526004018080602001828103825260298152602001807f726571756972656d656e74206f6e6c794f776e6572206f6620436f6d70616e7981526020017f206d6f646966696572000000000000000000000000000000000000000000000081525060400191505060405180910390fd5b80600b60006101000a81548173ffffffffffffffffffffffffffffffffffffffff021916908373ffffffffffffffffffffffffffffffffffffffff16021790555050565b601060009054906101000a900460ff1681565b6000601a60009054906101000a900460ff1615156128f3576040517f08c379a00000000000000000000000000000000000000000000000000000000081526004018080602001828103825260258152602001807f657263323020636f6d7061746962696c69747920686173206265656e2064697381526020017f61626c656400000000000000000000000000000000000000000000000000000081525060400191505060405180910390fd5b6012905090565b828073ffffffffffffffffffffffffffffffffffffffff163373ffffffffffffffffffffffffffffffffffffffff1614151561299e576040517f08c379a00000000000000000000000000000000000000000000000000000000081526004018080602001828103825260158152602001807f726571756972656d656e74206f6e6c794f776e6572000000000000000000000081525060200191505060405180910390fd5b6129a984848461648f565b50505050565b60008073ffffffffffffffffffffffffffffffffffffffff16601560009054906101000a900473ffffffffffffffffffffffffffffffffffffffff1673ffffffffffffffffffffffffffffffffffffffff16141515612a115760009050612a16565b600190505b90565b6000612a4c84338585602060405190810160405280600081525033602060405190810160405280600081525060016152bf565b508390509392505050565b50505050565b6000600954905090565b600080601860003373ffffffffffffffffffffffffffffffffffffffff1673ffffffffffffffffffffffffffffffffffffffff16815260200190815260200160002091508160010160009054906101000a900460ff16151515612b32576040517f08c379a00000000000000000000000000000000000000000000000000000000081526004018080602001828103825260118152602001807f596f7520616c726561647920766f74656400000000000000000000000000000081525060200191505060405180910390fd5b3373ffffffffffffffffffffffffffffffffffffffff168373ffffffffffffffffffffffffffffffffffffffff1614151515612bd6576040517f08c379a000000000000000000000000000000000000000000000000000000000815260040180806020018281038252601d8152602001807f53656c662d64656c65676174696f6e20697320646973616c6c6f77656400000081525060200191505060405180910390fd5b5b600073ffffffffffffffffffffffffffffffffffffffff16601860008573ffffffffffffffffffffffffffffffffffffffff1673ffffffffffffffffffffffffffffffffffffffff16815260200190815260200160002060010160019054906101000a900473ffffffffffffffffffffffffffffffffffffffff1673ffffffffffffffffffffffffffffffffffffffff16141515612d7d57601860008473ffffffffffffffffffffffffffffffffffffffff1673ffffffffffffffffffffffffffffffffffffffff16815260200190815260200160002060010160019054906101000a900473ffffffffffffffffffffffffffffffffffffffff1692503373ffffffffffffffffffffffffffffffffffffffff168373ffffffffffffffffffffffffffffffffffffffff1614151515612d78576040517f08c379a000000000000000000000000000000000000000000000000000000000815260040180806020018281038252601a8152602001807f466f756e642073656c662d64656c65676174696f6e206c6f6f7000000000000081525060200191505060405180910390fd5b612bd7565b60018260010160006101000a81548160ff021916908315150217905550828260010160016101000a81548173ffffffffffffffffffffffffffffffffffffffff021916908373ffffffffffffffffffffffffffffffffffffffff160217905550601860008473ffffffffffffffffffffffffffffffffffffffff1673ffffffffffffffffffffffffffffffffffffffff16815260200190815260200160002090508060010160009054906101000a900460ff1615612e9d57612e70826000015460198360020154815481101515612e5057fe5b90600052602060002090600202016001015461529e90919063ffffffff16565b60198260020154815481101515612e8357fe5b906000526020600020906002020160010181905550612eba565b612eb88260000154826000015461529e90919063ffffffff16565b505b505050565b600080600080600b60009054906101000a900473ffffffffffffffffffffffffffffffffffffffff1673ffffffffffffffffffffffffffffffffffffffff163373ffffffffffffffffffffffffffffffffffffffff16141515612fb0576040517f08c379a00000000000000000000000000000000000000000000000000000000081526004018080602001828103825260298152602001807f726571756972656d656e74206f6e6c794f776e6572206f6620436f6d70616e7981526020017f206d6f646966696572000000000000000000000000000000000000000000000081525060400191505060405180910390fd5b60009250600091505b6019805490508210156130225782601983815481101515612fd657fe5b906000526020600020906002020160010154111561301557601982815481101515612ffd57fe5b90600052602060002090600202016001015492508190505b8180600101925050612fb9565b60198181548110151561303157fe5b90600052602060002090600202016000015493507f64cc588a379a8af63188f3443e70b4fa4e3cdad188fd65e3b7b283c2084cddc784846040518083600019166000191681526020018281526020019250505060405180910390a183935050505090565b60608060008090505b6019805490508110156130ff576019818154811015156130ba57fe5b90600052602060002090600202016000015482828151811015156130da57fe5b906020019060200201906000191690816000191681525050808060010191505061309e565b819250505090565b6131113386613efd565b15156131ab576040517f08c379a00000000000000000000000000000000000000000000000000000000081526004018080602001828103825260388152602001807f73656e646572206973206e6f7420617574686f72697a656420746f206f70657281526020017f6174652077697468205f66726f6d2773206163636f756e74000000000000000081525060400191505060405180910390fd5b6131bb8585858533866001615d52565b5050505050565b600b60009054906101000a900473ffffffffffffffffffffffffffffffffffffffff1673ffffffffffffffffffffffffffffffffffffffff163373ffffffffffffffffffffffffffffffffffffffff161415156132ad576040517f08c379a00000000000000000000000000000000000000000000000000000000081526004018080602001828103825260298152602001807f726571756972656d656e74206f6e6c794f776e6572206f6620436f6d70616e7981526020017f206d6f646966696572000000000000000000000000000000000000000000000081525060400191505060405180910390fd5b600073ffffffffffffffffffffffffffffffffffffffff168173ffffffffffffffffffffffffffffffffffffffff1614151515613378576040517f08c379a00000000000000000000000000000000000000000000000000000000081526004018080602001828103825260308152602001807f5f61646472206164647265737320646f6573206e6f74206578697374206f722081526020017f69732030783020286275726e696e67290000000000000000000000000000000081525060400191505060405180910390fd5b80601560006101000a81548173ffffffffffffffffffffffffffffffffffffffff021916908373ffffffffffffffffffffffffffffffffffffffff16021790555050565b600b60009054906101000a900473ffffffffffffffffffffffffffffffffffffffff1673ffffffffffffffffffffffffffffffffffffffff163373ffffffffffffffffffffffffffffffffffffffff161415156134a7576040517f08c379a00000000000000000000000000000000000000000000000000000000081526004018080602001828103825260298152602001807f726571756972656d656e74206f6e6c794f776e6572206f6620436f6d70616e7981526020017f206d6f646966696572000000000000000000000000000000000000000000000081525060400191505060405180910390fd5b8060168190555050565b60008060008373ffffffffffffffffffffffffffffffffffffffff1673ffffffffffffffffffffffffffffffffffffffff168152602001908152602001600020549050919050565b600f8181548110151561350857fe5b906000526020600020016000915090505481565b3373ffffffffffffffffffffffffffffffffffffffff168173ffffffffffffffffffffffffffffffffffffffff16141515156135e6576040517f08c379a00000000000000000000000000000000000000000000000000000000081526004018080602001828103825260248152602001807f6d73672e73656e6465722063616e6e6f7420617574686f72697a65642068696d81526020017f73656c660000000000000000000000000000000000000000000000000000000081525060400191505060405180910390fd5b6001601760008373ffffffffffffffffffffffffffffffffffffffff1673ffffffffffffffffffffffffffffffffffffffff16815260200190815260200160002060003373ffffffffffffffffffffffffffffffffffffffff1673ffffffffffffffffffffffffffffffffffffffff16815260200190815260200160002060006101000a81548160ff0219169083151502179055507ff4caeb2d6ca8932a215a353d0703c326ec2d81fc68170f320eb2ab49e9df61f98133604051808373ffffffffffffffffffffffffffffffffffffffff1673ffffffffffffffffffffffffffffffffffffffff1681526020018273ffffffffffffffffffffffffffffffffffffffff1673ffffffffffffffffffffffffffffffffffffffff1681526020019250505060405180910390a150565b6000600854905090565b61373f338484843360206040519081016040528060008152506001615d52565b505050565b6000601a60009054906101000a900460ff1615156137f0576040517f08c379a00000000000000000000000000000000000000000000000000000000081526004018080602001828103825260258152602001807f657263323020636f6d7061746962696c69747920686173206265656e2064697381526020017f61626c656400000000000000000000000000000000000000000000000000000081525060400191505060405180910390fd5b61382033848460206040519081016040528060008152503360206040519081016040528060008152506000615d52565b6001905092915050565b600060198281548110151561383b57fe5b9060005260206000209060020201600101549050809050919050565b600b60009054906101000a900473ffffffffffffffffffffffffffffffffffffffff1673ffffffffffffffffffffffffffffffffffffffff163373ffffffffffffffffffffffffffffffffffffffff16141515613942576040517f08c379a00000000000000000000000000000000000000000000000000000000081526004018080602001828103825260298152602001807f726571756972656d656e74206f6e6c794f776e6572206f6620436f6d70616e7981526020017f206d6f646966696572000000000000000000000000000000000000000000000081525060400191505060405180910390fd5b6000601060006101000a81548160ff021916908315150217905550565b600b60009054906101000a900473ffffffffffffffffffffffffffffffffffffffff1673ffffffffffffffffffffffffffffffffffffffff163373ffffffffffffffffffffffffffffffffffffffff16141515613a4a576040517f08c379a00000000000000000000000000000000000000000000000000000000081526004018080602001828103825260298152602001807f726571756972656d656e74206f6e6c794f776e6572206f6620436f6d70616e7981526020017f206d6f646966696572000000000000000000000000000000000000000000000081525060400191505060405180910390fd5b7f075025aecd552649e85b634e268857a6a478f698de831a3b01d0055e73888d20813360405180806020018373ffffffffffffffffffffffffffffffffffffffff1673ffffffffffffffffffffffffffffffffffffffff168152602001828103825284818151815260200191508051906020019080838360005b83811015613adf578082015181840152602081019050613ac4565b50505050905090810190601f168015613b0c5780820380516001836020036101000a031916815260200191505b50935050505060405180910390a150565b6060600e805480602002602001604051908101604052809291908181526020018280548015613ba157602002820191906000526020600020905b8160009054906101000a900473ffffffffffffffffffffffffffffffffffffffff1673ffffffffffffffffffffffffffffffffffffffff1681526020019060010190808311613b57575b5050505050905090565b6000806000613c038989898989898080601f01602080910402602001604051908101604052809392919081815260200183838082843782019150505050505033602060405190810160405280600081525060016152bf565b15613c5857887f0100000000000000000000000000000000000000000000000000000000000000907f737563636573730000000000000000000000000000000000000000000000000090925092509250613c85565b886000907f6661696c75726500000000000000000000000000000000000000000000000000909250925092505b96509650969350505050565b613c9b3384613efd565b1515613d35576040517f08c379a00000000000000000000000000000000000000000000000000000000081526004018080602001828103825260388152602001807f73656e646572206973206e6f7420617574686f72697a656420746f206f70657281526020017f6174652077697468205f66726f6d2773206163636f756e74000000000000000081525060400191505060405180910390fd5b613d4083838361648f565b505050565b6000613d513389613efd565b1515613deb576040517f08c379a00000000000000000000000000000000000000000000000000000000081526004018080602001828103825260388152602001807f73656e646572206973206e6f7420617574686f72697a656420746f206f70657281526020017f6174652077697468205f66726f6d2773206163636f756e74000000000000000081525060400191505060405180910390fd5b613e608989898989898080601f0160208091040260200160405190810160405280939291908181526020018383808284378201915050505050503389898080601f01602080910402602001604051908101604052809392919081815260200183838082843782019150505050505060016152bf565b5088905098975050505050505050565b613ea033838360206040519081016040528060008152503360206040519081016040528060008152506001615d52565b5050565b601981815481101515613eb357fe5b90600052602060002090600202016000915090508060000154908060010154905082565b601560009054906101000a900473ffffffffffffffffffffffffffffffffffffffff1681565b60008173ffffffffffffffffffffffffffffffffffffffff168373ffffffffffffffffffffffffffffffffffffffff161480613fbf5750601760008473ffffffffffffffffffffffffffffffffffffffff1673ffffffffffffffffffffffffffffffffffffffff16815260200190815260200160002060008373ffffffffffffffffffffffffffffffffffffffff1673ffffffffffffffffffffffffffffffffffffffff16815260200190815260200160002060009054906101000a900460ff165b905092915050565b6000600b60009054906101000a900473ffffffffffffffffffffffffffffffffffffffff16905090565b613ffb3384613efd565b1515614095576040517f08c379a00000000000000000000000000000000000000000000000000000000081526004018080602001828103825260388152602001807f73656e646572206973206e6f7420617574686f72697a656420746f206f70657281526020017f6174652077697468205f66726f6d2773206163636f756e74000000000000000081525060400191505060405180910390fd5b6140a184848484615f06565b50505050565b6000836000600954828115156140b957fe5b06141515614155576040517f08c379a00000000000000000000000000000000000000000000000000000000081526004018080602001828103825260338152602001807f756e61626c6520746f206d6f6469667920746f6b656e2062616c616e6365732081526020017f61742074686973206772616e756c61726974790000000000000000000000000081525060400191505060405180910390fd5b600b60009054906101000a900473ffffffffffffffffffffffffffffffffffffffff1673ffffffffffffffffffffffffffffffffffffffff163373ffffffffffffffffffffffffffffffffffffffff16141515614240576040517f08c379a00000000000000000000000000000000000000000000000000000000081526004018080602001828103825260298152602001807f726571756972656d656e74206f6e6c794f776e6572206f6620436f6d70616e7981526020017f206d6f646966696572000000000000000000000000000000000000000000000081525060400191505060405180910390fd5b60011515601060009054906101000a900460ff1615151415156142cb576040517f08c379a000000000000000000000000000000000000000000000000000000000815260040180806020018281038252601a8152602001807f746f6b656e2069737375616e63652069732066696e697368656400000000000081525060200191505060405180910390fd5b6142d6600754616d6c565b9150600f82908060018154018082558091505090600182039060005260206000200160009091929091909150555060a0604051908101604052808681526020017f41000000000000000000000000000000000000000000000000000000000000007effffffffffffffffffffffffffffffffffffffffffffffffffffffffffffff191681526020014281526020016013548152602001601454815250600360008481526020019081526020016000206000820151816000015560208201518160010160006101000a81548160ff02191690837f01000000000000000000000000000000000000000000000000000000000000009004021790555060408201518160020155606082015181600301556080820151816004015590505061440685600a5461529e90919063ffffffff16565b600a8190555061445d856000808973ffffffffffffffffffffffffffffffffffffffff1673ffffffffffffffffffffffffffffffffffffffff1681526020019081526020016000205461529e90919063ffffffff16565b6000808873ffffffffffffffffffffffffffffffffffffffff1673ffffffffffffffffffffffffffffffffffffffff1681526020019081526020016000208190555061450285600160008973ffffffffffffffffffffffffffffffffffffffff1673ffffffffffffffffffffffffffffffffffffffff16815260200190815260200160002060008581526020019081526020016000205461529e90919063ffffffff16565b600160008873ffffffffffffffffffffffffffffffffffffffff1673ffffffffffffffffffffffffffffffffffffffff168152602001908152602001600020600084815260200190815260200160002081905550600260008773ffffffffffffffffffffffffffffffffffffffff1673ffffffffffffffffffffffffffffffffffffffff1681526020019081526020016000208290806001815401808255809150509060018203906000526020600020016000909192909190915055507f2fe5be0146f74c5bce36c0b80911af6c7d86ff27e89d5cfa61fc681327954e5d3387878787604051808673ffffffffffffffffffffffffffffffffffffffff1673ffffffffffffffffffffffffffffffffffffffff1681526020018573ffffffffffffffffffffffffffffffffffffffff1673ffffffffffffffffffffffffffffffffffffffff1681526020018481526020018060200180602001838103835285818151815260200191508051906020019080838360005b83811015614693578082015181840152602081019050614678565b50505050905090810190601f1680156146c05780820380516001836020036101000a031916815260200191505b50838103825284818151815260200191508051906020019080838360005b838110156146f95780820151818401526020810190506146de565b50505050905090810190601f1680156147265780820380516001836020036101000a031916815260200191505b5097505050505050505060405180910390a17fc8d64290e05791ddb8e7c779289e066d776a0630d8fb0adb646a94b9ae85b772823388888888604051808781526020018673ffffffffffffffffffffffffffffffffffffffff1673ffffffffffffffffffffffffffffffffffffffff1681526020018573ffffffffffffffffffffffffffffffffffffffff1673ffffffffffffffffffffffffffffffffffffffff1681526020018481526020018060200180602001838103835285818151815260200191508051906020019080838360005b838110156148135780820151818401526020810190506147f8565b50505050905090810190601f1680156148405780820380516001836020036101000a031916815260200191505b50838103825284818151815260200191508051906020019080838360005b8381101561487957808201518184015260208101905061485e565b50505050905090810190601f1680156148a65780820380516001836020036101000a031916815260200191505b509850505050505050505060405180910390a1601a60009054906101000a900460ff1615614959577fddf252ad1be2c89b69c2b068fc378daa952ba7f163c4a11628f55a4df523b3ef60008787604051808473ffffffffffffffffffffffffffffffffffffffff1681526020018373ffffffffffffffffffffffffffffffffffffffff1673ffffffffffffffffffffffffffffffffffffffff168152602001828152602001935050505060405180910390a15b505050505050565b6000601a60009054906101000a900460ff161515614a0d576040517f08c379a00000000000000000000000000000000000000000000000000000000081526004018080602001828103825260258152602001807f657263323020636f6d7061746962696c69747920686173206265656e2064697381526020017f61626c656400000000000000000000000000000000000000000000000000000081525060400191505060405180910390fd5b600560008473ffffffffffffffffffffffffffffffffffffffff1673ffffffffffffffffffffffffffffffffffffffff16815260200190815260200160002060008373ffffffffffffffffffffffffffffffffffffffff1673ffffffffffffffffffffffffffffffffffffffff16815260200190815260200160002054905092915050565b826007816000191690555081600881600019169055506000600a8190555060018110151515614b4f576040517f08c379a00000000000000000000000000000000000000000000000000000000081526004018080602001828103825260288152602001807f6772616e756c61726974792068617320746f2062652067726561746572206f7281526020017f20657175616c203100000000000000000000000000000000000000000000000081525060400191505060405180910390fd5b806009819055506001601a60006101000a81548160ff02191690831515021790555033600b60006101000a81548173ffffffffffffffffffffffffffffffffffffffff021916908373ffffffffffffffffffffffffffffffffffffffff16021790555060408051908101604052803373ffffffffffffffffffffffffffffffffffffffff1673ffffffffffffffffffffffffffffffffffffffff168152602001601560009054906101000a900473ffffffffffffffffffffffffffffffffffffffff1673ffffffffffffffffffffffffffffffffffffffff1673ffffffffffffffffffffffffffffffffffffffff16815250600c906002614c51929190617233565b50614c5b33616e36565b507f9ae979c8e1266c2f250aee2ce3946e415bd909a9cf1821aab705834932fd12ad6007546008543360405180846000191660001916815260200183600019166000191681526020018273ffffffffffffffffffffffffffffffffffffffff1673ffffffffffffffffffffffffffffffffffffffff168152602001935050505060405180910390a1505050565b6060600260008373ffffffffffffffffffffffffffffffffffffffff1673ffffffffffffffffffffffffffffffffffffffff168152602001908152602001600020805480602002602001604051908101604052809291908181526020018280548015614d7357602002820191906000526020600020905b815481526020019060010190808311614d5f575b50505050509050919050565b6000600160008473ffffffffffffffffffffffffffffffffffffffff1673ffffffffffffffffffffffffffffffffffffffff168152602001908152602001600020600083815260200190815260200160002054905092915050565b6060614de582614ce8565b9050919050565b600b60009054906101000a900473ffffffffffffffffffffffffffffffffffffffff1673ffffffffffffffffffffffffffffffffffffffff163373ffffffffffffffffffffffffffffffffffffffff16141515614ed7576040517f08c379a00000000000000000000000000000000000000000000000000000000081526004018080602001828103825260298152602001807f726571756972656d656e74206f6e6c794f776e6572206f6620436f6d70616e7981526020017f206d6f646966696572000000000000000000000000000000000000000000000081525060400191505060405180910390fd5b6000601a60006101000a81548160ff021916908315150217905550565b3373ffffffffffffffffffffffffffffffffffffffff168173ffffffffffffffffffffffffffffffffffffffff1614151515614f98576040517f08c379a00000000000000000000000000000000000000000000000000000000081526004018080602001828103825260208152602001807f6d73672e73656e6465722063616e6e6f74207265766f6b652068696d73656c6681525060200191505060405180910390fd5b6000601760008373ffffffffffffffffffffffffffffffffffffffff1673ffffffffffffffffffffffffffffffffffffffff16815260200190815260200160002060003373ffffffffffffffffffffffffffffffffffffffff1673ffffffffffffffffffffffffffffffffffffffff16815260200190815260200160002060006101000a81548160ff0219169083151502179055503373ffffffffffffffffffffffffffffffffffffffff168173ffffffffffffffffffffffffffffffffffffffff167f50546e66e5f44d728365dc3908c63bc5cfeeab470722c1677e3073a6ac294aa160405160405180910390a350565b6000600b60009054906101000a900473ffffffffffffffffffffffffffffffffffffffff1673ffffffffffffffffffffffffffffffffffffffff163373ffffffffffffffffffffffffffffffffffffffff16141515615177576040517f08c379a00000000000000000000000000000000000000000000000000000000081526004018080602001828103825260298152602001807f726571756972656d656e74206f6e6c794f776e6572206f6620436f6d70616e7981526020017f206d6f646966696572000000000000000000000000000000000000000000000081525060400191505060405180910390fd5b600090505b815181101561520d576019604080519081016040528084848151811015156151a057fe5b906020019060200201516000191681526020016000815250908060018154018082558091505090600182039060005260206000209060020201600090919290919091506000820151816000019060001916905560208201518160010155505050808060010191505061517c565b6000803373ffffffffffffffffffffffffffffffffffffffff1673ffffffffffffffffffffffffffffffffffffffff16815260200190815260200160002054601860003373ffffffffffffffffffffffffffffffffffffffff1673ffffffffffffffffffffffffffffffffffffffff1681526020019081526020016000206000018190555061529a616f87565b5050565b60008082840190508381101515156152b557600080fd5b8091505092915050565b6000856000600954828115156152d157fe5b0614151561536d576040517f08c379a00000000000000000000000000000000000000000000000000000000081526004018080602001828103825260338152602001807f756e61626c6520746f206d6f6469667920746f6b656e2062616c616e6365732081526020017f61742074686973206772616e756c61726974790000000000000000000000000081525060400191505060405180910390fd5b600073ffffffffffffffffffffffffffffffffffffffff168873ffffffffffffffffffffffffffffffffffffffff1614151515615438576040517f08c379a000000000000000000000000000000000000000000000000000000000815260040180806020018281038252602e8152602001807f5f746f206164647265737320646f6573206e6f74206578697374206f7220697381526020017f2030783020286275726e696e672900000000000000000000000000000000000081525060400191505060405180910390fd5b866000808b73ffffffffffffffffffffffffffffffffffffffff1673ffffffffffffffffffffffffffffffffffffffff1681526020019081526020016000205410151515615514576040517f08c379a00000000000000000000000000000000000000000000000000000000081526004018080602001828103825260358152602001807f6e6f7420656e6f7567682067656e6572616c2066756e64696e6720666f72207481526020017f72616e73616374696f6e206f6e206163636f756e74000000000000000000000081525060400191505060405180910390fd5b86600160008b73ffffffffffffffffffffffffffffffffffffffff1673ffffffffffffffffffffffffffffffffffffffff16815260200190815260200160002060008c81526020019081526020016000205410151515615602576040517f08c379a000000000000000000000000000000000000000000000000000000000815260040180806020018281038252603e8152602001807f6e6f7420656e6f756768207472616e6368652d73706563696669632066756e6481526020017f696e6720666f72207472616e73616374696f6e206f6e206163636f756e74000081525060400191505060405180910390fd5b615653876000808c73ffffffffffffffffffffffffffffffffffffffff1673ffffffffffffffffffffffffffffffffffffffff16815260200190815260200160002054615d3190919063ffffffff16565b6000808b73ffffffffffffffffffffffffffffffffffffffff1673ffffffffffffffffffffffffffffffffffffffff168152602001908152602001600020819055506156e6876000808b73ffffffffffffffffffffffffffffffffffffffff1673ffffffffffffffffffffffffffffffffffffffff1681526020019081526020016000205461529e90919063ffffffff16565b6000808a73ffffffffffffffffffffffffffffffffffffffff1673ffffffffffffffffffffffffffffffffffffffff1681526020019081526020016000208190555061573188616e36565b507f06b541ddaa720db2b10a4d0cdac39b8d360425fc073085fac19bc82614677987858a8a8a8a89604051808773ffffffffffffffffffffffffffffffffffffffff1673ffffffffffffffffffffffffffffffffffffffff1681526020018673ffffffffffffffffffffffffffffffffffffffff1673ffffffffffffffffffffffffffffffffffffffff1681526020018573ffffffffffffffffffffffffffffffffffffffff1673ffffffffffffffffffffffffffffffffffffffff1681526020018481526020018060200180602001838103835285818151815260200191508051906020019080838360005b8381101561583957808201518184015260208101905061581e565b50505050905090810190601f1680156158665780820380516001836020036101000a031916815260200191505b50838103825284818151815260200191508051906020019080838360005b8381101561589f578082015181840152602081019050615884565b50505050905090810190601f1680156158cc5780820380516001836020036101000a031916815260200191505b509850505050505050505060405180910390a161594287600160008c73ffffffffffffffffffffffffffffffffffffffff1673ffffffffffffffffffffffffffffffffffffffff16815260200190815260200160002060008d815260200190815260200160002054615d3190919063ffffffff16565b600160008b73ffffffffffffffffffffffffffffffffffffffff1673ffffffffffffffffffffffffffffffffffffffff16815260200190815260200160002060008c8152602001908152602001600020819055506159f987600160008b73ffffffffffffffffffffffffffffffffffffffff1673ffffffffffffffffffffffffffffffffffffffff16815260200190815260200160002060008d81526020019081526020016000205461529e90919063ffffffff16565b600160008a73ffffffffffffffffffffffffffffffffffffffff1673ffffffffffffffffffffffffffffffffffffffff16815260200190815260200160002060008c815260200190815260200160002081905550600260008973ffffffffffffffffffffffffffffffffffffffff1673ffffffffffffffffffffffffffffffffffffffff1681526020019081526020016000208a90806001815401808255809150509060018203906000526020600020016000909192909190915055507fe04fc8b1d10312fa8c6ef57ef457c0a0a45442cfa662ff31c2f73213d98517f08a868b8b8b8b8a604051808881526020018773ffffffffffffffffffffffffffffffffffffffff1673ffffffffffffffffffffffffffffffffffffffff1681526020018673ffffffffffffffffffffffffffffffffffffffff1673ffffffffffffffffffffffffffffffffffffffff1681526020018573ffffffffffffffffffffffffffffffffffffffff1673ffffffffffffffffffffffffffffffffffffffff1681526020018481526020018060200180602001838103835285818151815260200191508051906020019080838360005b83811015615bc4578082015181840152602081019050615ba9565b50505050905090810190601f168015615bf15780820380516001836020036101000a031916815260200191505b50838103825284818151815260200191508051906020019080838360005b83811015615c2a578082015181840152602081019050615c0f565b50505050905090810190601f168015615c575780820380516001836020036101000a031916815260200191505b50995050505050505050505060405180910390a1601a60009054906101000a900460ff1615615d20577fddf252ad1be2c89b69c2b068fc378daa952ba7f163c4a11628f55a4df523b3ef898989604051808473ffffffffffffffffffffffffffffffffffffffff1673ffffffffffffffffffffffffffffffffffffffff1681526020018373ffffffffffffffffffffffffffffffffffffffff1673ffffffffffffffffffffffffffffffffffffffff168152602001828152602001935050505060405180910390a15b600191505098975050505050505050565b600080838311151515615d4357600080fd5b82840390508091505092915050565b6060600080600080615d638c614dda565b945060009350600192505b89841015615eba578483865103815181101515615d8757fe5b906020019060200201519150615da6848b615d3190919063ffffffff16565b600160008e73ffffffffffffffffffffffffffffffffffffffff1673ffffffffffffffffffffffffffffffffffffffff168152602001908152602001600020600084815260200190815260200160002054101515615e2657615e20828d8d615e17888f615d3190919063ffffffff16565b8d8d8d8d6152bf565b50615eba565b600160008d73ffffffffffffffffffffffffffffffffffffffff1673ffffffffffffffffffffffffffffffffffffffff1681526020019081526020016000206000838152602001908152602001600020549050615e89828d8d848d8d8d8d6152bf565b50615e9d818561529e90919063ffffffff16565b9350615eb360018461529e90919063ffffffff16565b9250615d6e565b505050505050505050505050565b6000806000841415615edd5760009150615eff565b8284029050828482811515615eee57fe5b04141515615efb57600080fd5b8091505b5092915050565b81600060095482811515615f1657fe5b06141515615fb2576040517f08c379a00000000000000000000000000000000000000000000000000000000081526004018080602001828103825260338152602001807f756e61626c6520746f206d6f6469667920746f6b656e2062616c616e6365732081526020017f61742074686973206772616e756c61726974790000000000000000000000000081525060400191505060405180910390fd5b82600160008673ffffffffffffffffffffffffffffffffffffffff1673ffffffffffffffffffffffffffffffffffffffff168152602001908152602001600020600087815260200190815260200160002054101515156160a0576040517f08c379a000000000000000000000000000000000000000000000000000000000815260040180806020018281038252602b8152602001807f6e6f7420656e6f756768207472616e6368652d73706563696669632066756e6481526020017f696e6720746f206275726e00000000000000000000000000000000000000000081525060400191505060405180910390fd5b6160b583600a54615d3190919063ffffffff16565b600a8190555061610c836000808773ffffffffffffffffffffffffffffffffffffffff1673ffffffffffffffffffffffffffffffffffffffff16815260200190815260200160002054615d3190919063ffffffff16565b6000808673ffffffffffffffffffffffffffffffffffffffff1673ffffffffffffffffffffffffffffffffffffffff168152602001908152602001600020819055506161b183600160008773ffffffffffffffffffffffffffffffffffffffff1673ffffffffffffffffffffffffffffffffffffffff168152602001908152602001600020600088815260200190815260200160002054615d3190919063ffffffff16565b507fa1c85a30dec08aa526dc5a3ca33087f723335ec5c1614ecf0036da150a6971c88533868686604051808681526020018573ffffffffffffffffffffffffffffffffffffffff1673ffffffffffffffffffffffffffffffffffffffff1681526020018473ffffffffffffffffffffffffffffffffffffffff1673ffffffffffffffffffffffffffffffffffffffff16815260200183815260200180602001828103825283818151815260200191508051906020019080838360005b8381101561628857808201518184015260208101905061626d565b50505050905090810190601f1680156162b55780820380516001836020036101000a031916815260200191505b50965050505050505060405180910390a17fea01d24fee0ecbb349ab449ea41d11599fd91ba758653579b30d38d63e2adedb33858585604051808573ffffffffffffffffffffffffffffffffffffffff1673ffffffffffffffffffffffffffffffffffffffff1681526020018473ffffffffffffffffffffffffffffffffffffffff1673ffffffffffffffffffffffffffffffffffffffff16815260200183815260200180602001828103825283818151815260200191508051906020019080838360005b8381101561639557808201518184015260208101905061637a565b50505050905090810190601f1680156163c25780820380516001836020036101000a031916815260200191505b509550505050505060405180910390a1601a60009054906101000a900460ff1615616488577fddf252ad1be2c89b69c2b068fc378daa952ba7f163c4a11628f55a4df523b3ef84600085604051808473ffffffffffffffffffffffffffffffffffffffff1673ffffffffffffffffffffffffffffffffffffffff1681526020018373ffffffffffffffffffffffffffffffffffffffff1673ffffffffffffffffffffffffffffffffffffffff168152602001828152602001935050505060405180910390a15b5050505050565b600080600080856000600954828115156164a557fe5b06141515616541576040517f08c379a00000000000000000000000000000000000000000000000000000000081526004018080602001828103825260338152602001807f756e61626c6520746f206d6f6469667920746f6b656e2062616c616e6365732081526020017f61742074686973206772616e756c61726974790000000000000000000000000081525060400191505060405180910390fd5b866000808a73ffffffffffffffffffffffffffffffffffffffff1673ffffffffffffffffffffffffffffffffffffffff16815260200190815260200160002054101515156165f7576040517f08c379a000000000000000000000000000000000000000000000000000000000815260040180806020018281038252601a8152602001807f6e6f7420656e6f7567682066756e64696e6720746f206275726e00000000000081525060200191505060405180910390fd5b60009450600193505b86851015616ba057600f84600f805490500381548110151561661e57fe5b9060005260206000200154925061663e8588615d3190919063ffffffff16565b600160008a73ffffffffffffffffffffffffffffffffffffffff1673ffffffffffffffffffffffffffffffffffffffff1681526020019081526020016000206000858152602001908152602001600020541015156168f7576166bd6166ac8689615d3190919063ffffffff16565b600a54615d3190919063ffffffff16565b600a819055506167266166d98689615d3190919063ffffffff16565b6000808b73ffffffffffffffffffffffffffffffffffffffff1673ffffffffffffffffffffffffffffffffffffffff16815260200190815260200160002054615d3190919063ffffffff16565b6000808a73ffffffffffffffffffffffffffffffffffffffff1673ffffffffffffffffffffffffffffffffffffffff168152602001908152602001600020819055506167dd61677e8689615d3190919063ffffffff16565b600160008b73ffffffffffffffffffffffffffffffffffffffff1673ffffffffffffffffffffffffffffffffffffffff168152602001908152602001600020600086815260200190815260200160002054615d3190919063ffffffff16565b507fa1c85a30dec08aa526dc5a3ca33087f723335ec5c1614ecf0036da150a6971c883338a8a8a604051808681526020018573ffffffffffffffffffffffffffffffffffffffff1673ffffffffffffffffffffffffffffffffffffffff1681526020018473ffffffffffffffffffffffffffffffffffffffff1673ffffffffffffffffffffffffffffffffffffffff16815260200183815260200180602001828103825283818151815260200191508051906020019080838360005b838110156168b4578082015181840152602081019050616899565b50505050905090810190601f1680156168e15780820380516001836020036101000a031916815260200191505b50965050505050505060405180910390a1616ba0565b600160008973ffffffffffffffffffffffffffffffffffffffff1673ffffffffffffffffffffffffffffffffffffffff168152602001908152602001600020600084815260200190815260200160002054915061695f82600a54615d3190919063ffffffff16565b600a819055506169b6826000808b73ffffffffffffffffffffffffffffffffffffffff1673ffffffffffffffffffffffffffffffffffffffff16815260200190815260200160002054615d3190919063ffffffff16565b6000808a73ffffffffffffffffffffffffffffffffffffffff1673ffffffffffffffffffffffffffffffffffffffff16815260200190815260200160002081905550616a5b82600160008b73ffffffffffffffffffffffffffffffffffffffff1673ffffffffffffffffffffffffffffffffffffffff168152602001908152602001600020600086815260200190815260200160002054615d3190919063ffffffff16565b50616a6f828661529e90919063ffffffff16565b9450616a8560018561529e90919063ffffffff16565b93507fa1c85a30dec08aa526dc5a3ca33087f723335ec5c1614ecf0036da150a6971c883338a8a8a604051808681526020018573ffffffffffffffffffffffffffffffffffffffff1673ffffffffffffffffffffffffffffffffffffffff1681526020018473ffffffffffffffffffffffffffffffffffffffff1673ffffffffffffffffffffffffffffffffffffffff16815260200183815260200180602001828103825283818151815260200191508051906020019080838360005b83811015616b5d578082015181840152602081019050616b42565b50505050905090810190601f168015616b8a5780820380516001836020036101000a031916815260200191505b50965050505050505060405180910390a1616600565b7fea01d24fee0ecbb349ab449ea41d11599fd91ba758653579b30d38d63e2adedb33898989604051808573ffffffffffffffffffffffffffffffffffffffff1673ffffffffffffffffffffffffffffffffffffffff1681526020018473ffffffffffffffffffffffffffffffffffffffff1673ffffffffffffffffffffffffffffffffffffffff16815260200183815260200180602001828103825283818151815260200191508051906020019080838360005b83811015616c6f578082015181840152602081019050616c54565b50505050905090810190601f168015616c9c5780820380516001836020036101000a031916815260200191505b509550505050505060405180910390a1601a60009054906101000a900460ff1615616d62577fddf252ad1be2c89b69c2b068fc378daa952ba7f163c4a11628f55a4df523b3ef88600089604051808473ffffffffffffffffffffffffffffffffffffffff1673ffffffffffffffffffffffffffffffffffffffff1681526020018373ffffffffffffffffffffffffffffffffffffffff1673ffffffffffffffffffffffffffffffffffffffff168152602001828152602001935050505060405180910390a15b5050505050505050565b60008082601154604051602001808360001916600019168152602001828152602001925050506040516020818303038152906040526040518082805190602001908083835b602083101515616dd65780518252602082019150602081019050602083039250616db1565b6001836020036101000a0380198251168184511680821785525050505050509050019150506040518091039020600190049050616e1f600160115461529e90919063ffffffff16565b5060125481811515616e2d57fe5b06915050919050565b6000616e41826171bb565b15616e4f5760009050616f82565b600e8290806001815401808255809150509060018203906000526020600020016000909192909190916101000a81548173ffffffffffffffffffffffffffffffffffffffff021916908373ffffffffffffffffffffffffffffffffffffffff160217905550506001600460008473ffffffffffffffffffffffffffffffffffffffff1673ffffffffffffffffffffffffffffffffffffffff16815260200190815260200160002060006101000a81548160ff0219169083151502179055507f33dda5dca20a95bec563f7c6e810061b24d464536df0636a17d2d041b8b0c66d82600e80549050604051808373ffffffffffffffffffffffffffffffffffffffff1673ffffffffffffffffffffffffffffffffffffffff1681526020018281526020019250505060405180910390a1600190505b919050565b6000600190505b600e805490508110156171b857600060186000600e84815481101515616fb057fe5b9060005260206000200160009054906101000a900473ffffffffffffffffffffffffffffffffffffffff1673ffffffffffffffffffffffffffffffffffffffff1673ffffffffffffffffffffffffffffffffffffffff168152602001908152602001600020600001541415156170b4576040517f08c379a000000000000000000000000000000000000000000000000000000000815260040180806020018281038252602a8152602001807f54686520726967687420746f20766f746520616c72656164792068617320626581526020017f656e206772616e7465640000000000000000000000000000000000000000000081525060400191505060405180910390fd5b600080600e838154811015156170c657fe5b9060005260206000200160009054906101000a900473ffffffffffffffffffffffffffffffffffffffff1673ffffffffffffffffffffffffffffffffffffffff1673ffffffffffffffffffffffffffffffffffffffff1681526020019081526020016000205460186000600e8481548110151561713f57fe5b9060005260206000200160009054906101000a900473ffffffffffffffffffffffffffffffffffffffff1673ffffffffffffffffffffffffffffffffffffffff1673ffffffffffffffffffffffffffffffffffffffff168152602001908152602001600020600001819055508080600101915050616f8e565b50565b6000600460008373ffffffffffffffffffffffffffffffffffffffff1673ffffffffffffffffffffffffffffffffffffffff16815260200190815260200160002060009054906101000a900460ff169050919050565b6040805190810160405280600290602082028038833980820191505090505090565b826002810192821561729f579160200282015b8281111561729e5782518260006101000a81548173ffffffffffffffffffffffffffffffffffffffff021916908373ffffffffffffffffffffffffffffffffffffffff16021790555091602001919060010190617246565b5b5090506172ac91906172b0565b5090565b6172f091905b808211156172ec57600081816101000a81549073ffffffffffffffffffffffffffffffffffffffff0219169055506001016172b6565b5090565b905600a165627a7a723058206f259998ee423056a9a12c9bfd6e4a5f0707a1b6fbf03255f1ea7cf29f4700230029",
  "source": "pragma solidity ^0.4.24;\r\n\r\nimport \"./ConvertLib.sol\";\r\nimport \"./SafeMath.sol\";\r\n//import \"./ERC20.sol\";\r\n//import \"./ERC777.sol\";\r\n//import \"./EIP1410.sol\";\r\n//import \"./EIP1400.sol\";\r\n\r\ncontract EquityTokenFactory /* is ERC20Interface, ERC777Interface, EIP1410Interface, EIP1400Interface */ {\r\n\r\n    using SafeMath for uint;\r\n\r\n    mapping (address => uint) OwnerToBalance; ///@notice wallet of tokens and balances of an owner\r\n    mapping (address => mapping (uint => uint)) OwnerToTrancheToBalance; ///@notice wallet of tokens and balances of an owner depending on tranche\r\n    mapping (address => uint[]) OwnerToTranches; ///@notice tranches array of an owner\r\n    mapping (uint => TranchesMetaData) IdToMetaData; ///@notice mapping of metadata belonging to a token tranche\r\n    mapping (address => bool) AddressExists; ///@notice required for check if address is already stakeholder, more efficient than iterating array\r\n    mapping (address => mapping (address => uint)) allowed; ///@notice allowance for transfer from _owner to _receiver to withdraw (ERC20 & ERC777)\r\n\r\n    mapping (address => uint) LevelOfAccreditation; ///@notice maps an address if it passed KYC protocol; 0 = not accredited, 1 = investor, 2 = advocate)\r\n    \r\n    modifier checkGranularity(uint _amount){\r\n        require((_amount % granular == 0), \"unable to modify token balances at this granularity\");\r\n        _;\r\n    }\r\n    \r\n    modifier onlyOwnerOfCom() {\r\n        require(msg.sender == companyOwner, \"requirement onlyOwner of Company modifier\");\r\n        _;\r\n    }\r\n\r\n    modifier onlyOwner(address _from) {\r\n        require((msg.sender == _from), \"requirement onlyOwner\");\r\n        _;\r\n    }\r\n\r\n    modifier checkAccreditation(address _to) {\r\n        require(LevelOfAccreditation[_to] == 1);\r\n        _;\r\n    }\r\n\r\n\r\n//-----EquityTokenFactory-----------------------------------------------------------------------------------------------------------------  \r\n      /* This structure allows a company to issue equity via token (quasi-shares) and determines the issuance process\r\n          - the creating company is an administrator and can start various equity related processes (e.g. pay dividend, recapitalize, ...)\r\n          - in general the contracts tracks and calculates two seperate balances, first the overall balance of a token holder and second\r\n            the tranche-specific balance of a token holder (e.g. if minting, sending, burning tokens)\r\n          - ERC20 is a de facto standard for trading of tokens\r\n          - ERC777 introduces operators (higher level administration), in order to e.g prepare for governmental control\r\n          - EIP1410 proposes tranching of a token (partial fungible tokens)\r\n          - EIP1400 proposes in-depth token management (e.g. transfer restrictions and regulation)\r\n          */\r\n\r\n\r\n    //@ToDo indexing of from and to and tokenId beneficial, but dropped for mocha testing environment\r\n    event newTokenIssuance(bytes32 companyName, bytes32 tokenTicker, address companyOwner);\r\n\r\n    ///@notice events for issuance of additional equity (recapitalization) and burning of existing capital\r\n    ///@notice ERC777 and EIP1410 mandatory\r\n    event Minted(address operator, address to, uint amount, bytes userData, bytes operatorData);\r\n    event Burned(address operator, address from, uint amount, bytes operatorData);\r\n    event MintedByTranche(uint trancheId, address operator, address to, uint amount, bytes userData, bytes operatorData);\r\n    event BurnedByTranche(uint trancheId, address operator, address from, uint amount, bytes operatorData);\r\n\r\n    ///@notice the core data of a issued token\r\n    ///@param granular for explanation see constructor\r\n    ///@param defaultOperator every token has two higher level administrators by default -> issuing company and government; can be changed\r\n    bytes32 private companyName;\r\n    bytes32 private tokenTicker;\r\n    uint private granular;\r\n    uint private totalAmount;\r\n    address private companyOwner;\r\n    address[2] private defaultOperator;\r\n  \r\n    ///@notice array of all owner of one equity token, thus the shareholder book\r\n    address[] public TotalDistribution;\r\n\r\n    ///@notice array of all tranches of one equity token and struct with metadata of every tranche.\r\n    uint[] public AllTranches;\r\n    struct TranchesMetaData {\r\n        uint trancheAmount;\r\n        byte categoryShare;\r\n        uint mintedTimeStamp;\r\n        uint regulationMaximumInvestors;\r\n        uint regulationMaximumSharesPerInvestor;\r\n    }\r\n\r\n    ///@notice token issuer can specify to stop token issuance, cannot be reverted\r\n    bool public isIssuable = true;\r\n    \r\n    ///@dev declares a random nonce which increases every time random number generator is used\r\n    ///@dev ensures, that randomId is always 8 digits\r\n    uint internal randNonce = 0;\r\n    uint internal idModulus = 10 ** 8;\r\n\r\n    ///@dev solidity declares a variable by default to 0, thus in the test environment we have to simulate regulation requirements\r\n    uint internal regulationMaxInvest = 10 ** 4;\r\n    uint internal regulationMaxSharesPInvest = 10 ** 6;\r\n\r\n    ///@notice address of government, by default operator of any token; can be changed by companyOwner\r\n    address public governmentAddress;\r\n\r\n    ///@dev creates new token shell, safes information in storage\r\n    ///@param _granularity ensures, that granularity of shares is always a positive natural figure, cannot be changed ever\r\n    function createToken(bytes32 _companyName, bytes32 _tokenTicker, uint _granularity) public {\r\n        companyName = _companyName;\r\n        tokenTicker = _tokenTicker;\r\n        totalAmount = 0;\r\n        require((_granularity >= 1), \"granularity has to be greater or equal 1\");\r\n        granular = _granularity;\r\n        erc20compatible = true;\r\n        companyOwner = msg.sender;\r\n        defaultOperator = [msg.sender, governmentAddress];\r\n\r\n        _toShareholderbook(msg.sender);\r\n\r\n        emit newTokenIssuance(companyName, tokenTicker, msg.sender);\r\n    }\r\n  \r\n    ///@notice process to mint new equity\r\n    ///@notice compliant with ERC777 & EIP1410\r\n    function mint(address _companyOwner, uint _amount, bytes _userData, bytes _operatorData) public checkGranularity(_amount) onlyOwnerOfCom {\r\n    require((isIssuable == true), \"token issuance is finished\");\r\n    /////////////////ToDo Approval Process (require) ERC725 for identity mgmt, or whitelist; use addresses!\r\n\r\n        ///@notice creates random Id for new tranche of equity, stores only Id in array and metadata in metadata struct\r\n        uint trancheId = _generateRandomId(companyName);\r\n        AllTranches.push(uint(trancheId));\r\n        IdToMetaData[trancheId] = (TranchesMetaData(_amount, \"A\", now, regulationMaxInvest, regulationMaxSharesPInvest));\r\n\r\n        ///@notice increase balance in two ways, first overall balance of owner, second tranche-specific balanche of owner\r\n        totalAmount = totalAmount.add(_amount);\r\n        OwnerToBalance[_companyOwner] = OwnerToBalance[_companyOwner].add(_amount);\r\n        OwnerToTrancheToBalance[_companyOwner][trancheId] = OwnerToTrancheToBalance[_companyOwner][trancheId].add(_amount);\r\n\r\n        OwnerToTranches[_companyOwner].push(uint(trancheId));\r\n\r\n        emit Minted(msg.sender, _companyOwner, _amount, _userData, _operatorData);\r\n        emit MintedByTranche(trancheId, msg.sender, _companyOwner, _amount, _userData, _operatorData);\r\n        if (erc20compatible) {emit Transfer(0x0, _companyOwner, _amount);}\r\n    }\r\n        \r\n    ///@notice process to burn equity\r\n    ///@notice _burn function can be used by Company AND private token holder, burn is a shell and important to fullfil onlyOwner requirement\r\n    ///@notice compliant with ERC777 & EIP1410\r\n    function burn(address _from, uint _amount, bytes _operatorData) public onlyOwner(_from) {\r\n        _burn(_from, _amount, _operatorData);\r\n    }\r\n    function _burn(address _from, uint _amount, bytes _operatorData) private checkGranularity(_amount) {\r\n        require((OwnerToBalance[_from] >= _amount), \"not enough funding to burn\");\r\n        \r\n        uint burnedAmount = 0;\r\n        uint counter = 1;\r\n\r\n        ///@dev this loop and its break requirement is either fullfiled if a single tranche balance is > _amount, or the sum of different tranche balances > _amount\r\n        ///@dev if not otherwise stated all functions use the latest tranche first to send/burn tokens (First In First Out), this can be changed in detail by owners\r\n        while(burnedAmount < _amount) {\r\n            uint trancheId = AllTranches[AllTranches.length - counter];\r\n                \r\n            if(OwnerToTrancheToBalance[_from][trancheId] >= _amount.sub(burnedAmount)) {\r\n                totalAmount = totalAmount.sub((_amount.sub(burnedAmount)));\r\n                OwnerToBalance[_from] = OwnerToBalance[_from].sub((_amount.sub(burnedAmount)));\r\n                OwnerToTrancheToBalance[_from][trancheId].sub((_amount.sub(burnedAmount)));\r\n                emit BurnedByTranche(trancheId, msg.sender, _from, _amount, _operatorData);\r\n                break;\r\n            }\r\n            else {\r\n                uint burnTx = OwnerToTrancheToBalance[_from][trancheId];\r\n                totalAmount = totalAmount.sub(burnTx);\r\n                OwnerToBalance[_from] = OwnerToBalance[_from].sub(burnTx);\r\n                OwnerToTrancheToBalance[_from][trancheId].sub(burnTx);\r\n\r\n                burnedAmount = burnedAmount.add(burnTx);\r\n                counter = counter.add(1);\r\n                emit BurnedByTranche(trancheId, msg.sender, _from, _amount, _operatorData);\r\n            }\r\n        }\r\n        emit Burned(msg.sender, _from, _amount, _operatorData);\r\n        if (erc20compatible) {emit Transfer(_from, address(0x0), _amount);}\r\n    }\r\n\r\n    ///@notice burn function can be used by Company AND private token holder, important to fullfil onlyOwner requirement\r\n    function burnByTranche(uint _trancheId, address _from, uint _amount, bytes _operatorData) public onlyOwner(_from) {\r\n        _burnByTranche(_trancheId, _from, _amount, _operatorData);\r\n    }\r\n    function _burnByTranche(uint _trancheId, address _from, uint _amount, bytes _operatorData) private checkGranularity(_amount) {\r\n        require((OwnerToTrancheToBalance[_from][_trancheId] >= _amount), \"not enough tranche-specific funding to burn\");\r\n                \r\n                totalAmount = totalAmount.sub(_amount);\r\n                OwnerToBalance[_from] = OwnerToBalance[_from].sub(_amount);\r\n                OwnerToTrancheToBalance[_from][_trancheId].sub(_amount);\r\n\r\n                emit BurnedByTranche(_trancheId, msg.sender, _from, _amount, _operatorData);\r\n                emit Burned(msg.sender, _from, _amount, _operatorData);\r\n                if (erc20compatible) {emit Transfer(_from, address(0x0), _amount);}\r\n    }\r\n\r\n    ///@notice ERC777 mandatory\r\n    function operatorBurn(address _from, uint _amount, bytes _operatorData) public {\r\n        require((isOperatorFor(msg.sender, _from)), \"sender is not authorized to operate with _from's account\");\r\n        _burn(_from, _amount, _operatorData);\r\n    }\r\n\r\n    ///@notice EIP1400 mandatory\r\n    function operatorBurnByTranche(uint _trancheId, address _from, uint _amount, bytes _operatorData) public {\r\n        require((isOperatorFor(msg.sender, _from)), \"sender is not authorized to operate with _from's account\");\r\n        _burnByTranche(_trancheId, _from, _amount, _operatorData);\r\n    }\r\n\r\n    ///@dev generates an unique 8 digit tokenId by hashing string and a nonce\r\n    function _generateRandomId(bytes32 _companyName) private view returns(uint) {\r\n        uint random = uint(keccak256(abi.encodePacked(_companyName, randNonce)));\r\n        randNonce.add(1);\r\n        return random % idModulus;\r\n    }\r\n\r\n    /*\r\n    ///@dev manage documents associated with token\r\n    ///@notice EIP1400 proposal\r\n    function setDocument(bytes32 _name, string _url, bytes32 _documentHash) external {\r\n\r\n    }\r\n    function getDocument(bytes32 _name) external view returns(string, bytes32){\r\n        return (url_, documentHash_);\r\n    }\r\n    */\r\n\r\n//-----EquityTokenFactory-----------------------------------------------------------------------------------------------------------------\r\n\r\n\r\n//-----EquityToken------------------------------------------------------------------------------------------------------------------------\r\n    /* This structure determines the business logic of a token (i.e. quasi-share)\r\n        - \r\n        */\r\n\r\n    ///@dev adjustments and new length of shareholder book\r\n    event newShareholder(address newShareholder, uint length);\r\n\r\n    ///@notice string as bytes32 only has space for 32 characters\r\n    event adHocMessage(string _message, address _company);\r\n    //////////////////////////////////ToDo automatic quarterly update\r\n    ///event quaterlyUpdate(uint _revenue, uint _revenueforecast);\r\n\r\n    ///@notice ERC20 optional, ERC777 mandatory\r\n    function name() public view returns(bytes32) {\r\n        return companyName;\r\n    }\r\n\r\n    ///@notice ERC20 optional, ERC777 mandatory\r\n    function symbol() public view returns(bytes32) {\r\n        return tokenTicker;\r\n    }\r\n\r\n    ///@dev smallest part of token not divisible\r\n    ///@notice ERC777 mandatory\r\n    function granularity() public view returns(uint) {\r\n        return granular;\r\n    }\r\n\r\n    ///@notice convert balance of token in ETH or other currencies\r\n    function getBalanceOfInEth(address _addr) public view returns(uint) {\r\n\t\treturn ConvertLib.convert(balanceOf(_addr), 3);\r\n    }\r\n\r\n    ///@dev balance for any owner\r\n    ///@notice ERC20 mandatory, ERC777 mandatory\r\n    function balanceOf(address _addr) public view returns(uint) {\r\n\t\treturn OwnerToBalance[_addr];\r\n\t}\r\n\r\n    ///@dev balance for any owner for specific tranche\r\n    ///@notice EIP1410 proposal\r\n    function balanceOfByTranche(address _addr, uint _tranche) public view returns(uint) {\r\n\t\treturn OwnerToTrancheToBalance[_addr][_tranche];\r\n\t}\r\n\r\n    \r\n    ///@dev tranches of a tokenholder\r\n    ///@notice EIP1410 proposal\r\n    function tranchesOf(address _addr) public view returns(uint[]) {\r\n        return OwnerToTranches[_addr];\r\n    }\r\n\r\n    ///@dev total amount of a token \r\n    ///@notice ERC20 mandatory, ERC777 mandatory\r\n    function totalSupply() public view returns(uint) {\r\n        return totalAmount;\r\n    }\r\n    \r\n    ///@dev returns Infos of equity token, as struct is not returnable in current solidity version\r\n    function getInfosEquityToken() public view returns(bytes32, bytes32, uint, uint, uint[]) {\r\n        return (companyName, tokenTicker, granular, totalAmount, AllTranches);\r\n    } \r\n\r\n    ///@dev iternal function to push new address to shareholder book, checks if address exists first\r\n    function _toShareholderbook(address _addr) private returns(bool success_) {\r\n        if (_checkExistence(_addr)) return false;\r\n\r\n        TotalDistribution.push(address(_addr));\r\n        AddressExists[_addr] = true;\r\n\r\n        emit newShareholder(_addr, TotalDistribution.length);\r\n        return true;\r\n    }\r\n\r\n    ///@dev checks existence of address in shareholder book by using mapping (address => bool)\r\n    function _checkExistence(address _addr) private view returns(bool success_) {\r\n        return AddressExists[_addr];\r\n    }\r\n    \r\n    ///@dev getter for TotalDistribution array\r\n    ///@return array with all addresses (owner)\r\n    function getAllAddressesEquityToken() public view returns(address[]) {\r\n        return TotalDistribution;\r\n    }\r\n\r\n    function getCompanyOwner() public view returns(address) {\r\n        return companyOwner;\r\n    }\r\n\r\n    function setCompanyOwner(address _addr) public onlyOwnerOfCom {\r\n        companyOwner = _addr;\r\n    }\r\n  \r\n\r\n    ///@dev possibiliy to broadcast adHocMessages for any size\r\n    function sendAdHocMessage(string _message) public onlyOwnerOfCom {\r\n        emit adHocMessage(_message, msg.sender);\r\n    }\r\n//-----EquityToken------------------------------------------------------------------------------------------------------------------------\r\n\r\n\r\n\r\n//-----TokenTransactions------------------------------------------------------------------------------------------------------------------\r\n  /* This section determines transaction protocolls of the issued equity token\r\n        - \r\n        -\r\n        */  \r\n\r\n    ///@dev fires an event after percentage of dividend is determined and transfered    \r\n    event Dividend(uint _txpercentage);\r\n\r\n    ///@notice fires event of after regular token transfer defined by ERC777 or EIP1410\r\n    event Sent(address operator, address from, address to, uint amount, bytes userData, bytes operatorData);\r\n    event SentByTranche(uint fromTranche, address operator, address from, address to, uint amount, bytes userData, bytes operatorData);\r\n\r\n    ///@notice function actually performing the sending of tokens.\r\n    ///@param _trancheId tranche for transfer\r\n    ///@param _userData data generated by the user to be passed to the recipient. The rules determining if a security token can be sent may require off-chain inputs\r\n    /// therefore functions accept an additional bytes _userData parameter which can be signed by an approved party and used to validate a transfer (e.g signature).\r\n    ///@param _operatorData data generated by the operator to be passed to the recipient\r\n    ///@param _preventLocking true if you want this function to throw when tokens are sent to or sent by a contract not implementing ERC777.\r\n    /// ERC777 native Send functions MUST set this parameter to true, and backwards compatible ERC20 transfer functions SHOULD set this parameter to false.\r\n    /// In this testing environment _preventLocking is by default true to maintain interoperability, but addresses are NEVER checked, \r\n    /// stick to official ERC777 for further information and implementation of this feature.\r\n    function _doSend(uint _trancheId, address _from, address _to, uint _txamount, bytes _userData, address _operator, bytes _operatorData, bool _preventLocking) \r\n    private checkGranularity(_txamount) returns(bool success_) {\r\n        require((_to != address(0x0)), \"_to address does not exist or is 0x0 (burning)\");\r\n        require((OwnerToBalance[_from] >= _txamount), \"not enough general funding for transaction on account\");         \r\n        require((OwnerToTrancheToBalance[_from][_trancheId] >= _txamount), \"not enough tranche-specific funding for transaction on account\");\r\n\r\n        OwnerToBalance[_from] = OwnerToBalance[_from].sub(_txamount);\r\n        OwnerToBalance[_to] = OwnerToBalance[_to].add(_txamount);\r\n        _toShareholderbook(_to);\r\n        emit Sent(_operator, _from, _to, _txamount, _userData, _operatorData);\r\n\r\n        OwnerToTrancheToBalance[_from][_trancheId] = OwnerToTrancheToBalance[_from][_trancheId].sub(_txamount);\r\n        OwnerToTrancheToBalance[_to][_trancheId] = OwnerToTrancheToBalance[_to][_trancheId].add(_txamount);\r\n        OwnerToTranches[_to].push(uint(_trancheId));\r\n        emit SentByTranche(_trancheId, _operator, _from, _to, _txamount, _userData, _operatorData);\r\n                \r\n        if (erc20compatible) {\r\n            emit Transfer(_from, _to, _txamount);}\r\n\r\n        return true;\r\n    }\r\n\r\n    ///@notice private send function used if no tranche is initially defined, then uses default tranche\r\n    function _doSend(address _from, address _to, uint _txamount, bytes _userData, address _operator, bytes _operatorData, bool _preventLocking) \r\n    private {\r\n        uint[] memory SenderTranches = getDefaultTranches(_from);\r\n        uint sentAmount = 0;\r\n        uint counter = 1;\r\n        \r\n        while(sentAmount < _txamount) {\r\n            uint trancheId = SenderTranches[SenderTranches.length - counter];\r\n                \r\n            if(OwnerToTrancheToBalance[_from][trancheId] >= _txamount.sub(sentAmount)) {\r\n                _doSend(trancheId, _from, _to, _txamount.sub(sentAmount), _userData, _operator, _operatorData, _preventLocking);\r\n                break;\r\n            }\r\n            else {\r\n                uint sentTx = OwnerToTrancheToBalance[_from][trancheId];\r\n                _doSend(trancheId, _from, _to, sentTx, _userData, _operator, _operatorData, _preventLocking);\r\n                sentAmount = sentAmount.add(sentTx);\r\n                counter = counter.add(1);\r\n            }\r\n        } \r\n    }\r\n    \r\n    ///@notice native ERC777 send function\r\n    function send(address _to, uint _txamount) public {\r\n        _doSend(msg.sender, _to, _txamount, \"\", msg.sender, \"\", true);\r\n    }\r\n    function send(address _to, uint _txamount, bytes _userData) public {\r\n        _doSend(msg.sender, _to, _txamount, _userData, msg.sender, \"\", true);\r\n    }\r\n  \r\n    ///@notice Send _amount of tokens on behalf of the address _from to the address _to.\r\n    ///@param _userData Data generated by the user to be sent to the recipient\r\n    ///@param _operatorData Data generated by the operator to be sent to the recipient\r\n    ///@notice ERC777 mandatory\r\n    function operatorSend(address _from, address _to, uint _txamount, bytes _userData, bytes _operatorData) public {\r\n        require((isOperatorFor(msg.sender, _from)), \"sender is not authorized to operate with _from's account\");\r\n        _doSend(_from, _to, _txamount, _userData, msg.sender, _operatorData, true);\r\n    }\r\n\r\n    ///@return (NOT IN SCOPE) returning a trancheId allows to further distinct equity-tranches into sub-tranches by token holder\r\n    /// this enables token governance on company AND on token holder level (sub-tranches)\r\n    ///@notice native EIP1410 send function\r\n    function sendByTranche(uint _trancheId, address _to, uint _txamount) external returns(uint) {\r\n        _doSend(_trancheId, msg.sender, _to, _txamount, \"\", msg.sender, \"\", true);\r\n        return _trancheId;\r\n    }\r\n    function sendByTranche(uint _trancheId, address _to, uint _txamount, bytes _userData) external returns(uint) {\r\n        _doSend(_trancheId, msg.sender, _to, _txamount, _userData, msg.sender, \"\", true);\r\n        return _trancheId;\r\n    }\r\n\r\n    ///@notice Send _amount of tokens on behalf of the address _from to the address _to\r\n    ///@notice EIP1410 mandatory for backward interoperability with ERC777\r\n    function operatorSendByTranche(uint _trancheId, address _from, address _to, uint _txamount, bytes _userData, bytes _operatorData) external returns(uint) {\r\n        require((isOperatorFor(msg.sender, _from)), \"sender is not authorized to operate with _from's account\");\r\n        _doSend(_trancheId, _from, _to, _txamount, _userData, msg.sender, _operatorData, true);\r\n        return _trancheId;\r\n    }\r\n\r\n    ///@notice gets the tranches of a token holder, in general the default tranche for a transaction is the latest issued tranche an owner posseses\r\n    ///@dev mandatory for backward interoperability with ERC777 and ERC20\r\n    function getDefaultTranches(address _from) public view returns(uint[]) {\r\n        return tranchesOf(_from);\r\n    }\r\n\r\n    ///@dev transfers of security might fail to multiple reasons (e.g. identity of sender and receiver, trading limits, meta state of token)\r\n    ///@dev relies on EIP1066 for Ethereum Standard Codes (ESC) and ERC770 for tranching\r\n    ///@dev only possible to read error code of 'doSend -> require' statement with assembly { call } for more elaborated error messages (see Ethereum documentation)\r\n    ///@return ESC (byte), optional specific reason for failure (bytes32), (NOT IMPLEMENTED) destinantion tranche of the token beeing transfered (uint)\r\n    ///@notice EIP1400 proposal\r\n    function canSend(uint _trancheId, address _from, address _to, uint _txamount, bytes _userData) external returns(byte, bytes32, uint) {\r\n        if (_doSend(_trancheId, _from, _to, _txamount, _userData, msg.sender, \"\", true)) {\r\n        return (hex\"01\", \"success\", _trancheId); }\r\n        else {\r\n        return (hex\"00\", \"failure\", _trancheId); }\r\n    }\r\n\r\n    ///@dev pays a dividend to all owner of the shares depending on determined percentage of owners portfolio value\r\n    ///@notice starts with index 1 in array, as 0 is contract deployer = companyowner in most cases\r\n    ///@notice would be also possible with PAYABLE to pay in ether\r\n    ///@notice uses default tranches to pay for dividend\r\n    function payDividend(uint _txpercentage) external onlyOwnerOfCom {\r\n        uint _totaldividend;\r\n        for (uint i = 1; i < TotalDistribution.length; i++) {\r\n            uint _temp = _txpercentage.mul(OwnerToBalance[TotalDistribution[i]]);\r\n            _totaldividend = _totaldividend.add(_temp);\r\n        }\r\n        require((OwnerToBalance[msg.sender] >= _totaldividend), \"insufficient funding to pay dividend\");\r\n        for (uint j = 1; j < TotalDistribution.length; j++) {\r\n            uint _txamount = _txpercentage.mul(OwnerToBalance[TotalDistribution[j]]);\r\n            transfer(TotalDistribution[j], _txamount);\r\n        }\r\n        emit Dividend(_txpercentage);\r\n    }\r\n\r\n    ///@notice check whether an address is a regular address or not. Suppress warning by \"// solhint-disable-line no-inline-assembly\"\r\n    function _isRegularAddress(address _addr) private view returns(bool) {\r\n        if (_addr == 0) { \r\n            return false; }\r\n        uint size;\r\n        assembly { size := extcodesize(_addr) }\r\n        return size == 0;\r\n    }\r\n\r\n\r\n    uint private LockupPeriod = 365 days;\r\n    \r\n    /* modifier timelock() {\r\n        require(now >= block.timestamp.add(LockupPeriod));\r\n        _;\r\n    }*/\r\n    \r\n    function _isReady() internal view returns(bool) {\r\n        return (now >= block.timestamp.add(LockupPeriod));\r\n    }\r\n\r\n    function setLockup(uint adjustedLockup) public onlyOwnerOfCom {\r\n        LockupPeriod = adjustedLockup;\r\n    }\r\n//-----TokenTransactions------------------------------------------------------------------------------------------------------------------    \r\n\r\n//-----TokenGovernance-------------------------------------------------------------------------------------------------------------------- \r\n    ///@notice fires event if authorization of operator for an address\r\n    ///@notice ERC777 mandatory\r\n    event AuthorizedOperator(address operator, address tokenHolder);\r\n    event RevokedOperator(address indexed operator, address indexed tokenHolder);\r\n\r\n    mapping(address => mapping(address => bool)) private mAuthorized;\r\n\r\n    ///@notice ERC777 mandatory\r\n    function defaultOperators() public view returns(address[2]) {\r\n        return defaultOperator;\r\n    }\r\n\r\n    ///@notice authorize a third party _operator to manage (send) msg.sender's tokens. msg.sender always operator himself, thus requirement\r\n    ///@notice ERC777 mandatory\r\n    function authorizeOperator(address _operator) public {\r\n        require((_operator != msg.sender), \"msg.sender cannot authorized himself\");\r\n        mAuthorized[_operator][msg.sender] = true;\r\n        emit AuthorizedOperator(_operator, msg.sender);\r\n    }\r\n\r\n    ///@notice revoke a third party _operator's rights to manage (send) msg.sender's tokens.\r\n    ///@notice ERC777 mandatory, EIP1400 & EIP1410 in discussion\r\n    ///@notice it may be that regulations require an issuer or a trusted third party to retain the power thus it can be that revoking an operator\r\n    /// MUST NOT be allowed\r\n    function revokeOperator(address _operator) public {\r\n        require((_operator != msg.sender), \"msg.sender cannot revoke himself\");\r\n        mAuthorized[_operator][msg.sender] = false;\r\n        emit RevokedOperator(_operator, msg.sender);\r\n    }\r\n\r\n    ///@notice check whether the _operator address is allowed to manage the tokens held by _tokenHolder address.\r\n    ///@return true if _operator is authorized for _tokenHolder\r\n    ///@notice ERC777 mandatory\r\n    function isOperatorFor(address _operator, address _tokenHolder) public view returns(bool) {\r\n        return _operator == _tokenHolder || mAuthorized[_operator][_tokenHolder];\r\n    }\r\n\r\n    function setGovernmentAddress(address _addr) external onlyOwnerOfCom {\r\n        require((_addr != address(0x0)), \"_addr address does not exist or is 0x0 (burning)\");\r\n        governmentAddress = _addr;\r\n    }\r\n\r\n    ///@notice owner can stop issuance, not revertable!\r\n    ///@notice EIP1400 mandatory\r\n    function stopIssuance() external onlyOwnerOfCom {\r\n        isIssuable = false;\r\n    }\r\n\r\n    ///@notice provides transparency wether defaultOperators can be adjusted by company: if government address is set company changed it and is thus not controllable (return false)\r\n    function isControllable() external view returns(bool) {\r\n        if(governmentAddress != address(0x0)) {  return false; }\r\n                return true;   \r\n    }\r\n\r\n    ///@dev manage documents associated with investor\r\n    function uploadDocument(bytes32 _name, string _url, bytes32 _documentHash) payable external {\r\n\r\n    }\r\n\r\n    ///@notice advocate can approve investor to another level of accreditation; 0 = no investor, 1 = approved investor, 2 = advocate\r\n    function approveAccreditation(address _address) external {\r\n        require(LevelOfAccreditation[msg.sender] == 2);\r\n        LevelOfAccreditation[_address] = 1;\r\n    }\r\n\r\n//-----TokenGovernance-------------------------------------------------------------------------------------------------------------------- \r\n\r\n\r\n\r\n//-----Voting-----------------------------------------------------------------------------------------------------------------------------\r\n    /* This structure allows a company to propose multiple proposals for an issue, voters can than choose one of the proposals \r\n        - the owning company works as an administrator and can start ballots\r\n        - the number of votes are linked to the amount of shares a voter posseses (1:1)\r\n        - voters can pass their right to vote\r\n        - the winning proposal is calculated and broadcasted automatically\r\n        */\r\n\r\n    event votingSuccessful(bytes32 winnerName, uint countVotes); \r\n        \r\n    mapping(address => Voter) AddressToVoter;\r\n\r\n    struct Voter {\r\n        uint weight; ///@notice weight is accumulated by # shares\r\n        bool voted;  ///@notice if true, that person already voted\r\n        address delegate; ///@notice person delegates right to vote to\r\n        uint vote;   ///@notice index of the voted proposal\r\n    }\r\n\r\n    ///@dev this is a type for a single proposal\r\n    struct Proposal {\r\n        bytes32 name; \r\n        uint voteCount; // number of accumulated votes\r\n    }\r\n \r\n    ///@notice all proposals of that company\r\n    Proposal[] public Proposals;\r\n\r\n    ///@notice create a new ballot, only possible for owner of company\r\n    function startBallot(bytes32[] proposalNames) public onlyOwnerOfCom {\r\n        for (uint i = 0; i < proposalNames.length; i++) {\r\n            Proposals.push(Proposal({name: proposalNames[i], voteCount: 0}));\r\n        }\r\n\r\n        ///@dev allocates voting weight = # of shares\r\n        AddressToVoter[msg.sender].weight = OwnerToBalance[msg.sender];\r\n        _giveRightToVote();\r\n    }\r\n\r\n    ///@dev give voter the right to vote on this ballot\r\n    ///@notice starts with index 1 in array, as 0 is ballot starter = companyowner in most cases\r\n    function _giveRightToVote() internal {\r\n        for (uint j = 1; j < TotalDistribution.length; j++) {\r\n            require(AddressToVoter[TotalDistribution[j]].weight == 0, \"The right to vote already has been granted\");\r\n            AddressToVoter[TotalDistribution[j]].weight = OwnerToBalance[TotalDistribution[j]];\r\n        }\r\n    }\r\n\r\n    ///@dev possibility to delegate your vote to another voter\r\n    function delegate(address _to) public {\r\n        Voter storage sender = AddressToVoter[msg.sender];\r\n        require(!sender.voted, \"You already voted\");\r\n        require(_to != msg.sender, \"Self-delegation is disallowed\");\r\n        ///@dev forwards delegation as long as _to also forwarded his right to vote\r\n        //@security use careful, as could get looped -> high gas costs\r\n        while (AddressToVoter[_to].delegate != address(0)) {\r\n            _to = AddressToVoter[_to].delegate;\r\n\r\n            require(_to != msg.sender, \"Found self-delegation loop\");\r\n        }\r\n\r\n        ///@notice since \"sender\" is a reference, this modifies AddressToVoter[msg.sender].voted\r\n        sender.voted = true;\r\n        sender.delegate = _to;\r\n        Voter storage delegate_ = AddressToVoter[_to];\r\n        \r\n        ///@notice if delegate already voted, add sender weight to proposal, else add weight of sender and delegate\r\n        if (delegate_.voted) {\r\n            Proposals[delegate_.vote].voteCount = Proposals[delegate_.vote].voteCount.add(sender.weight);\r\n        } else {\r\n            delegate_.weight.add(sender.weight);\r\n        }\r\n    }\r\n\r\n    ///@dev give your vote for specific proposal\r\n    //@security if proposal is out of range, this will automatically throw and revert changes\r\n    function vote(uint _proposal) public {\r\n        Voter storage sender = AddressToVoter[msg.sender];\r\n        require(!sender.voted, \"Already voted\");\r\n        sender.voted = true;\r\n        sender.vote = _proposal;\r\n        \r\n        Proposals[_proposal].voteCount = Proposals[_proposal].voteCount.add(sender.weight);\r\n    }\r\n\r\n    ///@dev computes the winning proposal, gets proposal name from array and returns, fires event\r\n    function winningProposal() public onlyOwnerOfCom returns(bytes32 winnerName_) {\r\n        uint winningVoteCount = 0;\r\n        for (uint p = 0; p < Proposals.length; p++) {\r\n            if (Proposals[p].voteCount > winningVoteCount) {\r\n                winningVoteCount = Proposals[p].voteCount;\r\n                uint winningProposal_ = p;\r\n            }\r\n        }\r\n\r\n        winnerName_ = Proposals[winningProposal_].name;\r\n        emit votingSuccessful(winnerName_, winningVoteCount);\r\n        return winnerName_;  \r\n    }\r\n\r\n    //@ToAsk possible to work with memory array?\r\n    ///@notice for EVM could be possible to work with fixed array e.g. 3 proposals\r\n    function getProposals() public view returns(bytes32[]){\r\n        bytes32[] memory proposals_;\r\n        for (uint i = 0; i < Proposals.length; i++){\r\n            proposals_[i] = Proposals[i].name;\r\n        }\r\n        return proposals_;\r\n    }\r\n\r\n    function getVoteCount(uint _index) public view returns(uint voteCount_) {\r\n        return voteCount_ = Proposals[_index].voteCount;\r\n    }\r\n//-----Voting-----------------------------------------------------------------------------------------------------------------------------\r\n\r\n//-----ERC20BackwardCompatibility---------------------------------------------------------------------------------------------------------\r\n    /* This section determines obsolete erc20 methods that are only implemented to maintain backwards compatibility.\r\n       Further erc20 compatibility can be disabled, then the methods will fail.\r\n        - \r\n        */\r\n\r\n\r\n    //@ToDo indexing of from and to and tokenId beneficial, but dropped for mocha testing environment\r\n    ///@notice ERC20 mandatory\r\n    event Transfer(address _from, address _to, uint _txamount);\r\n    event Approval(address _from, address _to, uint _txamount);\r\n\r\n    modifier erc20() {\r\n        require((erc20compatible), \"erc20 compatibility has been disabled\");\r\n        _;\r\n    }\r\n\r\n    bool private erc20compatible;\r\n\r\n    ///@notice disables the ERC20 interface. \r\n    function disableERC20() public onlyOwnerOfCom {\r\n        erc20compatible = false;\r\n        //setInterfaceImplementation(\"ERC20Token\", 0x0);\r\n    }\r\n\r\n    ///@notice enables the ERC20 interface.\r\n    function enableERC20() public onlyOwnerOfCom {\r\n        erc20compatible = true;\r\n        //setInterfaceImplementation(\"ERC20Token\", this);\r\n    }\r\n\r\n    ///@dev number of decimals token uses, divide token amount by number of decimals to get user representation\r\n    ///@notice ERC20 optional, ERC777 mandatory to be 18\r\n    function decimals() public view erc20 returns(uint8) { \r\n        return uint8(18);\r\n    }\r\n\r\n    ///@dev transfers token from A to B and fires event, additionally updates the TotalDistribution array (shareholder book)\r\n    ///@notice ERC20 mandatory\r\n    function transfer(address _to, uint _txamount) public erc20 returns(bool success_) {\r\n        _doSend(msg.sender, _to, _txamount, \"\", msg.sender, \"\", false);\r\n        return true;\r\n    }\r\n\r\n    ///@dev transfers token from A to B and fires event, additionally updates the TotalDistribution array (shareholder book); transferFrom should be used for withdrawing workflow\r\n    ///@notice ERC20 mandatory\r\n    function transferFrom(address _from, address _to, uint _txamount) public erc20 returns(bool success_) {\r\n        require((_txamount <= allowed[_from][msg.sender]), \"no approval for transaction\");\r\n\r\n        //@security cannot be after doSend because of tokensReceived re-entry\r\n        allowed[_from][msg.sender] = allowed[_from][msg.sender].sub(_txamount);\r\n        _doSend(_from, _to, _txamount, \"\", msg.sender, \"\", false);\r\n        return true;\r\n    }\r\n\r\n    ///@dev sender can approve an amount to be withdrawn by spender\r\n    ///@notice ERC20 mandatory\r\n    function approve(address _spender, uint _txamount) public checkGranularity(_txamount) erc20 returns(bool success_) {\r\n        allowed[msg.sender][_spender] = _txamount;\r\n        emit Approval(msg.sender, _spender, _txamount);\r\n        return true;\r\n    }\r\n  \r\n    ///@notice ERC20 mandatory\r\n    function allowance(address _owner, address _spender) public view erc20 returns(uint remaining) {\r\n        return allowed[_owner][_spender];\r\n    }\r\n\r\n  //-----ERC20BackwardCompatibility---------------------------------------------------------------------------------------------------------    \r\n\r\n}",
  "sourcePath": "/mnt/c/Solidity/solidity_eto/contracts/EquityTokenFactory.sol",
  "compiler": {
    "name": "solc",
    "version": "0.4.24+commit.e67f0147.Emscripten.clang"
  },
  "schemaVersion": "2.0.1",
  "updatedAt": "2018-10-31T08:27:03.089Z"
}