{
  "contractName": "EquityTokenTransactionHelper",
  "abi": [
    {
      "constant": false,
      "inputs": [
        {
          "name": "_name",
          "type": "bytes32"
        },
        {
          "name": "_key",
          "type": "string"
        },
        {
          "name": "_documentHash",
          "type": "bytes32"
        }
      ],
      "name": "setDocument",
      "outputs": [],
      "payable": true,
      "stateMutability": "payable",
      "type": "function"
    },
    {
      "constant": false,
      "inputs": [
        {
          "name": "_proposal",
          "type": "uint256"
        }
      ],
      "name": "vote",
      "outputs": [],
      "payable": false,
      "stateMutability": "nonpayable",
      "type": "function"
    },
    {
      "constant": true,
      "inputs": [],
      "name": "defaultOperators",
      "outputs": [
        {
          "name": "",
          "type": "address[2]"
        }
      ],
      "payable": false,
      "stateMutability": "view",
      "type": "function"
    },
    {
      "constant": true,
      "inputs": [],
      "name": "name",
      "outputs": [
        {
          "name": "",
          "type": "bytes32"
        }
      ],
      "payable": false,
      "stateMutability": "view",
      "type": "function"
    },
    {
      "constant": false,
      "inputs": [],
      "name": "enableERC20",
      "outputs": [],
      "payable": false,
      "stateMutability": "nonpayable",
      "type": "function"
    },
    {
      "constant": false,
      "inputs": [
        {
          "name": "_spender",
          "type": "address"
        },
        {
          "name": "_txamount",
          "type": "uint256"
        }
      ],
      "name": "approve",
      "outputs": [
        {
          "name": "success_",
          "type": "bool"
        }
      ],
      "payable": false,
      "stateMutability": "nonpayable",
      "type": "function"
    },
    {
      "constant": true,
      "inputs": [
        {
          "name": "",
          "type": "uint256"
        }
      ],
      "name": "TotalDistribution",
      "outputs": [
        {
          "name": "",
          "type": "address"
        }
      ],
      "payable": false,
      "stateMutability": "view",
      "type": "function"
    },
    {
      "constant": true,
      "inputs": [],
      "name": "getInfosEquityToken",
      "outputs": [
        {
          "name": "",
          "type": "uint256"
        },
        {
          "name": "",
          "type": "bytes32"
        },
        {
          "name": "",
          "type": "bytes32"
        },
        {
          "name": "",
          "type": "uint256"
        },
        {
          "name": "",
          "type": "uint256"
        }
      ],
      "payable": false,
      "stateMutability": "view",
      "type": "function"
    },
    {
      "constant": true,
      "inputs": [],
      "name": "totalSupply",
      "outputs": [
        {
          "name": "",
          "type": "uint256"
        }
      ],
      "payable": false,
      "stateMutability": "view",
      "type": "function"
    },
    {
      "constant": true,
      "inputs": [
        {
          "name": "_addr",
          "type": "address"
        }
      ],
      "name": "getBalanceOfInEth",
      "outputs": [
        {
          "name": "",
          "type": "uint256"
        }
      ],
      "payable": false,
      "stateMutability": "view",
      "type": "function"
    },
    {
      "constant": false,
      "inputs": [
        {
          "name": "_trancheId",
          "type": "uint256"
        },
        {
          "name": "_from",
          "type": "address"
        },
        {
          "name": "_amount",
          "type": "uint256"
        },
        {
          "name": "_operatorData",
          "type": "bytes"
        }
      ],
      "name": "burnByTranche",
      "outputs": [],
      "payable": false,
      "stateMutability": "nonpayable",
      "type": "function"
    },
    {
      "constant": false,
      "inputs": [
        {
          "name": "_addr",
          "type": "address"
        }
      ],
      "name": "setCompanyOwner",
      "outputs": [],
      "payable": false,
      "stateMutability": "nonpayable",
      "type": "function"
    },
    {
      "constant": true,
      "inputs": [],
      "name": "isIssuable",
      "outputs": [
        {
          "name": "",
          "type": "bool"
        }
      ],
      "payable": false,
      "stateMutability": "view",
      "type": "function"
    },
    {
      "constant": true,
      "inputs": [],
      "name": "decimals",
      "outputs": [
        {
          "name": "",
          "type": "uint8"
        }
      ],
      "payable": false,
      "stateMutability": "view",
      "type": "function"
    },
    {
      "constant": false,
      "inputs": [
        {
          "name": "_from",
          "type": "address"
        },
        {
          "name": "_amount",
          "type": "uint256"
        },
        {
          "name": "_operatorData",
          "type": "bytes"
        }
      ],
      "name": "burn",
      "outputs": [],
      "payable": false,
      "stateMutability": "nonpayable",
      "type": "function"
    },
    {
      "constant": true,
      "inputs": [],
      "name": "isControllable",
      "outputs": [
        {
          "name": "",
          "type": "bool"
        }
      ],
      "payable": false,
      "stateMutability": "view",
      "type": "function"
    },
    {
      "constant": false,
      "inputs": [
        {
          "name": "_name",
          "type": "bytes32"
        },
        {
          "name": "_key",
          "type": "string"
        },
        {
          "name": "_documentHash",
          "type": "bytes32"
        }
      ],
      "name": "uploadDocument",
      "outputs": [],
      "payable": true,
      "stateMutability": "payable",
      "type": "function"
    },
    {
      "constant": true,
      "inputs": [],
      "name": "granularity",
      "outputs": [
        {
          "name": "",
          "type": "uint256"
        }
      ],
      "payable": false,
      "stateMutability": "view",
      "type": "function"
    },
    {
      "constant": false,
      "inputs": [
        {
          "name": "_to",
          "type": "address"
        }
      ],
      "name": "delegate",
      "outputs": [],
      "payable": false,
      "stateMutability": "nonpayable",
      "type": "function"
    },
    {
      "constant": false,
      "inputs": [],
      "name": "winningProposal",
      "outputs": [
        {
          "name": "winnerName_",
          "type": "bytes32"
        }
      ],
      "payable": false,
      "stateMutability": "nonpayable",
      "type": "function"
    },
    {
      "constant": true,
      "inputs": [],
      "name": "getProposals",
      "outputs": [
        {
          "name": "",
          "type": "bytes32[]"
        }
      ],
      "payable": false,
      "stateMutability": "view",
      "type": "function"
    },
    {
      "constant": false,
      "inputs": [
        {
          "name": "_addr",
          "type": "address"
        }
      ],
      "name": "setGovernmentAddress",
      "outputs": [],
      "payable": false,
      "stateMutability": "nonpayable",
      "type": "function"
    },
    {
      "constant": false,
      "inputs": [
        {
          "name": "_adjustedLockup",
          "type": "uint256"
        }
      ],
      "name": "setLockup",
      "outputs": [],
      "payable": false,
      "stateMutability": "nonpayable",
      "type": "function"
    },
    {
      "constant": true,
      "inputs": [],
      "name": "accreditationFee",
      "outputs": [
        {
          "name": "",
          "type": "uint256"
        }
      ],
      "payable": false,
      "stateMutability": "view",
      "type": "function"
    },
    {
      "constant": true,
      "inputs": [
        {
          "name": "_addr",
          "type": "address"
        }
      ],
      "name": "balanceOf",
      "outputs": [
        {
          "name": "",
          "type": "uint256"
        }
      ],
      "payable": false,
      "stateMutability": "view",
      "type": "function"
    },
    {
      "constant": false,
      "inputs": [
        {
          "name": "_authorizedInvestor",
          "type": "address"
        }
      ],
      "name": "authorizeRequest",
      "outputs": [],
      "payable": false,
      "stateMutability": "nonpayable",
      "type": "function"
    },
    {
      "constant": false,
      "inputs": [
        {
          "name": "_operator",
          "type": "address"
        }
      ],
      "name": "authorizeOperator",
      "outputs": [],
      "payable": false,
      "stateMutability": "nonpayable",
      "type": "function"
    },
    {
      "constant": true,
      "inputs": [],
      "name": "symbol",
      "outputs": [
        {
          "name": "",
          "type": "bytes32"
        }
      ],
      "payable": false,
      "stateMutability": "view",
      "type": "function"
    },
    {
      "constant": false,
      "inputs": [
        {
          "name": "_amount",
          "type": "uint256"
        },
        {
          "name": "_userData",
          "type": "bytes"
        },
        {
          "name": "_operatorData",
          "type": "bytes"
        }
      ],
      "name": "mint",
      "outputs": [],
      "payable": false,
      "stateMutability": "nonpayable",
      "type": "function"
    },
    {
      "constant": true,
      "inputs": [
        {
          "name": "_name",
          "type": "bytes32"
        }
      ],
      "name": "getDocument",
      "outputs": [
        {
          "name": "",
          "type": "string"
        },
        {
          "name": "",
          "type": "bytes32"
        }
      ],
      "payable": false,
      "stateMutability": "view",
      "type": "function"
    },
    {
      "constant": true,
      "inputs": [
        {
          "name": "_index",
          "type": "uint256"
        }
      ],
      "name": "getVoteCount",
      "outputs": [
        {
          "name": "voteCount_",
          "type": "uint256"
        }
      ],
      "payable": false,
      "stateMutability": "view",
      "type": "function"
    },
    {
      "constant": false,
      "inputs": [],
      "name": "stopIssuance",
      "outputs": [],
      "payable": false,
      "stateMutability": "nonpayable",
      "type": "function"
    },
    {
      "constant": false,
      "inputs": [
        {
          "name": "_message",
          "type": "string"
        }
      ],
      "name": "sendAdHocMessage",
      "outputs": [],
      "payable": false,
      "stateMutability": "nonpayable",
      "type": "function"
    },
    {
      "constant": true,
      "inputs": [],
      "name": "getAllAddressesEquityToken",
      "outputs": [
        {
          "name": "",
          "type": "address[]"
        }
      ],
      "payable": false,
      "stateMutability": "view",
      "type": "function"
    },
    {
      "constant": false,
      "inputs": [
        {
          "name": "_from",
          "type": "address"
        },
        {
          "name": "_amount",
          "type": "uint256"
        },
        {
          "name": "_operatorData",
          "type": "bytes"
        }
      ],
      "name": "operatorBurn",
      "outputs": [],
      "payable": false,
      "stateMutability": "nonpayable",
      "type": "function"
    },
    {
      "constant": true,
      "inputs": [
        {
          "name": "",
          "type": "uint256"
        }
      ],
      "name": "Proposals",
      "outputs": [
        {
          "name": "name",
          "type": "bytes32"
        },
        {
          "name": "voteCount",
          "type": "uint256"
        }
      ],
      "payable": false,
      "stateMutability": "view",
      "type": "function"
    },
    {
      "constant": true,
      "inputs": [],
      "name": "governmentAddress",
      "outputs": [
        {
          "name": "",
          "type": "address"
        }
      ],
      "payable": false,
      "stateMutability": "view",
      "type": "function"
    },
    {
      "constant": true,
      "inputs": [
        {
          "name": "_operator",
          "type": "address"
        },
        {
          "name": "_tokenHolder",
          "type": "address"
        }
      ],
      "name": "isOperatorFor",
      "outputs": [
        {
          "name": "",
          "type": "bool"
        }
      ],
      "payable": false,
      "stateMutability": "view",
      "type": "function"
    },
    {
      "constant": true,
      "inputs": [],
      "name": "getCompanyOwner",
      "outputs": [
        {
          "name": "",
          "type": "address"
        }
      ],
      "payable": false,
      "stateMutability": "view",
      "type": "function"
    },
    {
      "constant": false,
      "inputs": [
        {
          "name": "_trancheId",
          "type": "uint256"
        },
        {
          "name": "_from",
          "type": "address"
        },
        {
          "name": "_amount",
          "type": "uint256"
        },
        {
          "name": "_operatorData",
          "type": "bytes"
        }
      ],
      "name": "operatorBurnByTranche",
      "outputs": [],
      "payable": false,
      "stateMutability": "nonpayable",
      "type": "function"
    },
    {
      "constant": true,
      "inputs": [
        {
          "name": "_owner",
          "type": "address"
        },
        {
          "name": "_spender",
          "type": "address"
        }
      ],
      "name": "allowance",
      "outputs": [
        {
          "name": "remaining",
          "type": "uint256"
        }
      ],
      "payable": false,
      "stateMutability": "view",
      "type": "function"
    },
    {
      "constant": false,
      "inputs": [
        {
          "name": "_companyName",
          "type": "bytes32"
        },
        {
          "name": "_tokenTicker",
          "type": "bytes32"
        },
        {
          "name": "_granularity",
          "type": "uint256"
        }
      ],
      "name": "createToken",
      "outputs": [],
      "payable": false,
      "stateMutability": "nonpayable",
      "type": "function"
    },
    {
      "constant": true,
      "inputs": [
        {
          "name": "_addr",
          "type": "address"
        }
      ],
      "name": "tranchesOf",
      "outputs": [
        {
          "name": "",
          "type": "uint256[]"
        }
      ],
      "payable": false,
      "stateMutability": "view",
      "type": "function"
    },
    {
      "constant": false,
      "inputs": [
        {
          "name": "_companyName",
          "type": "bytes32"
        }
      ],
      "name": "clearRequest",
      "outputs": [],
      "payable": false,
      "stateMutability": "nonpayable",
      "type": "function"
    },
    {
      "constant": true,
      "inputs": [
        {
          "name": "_addr",
          "type": "address"
        },
        {
          "name": "_trancheId",
          "type": "uint256"
        }
      ],
      "name": "balanceOfByTranche",
      "outputs": [
        {
          "name": "",
          "type": "uint256"
        }
      ],
      "payable": false,
      "stateMutability": "view",
      "type": "function"
    },
    {
      "constant": true,
      "inputs": [
        {
          "name": "_from",
          "type": "address"
        }
      ],
      "name": "getDefaultTranches",
      "outputs": [
        {
          "name": "",
          "type": "uint256[]"
        }
      ],
      "payable": false,
      "stateMutability": "view",
      "type": "function"
    },
    {
      "constant": false,
      "inputs": [],
      "name": "disableERC20",
      "outputs": [],
      "payable": false,
      "stateMutability": "nonpayable",
      "type": "function"
    },
    {
      "constant": false,
      "inputs": [
        {
          "name": "_operator",
          "type": "address"
        }
      ],
      "name": "revokeOperator",
      "outputs": [],
      "payable": false,
      "stateMutability": "nonpayable",
      "type": "function"
    },
    {
      "constant": false,
      "inputs": [
        {
          "name": "proposalNames",
          "type": "bytes32[]"
        }
      ],
      "name": "startBallot",
      "outputs": [],
      "payable": false,
      "stateMutability": "nonpayable",
      "type": "function"
    },
    {
      "anonymous": false,
      "inputs": [
        {
          "indexed": false,
          "name": "_txpercentage",
          "type": "uint256"
        }
      ],
      "name": "Dividend",
      "type": "event"
    },
    {
      "anonymous": false,
      "inputs": [
        {
          "indexed": false,
          "name": "operator",
          "type": "address"
        },
        {
          "indexed": false,
          "name": "from",
          "type": "address"
        },
        {
          "indexed": false,
          "name": "to",
          "type": "address"
        },
        {
          "indexed": false,
          "name": "amount",
          "type": "uint256"
        },
        {
          "indexed": false,
          "name": "userData",
          "type": "bytes"
        },
        {
          "indexed": false,
          "name": "operatorData",
          "type": "bytes"
        }
      ],
      "name": "Sent",
      "type": "event"
    },
    {
      "anonymous": false,
      "inputs": [
        {
          "indexed": false,
          "name": "fromTranche",
          "type": "uint256"
        },
        {
          "indexed": false,
          "name": "operator",
          "type": "address"
        },
        {
          "indexed": false,
          "name": "from",
          "type": "address"
        },
        {
          "indexed": false,
          "name": "to",
          "type": "address"
        },
        {
          "indexed": false,
          "name": "amount",
          "type": "uint256"
        },
        {
          "indexed": false,
          "name": "userData",
          "type": "bytes"
        },
        {
          "indexed": false,
          "name": "operatorData",
          "type": "bytes"
        }
      ],
      "name": "SentByTranche",
      "type": "event"
    },
    {
      "anonymous": false,
      "inputs": [
        {
          "indexed": false,
          "name": "_message",
          "type": "string"
        },
        {
          "indexed": false,
          "name": "_company",
          "type": "address"
        }
      ],
      "name": "adHocMessage",
      "type": "event"
    },
    {
      "anonymous": false,
      "inputs": [
        {
          "indexed": false,
          "name": "winnerName",
          "type": "bytes32"
        },
        {
          "indexed": false,
          "name": "countVotes",
          "type": "uint256"
        }
      ],
      "name": "votingSuccessful",
      "type": "event"
    },
    {
      "anonymous": false,
      "inputs": [
        {
          "indexed": false,
          "name": "_from",
          "type": "address"
        },
        {
          "indexed": false,
          "name": "_to",
          "type": "address"
        },
        {
          "indexed": false,
          "name": "_txamount",
          "type": "uint256"
        }
      ],
      "name": "Approval",
      "type": "event"
    },
    {
      "anonymous": false,
      "inputs": [
        {
          "indexed": false,
          "name": "companyName",
          "type": "bytes32"
        },
        {
          "indexed": false,
          "name": "tokenTicker",
          "type": "bytes32"
        },
        {
          "indexed": false,
          "name": "companyOwner",
          "type": "address"
        }
      ],
      "name": "newTokenIssuance",
      "type": "event"
    },
    {
      "anonymous": false,
      "inputs": [
        {
          "indexed": false,
          "name": "operator",
          "type": "address"
        },
        {
          "indexed": false,
          "name": "to",
          "type": "address"
        },
        {
          "indexed": false,
          "name": "amount",
          "type": "uint256"
        },
        {
          "indexed": false,
          "name": "userData",
          "type": "bytes"
        },
        {
          "indexed": false,
          "name": "operatorData",
          "type": "bytes"
        }
      ],
      "name": "Minted",
      "type": "event"
    },
    {
      "anonymous": false,
      "inputs": [
        {
          "indexed": false,
          "name": "operator",
          "type": "address"
        },
        {
          "indexed": false,
          "name": "from",
          "type": "address"
        },
        {
          "indexed": false,
          "name": "amount",
          "type": "uint256"
        },
        {
          "indexed": false,
          "name": "operatorData",
          "type": "bytes"
        }
      ],
      "name": "Burned",
      "type": "event"
    },
    {
      "anonymous": false,
      "inputs": [
        {
          "indexed": false,
          "name": "trancheId",
          "type": "uint256"
        },
        {
          "indexed": false,
          "name": "operator",
          "type": "address"
        },
        {
          "indexed": false,
          "name": "to",
          "type": "address"
        },
        {
          "indexed": false,
          "name": "amount",
          "type": "uint256"
        },
        {
          "indexed": false,
          "name": "userData",
          "type": "bytes"
        },
        {
          "indexed": false,
          "name": "operatorData",
          "type": "bytes"
        }
      ],
      "name": "MintedByTranche",
      "type": "event"
    },
    {
      "anonymous": false,
      "inputs": [
        {
          "indexed": false,
          "name": "trancheId",
          "type": "uint256"
        },
        {
          "indexed": false,
          "name": "operator",
          "type": "address"
        },
        {
          "indexed": false,
          "name": "from",
          "type": "address"
        },
        {
          "indexed": false,
          "name": "amount",
          "type": "uint256"
        },
        {
          "indexed": false,
          "name": "operatorData",
          "type": "bytes"
        }
      ],
      "name": "BurnedByTranche",
      "type": "event"
    },
    {
      "anonymous": false,
      "inputs": [
        {
          "indexed": false,
          "name": "newShareholder",
          "type": "address"
        },
        {
          "indexed": false,
          "name": "length",
          "type": "uint256"
        }
      ],
      "name": "newShareholder",
      "type": "event"
    },
    {
      "anonymous": false,
      "inputs": [
        {
          "indexed": false,
          "name": "_from",
          "type": "address"
        },
        {
          "indexed": false,
          "name": "_to",
          "type": "address"
        },
        {
          "indexed": false,
          "name": "_txamount",
          "type": "uint256"
        }
      ],
      "name": "Transfer",
      "type": "event"
    },
    {
      "anonymous": false,
      "inputs": [
        {
          "indexed": false,
          "name": "operator",
          "type": "address"
        },
        {
          "indexed": false,
          "name": "tokenHolder",
          "type": "address"
        }
      ],
      "name": "AuthorizedOperator",
      "type": "event"
    },
    {
      "anonymous": false,
      "inputs": [
        {
          "indexed": true,
          "name": "operator",
          "type": "address"
        },
        {
          "indexed": true,
          "name": "tokenHolder",
          "type": "address"
        }
      ],
      "name": "RevokedOperator",
      "type": "event"
    },
    {
      "constant": false,
      "inputs": [
        {
          "name": "_to",
          "type": "address"
        },
        {
          "name": "_txamount",
          "type": "uint256"
        },
        {
          "name": "_userData",
          "type": "bytes"
        }
      ],
      "name": "send",
      "outputs": [
        {
          "name": "success_",
          "type": "bool"
        }
      ],
      "payable": false,
      "stateMutability": "nonpayable",
      "type": "function"
    },
    {
      "constant": false,
      "inputs": [
        {
          "name": "_to",
          "type": "address"
        },
        {
          "name": "_txamount",
          "type": "uint256"
        }
      ],
      "name": "send",
      "outputs": [
        {
          "name": "success_",
          "type": "bool"
        }
      ],
      "payable": false,
      "stateMutability": "nonpayable",
      "type": "function"
    },
    {
      "constant": false,
      "inputs": [
        {
          "name": "_from",
          "type": "address"
        },
        {
          "name": "_to",
          "type": "address"
        },
        {
          "name": "_txamount",
          "type": "uint256"
        },
        {
          "name": "_userData",
          "type": "bytes"
        },
        {
          "name": "_operatorData",
          "type": "bytes"
        }
      ],
      "name": "operatorSend",
      "outputs": [
        {
          "name": "success_",
          "type": "bool"
        }
      ],
      "payable": false,
      "stateMutability": "nonpayable",
      "type": "function"
    },
    {
      "constant": false,
      "inputs": [
        {
          "name": "_trancheId",
          "type": "uint256"
        },
        {
          "name": "_to",
          "type": "address"
        },
        {
          "name": "_txamount",
          "type": "uint256"
        },
        {
          "name": "_userData",
          "type": "bytes"
        }
      ],
      "name": "sendByTranche",
      "outputs": [
        {
          "name": "",
          "type": "uint256"
        }
      ],
      "payable": false,
      "stateMutability": "nonpayable",
      "type": "function"
    },
    {
      "constant": false,
      "inputs": [
        {
          "name": "_trancheId",
          "type": "uint256"
        },
        {
          "name": "_to",
          "type": "address"
        },
        {
          "name": "_txamount",
          "type": "uint256"
        }
      ],
      "name": "sendByTranche",
      "outputs": [
        {
          "name": "",
          "type": "uint256"
        }
      ],
      "payable": false,
      "stateMutability": "nonpayable",
      "type": "function"
    },
    {
      "constant": false,
      "inputs": [
        {
          "name": "_trancheId",
          "type": "uint256"
        },
        {
          "name": "_from",
          "type": "address"
        },
        {
          "name": "_to",
          "type": "address"
        },
        {
          "name": "_txamount",
          "type": "uint256"
        },
        {
          "name": "_userData",
          "type": "bytes"
        },
        {
          "name": "_operatorData",
          "type": "bytes"
        }
      ],
      "name": "operatorSendByTranche",
      "outputs": [
        {
          "name": "",
          "type": "uint256"
        }
      ],
      "payable": false,
      "stateMutability": "nonpayable",
      "type": "function"
    },
    {
      "constant": false,
      "inputs": [
        {
          "name": "_trancheId",
          "type": "uint256"
        },
        {
          "name": "_from",
          "type": "address"
        },
        {
          "name": "_to",
          "type": "address"
        },
        {
          "name": "_txamount",
          "type": "uint256"
        },
        {
          "name": "_userData",
          "type": "bytes"
        }
      ],
      "name": "canSend",
      "outputs": [
        {
          "name": "",
          "type": "bytes1"
        },
        {
          "name": "",
          "type": "bytes32"
        },
        {
          "name": "",
          "type": "uint256"
        }
      ],
      "payable": false,
      "stateMutability": "nonpayable",
      "type": "function"
    },
    {
      "constant": false,
      "inputs": [
        {
          "name": "_to",
          "type": "address"
        },
        {
          "name": "_txamount",
          "type": "uint256"
        }
      ],
      "name": "transfer",
      "outputs": [
        {
          "name": "success_",
          "type": "bool"
        }
      ],
      "payable": false,
      "stateMutability": "nonpayable",
      "type": "function"
    },
    {
      "constant": false,
      "inputs": [
        {
          "name": "_from",
          "type": "address"
        },
        {
          "name": "_to",
          "type": "address"
        },
        {
          "name": "_txamount",
          "type": "uint256"
        }
      ],
      "name": "transferFrom",
      "outputs": [
        {
          "name": "success_",
          "type": "bool"
        }
      ],
      "payable": false,
      "stateMutability": "nonpayable",
      "type": "function"
    },
    {
      "constant": false,
      "inputs": [
        {
          "name": "_txpercentage",
          "type": "uint256"
        }
      ],
      "name": "payDividend",
      "outputs": [],
      "payable": false,
      "stateMutability": "nonpayable",
      "type": "function"
    }
  ],
  "bytecode": "0x60806040526301e133806016556001601760006101000a81548160ff021916908315150217905550600060185564e8d4a51000601955670de0b6b3a7640000601b553480156200004e57600080fd5b5061804c806200005f6000396000f3006080604052600436106102bf576000357c0100000000000000000000000000000000000000000000000000000000900463ffffffff168063010648ca146102c45780630121b93f1461030e57806306e485381461033b57806306fdde031461038e578063070c87f9146103c1578063095ea7b3146103d85780630b366df11461043d57806312497cc8146104aa5780631348bf221461052d57806318160ddd1461058457806318d46718146105af57806323b872dd146106065780632515994e1461068b5780632a88511a146106b85780632d3d3f9c146107555780632f1cae8514610798578063313ce567146107c757806344d17187146107f85780634c783bf51461088b5780634f8d620b146108ba5780635547641b14610925578063556f0dc71461096f5780635c19a95c1461099a578063609ff1bd146109dd57806362564c4814610a1057806362ad1b8314610a7c5780636a13721914610b8d5780636ae6b45914610bd05780636e4a219414610bfd57806370a0823114610c285780638cbd5f4514610c7f578063959b8c3f14610cc257806395d89b4114610d055780639bd9bbc614610d38578063a3cba09a14610de3578063a9059cbb14610e9c578063b10d6b4114610f01578063b2c2f2e814610fba578063b8fe4c3f14610ffb578063c018f1d014611012578063c073d8361461107b578063c3d9b9b1146110e7578063ce30b8d9146111e4578063ce9d1fd714611277578063d0679d3414611332578063d1dbe7d814611397578063d570ab34146113e7578063d95b63711461143e578063dad3e6dd146114b9578063dbb8299b14611510578063dd62ed3e146115ad578063dfa9429214611624578063e3da9f8f1461166d578063e53286c514611705578063e75b0cf514611736578063f3be07eb14611797578063f922f2161461182f578063fad8b32a14611846578063fc1865a014611889575b600080fd5b61030c600480360381019080803560001916906020019092919080359060200190820180359060200191909192939192939080356000191690602001909291905050506118ef565b005b34801561031a57600080fd5b5061033960048036038101908080359060200190929190505050611a57565b005b34801561034757600080fd5b50610350611ba6565b6040518082600260200280838360005b8381101561037b578082015181840152602081019050610360565b5050505090500191505060405180910390f35b34801561039a57600080fd5b506103a3611c27565b60405180826000191660001916815260200191505060405180910390f35b3480156103cd57600080fd5b506103d6611c31565b005b3480156103e457600080fd5b50610423600480360381019080803573ffffffffffffffffffffffffffffffffffffffff16906020019092919080359060200190929190505050611d39565b604051808215151515815260200191505060405180910390f35b34801561044957600080fd5b5061046860048036038101908080359060200190929190505050611fbc565b604051808273ffffffffffffffffffffffffffffffffffffffff1673ffffffffffffffffffffffffffffffffffffffff16815260200191505060405180910390f35b3480156104b657600080fd5b5061051760048036038101908080359060200190929190803573ffffffffffffffffffffffffffffffffffffffff16906020019092919080359060200190929190803590602001908201803590602001919091929391929390505050611ffa565b6040518082815260200191505060405180910390f35b34801561053957600080fd5b5061054261205d565b60405180868152602001856000191660001916815260200184600019166000191681526020018381526020018281526020019550505050505060405180910390f35b34801561059057600080fd5b50610599612085565b6040518082815260200191505060405180910390f35b3480156105bb57600080fd5b506105f0600480360381019080803573ffffffffffffffffffffffffffffffffffffffff16906020019092919050505061208f565b6040518082815260200191505060405180910390f35b34801561061257600080fd5b50610671600480360381019080803573ffffffffffffffffffffffffffffffffffffffff169060200190929190803573ffffffffffffffffffffffffffffffffffffffff1690602001909291908035906020019092919050505061214f565b604051808215151515815260200191505060405180910390f35b34801561069757600080fd5b506106b660048036038101908080359060200190929190505050612437565b005b3480156106c457600080fd5b5061075360048036038101908080359060200190929190803573ffffffffffffffffffffffffffffffffffffffff16906020019092919080359060200190929190803590602001908201803590602001908080601f016020809104026020016040519081016040528093929190818152602001838380828437820191505050505050919291929050505061282f565b005b34801561076157600080fd5b50610796600480360381019080803573ffffffffffffffffffffffffffffffffffffffff1690602001909291905050506128e6565b005b3480156107a457600080fd5b506107ad612a15565b604051808215151515815260200191505060405180910390f35b3480156107d357600080fd5b506107dc612a28565b604051808260ff1660ff16815260200191505060405180910390f35b34801561080457600080fd5b50610889600480360381019080803573ffffffffffffffffffffffffffffffffffffffff16906020019092919080359060200190929190803590602001908201803590602001908080601f0160208091040260200160405190810160405280939291908181526020018383808284378201915050505050509192919290505050612adb565b005b34801561089757600080fd5b506108a0612b90565b604051808215151515815260200191505060405180910390f35b3480156108c657600080fd5b5061090f60048036038101908080359060200190929190803573ffffffffffffffffffffffffffffffffffffffff16906020019092919080359060200190929190505050612bfa565b6040518082815260200191505060405180910390f35b61096d60048036038101908080356000191690602001909291908035906020019082018035906020019190919293919293908035600019169060200190929190505050612c39565b005b34801561097b57600080fd5b50610984612da1565b6040518082815260200191505060405180910390f35b3480156109a657600080fd5b506109db600480360381019080803573ffffffffffffffffffffffffffffffffffffffff169060200190929190505050612dab565b005b3480156109e957600080fd5b506109f2613203565b60405180826000191660001916815260200191505060405180910390f35b348015610a1c57600080fd5b50610a256132ee565b6040518080602001828103825283818151815260200191508051906020019060200280838360005b83811015610a68578082015181840152602081019050610a4d565b505050509050019250505060405180910390f35b348015610a8857600080fd5b50610b73600480360381019080803573ffffffffffffffffffffffffffffffffffffffff169060200190929190803573ffffffffffffffffffffffffffffffffffffffff16906020019092919080359060200190929190803590602001908201803590602001908080601f0160208091040260200160405190810160405280939291908181526020018383808284378201915050505050509192919290803590602001908201803590602001908080601f0160208091040260200160405190810160405280939291908181526020018383808284378201915050505050509192919290505050613360565b604051808215151515815260200191505060405180910390f35b348015610b9957600080fd5b50610bce600480360381019080803573ffffffffffffffffffffffffffffffffffffffff169060200190929190505050613421565b005b348015610bdc57600080fd5b50610bfb600480360381019080803590602001909291905050506135fa565b005b348015610c0957600080fd5b50610c126136ef565b6040518082815260200191505060405180910390f35b348015610c3457600080fd5b50610c69600480360381019080803573ffffffffffffffffffffffffffffffffffffffff1690602001909291905050506136f5565b6040518082815260200191505060405180910390f35b348015610c8b57600080fd5b50610cc0600480360381019080803573ffffffffffffffffffffffffffffffffffffffff16906020019092919050505061373d565b005b348015610cce57600080fd5b50610d03600480360381019080803573ffffffffffffffffffffffffffffffffffffffff169060200190929190505050613871565b005b348015610d1157600080fd5b50610d1a613a6a565b60405180826000191660001916815260200191505060405180910390f35b348015610d4457600080fd5b50610dc9600480360381019080803573ffffffffffffffffffffffffffffffffffffffff16906020019092919080359060200190929190803590602001908201803590602001908080601f0160208091040260200160405190810160405280939291908181526020018383808284378201915050505050509192919290505050613a74565b604051808215151515815260200191505060405180910390f35b348015610def57600080fd5b50610e9a60048036038101908080359060200190929190803590602001908201803590602001908080601f0160208091040260200160405190810160405280939291908181526020018383808284378201915050505050509192919290803590602001908201803590602001908080601f0160208091040260200160405190810160405280939291908181526020018383808284378201915050505050509192919290505050613a9f565b005b348015610ea857600080fd5b50610ee7600480360381019080803573ffffffffffffffffffffffffffffffffffffffff1690602001909291908035906020019092919050505061435c565b604051808215151515815260200191505060405180910390f35b348015610f0d57600080fd5b50610f306004803603810190808035600019169060200190929190505050614440565b60405180806020018360001916600019168152602001828103825284818151815260200191508051906020019080838360005b83811015610f7e578082015181840152602081019050610f63565b50505050905090810190601f168015610fab5780820380516001836020036101000a031916815260200191505b50935050505060405180910390f35b348015610fc657600080fd5b50610fe56004803603810190808035906020019092919050505061465e565b6040518082815260200191505060405180910390f35b34801561100757600080fd5b5061101061468b565b005b34801561101e57600080fd5b50611079600480360381019080803590602001908201803590602001908080601f0160208091040260200160405190810160405280939291908181526020018383808284378201915050505050509192919290505050614793565b005b34801561108757600080fd5b50611090614866565b6040518080602001828103825283818151815260200191508051906020019060200280838360005b838110156110d35780820151818401526020810190506110b8565b505050509050019250505060405180910390f35b3480156110f357600080fd5b5061117460048036038101908080359060200190929190803573ffffffffffffffffffffffffffffffffffffffff169060200190929190803573ffffffffffffffffffffffffffffffffffffffff169060200190929190803590602001909291908035906020019082018035906020019190919293919293905050506148f4565b60405180847effffffffffffffffffffffffffffffffffffffffffffffffffffffffffffff19167effffffffffffffffffffffffffffffffffffffffffffffffffffffffffffff191681526020018360001916600019168152602001828152602001935050505060405180910390f35b3480156111f057600080fd5b50611275600480360381019080803573ffffffffffffffffffffffffffffffffffffffff16906020019092919080359060200190929190803590602001908201803590602001908080601f01602080910402602001604051908101604052809392919081815260200183838082843782019150505050505091929192905050506149e0565b005b34801561128357600080fd5b5061131c60048036038101908080359060200190929190803573ffffffffffffffffffffffffffffffffffffffff169060200190929190803573ffffffffffffffffffffffffffffffffffffffff16906020019092919080359060200190929190803590602001908201803590602001919091929391929390803590602001908201803590602001919091929391929390505050614a94565b6040518082815260200191505060405180910390f35b34801561133e57600080fd5b5061137d600480360381019080803573ffffffffffffffffffffffffffffffffffffffff16906020019092919080359060200190929190505050614bc0565b604051808215151515815260200191505060405180910390f35b3480156113a357600080fd5b506113c260048036038101908080359060200190929190505050614bfa565b6040518083600019166000191681526020018281526020019250505060405180910390f35b3480156113f357600080fd5b506113fc614c2d565b604051808273ffffffffffffffffffffffffffffffffffffffff1673ffffffffffffffffffffffffffffffffffffffff16815260200191505060405180910390f35b34801561144a57600080fd5b5061149f600480360381019080803573ffffffffffffffffffffffffffffffffffffffff169060200190929190803573ffffffffffffffffffffffffffffffffffffffff169060200190929190505050614c53565b604051808215151515815260200191505060405180910390f35b3480156114c557600080fd5b506114ce614d1d565b604051808273ffffffffffffffffffffffffffffffffffffffff1673ffffffffffffffffffffffffffffffffffffffff16815260200191505060405180910390f35b34801561151c57600080fd5b506115ab60048036038101908080359060200190929190803573ffffffffffffffffffffffffffffffffffffffff16906020019092919080359060200190929190803590602001908201803590602001908080601f0160208091040260200160405190810160405280939291908181526020018383808284378201915050505050509192919290505050614d47565b005b3480156115b957600080fd5b5061160e600480360381019080803573ffffffffffffffffffffffffffffffffffffffff169060200190929190803573ffffffffffffffffffffffffffffffffffffffff169060200190929190505050614dfd565b6040518082815260200191505060405180910390f35b34801561163057600080fd5b5061166b6004803603810190808035600019169060200190929190803560001916906020019092919080359060200190929190505050614f2e565b005b34801561167957600080fd5b506116ae600480360381019080803573ffffffffffffffffffffffffffffffffffffffff16906020019092919050505061516f565b6040518080602001828103825283818151815260200191508051906020019060200280838360005b838110156116f15780820151818401526020810190506116d6565b505050509050019250505060405180910390f35b34801561171157600080fd5b506117346004803603810190808035600019169060200190929190505050615206565b005b34801561174257600080fd5b50611781600480360381019080803573ffffffffffffffffffffffffffffffffffffffff1690602001909291908035906020019092919050505061523d565b6040518082815260200191505060405180910390f35b3480156117a357600080fd5b506117d8600480360381019080803573ffffffffffffffffffffffffffffffffffffffff169060200190929190505050615298565b6040518080602001828103825283818151815260200191508051906020019060200280838360005b8381101561181b578082015181840152602081019050611800565b505050509050019250505060405180910390f35b34801561183b57600080fd5b506118446152aa565b005b34801561185257600080fd5b50611887600480360381019080803573ffffffffffffffffffffffffffffffffffffffff1690602001909291905050506153b2565b005b34801561189557600080fd5b506118ed60048036038101908080359060200190820180359060200190808060200260200160405190810160405280939291908181526020018383602002808284378201915050505050509192919290505050615548565b005b601b543414151561198e576040517f08c379a00000000000000000000000000000000000000000000000000000000081526004018080602001828103825260288152602001807f6e6f7420656e6f75676820657468657220696e20666f722070617961626c652081526020017f66756e6374696f6e00000000000000000000000000000000000000000000000081525060400191505060405180910390fd5b60156060604051908101604052808660001916815260200185858080601f0160208091040260200160405190810160405280939291908181526020018383808284378201915050505050508152602001836000191681525090806001815401808255809150509060018203906000526020600020906003020160009091929091909150600082015181600001906000191690556020820151816001019080519060200190611a3d929190617e99565b506040820151816002019060001916905550505050505050565b6000601e60003373ffffffffffffffffffffffffffffffffffffffff1673ffffffffffffffffffffffffffffffffffffffff16815260200190815260200160002090508060010160009054906101000a900460ff16151515611b21576040517f08c379a000000000000000000000000000000000000000000000000000000000815260040180806020018281038252600d8152602001807f416c726561647920766f7465640000000000000000000000000000000000000081525060200191505060405180910390fd5b60018160010160006101000a81548160ff021916908315150217905550818160020181905550611b7e8160000154601f84815481101515611b5e57fe5b90600052602060002090600202016001015461567090919063ffffffff16565b601f83815481101515611b8d57fe5b9060005260206000209060020201600101819055505050565b611bae617f19565b6010600280602002604051908101604052809291908260028015611c1d576020028201915b8160009054906101000a900473ffffffffffffffffffffffffffffffffffffffff1673ffffffffffffffffffffffffffffffffffffffff1681526020019060010190808311611bd3575b5050505050905090565b6000600a54905090565b600f60009054906101000a900473ffffffffffffffffffffffffffffffffffffffff1673ffffffffffffffffffffffffffffffffffffffff163373ffffffffffffffffffffffffffffffffffffffff16141515611d1c576040517f08c379a00000000000000000000000000000000000000000000000000000000081526004018080602001828103825260298152602001807f726571756972656d656e74206f6e6c794f776e6572206f6620436f6d70616e7981526020017f206d6f646966696572000000000000000000000000000000000000000000000081525060400191505060405180910390fd5b6001601c60006101000a81548160ff021916908315150217905550565b6000816000600d5482811515611d4b57fe5b06141515611de7576040517f08c379a00000000000000000000000000000000000000000000000000000000081526004018080602001828103825260338152602001807f756e61626c6520746f206d6f6469667920746f6b656e2062616c616e6365732081526020017f61742074686973206772616e756c61726974790000000000000000000000000081525060400191505060405180910390fd5b601c60009054906101000a900460ff161515611e91576040517f08c379a00000000000000000000000000000000000000000000000000000000081526004018080602001828103825260258152602001807f657263323020636f6d7061746962696c69747920686173206265656e2064697381526020017f61626c656400000000000000000000000000000000000000000000000000000081525060400191505060405180910390fd5b82600660003373ffffffffffffffffffffffffffffffffffffffff1673ffffffffffffffffffffffffffffffffffffffff16815260200190815260200160002060008673ffffffffffffffffffffffffffffffffffffffff1673ffffffffffffffffffffffffffffffffffffffff168152602001908152602001600020819055507f8c5be1e5ebec7d5bd14f71427d1e84f3dd0314c0f7b2291e5b200ac8c7c3b925338585604051808473ffffffffffffffffffffffffffffffffffffffff1673ffffffffffffffffffffffffffffffffffffffff1681526020018373ffffffffffffffffffffffffffffffffffffffff1673ffffffffffffffffffffffffffffffffffffffff168152602001828152602001935050505060405180910390a1600191505092915050565b601481815481101515611fcb57fe5b906000526020600020016000915054906101000a900473ffffffffffffffffffffffffffffffffffffffff1681565b60008061204e8733888888888080601f016020809104026020016040519081016040528093929190818152602001838380828437820191505050505050336020604051908101604052806000815250615691565b90508091505095945050505050565b6000806000806000600954600a54600b54600d54600e54945094509450945094509091929394565b6000600e54905090565b600073__ConvertLib____________________________6396e4ee3d6120b4846136f5565b60036040518363ffffffff167c0100000000000000000000000000000000000000000000000000000000028152600401808381526020018281526020019250505060206040518083038186803b15801561210d57600080fd5b505af4158015612121573d6000803e3d6000fd5b505050506040513d602081101561213757600080fd5b81019080805190602001909291905050509050919050565b6000601c60009054906101000a900460ff1615156121fb576040517f08c379a00000000000000000000000000000000000000000000000000000000081526004018080602001828103825260258152602001807f657263323020636f6d7061746962696c69747920686173206265656e2064697381526020017f61626c656400000000000000000000000000000000000000000000000000000081525060400191505060405180910390fd5b600660008573ffffffffffffffffffffffffffffffffffffffff1673ffffffffffffffffffffffffffffffffffffffff16815260200190815260200160002060003373ffffffffffffffffffffffffffffffffffffffff1673ffffffffffffffffffffffffffffffffffffffff1681526020019081526020016000205482111515156122ef576040517f08c379a000000000000000000000000000000000000000000000000000000000815260040180806020018281038252601b8152602001807f6e6f20617070726f76616c20666f72207472616e73616374696f6e000000000081525060200191505060405180910390fd5b61237e82600660008773ffffffffffffffffffffffffffffffffffffffff1673ffffffffffffffffffffffffffffffffffffffff16815260200190815260200160002060003373ffffffffffffffffffffffffffffffffffffffff1673ffffffffffffffffffffffffffffffffffffffff1681526020019081526020016000205461647590919063ffffffff16565b600660008673ffffffffffffffffffffffffffffffffffffffff1673ffffffffffffffffffffffffffffffffffffffff16815260200190815260200160002060003373ffffffffffffffffffffffffffffffffffffffff1673ffffffffffffffffffffffffffffffffffffffff1681526020019081526020016000208190555061242c8484846020604051908101604052806000815250336020604051908101604052806000815250616496565b600190509392505050565b6000806000806000600f60009054906101000a900473ffffffffffffffffffffffffffffffffffffffff1673ffffffffffffffffffffffffffffffffffffffff163373ffffffffffffffffffffffffffffffffffffffff1614151561252a576040517f08c379a00000000000000000000000000000000000000000000000000000000081526004018080602001828103825260298152602001807f726571756972656d656e74206f6e6c794f776e6572206f6620436f6d70616e7981526020017f206d6f646966696572000000000000000000000000000000000000000000000081525060400191505060405180910390fd5b600193505b6014805490508410156125f6576125d2606460008060148881548110151561255357fe5b9060005260206000200160009054906101000a900473ffffffffffffffffffffffffffffffffffffffff1673ffffffffffffffffffffffffffffffffffffffff1673ffffffffffffffffffffffffffffffffffffffff168152602001908152602001600020548115156125c257fe5b048761676a90919063ffffffff16565b92506125e7838661567090919063ffffffff16565b9450838060010194505061252f565b846000803373ffffffffffffffffffffffffffffffffffffffff1673ffffffffffffffffffffffffffffffffffffffff16815260200190815260200160002054101515156126d2576040517f08c379a00000000000000000000000000000000000000000000000000000000081526004018080602001828103825260248152602001807f696e73756666696369656e742066756e64696e6720746f20706179206469766981526020017f64656e640000000000000000000000000000000000000000000000000000000081525060400191505060405180910390fd5b600191505b6014805490508210156127f05761277a60646000806014868154811015156126fb57fe5b9060005260206000200160009054906101000a900473ffffffffffffffffffffffffffffffffffffffff1673ffffffffffffffffffffffffffffffffffffffff1673ffffffffffffffffffffffffffffffffffffffff1681526020019081526020016000205481151561276a57fe5b048761676a90919063ffffffff16565b90506127e33360148481548110151561278f57fe5b9060005260206000200160009054906101000a900473ffffffffffffffffffffffffffffffffffffffff16836020604051908101604052806000815250336020604051908101604052806000815250616496565b81806001019250506126d7565b7f69c382338c74e0d3a990efe1a52ae89dcf6a9ab705628ec4424f49cddd4e2f89866040518082815260200191505060405180910390a1505050505050565b828073ffffffffffffffffffffffffffffffffffffffff163373ffffffffffffffffffffffffffffffffffffffff161415156128d3576040517f08c379a00000000000000000000000000000000000000000000000000000000081526004018080602001828103825260158152602001807f726571756972656d656e74206f6e6c794f776e6572000000000000000000000081525060200191505060405180910390fd5b6128df858585856167a8565b5050505050565b600f60009054906101000a900473ffffffffffffffffffffffffffffffffffffffff1673ffffffffffffffffffffffffffffffffffffffff163373ffffffffffffffffffffffffffffffffffffffff161415156129d1576040517f08c379a00000000000000000000000000000000000000000000000000000000081526004018080602001828103825260298152602001807f726571756972656d656e74206f6e6c794f776e6572206f6620436f6d70616e7981526020017f206d6f646966696572000000000000000000000000000000000000000000000081525060400191505060405180910390fd5b80600f60006101000a81548173ffffffffffffffffffffffffffffffffffffffff021916908373ffffffffffffffffffffffffffffffffffffffff16021790555050565b601760009054906101000a900460ff1681565b6000601c60009054906101000a900460ff161515612ad4576040517f08c379a00000000000000000000000000000000000000000000000000000000081526004018080602001828103825260258152602001807f657263323020636f6d7061746962696c69747920686173206265656e2064697381526020017f61626c656400000000000000000000000000000000000000000000000000000081525060400191505060405180910390fd5b6012905090565b828073ffffffffffffffffffffffffffffffffffffffff163373ffffffffffffffffffffffffffffffffffffffff16141515612b7f576040517f08c379a00000000000000000000000000000000000000000000000000000000081526004018080602001828103825260158152602001807f726571756972656d656e74206f6e6c794f776e6572000000000000000000000081525060200191505060405180910390fd5b612b8a848484616d83565b50505050565b60008073ffffffffffffffffffffffffffffffffffffffff16601a60009054906101000a900473ffffffffffffffffffffffffffffffffffffffff1673ffffffffffffffffffffffffffffffffffffffff16141515612bf25760009050612bf7565b600190505b90565b600080612c2c853386866020604051908101604052806000815250336020604051908101604052806000815250615691565b9050809150509392505050565b601b5434141515612cd8576040517f08c379a00000000000000000000000000000000000000000000000000000000081526004018080602001828103825260288152602001807f6e6f7420656e6f75676820657468657220696e20666f722070617961626c652081526020017f66756e6374696f6e00000000000000000000000000000000000000000000000081525060400191505060405180910390fd5b60156060604051908101604052808660001916815260200185858080601f0160208091040260200160405190810160405280939291908181526020018383808284378201915050505050508152602001836000191681525090806001815401808255809150509060018203906000526020600020906003020160009091929091909150600082015181600001906000191690556020820151816001019080519060200190612d87929190617e99565b506040820151816002019060001916905550505050505050565b6000600d54905090565b600080601e60003373ffffffffffffffffffffffffffffffffffffffff1673ffffffffffffffffffffffffffffffffffffffff16815260200190815260200160002091508160010160009054906101000a900460ff16151515612e76576040517f08c379a00000000000000000000000000000000000000000000000000000000081526004018080602001828103825260118152602001807f596f7520616c726561647920766f74656400000000000000000000000000000081525060200191505060405180910390fd5b3373ffffffffffffffffffffffffffffffffffffffff168373ffffffffffffffffffffffffffffffffffffffff1614151515612f1a576040517f08c379a000000000000000000000000000000000000000000000000000000000815260040180806020018281038252601d8152602001807f53656c662d64656c65676174696f6e20697320646973616c6c6f77656400000081525060200191505060405180910390fd5b5b600073ffffffffffffffffffffffffffffffffffffffff16601e60008573ffffffffffffffffffffffffffffffffffffffff1673ffffffffffffffffffffffffffffffffffffffff16815260200190815260200160002060010160019054906101000a900473ffffffffffffffffffffffffffffffffffffffff1673ffffffffffffffffffffffffffffffffffffffff161415156130c157601e60008473ffffffffffffffffffffffffffffffffffffffff1673ffffffffffffffffffffffffffffffffffffffff16815260200190815260200160002060010160019054906101000a900473ffffffffffffffffffffffffffffffffffffffff1692503373ffffffffffffffffffffffffffffffffffffffff168373ffffffffffffffffffffffffffffffffffffffff16141515156130bc576040517f08c379a000000000000000000000000000000000000000000000000000000000815260040180806020018281038252601a8152602001807f466f756e642073656c662d64656c65676174696f6e206c6f6f7000000000000081525060200191505060405180910390fd5b612f1b565b60018260010160006101000a81548160ff021916908315150217905550828260010160016101000a81548173ffffffffffffffffffffffffffffffffffffffff021916908373ffffffffffffffffffffffffffffffffffffffff160217905550601e60008473ffffffffffffffffffffffffffffffffffffffff1673ffffffffffffffffffffffffffffffffffffffff16815260200190815260200160002090508060010160009054906101000a900460ff16156131e1576131b48260000154601f836002015481548110151561319457fe5b90600052602060002090600202016001015461567090919063ffffffff16565b601f82600201548154811015156131c757fe5b9060005260206000209060020201600101819055506131fe565b6131fc8260000154826000015461567090919063ffffffff16565b505b505050565b60008060008060009250600091505b601f8054905082101561327b5782601f8381548110151561322f57fe5b906000526020600020906002020160010154111561326e57601f8281548110151561325657fe5b90600052602060002090600202016001015492508190505b8180600101925050613212565b601f8181548110151561328a57fe5b90600052602060002090600202016000015493507f64cc588a379a8af63188f3443e70b4fa4e3cdad188fd65e3b7b283c2084cddc784846040518083600019166000191681526020018281526020019250505060405180910390a183935050505090565b60608060008090505b601f8054905081101561335857601f8181548110151561331357fe5b906000526020600020906002020160000154828281518110151561333357fe5b90602001906020020190600019169081600019168152505080806001019150506132f7565b819250505090565b600061336c3387614c53565b1515613406576040517f08c379a00000000000000000000000000000000000000000000000000000000081526004018080602001828103825260388152602001807f73656e646572206973206e6f7420617574686f72697a656420746f206f70657281526020017f6174652077697468205f66726f6d2773206163636f756e74000000000000000081525060400191505060405180910390fd5b613414868686863387616496565b6001905095945050505050565b600f60009054906101000a900473ffffffffffffffffffffffffffffffffffffffff1673ffffffffffffffffffffffffffffffffffffffff163373ffffffffffffffffffffffffffffffffffffffff1614151561350c576040517f08c379a00000000000000000000000000000000000000000000000000000000081526004018080602001828103825260298152602001807f726571756972656d656e74206f6e6c794f776e6572206f6620436f6d70616e7981526020017f206d6f646966696572000000000000000000000000000000000000000000000081525060400191505060405180910390fd5b600115156135198261773f565b15151415156135b6576040517f08c379a00000000000000000000000000000000000000000000000000000000081526004018080602001828103825260308152602001807f5f61646472206164647265737320646f6573206e6f74206578697374206f722081526020017f69732030783020286275726e696e67290000000000000000000000000000000081525060400191505060405180910390fd5b80601a60006101000a81548173ffffffffffffffffffffffffffffffffffffffff021916908373ffffffffffffffffffffffffffffffffffffffff16021790555050565b600f60009054906101000a900473ffffffffffffffffffffffffffffffffffffffff1673ffffffffffffffffffffffffffffffffffffffff163373ffffffffffffffffffffffffffffffffffffffff161415156136e5576040517f08c379a00000000000000000000000000000000000000000000000000000000081526004018080602001828103825260298152602001807f726571756972656d656e74206f6e6c794f776e6572206f6620436f6d70616e7981526020017f206d6f646966696572000000000000000000000000000000000000000000000081525060400191505060405180910390fd5b8060168190555050565b601b5481565b60008060008373ffffffffffffffffffffffffffffffffffffffff1673ffffffffffffffffffffffffffffffffffffffff168152602001908152602001600020549050919050565b6002600760008373ffffffffffffffffffffffffffffffffffffffff1673ffffffffffffffffffffffffffffffffffffffff1681526020019081526020016000205410151561381a576040517f08c379a00000000000000000000000000000000000000000000000000000000081526004018080602001828103825260298152602001807f696e766573746f7220616c726561647920617574686f72697a656420616e206181526020017f636372656469746564000000000000000000000000000000000000000000000081525060400191505060405180910390fd5b61386d6001600760008473ffffffffffffffffffffffffffffffffffffffff1673ffffffffffffffffffffffffffffffffffffffff1681526020019081526020016000205461567090919063ffffffff16565b5050565b3373ffffffffffffffffffffffffffffffffffffffff168173ffffffffffffffffffffffffffffffffffffffff161415151561393b576040517f08c379a00000000000000000000000000000000000000000000000000000000081526004018080602001828103825260248152602001807f6d73672e73656e6465722063616e6e6f7420617574686f72697a65642068696d81526020017f73656c660000000000000000000000000000000000000000000000000000000081525060400191505060405180910390fd5b6001601d60008373ffffffffffffffffffffffffffffffffffffffff1673ffffffffffffffffffffffffffffffffffffffff16815260200190815260200160002060003373ffffffffffffffffffffffffffffffffffffffff1673ffffffffffffffffffffffffffffffffffffffff16815260200190815260200160002060006101000a81548160ff0219169083151502179055507ff4caeb2d6ca8932a215a353d0703c326ec2d81fc68170f320eb2ab49e9df61f98133604051808373ffffffffffffffffffffffffffffffffffffffff1673ffffffffffffffffffffffffffffffffffffffff1681526020018273ffffffffffffffffffffffffffffffffffffffff1673ffffffffffffffffffffffffffffffffffffffff1681526020019250505060405180910390a150565b6000600b54905090565b6000613a9433858585336020604051908101604052806000815250616496565b600190509392505050565b6000836000600d5482811515613ab157fe5b06141515613b4d576040517f08c379a00000000000000000000000000000000000000000000000000000000081526004018080602001828103825260338152602001807f756e61626c6520746f206d6f6469667920746f6b656e2062616c616e6365732081526020017f61742074686973206772616e756c61726974790000000000000000000000000081525060400191505060405180910390fd5b600f60009054906101000a900473ffffffffffffffffffffffffffffffffffffffff1673ffffffffffffffffffffffffffffffffffffffff163373ffffffffffffffffffffffffffffffffffffffff16141515613c38576040517f08c379a00000000000000000000000000000000000000000000000000000000081526004018080602001828103825260298152602001807f726571756972656d656e74206f6e6c794f776e6572206f6620436f6d70616e7981526020017f206d6f646966696572000000000000000000000000000000000000000000000081525060400191505060405180910390fd5b6001151560086000600a546000191660001916815260200190815260200160002060009054906101000a900460ff161515141515613d04576040517f08c379a000000000000000000000000000000000000000000000000000000000815260040180806020018281038252602e8152602001807f7265717569726573206368616e676564207374617475732066726f6d2070656e81526020017f64696e6720746f2061637469766500000000000000000000000000000000000081525060400191505060405180910390fd5b60011515601760009054906101000a900460ff161515141515613d8f576040517f08c379a000000000000000000000000000000000000000000000000000000000815260040180806020018281038252601a8152602001807f746f6b656e2069737375616e63652069732066696e697368656400000000000081525060200191505060405180910390fd5b613d9a600a5461777b565b9150606060405190810160405280868152602001428152602001600081525060036000848152602001908152602001600020600082015181600001556020820151816001015560408201518160020155905050613e0285600e5461567090919063ffffffff16565b600e81905550613e59856000803373ffffffffffffffffffffffffffffffffffffffff1673ffffffffffffffffffffffffffffffffffffffff1681526020019081526020016000205461567090919063ffffffff16565b6000803373ffffffffffffffffffffffffffffffffffffffff1673ffffffffffffffffffffffffffffffffffffffff16815260200190815260200160002081905550613efe85600160003373ffffffffffffffffffffffffffffffffffffffff1673ffffffffffffffffffffffffffffffffffffffff16815260200190815260200160002060008581526020019081526020016000205461567090919063ffffffff16565b600160003373ffffffffffffffffffffffffffffffffffffffff1673ffffffffffffffffffffffffffffffffffffffff168152602001908152602001600020600084815260200190815260200160002081905550600260003373ffffffffffffffffffffffffffffffffffffffff1673ffffffffffffffffffffffffffffffffffffffff1681526020019081526020016000208290806001815401808255809150509060018203906000526020600020016000909192909190915055507f2fe5be0146f74c5bce36c0b80911af6c7d86ff27e89d5cfa61fc681327954e5d3333878787604051808673ffffffffffffffffffffffffffffffffffffffff1673ffffffffffffffffffffffffffffffffffffffff1681526020018573ffffffffffffffffffffffffffffffffffffffff1673ffffffffffffffffffffffffffffffffffffffff1681526020018481526020018060200180602001838103835285818151815260200191508051906020019080838360005b8381101561408f578082015181840152602081019050614074565b50505050905090810190601f1680156140bc5780820380516001836020036101000a031916815260200191505b50838103825284818151815260200191508051906020019080838360005b838110156140f55780820151818401526020810190506140da565b50505050905090810190601f1680156141225780820380516001836020036101000a031916815260200191505b5097505050505050505060405180910390a17fc8d64290e05791ddb8e7c779289e066d776a0630d8fb0adb646a94b9ae85b772823333888888604051808781526020018673ffffffffffffffffffffffffffffffffffffffff1673ffffffffffffffffffffffffffffffffffffffff1681526020018573ffffffffffffffffffffffffffffffffffffffff1673ffffffffffffffffffffffffffffffffffffffff1681526020018481526020018060200180602001838103835285818151815260200191508051906020019080838360005b8381101561420f5780820151818401526020810190506141f4565b50505050905090810190601f16801561423c5780820380516001836020036101000a031916815260200191505b50838103825284818151815260200191508051906020019080838360005b8381101561427557808201518184015260208101905061425a565b50505050905090810190601f1680156142a25780820380516001836020036101000a031916815260200191505b509850505050505050505060405180910390a1601c60009054906101000a900460ff1615614355577fddf252ad1be2c89b69c2b068fc378daa952ba7f163c4a11628f55a4df523b3ef60003387604051808473ffffffffffffffffffffffffffffffffffffffff1681526020018373ffffffffffffffffffffffffffffffffffffffff1673ffffffffffffffffffffffffffffffffffffffff168152602001828152602001935050505060405180910390a15b5050505050565b6000601c60009054906101000a900460ff161515614408576040517f08c379a00000000000000000000000000000000000000000000000000000000081526004018080602001828103825260258152602001807f657263323020636f6d7061746962696c69747920686173206265656e2064697381526020017f61626c656400000000000000000000000000000000000000000000000000000081525060400191505060405180910390fd5b6144363384846020604051908101604052806000815250336020604051908101604052806000815250616496565b6001905092915050565b60606000806002600760003373ffffffffffffffffffffffffffffffffffffffff1673ffffffffffffffffffffffffffffffffffffffff16815260200190815260200160002054141515614522576040517f08c379a00000000000000000000000000000000000000000000000000000000081526004018080602001828103825260278152602001807f7265717569726573206164766f6361746520746f2073656520646f776e6c6f6181526020017f642066696c65730000000000000000000000000000000000000000000000000081525060400191505060405180910390fd5b600090505b60158054905081101561465757836000191660158281548110151561454857fe5b90600052602060002090600302016000015460001916141561464a5760158181548110151561457357fe5b906000526020600020906003020160010160158281548110151561459357fe5b906000526020600020906003020160020154818054600181600116156101000203166002900480601f01602080910402602001604051908101604052809291908181526020018280546001816001161561010002031660029004801561463a5780601f1061460f5761010080835404028352916020019161463a565b820191906000526020600020905b81548152906001019060200180831161461d57829003601f168201915b5050505050915092509250614658565b8080600101915050614527565b5b50915091565b6000601f8281548110151561466f57fe5b9060005260206000209060020201600101549050809050919050565b600f60009054906101000a900473ffffffffffffffffffffffffffffffffffffffff1673ffffffffffffffffffffffffffffffffffffffff163373ffffffffffffffffffffffffffffffffffffffff16141515614776576040517f08c379a00000000000000000000000000000000000000000000000000000000081526004018080602001828103825260298152602001807f726571756972656d656e74206f6e6c794f776e6572206f6620436f6d70616e7981526020017f206d6f646966696572000000000000000000000000000000000000000000000081525060400191505060405180910390fd5b6000601760006101000a81548160ff021916908315150217905550565b7f075025aecd552649e85b634e268857a6a478f698de831a3b01d0055e73888d20813360405180806020018373ffffffffffffffffffffffffffffffffffffffff1673ffffffffffffffffffffffffffffffffffffffff168152602001828103825284818151815260200191508051906020019080838360005b8381101561482857808201518184015260208101905061480d565b50505050905090810190601f1680156148555780820380516001836020036101000a031916815260200191505b50935050505060405180910390a150565b606060148054806020026020016040519081016040528092919081815260200182805480156148ea57602002820191906000526020600020905b8160009054906101000a900473ffffffffffffffffffffffffffffffffffffffff1673ffffffffffffffffffffffffffffffffffffffff16815260200190600101908083116148a0575b5050505050905090565b60008060008061494b8a8a8a8a8a8a8080601f016020809104026020016040519081016040528093929190818152602001838380828437820191505050505050336020604051908101604052806000815250615691565b905060008111156149a657807f0100000000000000000000000000000000000000000000000000000000000000907f7375636365737300000000000000000000000000000000000000000000000000909350935093506149d3565b806000907f6661696c75726500000000000000000000000000000000000000000000000000909350935093505b5096509650969350505050565b6149ea3384614c53565b1515614a84576040517f08c379a00000000000000000000000000000000000000000000000000000000081526004018080602001828103825260388152602001807f73656e646572206973206e6f7420617574686f72697a656420746f206f70657281526020017f6174652077697468205f66726f6d2773206163636f756e74000000000000000081525060400191505060405180910390fd5b614a8f838383616d83565b505050565b600080614aa1338a614c53565b1515614b3b576040517f08c379a00000000000000000000000000000000000000000000000000000000081526004018080602001828103825260388152602001807f73656e646572206973206e6f7420617574686f72697a656420746f206f70657281526020017f6174652077697468205f66726f6d2773206163636f756e74000000000000000081525060400191505060405180910390fd5b614bae8a8a8a8a8a8a8080601f016020809104026020016040519081016040528093929190818152602001838380828437820191505050505050338a8a8080601f016020809104026020016040519081016040528093929190818152602001838380828437820191505050505050615691565b90508091505098975050505050505050565b6000614bf03384846020604051908101604052806000815250336020604051908101604052806000815250616496565b6001905092915050565b601f81815481101515614c0957fe5b90600052602060002090600202016000915090508060000154908060010154905082565b601a60009054906101000a900473ffffffffffffffffffffffffffffffffffffffff1681565b60008173ffffffffffffffffffffffffffffffffffffffff168373ffffffffffffffffffffffffffffffffffffffff161480614d155750601d60008473ffffffffffffffffffffffffffffffffffffffff1673ffffffffffffffffffffffffffffffffffffffff16815260200190815260200160002060008373ffffffffffffffffffffffffffffffffffffffff1673ffffffffffffffffffffffffffffffffffffffff16815260200190815260200160002060009054906101000a900460ff165b905092915050565b6000600f60009054906101000a900473ffffffffffffffffffffffffffffffffffffffff16905090565b614d513384614c53565b1515614deb576040517f08c379a00000000000000000000000000000000000000000000000000000000081526004018080602001828103825260388152602001807f73656e646572206973206e6f7420617574686f72697a656420746f206f70657281526020017f6174652077697468205f66726f6d2773206163636f756e74000000000000000081525060400191505060405180910390fd5b614df7848484846167a8565b50505050565b6000601c60009054906101000a900460ff161515614ea9576040517f08c379a00000000000000000000000000000000000000000000000000000000081526004018080602001828103825260258152602001807f657263323020636f6d7061746962696c69747920686173206265656e2064697381526020017f61626c656400000000000000000000000000000000000000000000000000000081525060400191505060405180910390fd5b600660008473ffffffffffffffffffffffffffffffffffffffff1673ffffffffffffffffffffffffffffffffffffffff16815260200190815260200160002060008373ffffffffffffffffffffffffffffffffffffffff1673ffffffffffffffffffffffffffffffffffffffff16815260200190815260200160002054905092915050565b60018110151515614f3b57fe5b614f448361777b565b60098190555082600a816000191690555081600b81600019169055507f4100000000000000000000000000000000000000000000000000000000000000600c60006101000a81548160ff02191690837f0100000000000000000000000000000000000000000000000000000000000000900402179055506000600e8190555080600d819055506001601c60006101000a81548160ff02191690831515021790555033600f60006101000a81548173ffffffffffffffffffffffffffffffffffffffff021916908373ffffffffffffffffffffffffffffffffffffffff16021790555060408051908101604052803373ffffffffffffffffffffffffffffffffffffffff1673ffffffffffffffffffffffffffffffffffffffff168152602001601a60009054906101000a900473ffffffffffffffffffffffffffffffffffffffff1673ffffffffffffffffffffffffffffffffffffffff1673ffffffffffffffffffffffffffffffffffffffff1681525060109060026150c5929190617f3b565b50612710601281905550620f42406013819055506150e233617845565b507f9ae979c8e1266c2f250aee2ce3946e415bd909a9cf1821aab705834932fd12ad600a54600b543360405180846000191660001916815260200183600019166000191681526020018273ffffffffffffffffffffffffffffffffffffffff1673ffffffffffffffffffffffffffffffffffffffff168152602001935050505060405180910390a1505050565b6060600260008373ffffffffffffffffffffffffffffffffffffffff1673ffffffffffffffffffffffffffffffffffffffff1681526020019081526020016000208054806020026020016040519081016040528092919081815260200182805480156151fa57602002820191906000526020600020905b8154815260200190600101908083116151e6575b50505050509050919050565b600160086000836000191660001916815260200190815260200160002060006101000a81548160ff02191690831515021790555050565b6000600160008473ffffffffffffffffffffffffffffffffffffffff1673ffffffffffffffffffffffffffffffffffffffff168152602001908152602001600020600083815260200190815260200160002054905092915050565b60606152a38261516f565b9050919050565b600f60009054906101000a900473ffffffffffffffffffffffffffffffffffffffff1673ffffffffffffffffffffffffffffffffffffffff163373ffffffffffffffffffffffffffffffffffffffff16141515615395576040517f08c379a00000000000000000000000000000000000000000000000000000000081526004018080602001828103825260298152602001807f726571756972656d656e74206f6e6c794f776e6572206f6620436f6d70616e7981526020017f206d6f646966696572000000000000000000000000000000000000000000000081525060400191505060405180910390fd5b6000601c60006101000a81548160ff021916908315150217905550565b3373ffffffffffffffffffffffffffffffffffffffff168173ffffffffffffffffffffffffffffffffffffffff1614151515615456576040517f08c379a00000000000000000000000000000000000000000000000000000000081526004018080602001828103825260208152602001807f6d73672e73656e6465722063616e6e6f74207265766f6b652068696d73656c6681525060200191505060405180910390fd5b6000601d60008373ffffffffffffffffffffffffffffffffffffffff1673ffffffffffffffffffffffffffffffffffffffff16815260200190815260200160002060003373ffffffffffffffffffffffffffffffffffffffff1673ffffffffffffffffffffffffffffffffffffffff16815260200190815260200160002060006101000a81548160ff0219169083151502179055503373ffffffffffffffffffffffffffffffffffffffff168173ffffffffffffffffffffffffffffffffffffffff167f50546e66e5f44d728365dc3908c63bc5cfeeab470722c1677e3073a6ac294aa160405160405180910390a350565b60008090505b81518110156155df57601f6040805190810160405280848481518110151561557257fe5b906020019060200201516000191681526020016000815250908060018154018082558091505090600182039060005260206000209060020201600090919290919091506000820151816000019060001916905560208201518160010155505050808060010191505061554e565b6000803373ffffffffffffffffffffffffffffffffffffffff1673ffffffffffffffffffffffffffffffffffffffff16815260200190815260200160002054601e60003373ffffffffffffffffffffffffffffffffffffffff1673ffffffffffffffffffffffffffffffffffffffff1681526020019081526020016000206000018190555061566c6179e0565b5050565b600080828401905083811015151561568757600080fd5b8091505092915050565b6000846000600d54828115156156a357fe5b0614151561573f576040517f08c379a00000000000000000000000000000000000000000000000000000000081526004018080602001828103825260338152602001807f756e61626c6520746f206d6f6469667920746f6b656e2062616c616e6365732081526020017f61742074686973206772616e756c61726974790000000000000000000000000081525060400191505060405180910390fd5b866001600760008373ffffffffffffffffffffffffffffffffffffffff1673ffffffffffffffffffffffffffffffffffffffff1681526020019081526020016000205414151561581d576040517f08c379a00000000000000000000000000000000000000000000000000000000081526004018080602001828103825260268152602001807f726571756972656d656e74206f66207375636365737366756c204b594320707281526020017f6f746f636f6c000000000000000000000000000000000000000000000000000081525060400191505060405180910390fd5b6001151561582a8961773f565b15151415156158c7576040517f08c379a000000000000000000000000000000000000000000000000000000000815260040180806020018281038252602e8152602001807f5f746f206164647265737320646f6573206e6f74206578697374206f7220697381526020017f2030783020286275726e696e672900000000000000000000000000000000000081525060400191505060405180910390fd5b6001600760008a73ffffffffffffffffffffffffffffffffffffffff1673ffffffffffffffffffffffffffffffffffffffff168152602001908152602001600020541415156159a4576040517f08c379a000000000000000000000000000000000000000000000000000000000815260040180806020018281038252602b8152602001807f5f746f2061646472657373206973206e6f7420617574686f72697a6564206f7281526020017f206163637265646974656400000000000000000000000000000000000000000081525060400191505060405180910390fd5b86600160008b73ffffffffffffffffffffffffffffffffffffffff1673ffffffffffffffffffffffffffffffffffffffff16815260200190815260200160002060008c81526020019081526020016000205410151515615a92576040517f08c379a000000000000000000000000000000000000000000000000000000000815260040180806020018281038252603e8152602001807f6e6f7420656e6f756768207472616e6368652d73706563696669632066756e6481526020017f696e6720666f72207472616e73616374696f6e206f6e206163636f756e74000081525060400191505060405180910390fd5b60011515615a9f8b617c14565b1515141515615b3c576040517f08c379a00000000000000000000000000000000000000000000000000000000081526004018080602001828103825260278152602001807f6c6f636b757020706572696f64206e6f74206f76657220666f7220746869732081526020017f7472616e6368650000000000000000000000000000000000000000000000000081525060400191505060405180910390fd5b60125460148054905011151515615bbb576040517f08c379a00000000000000000000000000000000000000000000000000000000081526004018080602001828103825260188152602001807f6d61782e20616d6f756e74206f6620696e766573746f7273000000000000000081525060200191505060405180910390fd5b615c0c876000808c73ffffffffffffffffffffffffffffffffffffffff1673ffffffffffffffffffffffffffffffffffffffff1681526020019081526020016000205461647590919063ffffffff16565b6000808b73ffffffffffffffffffffffffffffffffffffffff1673ffffffffffffffffffffffffffffffffffffffff16815260200190815260200160002081905550615c9f876000808b73ffffffffffffffffffffffffffffffffffffffff1673ffffffffffffffffffffffffffffffffffffffff1681526020019081526020016000205461567090919063ffffffff16565b6000808a73ffffffffffffffffffffffffffffffffffffffff1673ffffffffffffffffffffffffffffffffffffffff168152602001908152602001600020819055506013546000808a73ffffffffffffffffffffffffffffffffffffffff1673ffffffffffffffffffffffffffffffffffffffff1681526020019081526020016000205411151515615dbf576040517f08c379a000000000000000000000000000000000000000000000000000000000815260040180806020018281038252602b8152602001807f6d61782e20616d6f756e74206f6620736861726573206279206f6e6520696e7681526020017f6573746f7220283130252900000000000000000000000000000000000000000081525060400191505060405180910390fd5b615dc888617845565b507f06b541ddaa720db2b10a4d0cdac39b8d360425fc073085fac19bc82614677987858a8a8a8a89604051808773ffffffffffffffffffffffffffffffffffffffff1673ffffffffffffffffffffffffffffffffffffffff1681526020018673ffffffffffffffffffffffffffffffffffffffff1673ffffffffffffffffffffffffffffffffffffffff1681526020018573ffffffffffffffffffffffffffffffffffffffff1673ffffffffffffffffffffffffffffffffffffffff1681526020018481526020018060200180602001838103835285818151815260200191508051906020019080838360005b83811015615ed0578082015181840152602081019050615eb5565b50505050905090810190601f168015615efd5780820380516001836020036101000a031916815260200191505b50838103825284818151815260200191508051906020019080838360005b83811015615f36578082015181840152602081019050615f1b565b50505050905090810190601f168015615f635780820380516001836020036101000a031916815260200191505b509850505050505050505060405180910390a1615f7e617c54565b92506060604051908101604052808881526020014281526020016016548152506003600085815260200190815260200160002060008201518160000155602082015181600101556040820151816002015590505061603587600160008c73ffffffffffffffffffffffffffffffffffffffff1673ffffffffffffffffffffffffffffffffffffffff16815260200190815260200160002060008d81526020019081526020016000205461647590919063ffffffff16565b600160008b73ffffffffffffffffffffffffffffffffffffffff1673ffffffffffffffffffffffffffffffffffffffff16815260200190815260200160002060008c8152602001908152602001600020819055506160ec87600160008b73ffffffffffffffffffffffffffffffffffffffff1673ffffffffffffffffffffffffffffffffffffffff16815260200190815260200160002060008681526020019081526020016000205461567090919063ffffffff16565b600160008a73ffffffffffffffffffffffffffffffffffffffff1673ffffffffffffffffffffffffffffffffffffffff168152602001908152602001600020600085815260200190815260200160002081905550600260008973ffffffffffffffffffffffffffffffffffffffff1673ffffffffffffffffffffffffffffffffffffffff1681526020019081526020016000208390806001815401808255809150509060018203906000526020600020016000909192909190915055507fe04fc8b1d10312fa8c6ef57ef457c0a0a45442cfa662ff31c2f73213d98517f08a868b8b8b8b8a604051808881526020018773ffffffffffffffffffffffffffffffffffffffff1673ffffffffffffffffffffffffffffffffffffffff1681526020018673ffffffffffffffffffffffffffffffffffffffff1673ffffffffffffffffffffffffffffffffffffffff1681526020018573ffffffffffffffffffffffffffffffffffffffff1673ffffffffffffffffffffffffffffffffffffffff1681526020018481526020018060200180602001838103835285818151815260200191508051906020019080838360005b838110156162b757808201518184015260208101905061629c565b50505050905090810190601f1680156162e45780820380516001836020036101000a031916815260200191505b50838103825284818151815260200191508051906020019080838360005b8381101561631d578082015181840152602081019050616302565b50505050905090810190601f16801561634a5780820380516001836020036101000a031916815260200191505b50995050505050505050505060405180910390a160008060008b73ffffffffffffffffffffffffffffffffffffffff1673ffffffffffffffffffffffffffffffffffffffff1681526020019081526020016000205414156163b0576163ae89617d34565b505b601c60009054906101000a900460ff1615616465577fddf252ad1be2c89b69c2b068fc378daa952ba7f163c4a11628f55a4df523b3ef898989604051808473ffffffffffffffffffffffffffffffffffffffff1673ffffffffffffffffffffffffffffffffffffffff1681526020018373ffffffffffffffffffffffffffffffffffffffff1673ffffffffffffffffffffffffffffffffffffffff168152602001828152602001935050505060405180910390a15b8292505050979650505050505050565b60008083831115151561648757600080fd5b82840390508091505092915050565b6060600080600080886000808d73ffffffffffffffffffffffffffffffffffffffff1673ffffffffffffffffffffffffffffffffffffffff168152602001908152602001600020541015151561657a576040517f08c379a00000000000000000000000000000000000000000000000000000000081526004018080602001828103825260358152602001807f6e6f7420656e6f7567682067656e6572616c2066756e64696e6720666f72207481526020017f72616e73616374696f6e206f6e206163636f756e74000000000000000000000081525060400191505060405180910390fd5b600260008c73ffffffffffffffffffffffffffffffffffffffff1673ffffffffffffffffffffffffffffffffffffffff16815260200190815260200160002080548060200260200160405190810160405280929190818152602001828054801561660357602002820191906000526020600020905b8154815260200190600101908083116165ef575b5050505050945060009350600192505b8884101561675d57848386510381518110151561662c57fe5b90602001906020020151915061664b848a61647590919063ffffffff16565b600160008d73ffffffffffffffffffffffffffffffffffffffff1673ffffffffffffffffffffffffffffffffffffffff1681526020019081526020016000206000848152602001908152602001600020541015156166ca576166c4828c8c6166bc888e61647590919063ffffffff16565b8c8c8c615691565b5061675d565b600160008c73ffffffffffffffffffffffffffffffffffffffff1673ffffffffffffffffffffffffffffffffffffffff168152602001908152602001600020600083815260200190815260200160002054905061672c828c8c848c8c8c615691565b50616740818561567090919063ffffffff16565b935061675660018461567090919063ffffffff16565b9250616613565b5050505050505050505050565b600080600084141561677f57600091506167a1565b828402905082848281151561679057fe5b0414151561679d57600080fd5b8091505b5092915050565b816000600d54828115156167b857fe5b06141515616854576040517f08c379a00000000000000000000000000000000000000000000000000000000081526004018080602001828103825260338152602001807f756e61626c6520746f206d6f6469667920746f6b656e2062616c616e6365732081526020017f61742074686973206772616e756c61726974790000000000000000000000000081525060400191505060405180910390fd5b82600160008673ffffffffffffffffffffffffffffffffffffffff1673ffffffffffffffffffffffffffffffffffffffff16815260200190815260200160002060008781526020019081526020016000205410151515616942576040517f08c379a000000000000000000000000000000000000000000000000000000000815260040180806020018281038252602b8152602001807f6e6f7420656e6f756768207472616e6368652d73706563696669632066756e6481526020017f696e6720746f206275726e00000000000000000000000000000000000000000081525060400191505060405180910390fd5b61695783600e5461647590919063ffffffff16565b600e819055506169ae836000808773ffffffffffffffffffffffffffffffffffffffff1673ffffffffffffffffffffffffffffffffffffffff1681526020019081526020016000205461647590919063ffffffff16565b6000808673ffffffffffffffffffffffffffffffffffffffff1673ffffffffffffffffffffffffffffffffffffffff16815260200190815260200160002081905550616a5383600160008773ffffffffffffffffffffffffffffffffffffffff1673ffffffffffffffffffffffffffffffffffffffff16815260200190815260200160002060008881526020019081526020016000205461647590919063ffffffff16565b507fa1c85a30dec08aa526dc5a3ca33087f723335ec5c1614ecf0036da150a6971c88533868686604051808681526020018573ffffffffffffffffffffffffffffffffffffffff1673ffffffffffffffffffffffffffffffffffffffff1681526020018473ffffffffffffffffffffffffffffffffffffffff1673ffffffffffffffffffffffffffffffffffffffff16815260200183815260200180602001828103825283818151815260200191508051906020019080838360005b83811015616b2a578082015181840152602081019050616b0f565b50505050905090810190601f168015616b575780820380516001836020036101000a031916815260200191505b50965050505050505060405180910390a17fea01d24fee0ecbb349ab449ea41d11599fd91ba758653579b30d38d63e2adedb33858585604051808573ffffffffffffffffffffffffffffffffffffffff1673ffffffffffffffffffffffffffffffffffffffff1681526020018473ffffffffffffffffffffffffffffffffffffffff1673ffffffffffffffffffffffffffffffffffffffff16815260200183815260200180602001828103825283818151815260200191508051906020019080838360005b83811015616c37578082015181840152602081019050616c1c565b50505050905090810190601f168015616c645780820380516001836020036101000a031916815260200191505b509550505050505060405180910390a160008060008673ffffffffffffffffffffffffffffffffffffffff1673ffffffffffffffffffffffffffffffffffffffff168152602001908152602001600020541415616cc657616cc484617d34565b505b601c60009054906101000a900460ff1615616d7c577fddf252ad1be2c89b69c2b068fc378daa952ba7f163c4a11628f55a4df523b3ef84600085604051808473ffffffffffffffffffffffffffffffffffffffff1673ffffffffffffffffffffffffffffffffffffffff1681526020018373ffffffffffffffffffffffffffffffffffffffff1673ffffffffffffffffffffffffffffffffffffffff168152602001828152602001935050505060405180910390a15b5050505050565b6000806060600080866000600d5482811515616d9b57fe5b06141515616e37576040517f08c379a00000000000000000000000000000000000000000000000000000000081526004018080602001828103825260338152602001807f756e61626c6520746f206d6f6469667920746f6b656e2062616c616e6365732081526020017f61742074686973206772616e756c61726974790000000000000000000000000081525060400191505060405180910390fd5b876000808b73ffffffffffffffffffffffffffffffffffffffff1673ffffffffffffffffffffffffffffffffffffffff1681526020019081526020016000205410151515616eed576040517f08c379a000000000000000000000000000000000000000000000000000000000815260040180806020018281038252601a8152602001807f6e6f7420656e6f7567682066756e64696e6720746f206275726e00000000000081525060200191505060405180910390fd5b60009550600194505b8786101561752057600260008a73ffffffffffffffffffffffffffffffffffffffff1673ffffffffffffffffffffffffffffffffffffffff168152602001908152602001600020805480602002602001604051908101604052809291908181526020018280548015616f8757602002820191906000526020600020905b815481526020019060010190808311616f73575b505050505093508385855103815181101515616f9f57fe5b906020019060200201519250616fbe868961647590919063ffffffff16565b600160008b73ffffffffffffffffffffffffffffffffffffffff1673ffffffffffffffffffffffffffffffffffffffff1681526020019081526020016000206000858152602001908152602001600020541015156172775761703d61702c878a61647590919063ffffffff16565b600e5461647590919063ffffffff16565b600e819055506170a6617059878a61647590919063ffffffff16565b6000808c73ffffffffffffffffffffffffffffffffffffffff1673ffffffffffffffffffffffffffffffffffffffff1681526020019081526020016000205461647590919063ffffffff16565b6000808b73ffffffffffffffffffffffffffffffffffffffff1673ffffffffffffffffffffffffffffffffffffffff1681526020019081526020016000208190555061715d6170fe878a61647590919063ffffffff16565b600160008c73ffffffffffffffffffffffffffffffffffffffff1673ffffffffffffffffffffffffffffffffffffffff16815260200190815260200160002060008681526020019081526020016000205461647590919063ffffffff16565b507fa1c85a30dec08aa526dc5a3ca33087f723335ec5c1614ecf0036da150a6971c883338b8b8b604051808681526020018573ffffffffffffffffffffffffffffffffffffffff1673ffffffffffffffffffffffffffffffffffffffff1681526020018473ffffffffffffffffffffffffffffffffffffffff1673ffffffffffffffffffffffffffffffffffffffff16815260200183815260200180602001828103825283818151815260200191508051906020019080838360005b83811015617234578082015181840152602081019050617219565b50505050905090810190601f1680156172615780820380516001836020036101000a031916815260200191505b50965050505050505060405180910390a1617520565b600160008a73ffffffffffffffffffffffffffffffffffffffff1673ffffffffffffffffffffffffffffffffffffffff16815260200190815260200160002060008481526020019081526020016000205491506172df82600e5461647590919063ffffffff16565b600e81905550617336826000808c73ffffffffffffffffffffffffffffffffffffffff1673ffffffffffffffffffffffffffffffffffffffff1681526020019081526020016000205461647590919063ffffffff16565b6000808b73ffffffffffffffffffffffffffffffffffffffff1673ffffffffffffffffffffffffffffffffffffffff168152602001908152602001600020819055506173db82600160008c73ffffffffffffffffffffffffffffffffffffffff1673ffffffffffffffffffffffffffffffffffffffff16815260200190815260200160002060008681526020019081526020016000205461647590919063ffffffff16565b506173ef828761567090919063ffffffff16565b955061740560018661567090919063ffffffff16565b94507fa1c85a30dec08aa526dc5a3ca33087f723335ec5c1614ecf0036da150a6971c883338b8b8b604051808681526020018573ffffffffffffffffffffffffffffffffffffffff1673ffffffffffffffffffffffffffffffffffffffff1681526020018473ffffffffffffffffffffffffffffffffffffffff1673ffffffffffffffffffffffffffffffffffffffff16815260200183815260200180602001828103825283818151815260200191508051906020019080838360005b838110156174dd5780820151818401526020810190506174c2565b50505050905090810190601f16801561750a5780820380516001836020036101000a031916815260200191505b50965050505050505060405180910390a1616ef6565b7fea01d24fee0ecbb349ab449ea41d11599fd91ba758653579b30d38d63e2adedb338a8a8a604051808573ffffffffffffffffffffffffffffffffffffffff1673ffffffffffffffffffffffffffffffffffffffff1681526020018473ffffffffffffffffffffffffffffffffffffffff1673ffffffffffffffffffffffffffffffffffffffff16815260200183815260200180602001828103825283818151815260200191508051906020019080838360005b838110156175ef5780820151818401526020810190506175d4565b50505050905090810190601f16801561761c5780820380516001836020036101000a031916815260200191505b509550505050505060405180910390a160008060008b73ffffffffffffffffffffffffffffffffffffffff1673ffffffffffffffffffffffffffffffffffffffff16815260200190815260200160002054141561767e5761767c89617d34565b505b601c60009054906101000a900460ff1615617734577fddf252ad1be2c89b69c2b068fc378daa952ba7f163c4a11628f55a4df523b3ef8960008a604051808473ffffffffffffffffffffffffffffffffffffffff1673ffffffffffffffffffffffffffffffffffffffff1681526020018373ffffffffffffffffffffffffffffffffffffffff1673ffffffffffffffffffffffffffffffffffffffff168152602001828152602001935050505060405180910390a15b505050505050505050565b60008060008373ffffffffffffffffffffffffffffffffffffffff16141561776a5760009150617775565b823b90506000811491505b50919050565b60008082601854604051602001808360001916600019168152602001828152602001925050506040516020818303038152906040526040518082805190602001908083835b6020831015156177e557805182526020820191506020810190506020830392506177c0565b6001836020036101000a038019825116818451168082178552505050505050905001915050604051809103902060019004905061782e600160185461567090919063ffffffff16565b506019548181151561783c57fe5b06915050919050565b60008061785183617dbf565b1561785f57600091506179da565b600160148490806001815401808255809150509060018203906000526020600020016000909192909190916101000a81548173ffffffffffffffffffffffffffffffffffffffff021916908373ffffffffffffffffffffffffffffffffffffffff16021790555003905080600560008573ffffffffffffffffffffffffffffffffffffffff1673ffffffffffffffffffffffffffffffffffffffff168152602001908152602001600020819055506001600460008573ffffffffffffffffffffffffffffffffffffffff1673ffffffffffffffffffffffffffffffffffffffff16815260200190815260200160002060006101000a81548160ff0219169083151502179055507f33dda5dca20a95bec563f7c6e810061b24d464536df0636a17d2d041b8b0c66d83601480549050604051808373ffffffffffffffffffffffffffffffffffffffff1673ffffffffffffffffffffffffffffffffffffffff1681526020018281526020019250505060405180910390a1600191505b50919050565b6000600190505b601480549050811015617c11576000601e6000601484815481101515617a0957fe5b9060005260206000200160009054906101000a900473ffffffffffffffffffffffffffffffffffffffff1673ffffffffffffffffffffffffffffffffffffffff1673ffffffffffffffffffffffffffffffffffffffff16815260200190815260200160002060000154141515617b0d576040517f08c379a000000000000000000000000000000000000000000000000000000000815260040180806020018281038252602a8152602001807f54686520726967687420746f20766f746520616c72656164792068617320626581526020017f656e206772616e7465640000000000000000000000000000000000000000000081525060400191505060405180910390fd5b600080601483815481101515617b1f57fe5b9060005260206000200160009054906101000a900473ffffffffffffffffffffffffffffffffffffffff1673ffffffffffffffffffffffffffffffffffffffff1673ffffffffffffffffffffffffffffffffffffffff16815260200190815260200160002054601e6000601484815481101515617b9857fe5b9060005260206000200160009054906101000a900473ffffffffffffffffffffffffffffffffffffffff1673ffffffffffffffffffffffffffffffffffffffff1673ffffffffffffffffffffffffffffffffffffffff1681526020019081526020016000206000018190555080806001019150506179e7565b50565b6000806003600084815260200190815260200160002060020154600360008581526020019081526020016000206001015401905080421015915050919050565b60008060185460405160200180807f72616e646f6d537472696e670000000000000000000000000000000000000000815250600c018281526020019150506040516020818303038152906040526040518082805190602001908083835b602083101515617cd65780518252602082019150602081019050602083039250617cb1565b6001836020036101000a0380198251168184511680821785525050505050509050019150506040518091039020600190049050617d1f600160185461567090919063ffffffff16565b5060195481811515617d2d57fe5b0691505090565b600080600560008473ffffffffffffffffffffffffffffffffffffffff1673ffffffffffffffffffffffffffffffffffffffff168152602001908152602001600020549050601481815481101515617d8857fe5b9060005260206000200160006101000a81549073ffffffffffffffffffffffffffffffffffffffff02191690556001915050919050565b600060011515617dce8361773f565b1515141515617e45576040517f08c379a00000000000000000000000000000000000000000000000000000000081526004018080602001828103825260158152602001807f6e6f74206120726567756c61722061646472657373000000000000000000000081525060200191505060405180910390fd5b600460008373ffffffffffffffffffffffffffffffffffffffff1673ffffffffffffffffffffffffffffffffffffffff16815260200190815260200160002060009054906101000a900460ff169050919050565b828054600181600116156101000203166002900490600052602060002090601f016020900481019282601f10617eda57805160ff1916838001178555617f08565b82800160010185558215617f08579182015b82811115617f07578251825591602001919060010190617eec565b5b509050617f159190617fb8565b5090565b6040805190810160405280600290602082028038833980820191505090505090565b8260028101928215617fa7579160200282015b82811115617fa65782518260006101000a81548173ffffffffffffffffffffffffffffffffffffffff021916908373ffffffffffffffffffffffffffffffffffffffff16021790555091602001919060010190617f4e565b5b509050617fb49190617fdd565b5090565b617fda91905b80821115617fd6576000816000905550600101617fbe565b5090565b90565b61801d91905b8082111561801957600081816101000a81549073ffffffffffffffffffffffffffffffffffffffff021916905550600101617fe3565b5090565b905600a165627a7a72305820327915e0640cb1d9358ff745dd4b95b1080f449f871e849658a5033f05f6c4e20029",
  "source": "pragma solidity ^0.4.24;\r\n\r\nimport \"./ConvertLib.sol\";\r\nimport \"./SafeMath.sol\";\r\nimport \"./EquityTokenFactory.sol\";\r\nimport \"./EquityToken.sol\";\r\nimport \"./EquityTokenTransaction.sol\";\r\n\r\ncontract EquityTokenTransactionHelper is EquityTokenTransaction {\r\n\r\n//-----TokenTransactions------------------------------------------------------------------------------------------------------------------\r\n  /* This section determines transaction protocolls of the issued equity token\r\n        - this section contains the public but forwarding send functions!\r\n        -\r\n        */\r\n\r\n    ///@dev fires an event after percentage of dividend is determined and transfered    \r\n    event Dividend(uint _txpercentage);\r\n\r\n    ///@notice native ERC777 send function\r\n    function send(address _to, uint _txamount) public returns(bool success_) {\r\n        _doSend(msg.sender, _to, _txamount, \"\", msg.sender, \"\");\r\n        return true;\r\n    }\r\n\r\n    function send(address _to, uint _txamount, bytes _userData) public returns(bool success_) {\r\n        _doSend(msg.sender, _to, _txamount, _userData, msg.sender, \"\");\r\n        return true;\r\n    }\r\n  \r\n    ///@notice Send _amount of tokens on behalf of the address _from to the address _to.\r\n    ///@param _userData Data generated by the user to be sent to the recipient\r\n    ///@param _operatorData Data generated by the operator to be sent to the recipient\r\n    ///@notice ERC777 mandatory\r\n    function operatorSend(address _from, address _to, uint _txamount, bytes _userData, bytes _operatorData) public returns(bool success_) {\r\n        require((isOperatorFor(msg.sender, _from)), \"sender is not authorized to operate with _from's account\");\r\n        _doSend(_from, _to, _txamount, _userData, msg.sender, _operatorData);\r\n        return true;\r\n    }\r\n\r\n    ///@return returning a trancheId allows to further distinct equity-tranches into sub-tranches by token holder\r\n    /// this enables token governance on company AND on token holder level (sub-tranches)\r\n    ///@notice native EIP1410 send function\r\n    function sendByTranche(uint _trancheId, address _to, uint _txamount) external returns(uint) {\r\n        uint receiverTrancheId_ = _doSend(_trancheId, msg.sender, _to, _txamount, \"\", msg.sender, \"\");\r\n        return receiverTrancheId_;\r\n    }\r\n    function sendByTranche(uint _trancheId, address _to, uint _txamount, bytes _userData) external returns(uint) {\r\n        uint receiverTrancheId_ = _doSend(_trancheId, msg.sender, _to, _txamount, _userData, msg.sender, \"\");\r\n        return receiverTrancheId_;\r\n    }\r\n\r\n    ///@notice Send _amount of tokens on behalf of the address _from to the address _to\r\n    ///@notice EIP1410 mandatory for backward interoperability with ERC777\r\n    function operatorSendByTranche(uint _trancheId, address _from, address _to, uint _txamount, bytes _userData, bytes _operatorData) external returns(uint) {\r\n        require((isOperatorFor(msg.sender, _from)), \"sender is not authorized to operate with _from's account\");\r\n        uint receiverTrancheId_ = _doSend(_trancheId, _from, _to, _txamount, _userData, msg.sender, _operatorData);\r\n        return receiverTrancheId_;\r\n    }\r\n\r\n    ///@dev transfers of security might fail to multiple reasons (e.g. identity of sender and receiver, trading limits, meta state of token)\r\n    ///@dev relies on EIP1066 for Ethereum Standard Codes (ESC) and ERC770 for tranching\r\n    ///@dev only possible to read error code of 'doSend -> require' statement with assembly { call } for more elaborated error messages (see Ethereum documentation)\r\n    ///@return ESC (byte), optional specific reason for failure (bytes32), (NOT IMPLEMENTED) destinantion tranche of the token beeing transfered (uint)\r\n    ///@notice EIP1400 proposal\r\n    function canSend(uint _trancheId, address _from, address _to, uint _txamount, bytes _userData) external returns(byte, bytes32, uint) {\r\n        uint receiverTrancheId_ = _doSend(_trancheId, _from, _to, _txamount, _userData, msg.sender, \"\");\r\n        if(receiverTrancheId_ > 0) {\r\n        return (hex\"01\", \"success\", receiverTrancheId_);}\r\n        else {\r\n        return (hex\"00\", \"failure\", receiverTrancheId_);}\r\n    }\r\n\r\n    ///@dev transfers token from A to B and fires event, additionally updates the TotalDistribution array (shareholder book)\r\n    ///@notice ERC20 mandatory\r\n    ///@dev with _preventLocking parameter, should return _doSend(msg.sender, _to, _txamount, \"\", msg.sender, \"\", false) false here!\r\n    function transfer(address _to, uint _txamount) public isERC20 returns(bool success_) {\r\n        _doSend(msg.sender, _to, _txamount, \"\", msg.sender, \"\");\r\n        return true;\r\n    }\r\n\r\n    ///@dev transfers token from A to B and fires event, additionally updates the TotalDistribution array (shareholder book); transferFrom should be used for withdrawing workflow\r\n    ///@notice ERC20 mandatory\r\n    function transferFrom(address _from, address _to, uint _txamount) public isERC20 returns(bool success_) {\r\n        require((_txamount <= allowed[_from][msg.sender]), \"no approval for transaction\");\r\n\r\n        //@security cannot be after doSend because of tokensReceived re-entry\r\n        allowed[_from][msg.sender] = allowed[_from][msg.sender].sub(_txamount);\r\n        _doSend(_from, _to, _txamount, \"\", msg.sender, \"\");\r\n        return true;\r\n    }\r\n\r\n    ///@dev pays a dividend to all owner of the shares depending on determined percentage of owners portfolio value\r\n    // dividend is uint (no decimals allowed) -> owners balance has to be divided by 100, to calculate in %\r\n    ///@notice starts with index 1 in array, as 0 is contract deployer = companyowner in most cases\r\n    ///@notice would be also possible with PAYABLE to pay in ether and withdraw() to send ether, but with stocks more elegant\r\n    ///@notice uses default tranches to pay for dividend\r\n    function payDividend(uint _txpercentage) external onlyOwnerOfCom {\r\n        uint _totaldividend;\r\n        for (uint i = 1; i < TotalDistribution.length; i++) {\r\n            uint _temp = _txpercentage.mul(OwnerToBalance[TotalDistribution[i]]/100);\r\n            _totaldividend = _totaldividend.add(_temp);\r\n        }\r\n        require((OwnerToBalance[msg.sender] >= _totaldividend), \"insufficient funding to pay dividend\");\r\n        for (uint j = 1; j < TotalDistribution.length; j++) {\r\n            uint _txamount = _txpercentage.mul(OwnerToBalance[TotalDistribution[j]]/100);\r\n            _doSend(msg.sender, TotalDistribution[j], _txamount, \"\", msg.sender, \"\");\r\n        }\r\n        emit Dividend(_txpercentage);\r\n    }\r\n    \r\n//-----TokenTransactions------------------------------------------------------------------------------------------------------------------    \r\n} ",
  "sourcePath": "/mnt/c/Solidity/solidity_eto/contracts/EquityTokenTransactionHelper.sol",
  "compiler": {
    "name": "solc",
    "version": "0.4.24+commit.e67f0147.Emscripten.clang"
  },
  "schemaVersion": "2.0.1",
  "updatedAt": "2018-12-17T21:08:18.042Z"
}