{
  "contractName": "EquityToken",
  "abi": [
    {
      "constant": false,
      "inputs": [
        {
          "name": "_spender",
          "type": "address"
        },
        {
          "name": "_txamount",
          "type": "uint256"
        }
      ],
      "name": "approve",
      "outputs": [
        {
          "name": "success_",
          "type": "bool"
        }
      ],
      "payable": false,
      "stateMutability": "nonpayable",
      "type": "function"
    },
    {
      "constant": true,
      "inputs": [
        {
          "name": "",
          "type": "uint256"
        }
      ],
      "name": "TotalDistribution",
      "outputs": [
        {
          "name": "",
          "type": "address"
        }
      ],
      "payable": false,
      "stateMutability": "view",
      "type": "function"
    },
    {
      "constant": true,
      "inputs": [],
      "name": "getInfosEquityToken",
      "outputs": [
        {
          "name": "",
          "type": "uint256"
        },
        {
          "name": "",
          "type": "bytes32"
        },
        {
          "name": "",
          "type": "bytes32"
        },
        {
          "name": "",
          "type": "uint256"
        }
      ],
      "payable": false,
      "stateMutability": "view",
      "type": "function"
    },
    {
      "constant": true,
      "inputs": [],
      "name": "totalSupply",
      "outputs": [
        {
          "name": "totalSupply_",
          "type": "uint256"
        }
      ],
      "payable": false,
      "stateMutability": "view",
      "type": "function"
    },
    {
      "constant": true,
      "inputs": [
        {
          "name": "_addr",
          "type": "address"
        }
      ],
      "name": "getBalanceOfInEth",
      "outputs": [
        {
          "name": "",
          "type": "uint256"
        }
      ],
      "payable": false,
      "stateMutability": "view",
      "type": "function"
    },
    {
      "constant": false,
      "inputs": [
        {
          "name": "_from",
          "type": "address"
        },
        {
          "name": "_to",
          "type": "address"
        },
        {
          "name": "_txamount",
          "type": "uint256"
        }
      ],
      "name": "transferFrom",
      "outputs": [
        {
          "name": "success_",
          "type": "bool"
        }
      ],
      "payable": false,
      "stateMutability": "nonpayable",
      "type": "function"
    },
    {
      "constant": false,
      "inputs": [
        {
          "name": "_txpercentage",
          "type": "uint256"
        }
      ],
      "name": "payDividend",
      "outputs": [],
      "payable": false,
      "stateMutability": "nonpayable",
      "type": "function"
    },
    {
      "constant": false,
      "inputs": [
        {
          "name": "_addr",
          "type": "address"
        }
      ],
      "name": "setCompanyOwner",
      "outputs": [],
      "payable": false,
      "stateMutability": "nonpayable",
      "type": "function"
    },
    {
      "constant": true,
      "inputs": [],
      "name": "ArtifactEquityToken",
      "outputs": [
        {
          "name": "tokenId",
          "type": "uint256"
        },
        {
          "name": "companyName",
          "type": "bytes32"
        },
        {
          "name": "tokenTicker",
          "type": "bytes32"
        },
        {
          "name": "totalamount",
          "type": "uint256"
        },
        {
          "name": "companyOwner",
          "type": "address"
        }
      ],
      "payable": false,
      "stateMutability": "view",
      "type": "function"
    },
    {
      "constant": true,
      "inputs": [
        {
          "name": "_addr",
          "type": "address"
        }
      ],
      "name": "balanceOf",
      "outputs": [
        {
          "name": "",
          "type": "uint256"
        }
      ],
      "payable": false,
      "stateMutability": "view",
      "type": "function"
    },
    {
      "constant": false,
      "inputs": [
        {
          "name": "_receiver",
          "type": "address"
        },
        {
          "name": "_txamount",
          "type": "uint256"
        }
      ],
      "name": "transfer",
      "outputs": [
        {
          "name": "success_",
          "type": "bool"
        }
      ],
      "payable": false,
      "stateMutability": "nonpayable",
      "type": "function"
    },
    {
      "constant": false,
      "inputs": [
        {
          "name": "_companyName",
          "type": "bytes32"
        },
        {
          "name": "_tokenTicker",
          "type": "bytes32"
        },
        {
          "name": "_totalamount",
          "type": "uint256"
        }
      ],
      "name": "createEquityToken",
      "outputs": [],
      "payable": false,
      "stateMutability": "nonpayable",
      "type": "function"
    },
    {
      "constant": false,
      "inputs": [
        {
          "name": "_message",
          "type": "string"
        }
      ],
      "name": "sendAdHocMessage",
      "outputs": [],
      "payable": false,
      "stateMutability": "nonpayable",
      "type": "function"
    },
    {
      "constant": true,
      "inputs": [],
      "name": "getAllAddressesEquityToken",
      "outputs": [
        {
          "name": "",
          "type": "address[]"
        }
      ],
      "payable": false,
      "stateMutability": "view",
      "type": "function"
    },
    {
      "constant": true,
      "inputs": [
        {
          "name": "",
          "type": "uint256"
        }
      ],
      "name": "Proposals",
      "outputs": [
        {
          "name": "name",
          "type": "bytes32"
        },
        {
          "name": "voteCount",
          "type": "uint256"
        }
      ],
      "payable": false,
      "stateMutability": "view",
      "type": "function"
    },
    {
      "constant": true,
      "inputs": [],
      "name": "getCompanyOwner",
      "outputs": [
        {
          "name": "",
          "type": "address"
        }
      ],
      "payable": false,
      "stateMutability": "view",
      "type": "function"
    },
    {
      "constant": true,
      "inputs": [
        {
          "name": "_owner",
          "type": "address"
        },
        {
          "name": "_spender",
          "type": "address"
        }
      ],
      "name": "allowance",
      "outputs": [
        {
          "name": "remaining",
          "type": "uint256"
        }
      ],
      "payable": false,
      "stateMutability": "view",
      "type": "function"
    },
    {
      "anonymous": false,
      "inputs": [
        {
          "indexed": false,
          "name": "tokenId",
          "type": "uint256"
        },
        {
          "indexed": false,
          "name": "totalamount",
          "type": "uint256"
        },
        {
          "indexed": false,
          "name": "companyowner",
          "type": "address"
        }
      ],
      "name": "newTokenIssuance",
      "type": "event"
    },
    {
      "anonymous": false,
      "inputs": [
        {
          "indexed": false,
          "name": "newShareholder",
          "type": "address"
        },
        {
          "indexed": false,
          "name": "length",
          "type": "uint256"
        }
      ],
      "name": "newShareholder",
      "type": "event"
    },
    {
      "anonymous": false,
      "inputs": [
        {
          "indexed": false,
          "name": "_txpercentage",
          "type": "uint256"
        }
      ],
      "name": "Dividend",
      "type": "event"
    },
    {
      "anonymous": false,
      "inputs": [
        {
          "indexed": false,
          "name": "_winnerName",
          "type": "bytes32"
        },
        {
          "indexed": false,
          "name": "_countVotes",
          "type": "uint256"
        }
      ],
      "name": "votingSuccessful",
      "type": "event"
    },
    {
      "anonymous": false,
      "inputs": [
        {
          "indexed": false,
          "name": "_message",
          "type": "string"
        }
      ],
      "name": "adHocMessage",
      "type": "event"
    },
    {
      "anonymous": false,
      "inputs": [
        {
          "indexed": false,
          "name": "_revenue",
          "type": "uint256"
        },
        {
          "indexed": false,
          "name": "_revenueforecast",
          "type": "uint256"
        }
      ],
      "name": "quaterlyUpdate",
      "type": "event"
    },
    {
      "anonymous": false,
      "inputs": [
        {
          "indexed": false,
          "name": "_from",
          "type": "address"
        },
        {
          "indexed": false,
          "name": "_to",
          "type": "address"
        },
        {
          "indexed": false,
          "name": "_txamount",
          "type": "uint256"
        }
      ],
      "name": "Transfer",
      "type": "event"
    },
    {
      "anonymous": false,
      "inputs": [
        {
          "indexed": false,
          "name": "_from",
          "type": "address"
        },
        {
          "indexed": false,
          "name": "_to",
          "type": "address"
        },
        {
          "indexed": false,
          "name": "_txamount",
          "type": "uint256"
        }
      ],
      "name": "Approval",
      "type": "event"
    },
    {
      "constant": false,
      "inputs": [
        {
          "name": "proposalNames",
          "type": "bytes32[]"
        }
      ],
      "name": "startBallot",
      "outputs": [],
      "payable": false,
      "stateMutability": "nonpayable",
      "type": "function"
    },
    {
      "constant": false,
      "inputs": [
        {
          "name": "_to",
          "type": "address"
        }
      ],
      "name": "delegate",
      "outputs": [],
      "payable": false,
      "stateMutability": "nonpayable",
      "type": "function"
    },
    {
      "constant": false,
      "inputs": [
        {
          "name": "_proposal",
          "type": "uint256"
        }
      ],
      "name": "vote",
      "outputs": [],
      "payable": false,
      "stateMutability": "nonpayable",
      "type": "function"
    },
    {
      "constant": false,
      "inputs": [],
      "name": "winningProposal",
      "outputs": [
        {
          "name": "winnerName_",
          "type": "bytes32"
        }
      ],
      "payable": false,
      "stateMutability": "nonpayable",
      "type": "function"
    },
    {
      "constant": false,
      "inputs": [],
      "name": "getProposals",
      "outputs": [
        {
          "name": "",
          "type": "bytes32[]"
        }
      ],
      "payable": false,
      "stateMutability": "nonpayable",
      "type": "function"
    },
    {
      "constant": true,
      "inputs": [
        {
          "name": "_index",
          "type": "uint256"
        }
      ],
      "name": "getVoteCount",
      "outputs": [
        {
          "name": "voteCount_",
          "type": "uint256"
        }
      ],
      "payable": false,
      "stateMutability": "view",
      "type": "function"
    }
  ],
  "bytecode": "0x60806040526305f5e100600a556001600b5534801561001d57600080fd5b50612c508061002d6000396000f300608060405260043610610133576000357c0100000000000000000000000000000000000000000000000000000000900463ffffffff1680630121b93f14610138578063095ea7b3146101655780630b366df1146101ca5780631348bf221461023757806318160ddd1461028757806318d46718146102b257806323b872dd146103095780632515994e1461038e5780632d3d3f9c146103bb5780634f86ef33146103fe5780635c19a95c14610481578063609ff1bd146104c457806362564c48146104f757806370a0823114610563578063a9059cbb146105ba578063b19e9a761461061f578063b2c2f2e814610668578063c018f1d0146106a9578063c073d83614610712578063d1dbe7d81461077e578063dad3e6dd146107ce578063dd62ed3e14610825578063fc1865a01461089c575b600080fd5b34801561014457600080fd5b5061016360048036038101908080359060200190929190505050610902565b005b34801561017157600080fd5b506101b0600480360381019080803573ffffffffffffffffffffffffffffffffffffffff16906020019092919080359060200190929190505050610a4e565b604051808215151515815260200191505060405180910390f35b3480156101d657600080fd5b506101f560048036038101908080359060200190929190505050610c27565b604051808273ffffffffffffffffffffffffffffffffffffffff1673ffffffffffffffffffffffffffffffffffffffff16815260200191505060405180910390f35b34801561024357600080fd5b5061024c610c65565b604051808581526020018460001916600019168152602001836000191660001916815260200182815260200194505050505060405180910390f35b34801561029357600080fd5b5061029c610c91565b6040518082815260200191505060405180910390f35b3480156102be57600080fd5b506102f3600480360381019080803573ffffffffffffffffffffffffffffffffffffffff169060200190929190505050610ca1565b6040518082815260200191505060405180910390f35b34801561031557600080fd5b50610374600480360381019080803573ffffffffffffffffffffffffffffffffffffffff169060200190929190803573ffffffffffffffffffffffffffffffffffffffff16906020019092919080359060200190929190505050610d61565b604051808215151515815260200191505060405180910390f35b34801561039a57600080fd5b506103b96004803603810190808035906020019092919050505061112d565b005b3480156103c757600080fd5b506103fc600480360381019080803573ffffffffffffffffffffffffffffffffffffffff1690602001909291905050506114c6565b005b34801561040a57600080fd5b506104136115d3565b60405180868152602001856000191660001916815260200184600019166000191681526020018381526020018273ffffffffffffffffffffffffffffffffffffffff1673ffffffffffffffffffffffffffffffffffffffff1681526020019550505050505060405180910390f35b34801561048d57600080fd5b506104c2600480360381019080803573ffffffffffffffffffffffffffffffffffffffff169060200190929190505050611617565b005b3480156104d057600080fd5b506104d9611a6f565b60405180826000191660001916815260200191505060405180910390f35b34801561050357600080fd5b5061050c611c21565b6040518080602001828103825283818151815260200191508051906020019060200280838360005b8381101561054f578082015181840152602081019050610534565b505050509050019250505060405180910390f35b34801561056f57600080fd5b506105a4600480360381019080803573ffffffffffffffffffffffffffffffffffffffff169060200190929190505050611cf1565b6040518082815260200191505060405180910390f35b3480156105c657600080fd5b50610605600480360381019080803573ffffffffffffffffffffffffffffffffffffffff16906020019092919080359060200190929190505050611d39565b604051808215151515815260200191505060405180910390f35b34801561062b57600080fd5b506106666004803603810190808035600019169060200190929190803560001916906020019092919080359060200190929190505050612011565b005b34801561067457600080fd5b5061069360048036038101908080359060200190929190505050612030565b6040518082815260200191505060405180910390f35b3480156106b557600080fd5b50610710600480360381019080803590602001908201803590602001908080601f016020809104026020016040519081016040528093929190818152602001838380828437820191505050505050919291929050505061205d565b005b34801561071e57600080fd5b506107276121c3565b6040518080602001828103825283818151815260200191508051906020019060200280838360005b8381101561076a57808201518184015260208101905061074f565b505050509050019250505060405180910390f35b34801561078a57600080fd5b506107a960048036038101908080359060200190929190505050612251565b6040518083600019166000191681526020018281526020019250505060405180910390f35b3480156107da57600080fd5b506107e3612284565b604051808273ffffffffffffffffffffffffffffffffffffffff1673ffffffffffffffffffffffffffffffffffffffff16815260200191505060405180910390f35b34801561083157600080fd5b50610886600480360381019080803573ffffffffffffffffffffffffffffffffffffffff169060200190929190803573ffffffffffffffffffffffffffffffffffffffff1690602001909291905050506122b0565b6040518082815260200191505060405180910390f35b3480156108a857600080fd5b5061090060048036038101908080359060200190820180359060200190808060200260200160405190810160405280939291908181526020018383602002808284378201915050505050509192919290505050612337565b005b6000600c60003373ffffffffffffffffffffffffffffffffffffffff1673ffffffffffffffffffffffffffffffffffffffff16815260200190815260200160002090508060010160009054906101000a900460ff161515156109cc576040517f08c379a000000000000000000000000000000000000000000000000000000000815260040180806020018281038252600d8152602001807f416c726561647920766f7465640000000000000000000000000000000000000081525060200191505060405180910390fd5b60018160010160006101000a81548160ff021916908315150217905550818160020181905550610a266064600d84815481101515610a0657fe5b90600052602060002090600202016001015461252790919063ffffffff16565b600d83815481101515610a3557fe5b9060005260206000209060020201600101819055505050565b6000816000600b5482811515610a6057fe5b06141515610afc576040517f08c379a00000000000000000000000000000000000000000000000000000000081526004018080602001828103825260338152602001807f756e61626c6520746f206d6f6469667920746f6b656e2062616c616e6365732081526020017f61742074686973206772616e756c61726974790000000000000000000000000081525060400191505060405180910390fd5b82600360003373ffffffffffffffffffffffffffffffffffffffff1673ffffffffffffffffffffffffffffffffffffffff16815260200190815260200160002060008673ffffffffffffffffffffffffffffffffffffffff1673ffffffffffffffffffffffffffffffffffffffff168152602001908152602001600020819055507f8c5be1e5ebec7d5bd14f71427d1e84f3dd0314c0f7b2291e5b200ac8c7c3b925338585604051808473ffffffffffffffffffffffffffffffffffffffff1673ffffffffffffffffffffffffffffffffffffffff1681526020018373ffffffffffffffffffffffffffffffffffffffff1673ffffffffffffffffffffffffffffffffffffffff168152602001828152602001935050505060405180910390a1600191505092915050565b600981815481101515610c3657fe5b906000526020600020016000915054906101000a900473ffffffffffffffffffffffffffffffffffffffff1681565b600080600080600460000154600460010154600460020154600460030154935093509350935090919293565b6000600460030154905080905090565b600073__ConvertLib____________________________6396e4ee3d610cc684611cf1565b60036040518363ffffffff167c0100000000000000000000000000000000000000000000000000000000028152600401808381526020018281526020019250505060206040518083038186803b158015610d1f57600080fd5b505af4158015610d33573d6000803e3d6000fd5b505050506040513d6020811015610d4957600080fd5b81019080805190602001909291905050509050919050565b600080826000600b5482811515610d7457fe5b06141515610e10576040517f08c379a00000000000000000000000000000000000000000000000000000000081526004018080602001828103825260338152602001807f756e61626c6520746f206d6f6469667920746f6b656e2062616c616e6365732081526020017f61742074686973206772616e756c61726974790000000000000000000000000081525060400191505060405180910390fd5b600360008773ffffffffffffffffffffffffffffffffffffffff1673ffffffffffffffffffffffffffffffffffffffff16815260200190815260200160002060003373ffffffffffffffffffffffffffffffffffffffff1673ffffffffffffffffffffffffffffffffffffffff168152602001908152602001600020549150836000808873ffffffffffffffffffffffffffffffffffffffff1673ffffffffffffffffffffffffffffffffffffffff1681526020019081526020016000205410158015610edd5750838210155b1515610f51576040517f08c379a000000000000000000000000000000000000000000000000000000000815260040180806020018281038252601b8152602001807f6e6f20617070726f76616c20666f72207472616e73616374696f6e000000000081525060200191505060405180910390fd5b610fa2846000808973ffffffffffffffffffffffffffffffffffffffff1673ffffffffffffffffffffffffffffffffffffffff1681526020019081526020016000205461254890919063ffffffff16565b6000808873ffffffffffffffffffffffffffffffffffffffff1673ffffffffffffffffffffffffffffffffffffffff16815260200190815260200160002081905550611035846000808873ffffffffffffffffffffffffffffffffffffffff1673ffffffffffffffffffffffffffffffffffffffff1681526020019081526020016000205461252790919063ffffffff16565b6000808773ffffffffffffffffffffffffffffffffffffffff1673ffffffffffffffffffffffffffffffffffffffff1681526020019081526020016000208190555061108085612569565b507fddf252ad1be2c89b69c2b068fc378daa952ba7f163c4a11628f55a4df523b3ef868686604051808473ffffffffffffffffffffffffffffffffffffffff1673ffffffffffffffffffffffffffffffffffffffff1681526020018373ffffffffffffffffffffffffffffffffffffffff1673ffffffffffffffffffffffffffffffffffffffff168152602001828152602001935050505060405180910390a16001925050509392505050565b6000806000806000735b424a76cd8f418a067149287a1c333a6d5ec9593373ffffffffffffffffffffffffffffffffffffffff161415156111fc576040517f08c379a00000000000000000000000000000000000000000000000000000000081526004018080602001828103825260298152602001807f726571756972656d656e74206f6e6c794f776e6572206f6620436f6d70616e7981526020017f206d6f646966696572000000000000000000000000000000000000000000000081525060400191505060405180910390fd5b600193505b6009805490508410156112bc5761129860008060098781548110151561122357fe5b9060005260206000200160009054906101000a900473ffffffffffffffffffffffffffffffffffffffff1673ffffffffffffffffffffffffffffffffffffffff1673ffffffffffffffffffffffffffffffffffffffff168152602001908152602001600020548761270490919063ffffffff16565b92506112ad838661252790919063ffffffff16565b94508380600101945050611201565b846000803373ffffffffffffffffffffffffffffffffffffffff1673ffffffffffffffffffffffffffffffffffffffff1681526020019081526020016000205410151515611398576040517f08c379a00000000000000000000000000000000000000000000000000000000081526004018080602001828103825260248152602001807f696e73756666696369656e742066756e64696e6720746f20706179206469766981526020017f64656e640000000000000000000000000000000000000000000000000000000081525060400191505060405180910390fd5b600191505b600980549050821015611487576114346000806009858154811015156113bf57fe5b9060005260206000200160009054906101000a900473ffffffffffffffffffffffffffffffffffffffff1673ffffffffffffffffffffffffffffffffffffffff1673ffffffffffffffffffffffffffffffffffffffff168152602001908152602001600020548761270490919063ffffffff16565b905061147960098381548110151561144857fe5b9060005260206000200160009054906101000a900473ffffffffffffffffffffffffffffffffffffffff1682611d39565b50818060010192505061139d565b7f69c382338c74e0d3a990efe1a52ae89dcf6a9ab705628ec4424f49cddd4e2f89866040518082815260200191505060405180910390a1505050505050565b735b424a76cd8f418a067149287a1c333a6d5ec9593373ffffffffffffffffffffffffffffffffffffffff1614151561158d576040517f08c379a00000000000000000000000000000000000000000000000000000000081526004018080602001828103825260298152602001807f726571756972656d656e74206f6e6c794f776e6572206f6620436f6d70616e7981526020017f206d6f646966696572000000000000000000000000000000000000000000000081525060400191505060405180910390fd5b806004800160006101000a81548173ffffffffffffffffffffffffffffffffffffffff021916908373ffffffffffffffffffffffffffffffffffffffff16021790555050565b60048060000154908060010154908060020154908060030154908060040160009054906101000a900473ffffffffffffffffffffffffffffffffffffffff16905085565b600080600c60003373ffffffffffffffffffffffffffffffffffffffff1673ffffffffffffffffffffffffffffffffffffffff16815260200190815260200160002091508160010160009054906101000a900460ff161515156116e2576040517f08c379a00000000000000000000000000000000000000000000000000000000081526004018080602001828103825260118152602001807f596f7520616c726561647920766f74656400000000000000000000000000000081525060200191505060405180910390fd5b3373ffffffffffffffffffffffffffffffffffffffff168373ffffffffffffffffffffffffffffffffffffffff1614151515611786576040517f08c379a000000000000000000000000000000000000000000000000000000000815260040180806020018281038252601d8152602001807f53656c662d64656c65676174696f6e20697320646973616c6c6f77656400000081525060200191505060405180910390fd5b5b600073ffffffffffffffffffffffffffffffffffffffff16600c60008573ffffffffffffffffffffffffffffffffffffffff1673ffffffffffffffffffffffffffffffffffffffff16815260200190815260200160002060010160019054906101000a900473ffffffffffffffffffffffffffffffffffffffff1673ffffffffffffffffffffffffffffffffffffffff1614151561192d57600c60008473ffffffffffffffffffffffffffffffffffffffff1673ffffffffffffffffffffffffffffffffffffffff16815260200190815260200160002060010160019054906101000a900473ffffffffffffffffffffffffffffffffffffffff1692503373ffffffffffffffffffffffffffffffffffffffff168373ffffffffffffffffffffffffffffffffffffffff1614151515611928576040517f08c379a000000000000000000000000000000000000000000000000000000000815260040180806020018281038252601a8152602001807f466f756e642073656c662d64656c65676174696f6e206c6f6f7000000000000081525060200191505060405180910390fd5b611787565b60018260010160006101000a81548160ff021916908315150217905550828260010160016101000a81548173ffffffffffffffffffffffffffffffffffffffff021916908373ffffffffffffffffffffffffffffffffffffffff160217905550600c60008473ffffffffffffffffffffffffffffffffffffffff1673ffffffffffffffffffffffffffffffffffffffff16815260200190815260200160002090508060010160009054906101000a900460ff1615611a4d57611a208260000154600d8360020154815481101515611a0057fe5b90600052602060002090600202016001015461252790919063ffffffff16565b600d8260020154815481101515611a3357fe5b906000526020600020906002020160010181905550611a6a565b611a688260000154826000015461252790919063ffffffff16565b505b505050565b600080600080735b424a76cd8f418a067149287a1c333a6d5ec9593373ffffffffffffffffffffffffffffffffffffffff16141515611b3c576040517f08c379a00000000000000000000000000000000000000000000000000000000081526004018080602001828103825260298152602001807f726571756972656d656e74206f6e6c794f776e6572206f6620436f6d70616e7981526020017f206d6f646966696572000000000000000000000000000000000000000000000081525060400191505060405180910390fd5b60009250600091505b600d80549050821015611bae5782600d83815481101515611b6257fe5b9060005260206000209060020201600101541115611ba157600d82815481101515611b8957fe5b90600052602060002090600202016001015492508190505b8180600101925050611b45565b600d81815481101515611bbd57fe5b90600052602060002090600202016000015493507f64cc588a379a8af63188f3443e70b4fa4e3cdad188fd65e3b7b283c2084cddc784846040518083600019166000191681526020018281526020019250505060405180910390a183935050505090565b6060600080600090505b600d80549050811015611c965781600d82815481101515611c4857fe5b90600052602060002090600202016000015490806001815401808255809150509060018203906000526020600020016000909192909190915090600019169055508080600101915050611c2b565b81805480602002602001604051908101604052809291908181526020018280548015611ce557602002820191906000526020600020905b81546000191681526020019060010190808311611ccd575b50505050509250505090565b60008060008373ffffffffffffffffffffffffffffffffffffffff1673ffffffffffffffffffffffffffffffffffffffff168152602001908152602001600020549050919050565b6000816000600b5482811515611d4b57fe5b06141515611de7576040517f08c379a00000000000000000000000000000000000000000000000000000000081526004018080602001828103825260338152602001807f756e61626c6520746f206d6f6469667920746f6b656e2062616c616e6365732081526020017f61742074686973206772616e756c61726974790000000000000000000000000081525060400191505060405180910390fd5b826000803373ffffffffffffffffffffffffffffffffffffffff1673ffffffffffffffffffffffffffffffffffffffff168152602001908152602001600020541015611e36576000915061200a565b611e87836000803373ffffffffffffffffffffffffffffffffffffffff1673ffffffffffffffffffffffffffffffffffffffff1681526020019081526020016000205461254890919063ffffffff16565b6000803373ffffffffffffffffffffffffffffffffffffffff1673ffffffffffffffffffffffffffffffffffffffff16815260200190815260200160002081905550611f1a836000808773ffffffffffffffffffffffffffffffffffffffff1673ffffffffffffffffffffffffffffffffffffffff1681526020019081526020016000205461252790919063ffffffff16565b6000808673ffffffffffffffffffffffffffffffffffffffff1673ffffffffffffffffffffffffffffffffffffffff16815260200190815260200160002081905550611f6584612569565b507fddf252ad1be2c89b69c2b068fc378daa952ba7f163c4a11628f55a4df523b3ef338585604051808473ffffffffffffffffffffffffffffffffffffffff1673ffffffffffffffffffffffffffffffffffffffff1681526020018373ffffffffffffffffffffffffffffffffffffffff1673ffffffffffffffffffffffffffffffffffffffff168152602001828152602001935050505060405180910390a1600191505b5092915050565b600061201c84612742565b905061202a8185858561280e565b50505050565b6000600d8281548110151561204157fe5b9060005260206000209060020201600101549050809050919050565b735b424a76cd8f418a067149287a1c333a6d5ec9593373ffffffffffffffffffffffffffffffffffffffff16141515612124576040517f08c379a00000000000000000000000000000000000000000000000000000000081526004018080602001828103825260298152602001807f726571756972656d656e74206f6e6c794f776e6572206f6620436f6d70616e7981526020017f206d6f646966696572000000000000000000000000000000000000000000000081525060400191505060405180910390fd5b7fd31837726e1c2300674c4f61cbca20d328982c580b36e10175d41d75abc3a020816040518080602001828103825283818151815260200191508051906020019080838360005b8381101561218657808201518184015260208101905061216b565b50505050905090810190601f1680156121b35780820380516001836020036101000a031916815260200191505b509250505060405180910390a150565b6060600980548060200260200160405190810160405280929190818152602001828054801561224757602002820191906000526020600020905b8160009054906101000a900473ffffffffffffffffffffffffffffffffffffffff1673ffffffffffffffffffffffffffffffffffffffff16815260200190600101908083116121fd575b5050505050905090565b600d8181548110151561226057fe5b90600052602060002090600202016000915090508060000154908060010154905082565b60006004800160009054906101000a900473ffffffffffffffffffffffffffffffffffffffff16905090565b6000600360008473ffffffffffffffffffffffffffffffffffffffff1673ffffffffffffffffffffffffffffffffffffffff16815260200190815260200160002060008373ffffffffffffffffffffffffffffffffffffffff1673ffffffffffffffffffffffffffffffffffffffff16815260200190815260200160002054905092915050565b6000735b424a76cd8f418a067149287a1c333a6d5ec9593373ffffffffffffffffffffffffffffffffffffffff16141515612400576040517f08c379a00000000000000000000000000000000000000000000000000000000081526004018080602001828103825260298152602001807f726571756972656d656e74206f6e6c794f776e6572206f6620436f6d70616e7981526020017f206d6f646966696572000000000000000000000000000000000000000000000081525060400191505060405180910390fd5b600090505b815181101561249657600d6040805190810160405280848481518110151561242957fe5b9060200190602002015160001916815260200160008152509080600181540180825580915050906001820390600052602060002090600202016000909192909190915060008201518160000190600019169055602082015181600101555050508080600101915050612405565b6000803373ffffffffffffffffffffffffffffffffffffffff1673ffffffffffffffffffffffffffffffffffffffff16815260200190815260200160002054600c60003373ffffffffffffffffffffffffffffffffffffffff1673ffffffffffffffffffffffffffffffffffffffff1681526020019081526020016000206000018190555061252361299a565b5050565b600080828401905083811015151561253e57600080fd5b8091505092915050565b60008083831115151561255a57600080fd5b82840390508091505092915050565b60008061257583612bce565b1561258357600091506126fe565b600160098490806001815401808255809150509060018203906000526020600020016000909192909190916101000a81548173ffffffffffffffffffffffffffffffffffffffff021916908373ffffffffffffffffffffffffffffffffffffffff16021790555003905080600160008573ffffffffffffffffffffffffffffffffffffffff1673ffffffffffffffffffffffffffffffffffffffff168152602001908152602001600020819055506001600260008573ffffffffffffffffffffffffffffffffffffffff1673ffffffffffffffffffffffffffffffffffffffff16815260200190815260200160002060006101000a81548160ff0219169083151502179055507f33dda5dca20a95bec563f7c6e810061b24d464536df0636a17d2d041b8b0c66d83600980549050604051808373ffffffffffffffffffffffffffffffffffffffff1673ffffffffffffffffffffffffffffffffffffffff1681526020018281526020019250505060405180910390a1600191505b50919050565b6000806000841415612719576000915061273b565b828402905082848281151561272a57fe5b0414151561273757600080fd5b8091505b5092915050565b60008060008091508382604051602001808360001916600019168152602001828152602001925050506040516020818303038152906040526040518082805190602001908083835b6020831015156127af578051825260208201915060208101905060208303925061278a565b6001836020036101000a03801982511681845116808217855250505050505090500191505060405180910390206001900490506127f660018361252790919063ffffffff16565b50600a548181151561280457fe5b0692505050919050565b60a06040519081016040528085815260200184600019168152602001836000191681526020018281526020013373ffffffffffffffffffffffffffffffffffffffff1681525060046000820151816000015560208201518160010190600019169055604082015181600201906000191690556060820151816003015560808201518160040160006101000a81548173ffffffffffffffffffffffffffffffffffffffff021916908373ffffffffffffffffffffffffffffffffffffffff1602179055509050506128dd33612569565b50806000803373ffffffffffffffffffffffffffffffffffffffff1673ffffffffffffffffffffffffffffffffffffffff168152602001908152602001600020819055507f63a291ebe44f54e4241914744d7bb9504ffbb9e14a03309176a7e720e787a9fd848233604051808481526020018381526020018273ffffffffffffffffffffffffffffffffffffffff1673ffffffffffffffffffffffffffffffffffffffff168152602001935050505060405180910390a150505050565b6000600190505b600980549050811015612bcb576000600c60006009848154811015156129c357fe5b9060005260206000200160009054906101000a900473ffffffffffffffffffffffffffffffffffffffff1673ffffffffffffffffffffffffffffffffffffffff1673ffffffffffffffffffffffffffffffffffffffff16815260200190815260200160002060000154141515612ac7576040517f08c379a000000000000000000000000000000000000000000000000000000000815260040180806020018281038252602a8152602001807f54686520726967687420746f20766f746520616c72656164792068617320626581526020017f656e206772616e7465640000000000000000000000000000000000000000000081525060400191505060405180910390fd5b600080600983815481101515612ad957fe5b9060005260206000200160009054906101000a900473ffffffffffffffffffffffffffffffffffffffff1673ffffffffffffffffffffffffffffffffffffffff1673ffffffffffffffffffffffffffffffffffffffff16815260200190815260200160002054600c6000600984815481101515612b5257fe5b9060005260206000200160009054906101000a900473ffffffffffffffffffffffffffffffffffffffff1673ffffffffffffffffffffffffffffffffffffffff1673ffffffffffffffffffffffffffffffffffffffff1681526020019081526020016000206000018190555080806001019150506129a1565b50565b6000600260008373ffffffffffffffffffffffffffffffffffffffff1673ffffffffffffffffffffffffffffffffffffffff16815260200190815260200160002060009054906101000a900460ff1690509190505600a165627a7a723058204cff6f1083d2740c170e68314365eb89d1aad065d3532f10f0f99a28036819bd0029",
  "source": "pragma solidity ^0.4.24;\r\n\r\nimport \"./SafeMath.sol\";\r\nimport \"./ConvertLib.sol\";\r\nimport \"./EquityTokenFactory.sol\";\r\n\r\ncontract EquityToken is EquityTokenFactory {\r\n\t\r\n\r\n    //  --- Voting ---\r\n    /* This structure allows a company to propose multiple proposals for an issue, voters can than choose one of the proposals \r\n        - the owning company works as an administrator and can start ballots\r\n        - the number of votes are linked to the amount of shares a voter posseses (1:1)\r\n        - voters can pass their right to vote\r\n        - the winning proposal is calculated and broadcasted automatically\r\n        */\r\n    \r\n   \r\n        \r\n     mapping(address => Voter) AddressToVoter;\r\n\r\n      struct Voter {\r\n        uint weight; //@notes: weight is accumulated by # shares\r\n        bool voted;  //@notes: if true, that person already voted\r\n        address delegate; //@notes: person delegates right to vote to\r\n        uint vote;   //@notes: index of the voted proposal\r\n    }\r\n\r\n    //@devs: This is a type for a single proposal\r\n    struct Proposal {\r\n        bytes32 name; \r\n        uint voteCount; // number of accumulated votes\r\n    }\r\n \r\n    //@notes: all proposals of that company\r\n    Proposal[] public Proposals;\r\n\r\n    //@notes: create a new ballot, only possible for owner of company\r\n    function startBallot(bytes32[] proposalNames) public onlyOwnerOfCom() {\r\n          //@dev: push proposal to public array\r\n           for (uint i = 0; i < proposalNames.length; i++) {\r\n                Proposals.push(Proposal({name: proposalNames[i], voteCount: 0\r\n            }));\r\n           }\r\n\r\n        //@dev: allocates voting weight = # of shares\r\n        AddressToVoter[msg.sender].weight = OwnerToBalance[msg.sender];\r\n        _giveRightToVote();\r\n\r\n    }\r\n\r\n    //@dev: give voter the right to vote on this ballot\r\n    //@note: starts with index 1 in array, as 0 is ballot starter = companyowner in most cases\r\n        function _giveRightToVote() internal {\r\n \r\n        for (uint j = 1; j < TotalDistribution.length; j++) {\r\n                require(AddressToVoter[TotalDistribution[j]].weight == 0, \"The right to vote already has been granted\");\r\n        AddressToVoter[TotalDistribution[j]].weight = OwnerToBalance[TotalDistribution[j]];\r\n        }\r\n    }\r\n\r\n    //@dev: possibility to delegate your vote to another voter\r\n    function delegate(address _to) public {\r\n        \r\n        Voter storage sender = AddressToVoter[msg.sender];\r\n        require(!sender.voted, \"You already voted\");\r\n\r\n        require(_to != msg.sender, \"Self-delegation is disallowed\");\r\n\r\n        //@devs: forwards delegation as long as _to also forwarded his right to vote\r\n        //@security: use careful, as could get looped -> high gas costs\r\n        while (AddressToVoter[_to].delegate != address(0)) {\r\n            _to = AddressToVoter[_to].delegate;\r\n\r\n            require(_to != msg.sender, \"Found self-delegation loop\");\r\n        }\r\n\r\n        //@notes: since \"sender\" is a reference, this modifies AddressToVoter[msg.sender].voted`\r\n        sender.voted = true;\r\n        sender.delegate = _to;\r\n        Voter storage delegate_ = AddressToVoter[_to];\r\n        \r\n        //@notes: if delegate already voted, add sender weight to proposal, else add weight of sender and delegate\r\n        if (delegate_.voted) {\r\n            Proposals[delegate_.vote].voteCount = Proposals[delegate_.vote].voteCount.add(sender.weight);\r\n        } else {\r\n            delegate_.weight.add(sender.weight);\r\n        }\r\n    }\r\n\r\n    //@dev: give your vote for specific proposal\r\n    //@security: if proposal is out of range, this will automatically throw and revert changes\r\n    //@ToDo: add sender.weight instead 100\r\n    function vote(uint _proposal) public {\r\n        Voter storage sender = AddressToVoter[msg.sender];\r\n        require(!sender.voted, \"Already voted\");\r\n        sender.voted = true;\r\n        sender.vote = _proposal;\r\n        \r\n        Proposals[_proposal].voteCount = Proposals[_proposal].voteCount.add(100);\r\n    }\r\n\r\n    //@dev: computes the winning proposal, gets proposal name from array and returns, fires event\r\n    function winningProposal() public onlyOwnerOfCom() returns(bytes32 winnerName_) {\r\n        uint winningVoteCount = 0;\r\n        for (uint p = 0; p < Proposals.length; p++) {\r\n            if (Proposals[p].voteCount > winningVoteCount) {\r\n                winningVoteCount = Proposals[p].voteCount;\r\n                uint winningProposal_ = p;\r\n             }\r\n        }\r\n\r\n            winnerName_ = Proposals[winningProposal_].name;\r\n            emit votingSuccessful(winnerName_, winningVoteCount);\r\n            return winnerName_;\r\n         \r\n    }\r\n\r\n    //@ToAsk: possible to work with memory array?\r\n    //@notes: for EVM could be possible to work with fixed array e.g. 3 proposals\r\n    function getProposals() public returns(bytes32[]){\r\n    bytes32[] storage proposals_;\r\n    for (uint i = 0; i < Proposals.length; i++){\r\n        proposals_.push(bytes32(Proposals[i].name));\r\n    }\r\n    return proposals_;\r\n    }\r\n\r\n    function getVoteCount(uint _index) public view returns(uint voteCount_) {\r\n        return voteCount_ = Proposals[_index].voteCount;\r\n    }\r\n\r\n}\r\n",
  "sourcePath": "/mnt/c/Solidity/solidity_eto/contracts/EquityToken.sol",
  "compiler": {
    "name": "solc",
    "version": "0.4.24+commit.e67f0147.Emscripten.clang"
  },
  "schemaVersion": "2.0.1",
  "updatedAt": "2018-10-16T07:57:50.395Z"
}