{
  "contractName": "EquityToken",
  "abi": [
    {
      "anonymous": false,
      "inputs": [
        {
          "indexed": true,
          "name": "_from",
          "type": "address"
        },
        {
          "indexed": true,
          "name": "_to",
          "type": "address"
        },
        {
          "indexed": false,
          "name": "_value",
          "type": "uint256"
        }
      ],
      "name": "Transfer",
      "type": "event"
    },
    {
      "constant": false,
      "inputs": [
        {
          "name": "receiver",
          "type": "address"
        },
        {
          "name": "amount",
          "type": "uint256"
        }
      ],
      "name": "sendToken",
      "outputs": [
        {
          "name": "sufficient",
          "type": "bool"
        }
      ],
      "payable": false,
      "stateMutability": "nonpayable",
      "type": "function"
    },
    {
      "constant": true,
      "inputs": [
        {
          "name": "addr",
          "type": "address"
        }
      ],
      "name": "getBalanceInEth",
      "outputs": [
        {
          "name": "",
          "type": "uint256"
        }
      ],
      "payable": false,
      "stateMutability": "view",
      "type": "function"
    },
    {
      "constant": true,
      "inputs": [
        {
          "name": "addr",
          "type": "address"
        }
      ],
      "name": "getBalance",
      "outputs": [
        {
          "name": "",
          "type": "uint256"
        }
      ],
      "payable": false,
      "stateMutability": "view",
      "type": "function"
    }
  ],
  "bytecode": "0x60806040526127106000803373ffffffffffffffffffffffffffffffffffffffff1673ffffffffffffffffffffffffffffffffffffffff168152602001908152602001600020819055506103fc806100586000396000f300608060405260043610610057576000357c0100000000000000000000000000000000000000000000000000000000900463ffffffff168063412664ae1461005c5780637bd703e8146100c1578063f8b2cb4f14610118575b600080fd5b34801561006857600080fd5b506100a7600480360381019080803573ffffffffffffffffffffffffffffffffffffffff1690602001909291908035906020019092919050505061016f565b604051808215151515815260200191505060405180910390f35b3480156100cd57600080fd5b50610102600480360381019080803573ffffffffffffffffffffffffffffffffffffffff1690602001909291905050506102c8565b6040518082815260200191505060405180910390f35b34801561012457600080fd5b50610159600480360381019080803573ffffffffffffffffffffffffffffffffffffffff169060200190929190505050610388565b6040518082815260200191505060405180910390f35b6000816000803373ffffffffffffffffffffffffffffffffffffffff1673ffffffffffffffffffffffffffffffffffffffff1681526020019081526020016000205410156101c057600090506102c2565b816000803373ffffffffffffffffffffffffffffffffffffffff1673ffffffffffffffffffffffffffffffffffffffff16815260200190815260200160002060008282540392505081905550816000808573ffffffffffffffffffffffffffffffffffffffff1673ffffffffffffffffffffffffffffffffffffffff168152602001908152602001600020600082825401925050819055508273ffffffffffffffffffffffffffffffffffffffff163373ffffffffffffffffffffffffffffffffffffffff167fddf252ad1be2c89b69c2b068fc378daa952ba7f163c4a11628f55a4df523b3ef846040518082815260200191505060405180910390a3600190505b92915050565b600073__ConvertLib____________________________6396e4ee3d6102ed84610388565b60026040518363ffffffff167c0100000000000000000000000000000000000000000000000000000000028152600401808381526020018281526020019250505060206040518083038186803b15801561034657600080fd5b505af415801561035a573d6000803e3d6000fd5b505050506040513d602081101561037057600080fd5b81019080805190602001909291905050509050919050565b60008060008373ffffffffffffffffffffffffffffffffffffffff1673ffffffffffffffffffffffffffffffffffffffff1681526020019081526020016000205490509190505600a165627a7a72305820b3a1e89ba57f4ce8f7b5a22dc3e970c1dd94240f3c38e830f86166795acf39440029",
  "source": "pragma solidity ^0.4.18;\r\n\r\nimport \"./ConvertLib.sol\";\r\nimport \"./EquityTokenFactory.sol\";\r\n\r\ncontract EquityToken is EquityTokenFactory {\r\n\t\t\r\n\tevent Transfer(address indexed _from, address indexed _to, uint _value);\r\n\r\n\tfunction sendToken(address receiver, uint amount) public returns(bool sufficient) {\r\n\t\tif (balances[msg.sender] < amount) return false;\r\n\t\tbalances[msg.sender] -= amount;\r\n\t\tbalances[receiver] += amount;\r\n\t\temit Transfer(msg.sender, receiver, amount);\r\n\t\treturn true;\r\n\t}\r\n\t\r\n\tfunction getBalanceInEth(address addr) public view returns(uint){\r\n\t\treturn ConvertLib.convert(getBalance(addr),2);\r\n\t}\r\n\r\n\tfunction getBalance(address addr) public view returns(uint) {\r\n\t\treturn balances[addr];\r\n\t}\r\n}\r\n",
  "sourcePath": "/mnt/c/Solidity/solidity_eto/contracts/EquityToken.sol",
  "compiler": {
    "name": "solc",
    "version": "0.4.24+commit.e67f0147.Emscripten.clang"
  },
  "schemaVersion": "2.0.1",
  "updatedAt": "2018-09-21T08:48:50.883Z"
}