{
  "contractName": "EquityTokenFactory",
  "abi": [
    {
      "constant": true,
      "inputs": [
        {
          "name": "",
          "type": "uint256"
        }
      ],
      "name": "TotalDistribution",
      "outputs": [
        {
          "name": "",
          "type": "address"
        }
      ],
      "payable": false,
      "stateMutability": "view",
      "type": "function"
    },
    {
      "constant": true,
      "inputs": [],
      "name": "isIssuable",
      "outputs": [
        {
          "name": "",
          "type": "bool"
        }
      ],
      "payable": false,
      "stateMutability": "view",
      "type": "function"
    },
    {
      "constant": true,
      "inputs": [],
      "name": "accreditationFee",
      "outputs": [
        {
          "name": "",
          "type": "uint256"
        }
      ],
      "payable": false,
      "stateMutability": "view",
      "type": "function"
    },
    {
      "constant": true,
      "inputs": [],
      "name": "governmentAddress",
      "outputs": [
        {
          "name": "",
          "type": "address"
        }
      ],
      "payable": false,
      "stateMutability": "view",
      "type": "function"
    },
    {
      "anonymous": false,
      "inputs": [
        {
          "indexed": false,
          "name": "companyName",
          "type": "bytes32"
        },
        {
          "indexed": false,
          "name": "tokenTicker",
          "type": "bytes32"
        },
        {
          "indexed": false,
          "name": "companyOwner",
          "type": "address"
        }
      ],
      "name": "newTokenIssuance",
      "type": "event"
    },
    {
      "anonymous": false,
      "inputs": [
        {
          "indexed": false,
          "name": "operator",
          "type": "address"
        },
        {
          "indexed": false,
          "name": "to",
          "type": "address"
        },
        {
          "indexed": false,
          "name": "amount",
          "type": "uint256"
        },
        {
          "indexed": false,
          "name": "userData",
          "type": "bytes"
        },
        {
          "indexed": false,
          "name": "operatorData",
          "type": "bytes"
        }
      ],
      "name": "Minted",
      "type": "event"
    },
    {
      "anonymous": false,
      "inputs": [
        {
          "indexed": false,
          "name": "operator",
          "type": "address"
        },
        {
          "indexed": false,
          "name": "from",
          "type": "address"
        },
        {
          "indexed": false,
          "name": "amount",
          "type": "uint256"
        },
        {
          "indexed": false,
          "name": "operatorData",
          "type": "bytes"
        }
      ],
      "name": "Burned",
      "type": "event"
    },
    {
      "anonymous": false,
      "inputs": [
        {
          "indexed": false,
          "name": "trancheId",
          "type": "uint256"
        },
        {
          "indexed": false,
          "name": "operator",
          "type": "address"
        },
        {
          "indexed": false,
          "name": "to",
          "type": "address"
        },
        {
          "indexed": false,
          "name": "amount",
          "type": "uint256"
        },
        {
          "indexed": false,
          "name": "userData",
          "type": "bytes"
        },
        {
          "indexed": false,
          "name": "operatorData",
          "type": "bytes"
        }
      ],
      "name": "MintedByTranche",
      "type": "event"
    },
    {
      "anonymous": false,
      "inputs": [
        {
          "indexed": false,
          "name": "trancheId",
          "type": "uint256"
        },
        {
          "indexed": false,
          "name": "operator",
          "type": "address"
        },
        {
          "indexed": false,
          "name": "from",
          "type": "address"
        },
        {
          "indexed": false,
          "name": "amount",
          "type": "uint256"
        },
        {
          "indexed": false,
          "name": "operatorData",
          "type": "bytes"
        }
      ],
      "name": "BurnedByTranche",
      "type": "event"
    },
    {
      "anonymous": false,
      "inputs": [
        {
          "indexed": false,
          "name": "newShareholder",
          "type": "address"
        },
        {
          "indexed": false,
          "name": "length",
          "type": "uint256"
        }
      ],
      "name": "newShareholder",
      "type": "event"
    },
    {
      "anonymous": false,
      "inputs": [
        {
          "indexed": false,
          "name": "_from",
          "type": "address"
        },
        {
          "indexed": false,
          "name": "_to",
          "type": "address"
        },
        {
          "indexed": false,
          "name": "_txamount",
          "type": "uint256"
        }
      ],
      "name": "Transfer",
      "type": "event"
    },
    {
      "anonymous": false,
      "inputs": [
        {
          "indexed": false,
          "name": "operator",
          "type": "address"
        },
        {
          "indexed": false,
          "name": "tokenHolder",
          "type": "address"
        }
      ],
      "name": "AuthorizedOperator",
      "type": "event"
    },
    {
      "anonymous": false,
      "inputs": [
        {
          "indexed": true,
          "name": "operator",
          "type": "address"
        },
        {
          "indexed": true,
          "name": "tokenHolder",
          "type": "address"
        }
      ],
      "name": "RevokedOperator",
      "type": "event"
    },
    {
      "constant": false,
      "inputs": [
        {
          "name": "_companyName",
          "type": "bytes32"
        },
        {
          "name": "_tokenTicker",
          "type": "bytes32"
        },
        {
          "name": "_granularity",
          "type": "uint256"
        }
      ],
      "name": "createToken",
      "outputs": [],
      "payable": false,
      "stateMutability": "nonpayable",
      "type": "function"
    },
    {
      "constant": false,
      "inputs": [
        {
          "name": "_amount",
          "type": "uint256"
        },
        {
          "name": "_userData",
          "type": "bytes"
        },
        {
          "name": "_operatorData",
          "type": "bytes"
        }
      ],
      "name": "mint",
      "outputs": [],
      "payable": false,
      "stateMutability": "nonpayable",
      "type": "function"
    },
    {
      "constant": false,
      "inputs": [
        {
          "name": "_from",
          "type": "address"
        },
        {
          "name": "_amount",
          "type": "uint256"
        },
        {
          "name": "_operatorData",
          "type": "bytes"
        }
      ],
      "name": "burn",
      "outputs": [],
      "payable": false,
      "stateMutability": "nonpayable",
      "type": "function"
    },
    {
      "constant": false,
      "inputs": [
        {
          "name": "_trancheId",
          "type": "uint256"
        },
        {
          "name": "_from",
          "type": "address"
        },
        {
          "name": "_amount",
          "type": "uint256"
        },
        {
          "name": "_operatorData",
          "type": "bytes"
        }
      ],
      "name": "burnByTranche",
      "outputs": [],
      "payable": false,
      "stateMutability": "nonpayable",
      "type": "function"
    },
    {
      "constant": false,
      "inputs": [
        {
          "name": "_from",
          "type": "address"
        },
        {
          "name": "_amount",
          "type": "uint256"
        },
        {
          "name": "_operatorData",
          "type": "bytes"
        }
      ],
      "name": "operatorBurn",
      "outputs": [],
      "payable": false,
      "stateMutability": "nonpayable",
      "type": "function"
    },
    {
      "constant": false,
      "inputs": [
        {
          "name": "_trancheId",
          "type": "uint256"
        },
        {
          "name": "_from",
          "type": "address"
        },
        {
          "name": "_amount",
          "type": "uint256"
        },
        {
          "name": "_operatorData",
          "type": "bytes"
        }
      ],
      "name": "operatorBurnByTranche",
      "outputs": [],
      "payable": false,
      "stateMutability": "nonpayable",
      "type": "function"
    },
    {
      "constant": false,
      "inputs": [
        {
          "name": "_name",
          "type": "bytes32"
        },
        {
          "name": "_key",
          "type": "string"
        },
        {
          "name": "_documentHash",
          "type": "bytes32"
        }
      ],
      "name": "setDocument",
      "outputs": [],
      "payable": true,
      "stateMutability": "payable",
      "type": "function"
    },
    {
      "constant": true,
      "inputs": [
        {
          "name": "_name",
          "type": "bytes32"
        }
      ],
      "name": "getDocument",
      "outputs": [
        {
          "name": "",
          "type": "string"
        },
        {
          "name": "",
          "type": "bytes32"
        }
      ],
      "payable": false,
      "stateMutability": "view",
      "type": "function"
    },
    {
      "constant": false,
      "inputs": [
        {
          "name": "_companyName",
          "type": "bytes32"
        }
      ],
      "name": "clearRequest",
      "outputs": [],
      "payable": false,
      "stateMutability": "nonpayable",
      "type": "function"
    },
    {
      "constant": true,
      "inputs": [],
      "name": "defaultOperators",
      "outputs": [
        {
          "name": "",
          "type": "address[2]"
        }
      ],
      "payable": false,
      "stateMutability": "view",
      "type": "function"
    },
    {
      "constant": false,
      "inputs": [
        {
          "name": "_operator",
          "type": "address"
        }
      ],
      "name": "authorizeOperator",
      "outputs": [],
      "payable": false,
      "stateMutability": "nonpayable",
      "type": "function"
    },
    {
      "constant": false,
      "inputs": [
        {
          "name": "_operator",
          "type": "address"
        }
      ],
      "name": "revokeOperator",
      "outputs": [],
      "payable": false,
      "stateMutability": "nonpayable",
      "type": "function"
    },
    {
      "constant": true,
      "inputs": [
        {
          "name": "_operator",
          "type": "address"
        },
        {
          "name": "_tokenHolder",
          "type": "address"
        }
      ],
      "name": "isOperatorFor",
      "outputs": [
        {
          "name": "",
          "type": "bool"
        }
      ],
      "payable": false,
      "stateMutability": "view",
      "type": "function"
    },
    {
      "constant": false,
      "inputs": [
        {
          "name": "_addr",
          "type": "address"
        }
      ],
      "name": "setGovernmentAddress",
      "outputs": [],
      "payable": false,
      "stateMutability": "nonpayable",
      "type": "function"
    },
    {
      "constant": false,
      "inputs": [],
      "name": "stopIssuance",
      "outputs": [],
      "payable": false,
      "stateMutability": "nonpayable",
      "type": "function"
    },
    {
      "constant": true,
      "inputs": [],
      "name": "isControllable",
      "outputs": [
        {
          "name": "",
          "type": "bool"
        }
      ],
      "payable": false,
      "stateMutability": "view",
      "type": "function"
    },
    {
      "constant": false,
      "inputs": [
        {
          "name": "_name",
          "type": "bytes32"
        },
        {
          "name": "_key",
          "type": "string"
        },
        {
          "name": "_documentHash",
          "type": "bytes32"
        }
      ],
      "name": "uploadDocument",
      "outputs": [],
      "payable": true,
      "stateMutability": "payable",
      "type": "function"
    },
    {
      "constant": false,
      "inputs": [
        {
          "name": "_authorizedInvestor",
          "type": "address"
        }
      ],
      "name": "authorizeRequest",
      "outputs": [],
      "payable": false,
      "stateMutability": "nonpayable",
      "type": "function"
    },
    {
      "constant": false,
      "inputs": [
        {
          "name": "_adjustedLockup",
          "type": "uint256"
        }
      ],
      "name": "setLockup",
      "outputs": [],
      "payable": false,
      "stateMutability": "nonpayable",
      "type": "function"
    }
  ],
  "bytecode": "0x60806040526301e133806016556001601760006101000a81548160ff021916908315150217905550600060185564e8d4a51000601955670de0b6b3a7640000601b5534801561004d57600080fd5b50613cd98061005d6000396000f300608060405260043610610133576000357c0100000000000000000000000000000000000000000000000000000000900463ffffffff168063010648ca1461013857806306e48538146101825780630b366df1146101d55780632a88511a146102425780632f1cae85146102df57806344d171871461030e5780634c783bf5146103a15780635547641b146103d05780636a1372191461041a5780636ae6b4591461045d5780636e4a21941461048a5780638cbd5f45146104b5578063959b8c3f146104f8578063a3cba09a1461053b578063b10d6b41146105f4578063b8fe4c3f146106ad578063ce30b8d9146106c4578063d570ab3414610757578063d95b6371146107ae578063dbb8299b14610829578063dfa94292146108c6578063e53286c51461090f578063fad8b32a14610940575b600080fd5b61018060048036038101908080356000191690602001909291908035906020019082018035906020019190919293919293908035600019169060200190929190505050610983565b005b34801561018e57600080fd5b50610197610aeb565b6040518082600260200280838360005b838110156101c25780820151818401526020810190506101a7565b5050505090500191505060405180910390f35b3480156101e157600080fd5b5061020060048036038101908080359060200190929190505050610b6c565b604051808273ffffffffffffffffffffffffffffffffffffffff1673ffffffffffffffffffffffffffffffffffffffff16815260200191505060405180910390f35b34801561024e57600080fd5b506102dd60048036038101908080359060200190929190803573ffffffffffffffffffffffffffffffffffffffff16906020019092919080359060200190929190803590602001908201803590602001908080601f0160208091040260200160405190810160405280939291908181526020018383808284378201915050505050509192919290505050610baa565b005b3480156102eb57600080fd5b506102f4610c61565b604051808215151515815260200191505060405180910390f35b34801561031a57600080fd5b5061039f600480360381019080803573ffffffffffffffffffffffffffffffffffffffff16906020019092919080359060200190929190803590602001908201803590602001908080601f0160208091040260200160405190810160405280939291908181526020018383808284378201915050505050509192919290505050610c74565b005b3480156103ad57600080fd5b506103b6610d29565b604051808215151515815260200191505060405180910390f35b61041860048036038101908080356000191690602001909291908035906020019082018035906020019190919293919293908035600019169060200190929190505050610d93565b005b34801561042657600080fd5b5061045b600480360381019080803573ffffffffffffffffffffffffffffffffffffffff169060200190929190505050610efb565b005b34801561046957600080fd5b50610488600480360381019080803590602001909291905050506110d4565b005b34801561049657600080fd5b5061049f6111c9565b6040518082815260200191505060405180910390f35b3480156104c157600080fd5b506104f6600480360381019080803573ffffffffffffffffffffffffffffffffffffffff1690602001909291905050506111cf565b005b34801561050457600080fd5b50610539600480360381019080803573ffffffffffffffffffffffffffffffffffffffff169060200190929190505050611303565b005b34801561054757600080fd5b506105f260048036038101908080359060200190929190803590602001908201803590602001908080601f0160208091040260200160405190810160405280939291908181526020018383808284378201915050505050509192919290803590602001908201803590602001908080601f01602080910402602001604051908101604052809392919081815260200183838082843782019150505050505091929192905050506114fc565b005b34801561060057600080fd5b506106236004803603810190808035600019169060200190929190505050611db9565b60405180806020018360001916600019168152602001828103825284818151815260200191508051906020019080838360005b83811015610671578082015181840152602081019050610656565b50505050905090810190601f16801561069e5780820380516001836020036101000a031916815260200191505b50935050505060405180910390f35b3480156106b957600080fd5b506106c2611fd7565b005b3480156106d057600080fd5b50610755600480360381019080803573ffffffffffffffffffffffffffffffffffffffff16906020019092919080359060200190929190803590602001908201803590602001908080601f01602080910402602001604051908101604052809392919081815260200183838082843782019150505050505091929192905050506120df565b005b34801561076357600080fd5b5061076c612193565b604051808273ffffffffffffffffffffffffffffffffffffffff1673ffffffffffffffffffffffffffffffffffffffff16815260200191505060405180910390f35b3480156107ba57600080fd5b5061080f600480360381019080803573ffffffffffffffffffffffffffffffffffffffff169060200190929190803573ffffffffffffffffffffffffffffffffffffffff1690602001909291905050506121b9565b604051808215151515815260200191505060405180910390f35b34801561083557600080fd5b506108c460048036038101908080359060200190929190803573ffffffffffffffffffffffffffffffffffffffff16906020019092919080359060200190929190803590602001908201803590602001908080601f0160208091040260200160405190810160405280939291908181526020018383808284378201915050505050509192919290505050612283565b005b3480156108d257600080fd5b5061090d6004803603810190808035600019169060200190929190803560001916906020019092919080359060200190929190505050612339565b005b34801561091b57600080fd5b5061093e600480360381019080803560001916906020019092919050505061257a565b005b34801561094c57600080fd5b50610981600480360381019080803573ffffffffffffffffffffffffffffffffffffffff1690602001909291905050506125b1565b005b601b5434141515610a22576040517f08c379a00000000000000000000000000000000000000000000000000000000081526004018080602001828103825260288152602001807f6e6f7420656e6f75676820657468657220696e20666f722070617961626c652081526020017f66756e6374696f6e00000000000000000000000000000000000000000000000081525060400191505060405180910390fd5b60156060604051908101604052808660001916815260200185858080601f0160208091040260200160405190810160405280939291908181526020018383808284378201915050505050508152602001836000191681525090806001815401808255809150509060018203906000526020600020906003020160009091929091909150600082015181600001906000191690556020820151816001019080519060200190610ad1929190613b26565b506040820151816002019060001916905550505050505050565b610af3613ba6565b6010600280602002604051908101604052809291908260028015610b62576020028201915b8160009054906101000a900473ffffffffffffffffffffffffffffffffffffffff1673ffffffffffffffffffffffffffffffffffffffff1681526020019060010190808311610b18575b5050505050905090565b601481815481101515610b7b57fe5b906000526020600020016000915054906101000a900473ffffffffffffffffffffffffffffffffffffffff1681565b828073ffffffffffffffffffffffffffffffffffffffff163373ffffffffffffffffffffffffffffffffffffffff16141515610c4e576040517f08c379a00000000000000000000000000000000000000000000000000000000081526004018080602001828103825260158152602001807f726571756972656d656e74206f6e6c794f776e6572000000000000000000000081525060200191505060405180910390fd5b610c5a85858585612747565b5050505050565b601760009054906101000a900460ff1681565b828073ffffffffffffffffffffffffffffffffffffffff163373ffffffffffffffffffffffffffffffffffffffff16141515610d18576040517f08c379a00000000000000000000000000000000000000000000000000000000081526004018080602001828103825260158152602001807f726571756972656d656e74206f6e6c794f776e6572000000000000000000000081525060200191505060405180910390fd5b610d23848484612d22565b50505050565b60008073ffffffffffffffffffffffffffffffffffffffff16601a60009054906101000a900473ffffffffffffffffffffffffffffffffffffffff1673ffffffffffffffffffffffffffffffffffffffff16141515610d8b5760009050610d90565b600190505b90565b601b5434141515610e32576040517f08c379a00000000000000000000000000000000000000000000000000000000081526004018080602001828103825260288152602001807f6e6f7420656e6f75676820657468657220696e20666f722070617961626c652081526020017f66756e6374696f6e00000000000000000000000000000000000000000000000081525060400191505060405180910390fd5b60156060604051908101604052808660001916815260200185858080601f0160208091040260200160405190810160405280939291908181526020018383808284378201915050505050508152602001836000191681525090806001815401808255809150509060018203906000526020600020906003020160009091929091909150600082015181600001906000191690556020820151816001019080519060200190610ee1929190613b26565b506040820151816002019060001916905550505050505050565b600f60009054906101000a900473ffffffffffffffffffffffffffffffffffffffff1673ffffffffffffffffffffffffffffffffffffffff163373ffffffffffffffffffffffffffffffffffffffff16141515610fe6576040517f08c379a00000000000000000000000000000000000000000000000000000000081526004018080602001828103825260298152602001807f726571756972656d656e74206f6e6c794f776e6572206f6620436f6d70616e7981526020017f206d6f646966696572000000000000000000000000000000000000000000000081525060400191505060405180910390fd5b60011515610ff3826136de565b1515141515611090576040517f08c379a00000000000000000000000000000000000000000000000000000000081526004018080602001828103825260308152602001807f5f61646472206164647265737320646f6573206e6f74206578697374206f722081526020017f69732030783020286275726e696e67290000000000000000000000000000000081525060400191505060405180910390fd5b80601a60006101000a81548173ffffffffffffffffffffffffffffffffffffffff021916908373ffffffffffffffffffffffffffffffffffffffff16021790555050565b600f60009054906101000a900473ffffffffffffffffffffffffffffffffffffffff1673ffffffffffffffffffffffffffffffffffffffff163373ffffffffffffffffffffffffffffffffffffffff161415156111bf576040517f08c379a00000000000000000000000000000000000000000000000000000000081526004018080602001828103825260298152602001807f726571756972656d656e74206f6e6c794f776e6572206f6620436f6d70616e7981526020017f206d6f646966696572000000000000000000000000000000000000000000000081525060400191505060405180910390fd5b8060168190555050565b601b5481565b6002600760008373ffffffffffffffffffffffffffffffffffffffff1673ffffffffffffffffffffffffffffffffffffffff168152602001908152602001600020541015156112ac576040517f08c379a00000000000000000000000000000000000000000000000000000000081526004018080602001828103825260298152602001807f696e766573746f7220616c726561647920617574686f72697a656420616e206181526020017f636372656469746564000000000000000000000000000000000000000000000081525060400191505060405180910390fd5b6112ff6001600760008473ffffffffffffffffffffffffffffffffffffffff1673ffffffffffffffffffffffffffffffffffffffff1681526020019081526020016000205461371a90919063ffffffff16565b5050565b3373ffffffffffffffffffffffffffffffffffffffff168173ffffffffffffffffffffffffffffffffffffffff16141515156113cd576040517f08c379a00000000000000000000000000000000000000000000000000000000081526004018080602001828103825260248152602001807f6d73672e73656e6465722063616e6e6f7420617574686f72697a65642068696d81526020017f73656c660000000000000000000000000000000000000000000000000000000081525060400191505060405180910390fd5b6001601d60008373ffffffffffffffffffffffffffffffffffffffff1673ffffffffffffffffffffffffffffffffffffffff16815260200190815260200160002060003373ffffffffffffffffffffffffffffffffffffffff1673ffffffffffffffffffffffffffffffffffffffff16815260200190815260200160002060006101000a81548160ff0219169083151502179055507ff4caeb2d6ca8932a215a353d0703c326ec2d81fc68170f320eb2ab49e9df61f98133604051808373ffffffffffffffffffffffffffffffffffffffff1673ffffffffffffffffffffffffffffffffffffffff1681526020018273ffffffffffffffffffffffffffffffffffffffff1673ffffffffffffffffffffffffffffffffffffffff1681526020019250505060405180910390a150565b6000836000600d548281151561150e57fe5b061415156115aa576040517f08c379a00000000000000000000000000000000000000000000000000000000081526004018080602001828103825260338152602001807f756e61626c6520746f206d6f6469667920746f6b656e2062616c616e6365732081526020017f61742074686973206772616e756c61726974790000000000000000000000000081525060400191505060405180910390fd5b600f60009054906101000a900473ffffffffffffffffffffffffffffffffffffffff1673ffffffffffffffffffffffffffffffffffffffff163373ffffffffffffffffffffffffffffffffffffffff16141515611695576040517f08c379a00000000000000000000000000000000000000000000000000000000081526004018080602001828103825260298152602001807f726571756972656d656e74206f6e6c794f776e6572206f6620436f6d70616e7981526020017f206d6f646966696572000000000000000000000000000000000000000000000081525060400191505060405180910390fd5b6001151560086000600a546000191660001916815260200190815260200160002060009054906101000a900460ff161515141515611761576040517f08c379a000000000000000000000000000000000000000000000000000000000815260040180806020018281038252602e8152602001807f7265717569726573206368616e676564207374617475732066726f6d2070656e81526020017f64696e6720746f2061637469766500000000000000000000000000000000000081525060400191505060405180910390fd5b60011515601760009054906101000a900460ff1615151415156117ec576040517f08c379a000000000000000000000000000000000000000000000000000000000815260040180806020018281038252601a8152602001807f746f6b656e2069737375616e63652069732066696e697368656400000000000081525060200191505060405180910390fd5b6117f7600a5461373b565b915060606040519081016040528086815260200142815260200160008152506003600084815260200190815260200160002060008201518160000155602082015181600101556040820151816002015590505061185f85600e5461371a90919063ffffffff16565b600e819055506118b6856000803373ffffffffffffffffffffffffffffffffffffffff1673ffffffffffffffffffffffffffffffffffffffff1681526020019081526020016000205461371a90919063ffffffff16565b6000803373ffffffffffffffffffffffffffffffffffffffff1673ffffffffffffffffffffffffffffffffffffffff1681526020019081526020016000208190555061195b85600160003373ffffffffffffffffffffffffffffffffffffffff1673ffffffffffffffffffffffffffffffffffffffff16815260200190815260200160002060008581526020019081526020016000205461371a90919063ffffffff16565b600160003373ffffffffffffffffffffffffffffffffffffffff1673ffffffffffffffffffffffffffffffffffffffff168152602001908152602001600020600084815260200190815260200160002081905550600260003373ffffffffffffffffffffffffffffffffffffffff1673ffffffffffffffffffffffffffffffffffffffff1681526020019081526020016000208290806001815401808255809150509060018203906000526020600020016000909192909190915055507f2fe5be0146f74c5bce36c0b80911af6c7d86ff27e89d5cfa61fc681327954e5d3333878787604051808673ffffffffffffffffffffffffffffffffffffffff1673ffffffffffffffffffffffffffffffffffffffff1681526020018573ffffffffffffffffffffffffffffffffffffffff1673ffffffffffffffffffffffffffffffffffffffff1681526020018481526020018060200180602001838103835285818151815260200191508051906020019080838360005b83811015611aec578082015181840152602081019050611ad1565b50505050905090810190601f168015611b195780820380516001836020036101000a031916815260200191505b50838103825284818151815260200191508051906020019080838360005b83811015611b52578082015181840152602081019050611b37565b50505050905090810190601f168015611b7f5780820380516001836020036101000a031916815260200191505b5097505050505050505060405180910390a17fc8d64290e05791ddb8e7c779289e066d776a0630d8fb0adb646a94b9ae85b772823333888888604051808781526020018673ffffffffffffffffffffffffffffffffffffffff1673ffffffffffffffffffffffffffffffffffffffff1681526020018573ffffffffffffffffffffffffffffffffffffffff1673ffffffffffffffffffffffffffffffffffffffff1681526020018481526020018060200180602001838103835285818151815260200191508051906020019080838360005b83811015611c6c578082015181840152602081019050611c51565b50505050905090810190601f168015611c995780820380516001836020036101000a031916815260200191505b50838103825284818151815260200191508051906020019080838360005b83811015611cd2578082015181840152602081019050611cb7565b50505050905090810190601f168015611cff5780820380516001836020036101000a031916815260200191505b509850505050505050505060405180910390a1601c60009054906101000a900460ff1615611db2577fddf252ad1be2c89b69c2b068fc378daa952ba7f163c4a11628f55a4df523b3ef60003387604051808473ffffffffffffffffffffffffffffffffffffffff1681526020018373ffffffffffffffffffffffffffffffffffffffff1673ffffffffffffffffffffffffffffffffffffffff168152602001828152602001935050505060405180910390a15b5050505050565b60606000806002600760003373ffffffffffffffffffffffffffffffffffffffff1673ffffffffffffffffffffffffffffffffffffffff16815260200190815260200160002054141515611e9b576040517f08c379a00000000000000000000000000000000000000000000000000000000081526004018080602001828103825260278152602001807f7265717569726573206164766f6361746520746f2073656520646f776e6c6f6181526020017f642066696c65730000000000000000000000000000000000000000000000000081525060400191505060405180910390fd5b600090505b601580549050811015611fd0578360001916601582815481101515611ec157fe5b906000526020600020906003020160000154600019161415611fc357601581815481101515611eec57fe5b9060005260206000209060030201600101601582815481101515611f0c57fe5b906000526020600020906003020160020154818054600181600116156101000203166002900480601f016020809104026020016040519081016040528092919081815260200182805460018160011615610100020316600290048015611fb35780601f10611f8857610100808354040283529160200191611fb3565b820191906000526020600020905b815481529060010190602001808311611f9657829003601f168201915b5050505050915092509250611fd1565b8080600101915050611ea0565b5b50915091565b600f60009054906101000a900473ffffffffffffffffffffffffffffffffffffffff1673ffffffffffffffffffffffffffffffffffffffff163373ffffffffffffffffffffffffffffffffffffffff161415156120c2576040517f08c379a00000000000000000000000000000000000000000000000000000000081526004018080602001828103825260298152602001807f726571756972656d656e74206f6e6c794f776e6572206f6620436f6d70616e7981526020017f206d6f646966696572000000000000000000000000000000000000000000000081525060400191505060405180910390fd5b6000601760006101000a81548160ff021916908315150217905550565b6120e933846121b9565b1515612183576040517f08c379a00000000000000000000000000000000000000000000000000000000081526004018080602001828103825260388152602001807f73656e646572206973206e6f7420617574686f72697a656420746f206f70657281526020017f6174652077697468205f66726f6d2773206163636f756e74000000000000000081525060400191505060405180910390fd5b61218e838383612d22565b505050565b601a60009054906101000a900473ffffffffffffffffffffffffffffffffffffffff1681565b60008173ffffffffffffffffffffffffffffffffffffffff168373ffffffffffffffffffffffffffffffffffffffff16148061227b5750601d60008473ffffffffffffffffffffffffffffffffffffffff1673ffffffffffffffffffffffffffffffffffffffff16815260200190815260200160002060008373ffffffffffffffffffffffffffffffffffffffff1673ffffffffffffffffffffffffffffffffffffffff16815260200190815260200160002060009054906101000a900460ff165b905092915050565b61228d33846121b9565b1515612327576040517f08c379a00000000000000000000000000000000000000000000000000000000081526004018080602001828103825260388152602001807f73656e646572206973206e6f7420617574686f72697a656420746f206f70657281526020017f6174652077697468205f66726f6d2773206163636f756e74000000000000000081525060400191505060405180910390fd5b61233384848484612747565b50505050565b6001811015151561234657fe5b61234f8361373b565b60098190555082600a816000191690555081600b81600019169055507f4100000000000000000000000000000000000000000000000000000000000000600c60006101000a81548160ff02191690837f0100000000000000000000000000000000000000000000000000000000000000900402179055506000600e8190555080600d819055506001601c60006101000a81548160ff02191690831515021790555033600f60006101000a81548173ffffffffffffffffffffffffffffffffffffffff021916908373ffffffffffffffffffffffffffffffffffffffff16021790555060408051908101604052803373ffffffffffffffffffffffffffffffffffffffff1673ffffffffffffffffffffffffffffffffffffffff168152602001601a60009054906101000a900473ffffffffffffffffffffffffffffffffffffffff1673ffffffffffffffffffffffffffffffffffffffff1673ffffffffffffffffffffffffffffffffffffffff1681525060109060026124d0929190613bc8565b50612710601281905550620f42406013819055506124ed33613805565b507f9ae979c8e1266c2f250aee2ce3946e415bd909a9cf1821aab705834932fd12ad600a54600b543360405180846000191660001916815260200183600019166000191681526020018273ffffffffffffffffffffffffffffffffffffffff1673ffffffffffffffffffffffffffffffffffffffff168152602001935050505060405180910390a1505050565b600160086000836000191660001916815260200190815260200160002060006101000a81548160ff02191690831515021790555050565b3373ffffffffffffffffffffffffffffffffffffffff168173ffffffffffffffffffffffffffffffffffffffff1614151515612655576040517f08c379a00000000000000000000000000000000000000000000000000000000081526004018080602001828103825260208152602001807f6d73672e73656e6465722063616e6e6f74207265766f6b652068696d73656c6681525060200191505060405180910390fd5b6000601d60008373ffffffffffffffffffffffffffffffffffffffff1673ffffffffffffffffffffffffffffffffffffffff16815260200190815260200160002060003373ffffffffffffffffffffffffffffffffffffffff1673ffffffffffffffffffffffffffffffffffffffff16815260200190815260200160002060006101000a81548160ff0219169083151502179055503373ffffffffffffffffffffffffffffffffffffffff168173ffffffffffffffffffffffffffffffffffffffff167f50546e66e5f44d728365dc3908c63bc5cfeeab470722c1677e3073a6ac294aa160405160405180910390a350565b816000600d548281151561275757fe5b061415156127f3576040517f08c379a00000000000000000000000000000000000000000000000000000000081526004018080602001828103825260338152602001807f756e61626c6520746f206d6f6469667920746f6b656e2062616c616e6365732081526020017f61742074686973206772616e756c61726974790000000000000000000000000081525060400191505060405180910390fd5b82600160008673ffffffffffffffffffffffffffffffffffffffff1673ffffffffffffffffffffffffffffffffffffffff168152602001908152602001600020600087815260200190815260200160002054101515156128e1576040517f08c379a000000000000000000000000000000000000000000000000000000000815260040180806020018281038252602b8152602001807f6e6f7420656e6f756768207472616e6368652d73706563696669632066756e6481526020017f696e6720746f206275726e00000000000000000000000000000000000000000081525060400191505060405180910390fd5b6128f683600e546139a090919063ffffffff16565b600e8190555061294d836000808773ffffffffffffffffffffffffffffffffffffffff1673ffffffffffffffffffffffffffffffffffffffff168152602001908152602001600020546139a090919063ffffffff16565b6000808673ffffffffffffffffffffffffffffffffffffffff1673ffffffffffffffffffffffffffffffffffffffff168152602001908152602001600020819055506129f283600160008773ffffffffffffffffffffffffffffffffffffffff1673ffffffffffffffffffffffffffffffffffffffff1681526020019081526020016000206000888152602001908152602001600020546139a090919063ffffffff16565b507fa1c85a30dec08aa526dc5a3ca33087f723335ec5c1614ecf0036da150a6971c88533868686604051808681526020018573ffffffffffffffffffffffffffffffffffffffff1673ffffffffffffffffffffffffffffffffffffffff1681526020018473ffffffffffffffffffffffffffffffffffffffff1673ffffffffffffffffffffffffffffffffffffffff16815260200183815260200180602001828103825283818151815260200191508051906020019080838360005b83811015612ac9578082015181840152602081019050612aae565b50505050905090810190601f168015612af65780820380516001836020036101000a031916815260200191505b50965050505050505060405180910390a17fea01d24fee0ecbb349ab449ea41d11599fd91ba758653579b30d38d63e2adedb33858585604051808573ffffffffffffffffffffffffffffffffffffffff1673ffffffffffffffffffffffffffffffffffffffff1681526020018473ffffffffffffffffffffffffffffffffffffffff1673ffffffffffffffffffffffffffffffffffffffff16815260200183815260200180602001828103825283818151815260200191508051906020019080838360005b83811015612bd6578082015181840152602081019050612bbb565b50505050905090810190601f168015612c035780820380516001836020036101000a031916815260200191505b509550505050505060405180910390a160008060008673ffffffffffffffffffffffffffffffffffffffff1673ffffffffffffffffffffffffffffffffffffffff168152602001908152602001600020541415612c6557612c63846139c1565b505b601c60009054906101000a900460ff1615612d1b577fddf252ad1be2c89b69c2b068fc378daa952ba7f163c4a11628f55a4df523b3ef84600085604051808473ffffffffffffffffffffffffffffffffffffffff1673ffffffffffffffffffffffffffffffffffffffff1681526020018373ffffffffffffffffffffffffffffffffffffffff1673ffffffffffffffffffffffffffffffffffffffff168152602001828152602001935050505060405180910390a15b5050505050565b6000806060600080866000600d5482811515612d3a57fe5b06141515612dd6576040517f08c379a00000000000000000000000000000000000000000000000000000000081526004018080602001828103825260338152602001807f756e61626c6520746f206d6f6469667920746f6b656e2062616c616e6365732081526020017f61742074686973206772616e756c61726974790000000000000000000000000081525060400191505060405180910390fd5b876000808b73ffffffffffffffffffffffffffffffffffffffff1673ffffffffffffffffffffffffffffffffffffffff1681526020019081526020016000205410151515612e8c576040517f08c379a000000000000000000000000000000000000000000000000000000000815260040180806020018281038252601a8152602001807f6e6f7420656e6f7567682066756e64696e6720746f206275726e00000000000081525060200191505060405180910390fd5b60009550600194505b878610156134bf57600260008a73ffffffffffffffffffffffffffffffffffffffff1673ffffffffffffffffffffffffffffffffffffffff168152602001908152602001600020805480602002602001604051908101604052809291908181526020018280548015612f2657602002820191906000526020600020905b815481526020019060010190808311612f12575b505050505093508385855103815181101515612f3e57fe5b906020019060200201519250612f5d86896139a090919063ffffffff16565b600160008b73ffffffffffffffffffffffffffffffffffffffff1673ffffffffffffffffffffffffffffffffffffffff16815260200190815260200160002060008581526020019081526020016000205410151561321657612fdc612fcb878a6139a090919063ffffffff16565b600e546139a090919063ffffffff16565b600e81905550613045612ff8878a6139a090919063ffffffff16565b6000808c73ffffffffffffffffffffffffffffffffffffffff1673ffffffffffffffffffffffffffffffffffffffff168152602001908152602001600020546139a090919063ffffffff16565b6000808b73ffffffffffffffffffffffffffffffffffffffff1673ffffffffffffffffffffffffffffffffffffffff168152602001908152602001600020819055506130fc61309d878a6139a090919063ffffffff16565b600160008c73ffffffffffffffffffffffffffffffffffffffff1673ffffffffffffffffffffffffffffffffffffffff1681526020019081526020016000206000868152602001908152602001600020546139a090919063ffffffff16565b507fa1c85a30dec08aa526dc5a3ca33087f723335ec5c1614ecf0036da150a6971c883338b8b8b604051808681526020018573ffffffffffffffffffffffffffffffffffffffff1673ffffffffffffffffffffffffffffffffffffffff1681526020018473ffffffffffffffffffffffffffffffffffffffff1673ffffffffffffffffffffffffffffffffffffffff16815260200183815260200180602001828103825283818151815260200191508051906020019080838360005b838110156131d35780820151818401526020810190506131b8565b50505050905090810190601f1680156132005780820380516001836020036101000a031916815260200191505b50965050505050505060405180910390a16134bf565b600160008a73ffffffffffffffffffffffffffffffffffffffff1673ffffffffffffffffffffffffffffffffffffffff168152602001908152602001600020600084815260200190815260200160002054915061327e82600e546139a090919063ffffffff16565b600e819055506132d5826000808c73ffffffffffffffffffffffffffffffffffffffff1673ffffffffffffffffffffffffffffffffffffffff168152602001908152602001600020546139a090919063ffffffff16565b6000808b73ffffffffffffffffffffffffffffffffffffffff1673ffffffffffffffffffffffffffffffffffffffff1681526020019081526020016000208190555061337a82600160008c73ffffffffffffffffffffffffffffffffffffffff1673ffffffffffffffffffffffffffffffffffffffff1681526020019081526020016000206000868152602001908152602001600020546139a090919063ffffffff16565b5061338e828761371a90919063ffffffff16565b95506133a460018661371a90919063ffffffff16565b94507fa1c85a30dec08aa526dc5a3ca33087f723335ec5c1614ecf0036da150a6971c883338b8b8b604051808681526020018573ffffffffffffffffffffffffffffffffffffffff1673ffffffffffffffffffffffffffffffffffffffff1681526020018473ffffffffffffffffffffffffffffffffffffffff1673ffffffffffffffffffffffffffffffffffffffff16815260200183815260200180602001828103825283818151815260200191508051906020019080838360005b8381101561347c578082015181840152602081019050613461565b50505050905090810190601f1680156134a95780820380516001836020036101000a031916815260200191505b50965050505050505060405180910390a1612e95565b7fea01d24fee0ecbb349ab449ea41d11599fd91ba758653579b30d38d63e2adedb338a8a8a604051808573ffffffffffffffffffffffffffffffffffffffff1673ffffffffffffffffffffffffffffffffffffffff1681526020018473ffffffffffffffffffffffffffffffffffffffff1673ffffffffffffffffffffffffffffffffffffffff16815260200183815260200180602001828103825283818151815260200191508051906020019080838360005b8381101561358e578082015181840152602081019050613573565b50505050905090810190601f1680156135bb5780820380516001836020036101000a031916815260200191505b509550505050505060405180910390a160008060008b73ffffffffffffffffffffffffffffffffffffffff1673ffffffffffffffffffffffffffffffffffffffff16815260200190815260200160002054141561361d5761361b896139c1565b505b601c60009054906101000a900460ff16156136d3577fddf252ad1be2c89b69c2b068fc378daa952ba7f163c4a11628f55a4df523b3ef8960008a604051808473ffffffffffffffffffffffffffffffffffffffff1673ffffffffffffffffffffffffffffffffffffffff1681526020018373ffffffffffffffffffffffffffffffffffffffff1673ffffffffffffffffffffffffffffffffffffffff168152602001828152602001935050505060405180910390a15b505050505050505050565b60008060008373ffffffffffffffffffffffffffffffffffffffff1614156137095760009150613714565b823b90506000811491505b50919050565b600080828401905083811015151561373157600080fd5b8091505092915050565b60008082601854604051602001808360001916600019168152602001828152602001925050506040516020818303038152906040526040518082805190602001908083835b6020831015156137a55780518252602082019150602081019050602083039250613780565b6001836020036101000a03801982511681845116808217855250505050505090500191505060405180910390206001900490506137ee600160185461371a90919063ffffffff16565b50601954818115156137fc57fe5b06915050919050565b60008061381183613a4c565b1561381f576000915061399a565b600160148490806001815401808255809150509060018203906000526020600020016000909192909190916101000a81548173ffffffffffffffffffffffffffffffffffffffff021916908373ffffffffffffffffffffffffffffffffffffffff16021790555003905080600560008573ffffffffffffffffffffffffffffffffffffffff1673ffffffffffffffffffffffffffffffffffffffff168152602001908152602001600020819055506001600460008573ffffffffffffffffffffffffffffffffffffffff1673ffffffffffffffffffffffffffffffffffffffff16815260200190815260200160002060006101000a81548160ff0219169083151502179055507f33dda5dca20a95bec563f7c6e810061b24d464536df0636a17d2d041b8b0c66d83601480549050604051808373ffffffffffffffffffffffffffffffffffffffff1673ffffffffffffffffffffffffffffffffffffffff1681526020018281526020019250505060405180910390a1600191505b50919050565b6000808383111515156139b257600080fd5b82840390508091505092915050565b600080600560008473ffffffffffffffffffffffffffffffffffffffff1673ffffffffffffffffffffffffffffffffffffffff168152602001908152602001600020549050601481815481101515613a1557fe5b9060005260206000200160006101000a81549073ffffffffffffffffffffffffffffffffffffffff02191690556001915050919050565b600060011515613a5b836136de565b1515141515613ad2576040517f08c379a00000000000000000000000000000000000000000000000000000000081526004018080602001828103825260158152602001807f6e6f74206120726567756c61722061646472657373000000000000000000000081525060200191505060405180910390fd5b600460008373ffffffffffffffffffffffffffffffffffffffff1673ffffffffffffffffffffffffffffffffffffffff16815260200190815260200160002060009054906101000a900460ff169050919050565b828054600181600116156101000203166002900490600052602060002090601f016020900481019282601f10613b6757805160ff1916838001178555613b95565b82800160010185558215613b95579182015b82811115613b94578251825591602001919060010190613b79565b5b509050613ba29190613c45565b5090565b6040805190810160405280600290602082028038833980820191505090505090565b8260028101928215613c34579160200282015b82811115613c335782518260006101000a81548173ffffffffffffffffffffffffffffffffffffffff021916908373ffffffffffffffffffffffffffffffffffffffff16021790555091602001919060010190613bdb565b5b509050613c419190613c6a565b5090565b613c6791905b80821115613c63576000816000905550600101613c4b565b5090565b90565b613caa91905b80821115613ca657600081816101000a81549073ffffffffffffffffffffffffffffffffffffffff021916905550600101613c70565b5090565b905600a165627a7a72305820c4a27ae6bf3dc91cef2b4952ee66488fb9e309445844df9a1c15c2ed7905018a0029",
  "source": "pragma solidity ^0.4.24;\r\n\r\nimport \"./SafeMath.sol\";\r\n\r\ncontract EquityTokenFactory /* is ERC20Interface, ERC777Interface, EIP1410Interface, EIP1400Interface */ {\r\n\r\n    using SafeMath for uint;\r\n\r\n    mapping (address => uint) OwnerToBalance; ///@notice wallet of tokens and balances of an owner\r\n    ///@notice wallet of tokens and balances of an owner depending on tranche\r\n    mapping (address => mapping (uint => uint)) OwnerToTrancheToBalance; \r\n    mapping (address => uint[]) OwnerToTranches; ///@notice tranches array of an owner\r\n    mapping (uint => TrancheMetaData) IdToMetaData; ///@notice mapping of metadata belonging to a token tranche\r\n    mapping (address => bool) AddressExists; ///@notice required for check if address is already stakeholder, more efficient than iterating array\r\n    mapping (address => uint) AddressToIndex; ///@notice index of address in shareholder array (TotalDistribution) \r\n    ///@notice allowance for transfer from _owner to _receiver to withdraw (ERC20 & ERC777)\r\n    mapping (address => mapping (address => uint)) allowed; \r\n    ///@notice maps an address if it passed KYC protocol; 0 = not accredited, 1 = investor, 2 = advocate)\r\n    mapping (address => uint) LevelOfAccreditation;\r\n    mapping (bytes32 => bool) CompanyToRequest; ///@notice maps if a company went through KYC/AML protocol;\r\n\r\n    modifier checkGranularity(uint _amount){\r\n        require((_amount % granular == 0), \"unable to modify token balances at this granularity\");\r\n        _;\r\n    }\r\n    \r\n    modifier onlyOwnerOfCom() {\r\n        require(msg.sender == companyOwner, \"requirement onlyOwner of Company modifier\");\r\n        _;\r\n    }\r\n\r\n    modifier onlyOwner(address _from) {\r\n        require((msg.sender == _from), \"requirement onlyOwner\");\r\n        _;\r\n    }\r\n\r\n    modifier checkAccreditation(address _to) {\r\n        require((LevelOfAccreditation[_to] == 1),\"requirement of successful KYC protocol\");\r\n        _;\r\n    }\r\n\r\n\r\n//-----EquityTokenFactory-----------------------------------------------------------------------------------------------------------------  \r\n      /* This structure allows a company to issue equity via token (quasi-shares) and determines the issuance process\r\n          - the creating company is an administrator and can start various equity related processes (e.g. pay dividend, recapitalize, ...)\r\n          - in general the contracts tracks and calculates two seperate balances, first the overall balance of a token holder and second\r\n            the tranche-specific balance of a token holder (e.g. if minting, sending, burning tokens)\r\n          - ERC20 is a de facto standard for trading of tokens\r\n          - ERC777 introduces operators (higher level administration), in order to e.g prepare for governmental control\r\n          - EIP1410 proposes tranching of a token (partial fungible tokens)\r\n          - EIP1400 proposes in-depth token management (e.g. transfer restrictions and regulation)\r\n          */\r\n\r\n\r\n    //@ToDo indexing of from and to and tokenId beneficial, but dropped for mocha testing environment\r\n    event newTokenIssuance(bytes32 companyName, bytes32 tokenTicker, address companyOwner);\r\n\r\n    ///@notice events for issuance of additional equity (recapitalization) and burning of existing capital\r\n    ///@notice ERC777 and EIP1410 mandatory\r\n    event Minted(address operator, address to, uint amount, bytes userData, bytes operatorData);\r\n    event Burned(address operator, address from, uint amount, bytes operatorData);\r\n    event MintedByTranche(uint trancheId, address operator, address to, uint amount, bytes userData, bytes operatorData);\r\n    event BurnedByTranche(uint trancheId, address operator, address from, uint amount, bytes operatorData);\r\n    ///@dev adjustments and new length of shareholder book\r\n    event newShareholder(address newShareholder, uint length);\r\n\r\n    ///@notice the core data of a issued token\r\n    ///@param granular for explanation see constructor\r\n    ///@param defaultOperator every token has two higher level administrators by default -> issuing company and government; can be changed\r\n    uint internal tokenId;\r\n    bytes32 internal companyName;\r\n    bytes32 internal tokenTicker;\r\n    byte internal categoryShare;\r\n    uint internal granular;\r\n    uint internal totalAmount;\r\n    address internal companyOwner;\r\n    address[2] internal defaultOperator;\r\n    uint internal regulationMaximumInvestors;\r\n    uint internal regulationMaximumSharesPerInvestor;\r\n  \r\n    ///@notice array of all owner of one equity token, thus the shareholder book\r\n    address[] public TotalDistribution;\r\n\r\n    ///@notice struct with metadata of every tranche\r\n    struct TrancheMetaData {\r\n        uint trancheAmount;\r\n        uint mintedTimeStamp;\r\n        uint LockupPeriod;\r\n    }\r\n\r\n    Document[] internal TokenDocuments;\r\n    struct Document {\r\n        bytes32 documentName;\r\n        string key;\r\n        bytes32 documentHash;\r\n    }\r\n\r\n    ///@notice default lockup of tranche after trading\r\n    uint internal defaultLockupPeriod = 365 days;\r\n\r\n    ///@notice token issuer can specify to stop token issuance, cannot be reverted\r\n    bool public isIssuable = true;\r\n    \r\n    ///@dev declares a random nonce which increases every time random number generator is used\r\n    ///@dev ensures, that randomId is always 12 digits\r\n    uint internal randNonce = 0;\r\n    uint internal idModulus = 10 ** 12;\r\n\r\n    ///@notice address of government, by default operator of any token; can be changed by companyOwner\r\n    address public governmentAddress;\r\n\r\n    ///@notice fee in order to get KYC/AML process\r\n    uint public accreditationFee = 1 ether;\r\n\r\n    ///@notice set if token should be interoperable with exchanges\r\n    bool internal erc20compatible;\r\n\r\n    ///@dev creates new token shell (status pending), safes information in storage\r\n    ///@param _granularity ensures, that granularity of shares is always a positive natural figure, cannot be changed ever\r\n    function createToken(bytes32 _companyName, bytes32 _tokenTicker, uint _granularity) public {\r\n        assert(_granularity >= 1); // \"granularity has to be greater or equal 1\"\r\n        tokenId = _generateRandomId(_companyName);\r\n        companyName = _companyName;\r\n        tokenTicker = _tokenTicker;\r\n        categoryShare = \"A\";\r\n        totalAmount = 0;\r\n        granular = _granularity;\r\n        erc20compatible = true;\r\n        companyOwner = msg.sender;\r\n        defaultOperator = [msg.sender, governmentAddress];\r\n\r\n        ///@dev solidity declares a variable by default to 0, thus in the test environment we have to simulate regulation requirements\r\n        regulationMaximumInvestors = 10 ** 4;\r\n        regulationMaximumSharesPerInvestor = 10 ** 6;\r\n\r\n        _toShareholderbook(msg.sender);\r\n\r\n        emit newTokenIssuance(companyName, tokenTicker, msg.sender);\r\n    }\r\n  \r\n    ///@notice process to mint new equity\r\n    ///@notice compliant with ERC777 & EIP1410\r\n    function mint(uint _amount, bytes _userData, bytes _operatorData) public checkGranularity(_amount) onlyOwnerOfCom {         \r\n        require((CompanyToRequest[companyName] == true), \"requires changed status from pending to active\");\r\n        require((isIssuable == true), \"token issuance is finished\");\r\n\r\n        ///@notice creates random Id for new tranche of equity, stores only Id in array and metadata in metadata struct\r\n        uint trancheId = _generateRandomId(companyName);\r\n        IdToMetaData[trancheId] = (TrancheMetaData(_amount, block.timestamp, 0));\r\n\r\n        ///@notice increase balance in two ways, first overall balance of owner, second tranche-specific balanche of owner\r\n        totalAmount = totalAmount.add(_amount);\r\n        OwnerToBalance[msg.sender] = OwnerToBalance[msg.sender].add(_amount);\r\n        OwnerToTrancheToBalance[msg.sender][trancheId] = OwnerToTrancheToBalance[msg.sender][trancheId].add(_amount);\r\n\r\n        OwnerToTranches[msg.sender].push(uint(trancheId));\r\n\r\n        emit Minted(msg.sender, msg.sender, _amount, _userData, _operatorData);\r\n        emit MintedByTranche(trancheId, msg.sender, msg.sender, _amount, _userData, _operatorData);\r\n        if (erc20compatible) {emit Transfer(0x0, msg.sender, _amount);}\r\n    }\r\n        \r\n    ///@notice process to burn equity\r\n    ///@notice _burn function can be used by Company AND private token holder, burn is a shell and important to fullfil onlyOwner requirement\r\n    ///@notice compliant with ERC777 & EIP1410\r\n    function burn(address _from, uint _amount, bytes _operatorData) public onlyOwner(_from) {\r\n        _burn(_from, _amount, _operatorData);\r\n    }\r\n    function _burn(address _from, uint _amount, bytes _operatorData) private checkGranularity(_amount) {\r\n        require((OwnerToBalance[_from] >= _amount), \"not enough funding to burn\");\r\n        \r\n        uint burnedAmount = 0;\r\n        uint counter = 1;\r\n\r\n        ///@dev this loop and its break requirement is either fullfiled if a single tranche balance is > _amount, or the sum of different tranche balances > _amount\r\n        ///@dev if not otherwise stated all functions use the latest tranche first to send/burn tokens (First In First Out), this can be changed in detail by owners\r\n        while(burnedAmount < _amount) {\r\n            uint[] memory tempTranches = OwnerToTranches[_from]; \r\n            uint tempTrancheId = tempTranches[tempTranches.length - counter];\r\n                \r\n            if(OwnerToTrancheToBalance[_from][tempTrancheId] >= _amount.sub(burnedAmount)) {\r\n                totalAmount = totalAmount.sub((_amount.sub(burnedAmount)));\r\n                OwnerToBalance[_from] = OwnerToBalance[_from].sub((_amount.sub(burnedAmount)));\r\n                OwnerToTrancheToBalance[_from][tempTrancheId].sub((_amount.sub(burnedAmount)));\r\n                emit BurnedByTranche(tempTrancheId, msg.sender, _from, _amount, _operatorData);\r\n                break;\r\n            }\r\n            else {\r\n                uint burnTx = OwnerToTrancheToBalance[_from][tempTrancheId];\r\n                totalAmount = totalAmount.sub(burnTx);\r\n                OwnerToBalance[_from] = OwnerToBalance[_from].sub(burnTx);\r\n                OwnerToTrancheToBalance[_from][tempTrancheId].sub(burnTx);\r\n\r\n                burnedAmount = burnedAmount.add(burnTx);\r\n                counter = counter.add(1);\r\n                emit BurnedByTranche(tempTrancheId, msg.sender, _from, _amount, _operatorData);\r\n            }\r\n        }\r\n        emit Burned(msg.sender, _from, _amount, _operatorData);\r\n        if(OwnerToBalance[_from] == 0) {_deleteShareholder(_from);}\r\n        if(erc20compatible) {emit Transfer(_from, address(0x0), _amount);}\r\n    }\r\n\r\n    ///@notice burn function can be used by Company AND private token holder, important to fullfil onlyOwner requirement\r\n    function burnByTranche(uint _trancheId, address _from, uint _amount, bytes _operatorData) public onlyOwner(_from) {\r\n        _burnByTranche(_trancheId, _from, _amount, _operatorData);\r\n    }\r\n    function _burnByTranche(uint _trancheId, address _from, uint _amount, bytes _operatorData) private checkGranularity(_amount) {\r\n        require((OwnerToTrancheToBalance[_from][_trancheId] >= _amount), \"not enough tranche-specific funding to burn\");\r\n                \r\n        totalAmount = totalAmount.sub(_amount);\r\n        OwnerToBalance[_from] = OwnerToBalance[_from].sub(_amount);\r\n        OwnerToTrancheToBalance[_from][_trancheId].sub(_amount);\r\n\r\n        emit BurnedByTranche(_trancheId, msg.sender, _from, _amount, _operatorData);\r\n        emit Burned(msg.sender, _from, _amount, _operatorData);\r\n        if(OwnerToBalance[_from] == 0) {_deleteShareholder(_from);}\r\n        if(erc20compatible) {emit Transfer(_from, address(0x0), _amount);}\r\n    }\r\n\r\n    ///@notice ERC777 mandatory\r\n    function operatorBurn(address _from, uint _amount, bytes _operatorData) public {\r\n        require((isOperatorFor(msg.sender, _from)), \"sender is not authorized to operate with _from's account\");\r\n        _burn(_from, _amount, _operatorData);\r\n    }\r\n\r\n    ///@notice EIP1400 mandatory\r\n    function operatorBurnByTranche(uint _trancheId, address _from, uint _amount, bytes _operatorData) public {\r\n        require((isOperatorFor(msg.sender, _from)), \"sender is not authorized to operate with _from's account\");\r\n        _burnByTranche(_trancheId, _from, _amount, _operatorData);\r\n    }\r\n\r\n    ///@dev generates an unique 8 digit tokenId by hashing string and a nonce\r\n    function _generateRandomId() internal view returns(uint) {\r\n        uint random = uint(keccak256(abi.encodePacked(\"randomString\", randNonce)));\r\n        randNonce.add(1);\r\n        return random % idModulus;\r\n    }\r\n    function _generateRandomId(bytes32 _stringInput) internal view returns(uint) {\r\n        uint random = uint(keccak256(abi.encodePacked(_stringInput, randNonce)));\r\n        randNonce.add(1);\r\n        return random % idModulus;\r\n    }\r\n\r\n    ///@dev iternal function to push new address to shareholder book, checks if address exists first\r\n    function _toShareholderbook(address _addr) internal returns(bool success_) {\r\n        if (_checkExistence(_addr)) return false;\r\n\r\n        uint AddressIndex = uint(TotalDistribution.push(address(_addr))) - 1;\r\n        AddressToIndex[_addr] = AddressIndex;\r\n        AddressExists[_addr] = true;\r\n\r\n        emit newShareholder(_addr, TotalDistribution.length);\r\n        return true;\r\n    }\r\n\r\n    function _deleteShareholder(address _from) internal returns(bool success_) {\r\n        uint tempIndex = AddressToIndex[_from];\r\n        delete TotalDistribution[tempIndex];\r\n        return true;\r\n    }\r\n\r\n    /* ///@notice helps to re-sort arrays\r\n    function remove(uint index)  returns(uint[]) {\r\n        if (index >= array.length) return;\r\n        for (uint i = index; i<array.length-1; i++){\r\n            array[i] = array[i+1];}\r\n        array.length--;\r\n        return array;\r\n    } */\r\n    \r\n    ///@dev manage documents associated with token, using IPFS encrypted peer-to-peer filesharing\r\n    ///@notice EIP1400 proposal\r\n    function setDocument(bytes32 _name, string _key, bytes32 _documentHash) external payable {\r\n        require((msg.value == accreditationFee),\"not enough ether in for payable function\");\r\n        TokenDocuments.push(Document(_name, _key,_documentHash));\r\n        // Qmd7k4CUpE8Q6zbWJyVXCrdUbtCDBiYaCazpYmg2CQvn4q 8272F50FFD9253E3 ipo-prospectus-onepager.pdf \r\n    }\r\n\r\n    function getDocument(bytes32 _name) external view returns(string, bytes32){\r\n        require((LevelOfAccreditation[msg.sender] == 2), \"requires advocate to see download files\");\r\n        for (uint i = 0; i < TokenDocuments.length; i++) {\r\n            if(TokenDocuments[i].documentName == _name) {\r\n                return (TokenDocuments[i].key, TokenDocuments[i].documentHash);\r\n            }\r\n        }\r\n    }\r\n\r\n    ///@notice advocate can clear a companies request, changing status pending into active token\r\n    function clearRequest(bytes32 _companyName) external {\r\n        // require((LevelOfAccreditation[msg.sender] == 100), \"requires advocate to activate token\"); omitted for testing\r\n        CompanyToRequest[_companyName] = true;\r\n    }\r\n\r\n    ///@notice ERC20 mandatory\r\n    event Transfer(address _from, address _to, uint _txamount);\r\n    \r\n//-----EquityTokenFactory-----------------------------------------------------------------------------------------------------------------\r\n\r\n\r\n//-----TokenGovernance-------------------------------------------------------------------------------------------------------------------- \r\n    ///@notice fires event if authorization of operator for an address\r\n    ///@notice ERC777 mandatory\r\n    event AuthorizedOperator(address operator, address tokenHolder);\r\n    event RevokedOperator(address indexed operator, address indexed tokenHolder);\r\n\r\n    mapping(address => mapping(address => bool)) internal mAuthorized;\r\n\r\n    ///@notice ERC777 mandatory\r\n    function defaultOperators() public view returns(address[2]) {\r\n        return defaultOperator;\r\n    }\r\n\r\n    ///@notice authorize a third party _operator to manage (send) msg.sender's tokens. msg.sender always operator himself, thus requirement\r\n    ///@notice ERC777 mandatory\r\n    function authorizeOperator(address _operator) public {\r\n        require((_operator != msg.sender), \"msg.sender cannot authorized himself\");\r\n        mAuthorized[_operator][msg.sender] = true;\r\n        emit AuthorizedOperator(_operator, msg.sender);\r\n    }\r\n\r\n    ///@notice revoke a third party _operator's rights to manage (send) msg.sender's tokens.\r\n    ///@notice ERC777 mandatory, EIP1400 & EIP1410 in discussion\r\n    ///@notice it may be that regulations require an issuer or a trusted third party to retain the power thus it can be that revoking an operator\r\n    /// MUST NOT be allowed\r\n    function revokeOperator(address _operator) public {\r\n        require((_operator != msg.sender), \"msg.sender cannot revoke himself\");\r\n        mAuthorized[_operator][msg.sender] = false;\r\n        emit RevokedOperator(_operator, msg.sender);\r\n    }\r\n\r\n    ///@notice check whether the _operator address is allowed to manage the tokens held by _tokenHolder address.\r\n    ///@return true if _operator is authorized for _tokenHolder\r\n    ///@notice ERC777 mandatory\r\n    function isOperatorFor(address _operator, address _tokenHolder) public view returns(bool) {\r\n        return _operator == _tokenHolder || mAuthorized[_operator][_tokenHolder];\r\n    }\r\n\r\n    function setGovernmentAddress(address _addr) external onlyOwnerOfCom {\r\n        require((_isRegularAddress(_addr) == true), \"_addr address does not exist or is 0x0 (burning)\");\r\n        governmentAddress = _addr;\r\n    }\r\n\r\n    ///@notice owner can stop issuance, not revertable!\r\n    ///@notice EIP1400 mandatory\r\n    function stopIssuance() external onlyOwnerOfCom {\r\n        isIssuable = false;\r\n    }\r\n\r\n    ///@notice provides transparency wether defaultOperators can be adjusted by company: if government address is set company changed it and is thus not controllable (return false)\r\n    function isControllable() external view returns(bool) {\r\n        if(governmentAddress != address(0x0)) {return false;}\r\n        return true;\r\n    }\r\n\r\n    ///@dev checks existence of address in shareholder book by using mapping (address => bool)\r\n    function _checkExistence(address _addr) internal view returns(bool success_) {\r\n        require((_isRegularAddress(_addr) == true), \"not a regular address\");\r\n        return AddressExists[_addr];\r\n    }\r\n    \r\n    ///@notice check whether an address is a regular address (0x0 address and length of address). Suppress warning by \"// solhint-disable-line no-inline-assembly\"\r\n    function _isRegularAddress(address _addr) internal view returns(bool) {\r\n        if (_addr == 0x0) { \r\n            return false; }\r\n        uint size;\r\n        assembly { size := extcodesize(_addr) }\r\n        return size == 0;\r\n    }\r\n\r\n    ///@dev manage documents associated with investor\r\n    function uploadDocument(bytes32 _name, string _key, bytes32 _documentHash) external payable {\r\n        require((msg.value == accreditationFee),\"not enough ether in for payable function\");\r\n        TokenDocuments.push(Document(_name, _key,_documentHash));\r\n        /// QmQ5vhrL7uv6tuoN9KeVBwd4PwfQkXdVVmDLUZuTNxqgvm 882ACD0FD77E4VD KYC-documents.pdf \r\n    }\r\n\r\n    ///@notice advocate can approve investor to another level of accreditation; 0 = no investor, 1 = approved investor, 2 = advocate\r\n    function authorizeRequest(address _authorizedInvestor) external {\r\n        /// require((LevelOfAccreditation[msg.sender] == 100), \"requires advocate to authorize investor\"); omitted for testing\r\n        require((LevelOfAccreditation[_authorizedInvestor] < 2), \"investor already authorized an accredited\");\r\n        LevelOfAccreditation[_authorizedInvestor].add(1);\r\n    }\r\n\r\n    ///@notice this modul implements lockup periods, for the sake of simplicity it is not active within the contract.\r\n    /// one has to set LockupPeriod within minting function, and the require _isReady == true within transaction functions.\r\n    function _isReady(uint _trancheId) internal view returns(bool ready_) {\r\n        uint readyTime = uint(IdToMetaData[_trancheId].mintedTimeStamp + IdToMetaData[_trancheId].LockupPeriod);\r\n        return (block.timestamp >= readyTime);\r\n    }\r\n\r\n    function setLockup(uint _adjustedLockup) external onlyOwnerOfCom {\r\n        defaultLockupPeriod = _adjustedLockup;\r\n    }\r\n\r\n//-----TokenGovernance-------------------------------------------------------------------------------------------------------------------- \r\n\r\n}",
  "sourcePath": "/mnt/c/Solidity/solidity_eto/contracts/EquityTokenFactory.sol",
  "compiler": {
    "name": "solc",
    "version": "0.4.24+commit.e67f0147.Emscripten.clang"
  },
  "schemaVersion": "2.0.1",
  "updatedAt": "2018-12-17T21:08:18.076Z"
}