{
  "contractName": "EquityTokenFactory",
  "abi": [
    {
      "constant": true,
      "inputs": [
        {
          "name": "",
          "type": "uint256"
        }
      ],
      "name": "TotalDistribution",
      "outputs": [
        {
          "name": "",
          "type": "address"
        }
      ],
      "payable": false,
      "stateMutability": "view",
      "type": "function"
    },
    {
      "constant": true,
      "inputs": [],
      "name": "ArtifactEquityToken",
      "outputs": [
        {
          "name": "tokenId",
          "type": "uint256"
        },
        {
          "name": "companyName",
          "type": "string"
        },
        {
          "name": "tokenTicker",
          "type": "string"
        },
        {
          "name": "totalamount",
          "type": "uint256"
        },
        {
          "name": "nominalvalue",
          "type": "uint256"
        }
      ],
      "payable": false,
      "stateMutability": "view",
      "type": "function"
    },
    {
      "anonymous": false,
      "inputs": [
        {
          "indexed": false,
          "name": "tokenId",
          "type": "uint256"
        },
        {
          "indexed": false,
          "name": "totalamount",
          "type": "uint256"
        },
        {
          "indexed": false,
          "name": "nominalvalue",
          "type": "uint256"
        }
      ],
      "name": "newTokenIssuance",
      "type": "event"
    },
    {
      "anonymous": false,
      "inputs": [
        {
          "indexed": false,
          "name": "_txamount",
          "type": "uint256"
        }
      ],
      "name": "Dividend",
      "type": "event"
    },
    {
      "anonymous": false,
      "inputs": [
        {
          "indexed": false,
          "name": "_from",
          "type": "address"
        },
        {
          "indexed": false,
          "name": "_to",
          "type": "address"
        },
        {
          "indexed": false,
          "name": "_txamount",
          "type": "uint256"
        }
      ],
      "name": "Transfer",
      "type": "event"
    },
    {
      "anonymous": false,
      "inputs": [
        {
          "indexed": false,
          "name": "_from",
          "type": "address"
        },
        {
          "indexed": false,
          "name": "_to",
          "type": "address"
        },
        {
          "indexed": false,
          "name": "_txamount",
          "type": "uint256"
        }
      ],
      "name": "Approval",
      "type": "event"
    },
    {
      "constant": false,
      "inputs": [
        {
          "name": "_companyName",
          "type": "string"
        },
        {
          "name": "_tokenTicker",
          "type": "string"
        },
        {
          "name": "_totalamount",
          "type": "uint256"
        },
        {
          "name": "_nominalvalue",
          "type": "uint256"
        }
      ],
      "name": "createEquityToken",
      "outputs": [],
      "payable": false,
      "stateMutability": "nonpayable",
      "type": "function"
    },
    {
      "constant": true,
      "inputs": [
        {
          "name": "_addr",
          "type": "address"
        }
      ],
      "name": "getBalanceOfInEth",
      "outputs": [
        {
          "name": "",
          "type": "uint256"
        }
      ],
      "payable": false,
      "stateMutability": "view",
      "type": "function"
    },
    {
      "constant": true,
      "inputs": [
        {
          "name": "_addr",
          "type": "address"
        }
      ],
      "name": "balanceOf",
      "outputs": [
        {
          "name": "",
          "type": "uint256"
        }
      ],
      "payable": false,
      "stateMutability": "view",
      "type": "function"
    },
    {
      "constant": true,
      "inputs": [],
      "name": "totalSupply",
      "outputs": [
        {
          "name": "totalSupply_",
          "type": "uint256"
        }
      ],
      "payable": false,
      "stateMutability": "view",
      "type": "function"
    },
    {
      "constant": true,
      "inputs": [],
      "name": "getInfosEquityToken",
      "outputs": [
        {
          "name": "",
          "type": "uint256"
        },
        {
          "name": "",
          "type": "string"
        },
        {
          "name": "",
          "type": "string"
        },
        {
          "name": "",
          "type": "uint256"
        },
        {
          "name": "",
          "type": "uint256"
        }
      ],
      "payable": false,
      "stateMutability": "view",
      "type": "function"
    },
    {
      "constant": true,
      "inputs": [],
      "name": "getAllAddressesEquityToken",
      "outputs": [
        {
          "name": "",
          "type": "address[]"
        }
      ],
      "payable": false,
      "stateMutability": "view",
      "type": "function"
    },
    {
      "constant": false,
      "inputs": [
        {
          "name": "_receiver",
          "type": "address"
        },
        {
          "name": "_txamount",
          "type": "uint256"
        }
      ],
      "name": "transfer",
      "outputs": [
        {
          "name": "success_",
          "type": "bool"
        }
      ],
      "payable": false,
      "stateMutability": "nonpayable",
      "type": "function"
    },
    {
      "constant": false,
      "inputs": [
        {
          "name": "_from",
          "type": "address"
        },
        {
          "name": "_to",
          "type": "address"
        },
        {
          "name": "_txamount",
          "type": "uint256"
        }
      ],
      "name": "transferFrom",
      "outputs": [
        {
          "name": "success_",
          "type": "bool"
        }
      ],
      "payable": false,
      "stateMutability": "nonpayable",
      "type": "function"
    },
    {
      "constant": false,
      "inputs": [
        {
          "name": "_spender",
          "type": "address"
        },
        {
          "name": "_txamount",
          "type": "uint256"
        }
      ],
      "name": "approve",
      "outputs": [
        {
          "name": "success_",
          "type": "bool"
        }
      ],
      "payable": false,
      "stateMutability": "nonpayable",
      "type": "function"
    },
    {
      "constant": true,
      "inputs": [
        {
          "name": "_owner",
          "type": "address"
        },
        {
          "name": "_spender",
          "type": "address"
        }
      ],
      "name": "allowance",
      "outputs": [
        {
          "name": "remaining",
          "type": "uint256"
        }
      ],
      "payable": false,
      "stateMutability": "view",
      "type": "function"
    }
  ],
  "bytecode": "0x60806040526305f5e100600a556001600b5534801561001d57600080fd5b5061183d8061002d6000396000f3006080604052600436106100ba576000357c0100000000000000000000000000000000000000000000000000000000900463ffffffff168063095ea7b3146100bf5780630b366df1146101245780631348bf221461019157806318160ddd146102a257806318d46718146102cd57806323b872dd146103245780634f86ef33146103a957806370a08231146104ba578063923a891914610511578063a9059cbb146105d4578063c073d83614610639578063dd62ed3e146106a5575b600080fd5b3480156100cb57600080fd5b5061010a600480360381019080803573ffffffffffffffffffffffffffffffffffffffff1690602001909291908035906020019092919050505061071c565b604051808215151515815260200191505060405180910390f35b34801561013057600080fd5b5061014f60048036038101908080359060200190929190505050610848565b604051808273ffffffffffffffffffffffffffffffffffffffff1673ffffffffffffffffffffffffffffffffffffffff16815260200191505060405180910390f35b34801561019d57600080fd5b506101a6610886565b604051808681526020018060200180602001858152602001848152602001838103835287818151815260200191508051906020019080838360005b838110156101fc5780820151818401526020810190506101e1565b50505050905090810190601f1680156102295780820380516001836020036101000a031916815260200191505b50838103825286818151815260200191508051906020019080838360005b83811015610262578082015181840152602081019050610247565b50505050905090810190601f16801561028f5780820380516001836020036101000a031916815260200191505b5097505050505050505060405180910390f35b3480156102ae57600080fd5b506102b76109f2565b6040518082815260200191505060405180910390f35b3480156102d957600080fd5b5061030e600480360381019080803573ffffffffffffffffffffffffffffffffffffffff169060200190929190505050610a02565b6040518082815260200191505060405180910390f35b34801561033057600080fd5b5061038f600480360381019080803573ffffffffffffffffffffffffffffffffffffffff169060200190929190803573ffffffffffffffffffffffffffffffffffffffff16906020019092919080359060200190929190505050610ac2565b604051808215151515815260200191505060405180910390f35b3480156103b557600080fd5b506103be610dfa565b604051808681526020018060200180602001858152602001848152602001838103835287818151815260200191508051906020019080838360005b838110156104145780820151818401526020810190506103f9565b50505050905090810190601f1680156104415780820380516001836020036101000a031916815260200191505b50838103825286818151815260200191508051906020019080838360005b8381101561047a57808201518184015260208101905061045f565b50505050905090810190601f1680156104a75780820380516001836020036101000a031916815260200191505b5097505050505050505060405180910390f35b3480156104c657600080fd5b506104fb600480360381019080803573ffffffffffffffffffffffffffffffffffffffff169060200190929190505050610f4e565b6040518082815260200191505060405180910390f35b34801561051d57600080fd5b506105d2600480360381019080803590602001908201803590602001908080601f0160208091040260200160405190810160405280939291908181526020018383808284378201915050505050509192919290803590602001908201803590602001908080601f01602080910402602001604051908101604052809392919081815260200183838082843782019150505050505091929192908035906020019092919080359060200190929190505050610f96565b005b3480156105e057600080fd5b5061061f600480360381019080803573ffffffffffffffffffffffffffffffffffffffff16906020019092919080359060200190929190505050610fb7565b604051808215151515815260200191505060405180910390f35b34801561064557600080fd5b5061064e6111fa565b6040518080602001828103825283818151815260200191508051906020019060200280838360005b83811015610691578082015181840152602081019050610676565b505050509050019250505060405180910390f35b3480156106b157600080fd5b50610706600480360381019080803573ffffffffffffffffffffffffffffffffffffffff169060200190929190803573ffffffffffffffffffffffffffffffffffffffff1690602001909291905050506112e1565b6040518082815260200191505060405180910390f35b600081600360003373ffffffffffffffffffffffffffffffffffffffff1673ffffffffffffffffffffffffffffffffffffffff16815260200190815260200160002060008573ffffffffffffffffffffffffffffffffffffffff1673ffffffffffffffffffffffffffffffffffffffff168152602001908152602001600020819055507f8c5be1e5ebec7d5bd14f71427d1e84f3dd0314c0f7b2291e5b200ac8c7c3b925338484604051808473ffffffffffffffffffffffffffffffffffffffff1673ffffffffffffffffffffffffffffffffffffffff1681526020018373ffffffffffffffffffffffffffffffffffffffff1673ffffffffffffffffffffffffffffffffffffffff168152602001828152602001935050505060405180910390a16001905092915050565b60098181548110151561085757fe5b906000526020600020016000915054906101000a900473ffffffffffffffffffffffffffffffffffffffff1681565b6000606080600080600460000154600460010160046002016004600301546004800154838054600181600116156101000203166002900480601f01602080910402602001604051908101604052809291908181526020018280546001816001161561010002031660029004801561093e5780601f106109135761010080835404028352916020019161093e565b820191906000526020600020905b81548152906001019060200180831161092157829003601f168201915b50505050509350828054600181600116156101000203166002900480601f0160208091040260200160405190810160405280929190818152602001828054600181600116156101000203166002900480156109da5780601f106109af576101008083540402835291602001916109da565b820191906000526020600020905b8154815290600101906020018083116109bd57829003601f168201915b50505050509250945094509450945094509091929394565b6000600460030154905080905090565b600073__ConvertLib____________________________6396e4ee3d610a2784610f4e565b60036040518363ffffffff167c0100000000000000000000000000000000000000000000000000000000028152600401808381526020018281526020019250505060206040518083038186803b158015610a8057600080fd5b505af4158015610a94573d6000803e3d6000fd5b505050506040513d6020811015610aaa57600080fd5b81019080805190602001909291905050509050919050565b6000806000600360008773ffffffffffffffffffffffffffffffffffffffff1673ffffffffffffffffffffffffffffffffffffffff16815260200190815260200160002060003373ffffffffffffffffffffffffffffffffffffffff1673ffffffffffffffffffffffffffffffffffffffff168152602001908152602001600020549150836000808873ffffffffffffffffffffffffffffffffffffffff1673ffffffffffffffffffffffffffffffffffffffff1681526020019081526020016000205410158015610b945750838210155b1515610c08576040517f08c379a000000000000000000000000000000000000000000000000000000000815260040180806020018281038252601b8152602001807f6e6f20617070726f76616c20666f72207472616e73616374696f6e000000000081525060200191505060405180910390fd5b836000808873ffffffffffffffffffffffffffffffffffffffff1673ffffffffffffffffffffffffffffffffffffffff16815260200190815260200160002060008282540392505081905550836000808773ffffffffffffffffffffffffffffffffffffffff1673ffffffffffffffffffffffffffffffffffffffff16815260200190815260200160002060008282540192505081905550600160098690806001815401808255809150509060018203906000526020600020016000909192909190916101000a81548173ffffffffffffffffffffffffffffffffffffffff021916908373ffffffffffffffffffffffffffffffffffffffff16021790555003905080600260008773ffffffffffffffffffffffffffffffffffffffff1673ffffffffffffffffffffffffffffffffffffffff168152602001908152602001600020819055507fddf252ad1be2c89b69c2b068fc378daa952ba7f163c4a11628f55a4df523b3ef868686604051808473ffffffffffffffffffffffffffffffffffffffff1673ffffffffffffffffffffffffffffffffffffffff1681526020018373ffffffffffffffffffffffffffffffffffffffff1673ffffffffffffffffffffffffffffffffffffffff168152602001828152602001935050505060405180910390a16001925050509392505050565b6004806000015490806001018054600181600116156101000203166002900480601f016020809104026020016040519081016040528092919081815260200182805460018160011615610100020316600290048015610e9a5780601f10610e6f57610100808354040283529160200191610e9a565b820191906000526020600020905b815481529060010190602001808311610e7d57829003601f168201915b505050505090806002018054600181600116156101000203166002900480601f016020809104026020016040519081016040528092919081815260200182805460018160011615610100020316600290048015610f385780601f10610f0d57610100808354040283529160200191610f38565b820191906000526020600020905b815481529060010190602001808311610f1b57829003601f168201915b5050505050908060030154908060040154905085565b60008060008373ffffffffffffffffffffffffffffffffffffffff1673ffffffffffffffffffffffffffffffffffffffff168152602001908152602001600020549050919050565b6000610fa185611368565b9050610fb0818686868661146c565b5050505050565b600080826000803373ffffffffffffffffffffffffffffffffffffffff1673ffffffffffffffffffffffffffffffffffffffff16815260200190815260200160002054101561100957600091506111f3565b826000803373ffffffffffffffffffffffffffffffffffffffff1673ffffffffffffffffffffffffffffffffffffffff16815260200190815260200160002060008282540392505081905550826000808673ffffffffffffffffffffffffffffffffffffffff1673ffffffffffffffffffffffffffffffffffffffff16815260200190815260200160002060008282540192505081905550600160098590806001815401808255809150509060018203906000526020600020016000909192909190916101000a81548173ffffffffffffffffffffffffffffffffffffffff021916908373ffffffffffffffffffffffffffffffffffffffff16021790555003905080600260008673ffffffffffffffffffffffffffffffffffffffff1673ffffffffffffffffffffffffffffffffffffffff168152602001908152602001600020819055507fddf252ad1be2c89b69c2b068fc378daa952ba7f163c4a11628f55a4df523b3ef338585604051808473ffffffffffffffffffffffffffffffffffffffff1673ffffffffffffffffffffffffffffffffffffffff1681526020018373ffffffffffffffffffffffffffffffffffffffff1673ffffffffffffffffffffffffffffffffffffffff168152602001828152602001935050505060405180910390a1600191505b5092915050565b60608060006009805490506040519080825280602002602001820160405280156112335781602001602082028038833980820191505090505b509150600090505b6009805490508110156112d95760098181548110151561125757fe5b9060005260206000200160009054906101000a900473ffffffffffffffffffffffffffffffffffffffff16828281518110151561129057fe5b9060200190602002019073ffffffffffffffffffffffffffffffffffffffff16908173ffffffffffffffffffffffffffffffffffffffff1681525050808060010191505061123b565b819250505090565b6000600360008473ffffffffffffffffffffffffffffffffffffffff1673ffffffffffffffffffffffffffffffffffffffff16815260200190815260200160002060008373ffffffffffffffffffffffffffffffffffffffff1673ffffffffffffffffffffffffffffffffffffffff16815260200190815260200160002054905092915050565b600080600080915083826040516020018083805190602001908083835b6020831015156113aa5780518252602082019150602081019050602083039250611385565b6001836020036101000a038019825116818451168082178552505050505050905001828152602001925050506040516020818303038152906040526040518082805190602001908083835b60208310151561141a57805182526020820191506020810190506020830392506113f5565b6001836020036101000a03801982511681845116808217855250505050505090500191505060405180910390206001900490508180600101925050600a548181151561146257fe5b0692505050919050565b600060a0604051908101604052808781526020018681526020018581526020018481526020018381525060046000820151816000015560208201518160010190805190602001906114be9291906116e5565b5060408201518160020190805190602001906114db9291906116e5565b5060608201518160030155608082015181600401559050506004600160003373ffffffffffffffffffffffffffffffffffffffff1673ffffffffffffffffffffffffffffffffffffffff1681526020019081526020016000206000820154816000015560018201816001019080546001816001161561010002031660029004611565929190611765565b506002820181600201908054600181600116156101000203166002900461158d929190611765565b506003820154816003015560048201548160040155905050600160093390806001815401808255809150509060018203906000526020600020016000909192909190916101000a81548173ffffffffffffffffffffffffffffffffffffffff021916908373ffffffffffffffffffffffffffffffffffffffff16021790555003905080600260003373ffffffffffffffffffffffffffffffffffffffff1673ffffffffffffffffffffffffffffffffffffffff16815260200190815260200160002081905550826000803373ffffffffffffffffffffffffffffffffffffffff1673ffffffffffffffffffffffffffffffffffffffff168152602001908152602001600020819055507f53a17e314a0d49dac5969913b5815abbebc5582aacfbbafb2536bc1f22ef6c4386848460405180848152602001838152602001828152602001935050505060405180910390a1505050505050565b828054600181600116156101000203166002900490600052602060002090601f016020900481019282601f1061172657805160ff1916838001178555611754565b82800160010185558215611754579182015b82811115611753578251825591602001919060010190611738565b5b50905061176191906117ec565b5090565b828054600181600116156101000203166002900490600052602060002090601f016020900481019282601f1061179e57805485556117db565b828001600101855582156117db57600052602060002091601f016020900482015b828111156117da5782548255916001019190600101906117bf565b5b5090506117e891906117ec565b5090565b61180e91905b8082111561180a5760008160009055506001016117f2565b5090565b905600a165627a7a723058200d38dc90e1e5b2e9f15517c52420588239dd5a1bce0782023dbba17d925dd2480029",
  "source": "pragma solidity ^0.4.24;\r\n\r\nimport \"./ConvertLib.sol\";\r\n\r\ncontract EquityTokenFactory {\r\n    \r\n    event newTokenIssuance(uint tokenId, uint totalamount, uint nominalvalue);\r\n    //ToDo: token_id should be indexed;\r\n\r\n    mapping (address => uint) OwnerToBalance; //@notes: Wallet of tokens and balances of an owner\r\n    mapping (address => EquityToken) OwnerToArtifact; //@notes: maps company address with EquityToken\r\n    // mapping (uint => Distribution[]) TokenToAddress; //@notes: Shareholders list of a token\r\n    // mapping (uint => uint) TokenToIndex; //@notes: at which index of equitytoken array tokenId can be found\r\n    mapping (address => uint) AddressToIndex; //@notes: at wich index of distribution array address can be found\r\n    mapping (address => mapping (address => uint)) allowed; //@notes: allowance for transfer from _owner to _receiver to withdraw\r\n\r\n\r\n    \r\n    modifier checkGranularity(uint _amount){\r\n    require((_amount % granularity == 0), \"unable to modify token balances at this granularity\");\r\n    _;\r\n    }\r\n      \r\n\r\n    struct EquityToken {\r\n      uint tokenId;\r\n      string companyName;\r\n      string tokenTicker;\r\n      uint totalamount;\r\n      uint nominalvalue;\r\n      }\r\n\r\n    \r\n    // @notes: array of all EquityToken\r\n    EquityToken public ArtifactEquityToken;\r\n        \r\n    //@notes: array of all owner and amount of one equity token.\r\n    //@ToDo: test for multiple shares!!\r\n    address[] public TotalDistribution;\r\n\r\n    // @dev: ensures, that tokenId is always 8 digits\r\n    uint idModulus = 10 ** 8;\r\n\r\n    // @dev: ensures, that granularity of shares is always natural figures\r\n    uint granularity = 10 ** 0;\r\n\r\n  // @dev: public issuance function, requires approval and creates unique id\r\n  function createEquityToken(string _companyName, string _tokenTicker, uint _totalamount, uint _nominalvalue) public {\r\n  uint tokenId = _generateRandomTokenId(_companyName);\r\n  //@ToDo: Approval Process (require)\r\n  _createEquityToken(tokenId, _companyName, _tokenTicker, _totalamount, _nominalvalue);\r\n  }\r\n\r\n  // @dev: creates new Token, safes information in public array, maps array index with tokenid and transfers ownership\r\n  function _createEquityToken(uint _tokenId, string _companyName, string _tokenTicker, uint _totalamount, uint _nominalvalue) internal {\r\n  \r\n  ArtifactEquityToken = EquityToken(_tokenId, _companyName, _tokenTicker, _totalamount, _nominalvalue);\r\n  OwnerToArtifact[msg.sender] = ArtifactEquityToken;\r\n   \r\n  uint DistributionIndex = TotalDistribution.push(msg.sender) - 1;\r\n  AddressToIndex[msg.sender] = DistributionIndex;\r\n\r\n  OwnerToBalance[msg.sender] = _totalamount; \r\n    \r\n  emit newTokenIssuance(_tokenId, _totalamount, _nominalvalue);\r\n  }\r\n\r\n  // @dev: generates an unique 8 digit tokenId by hashing string and a nonce\r\n  // @security: could error if uint + randNonce > 256 digits\r\n  function _generateRandomTokenId(string _companyName) private view returns (uint) {\r\n  uint randNonce = 0;\r\n  uint random = uint(keccak256(abi.encodePacked(_companyName, randNonce)));\r\n  randNonce++;\r\n  return random % idModulus;\r\n  }\r\n\r\n\r\n// --- EquityToken ---\r\n  function getBalanceOfInEth(address _addr) public view returns(uint){\r\n\t\treturn ConvertLib.convert(balanceOf(_addr), 3);\r\n\t}\r\n\r\n  //@dev: balance for owner and type of token\r\n  //@notes: ERC2 mandatory\r\n\tfunction balanceOf(address _addr) public view returns(uint) {\r\n\t\treturn OwnerToBalance[_addr];\r\n\t}\r\n\r\n  //@dev: total amount of a token \r\n  //@notes: ERC20 mandatory\r\n  function totalSupply() public view returns (uint totalSupply_){\r\n    return totalSupply_ = ArtifactEquityToken.totalamount;\r\n  }\r\n\r\n  \tfunction getInfosEquityToken() public view returns (uint, string, string, uint, uint) {\r\n    \treturn (ArtifactEquityToken.tokenId, ArtifactEquityToken.companyName, ArtifactEquityToken.tokenTicker, \r\n    \t\tArtifactEquityToken.totalamount, ArtifactEquityToken.nominalvalue);\r\n  } \r\n\r\n  /* function getInfosEquityTokenById(uint _tokenId) public view returns (string, string, uint, uint) {\r\n    \tuint index = 0;\r\n      return (AllEquityToken[index].companyName, AllEquityToken[index].tokenTicker, \r\n    \t\tAllEquityToken[index].totalamount, AllEquityToken[index].nominalvalue); */\r\n  \r\n    //@dev: loops through TotalDistribution array and takes all addresses (owner) for defined tokenId\r\n    //@return: Array with all addresses (owner) for specific tokenId\r\n    //@notes: would be easier: return TotalDistribution\r\n    function getAllAddressesEquityToken() public view returns (address[]) {\r\n      address[] memory outArray_ = new address[](TotalDistribution.length);\r\n       for (uint i = 0; i < TotalDistribution.length; i++) {\r\n            outArray_[i] = TotalDistribution[i];\r\n         }\r\n        return outArray_; \r\n       }\r\n     \r\n\r\n// --- EquityTokenBusiness ---     \r\n  event Dividend(uint _txamount);\r\n\r\n // function payDividend(uint _txamount) public onlyOwner() {}\r\n\r\n\r\n\r\n// --- EquityTokenProcessing ---\r\n\r\n  // @notes: indexing of from and to and tokenId beneficial, but dropped for mocha testing environment\r\n  //@notes: ERC20 mandatory\r\n  event Transfer(address _from, address _to, uint _txamount);\r\n  event Approval(address _from, address _to, uint _txamount);\r\n\r\n    //@dev: transfers token from A to B and fires event, additionally updates the TotalDistribution array (shareholder book)\r\n    //@notes: ERC20 mandatory\r\n    function transfer(address _receiver, uint _txamount) public returns(bool success_) {\r\n\t\tif (OwnerToBalance[msg.sender] < _txamount) return false;\r\n\t\tOwnerToBalance[msg.sender] -= _txamount;\r\n\t\tOwnerToBalance[_receiver] += _txamount;\r\n\r\n    uint DistributionIndex = TotalDistribution.push(_receiver) - 1;\r\n    AddressToIndex[_receiver] = DistributionIndex;\r\n\r\n    emit Transfer(msg.sender, _receiver, _txamount);\r\n\t\treturn true;\r\n    }\r\n\r\n    //@dev: transfers token from A to B and fires event, additionally updates the TotalDistribution array (shareholder book); transferFrom should be used for withdrawing workflow\r\n    //@notes: ERC20 mandatory\r\n    function transferFrom(address _from, address _to, uint _txamount) public returns(bool success_) {\r\n\t\tuint allowance = allowed[_from][msg.sender];\r\n    require ((OwnerToBalance[_from] >= _txamount && allowance >= _txamount), \"no approval for transaction\");\r\n\t\tOwnerToBalance[_from] -= _txamount;\r\n\t\tOwnerToBalance[_to]+= _txamount;\r\n\r\n    uint DistributionIndex = TotalDistribution.push(_to) - 1;\r\n    AddressToIndex[_to] = DistributionIndex;\r\n\r\n    emit Transfer(_from, _to, _txamount);\r\n\t\treturn true;\r\n    }\r\n\r\n    //@dev: sender can approve an amount to be withdrawn by spender\r\n    //@notes: ERC20 mandatory\r\n    function approve(address _spender, uint _txamount) public returns(bool success_) {\r\n    allowed[msg.sender][_spender] = _txamount;\r\n    emit Approval(msg.sender, _spender, _txamount);\r\n    return true;\r\n    }\r\n\r\n    //@notes: ERC20 mandatory\r\n    function allowance(address _owner, address _spender) public view returns(uint remaining) {\r\n      return allowed[_owner][_spender];\r\n    }\r\n\r\n\r\n}",
  "sourcePath": "/mnt/c/Solidity/solidity_eto/contracts/EquityTokenFactory.sol",
  "compiler": {
    "name": "solc",
    "version": "0.4.24+commit.e67f0147.Emscripten.clang"
  },
  "schemaVersion": "2.0.1",
  "updatedAt": "2018-09-29T16:33:32.533Z"
}