{
  "contractName": "EquityTokenFactory",
  "abi": [
    {
      "constant": true,
      "inputs": [
        {
          "name": "",
          "type": "uint256"
        }
      ],
      "name": "TotalDistribution",
      "outputs": [
        {
          "name": "",
          "type": "address"
        }
      ],
      "payable": false,
      "stateMutability": "view",
      "type": "function"
    },
    {
      "constant": true,
      "inputs": [],
      "name": "ArtifactEquityToken",
      "outputs": [
        {
          "name": "tokenId",
          "type": "uint256"
        },
        {
          "name": "companyName",
          "type": "bytes32"
        },
        {
          "name": "tokenTicker",
          "type": "bytes32"
        },
        {
          "name": "totalamount",
          "type": "uint256"
        },
        {
          "name": "companyOwner",
          "type": "address"
        }
      ],
      "payable": false,
      "stateMutability": "view",
      "type": "function"
    },
    {
      "anonymous": false,
      "inputs": [
        {
          "indexed": false,
          "name": "tokenId",
          "type": "uint256"
        },
        {
          "indexed": false,
          "name": "totalamount",
          "type": "uint256"
        },
        {
          "indexed": false,
          "name": "companyowner",
          "type": "address"
        }
      ],
      "name": "newTokenIssuance",
      "type": "event"
    },
    {
      "anonymous": false,
      "inputs": [
        {
          "indexed": false,
          "name": "newShareholder",
          "type": "address"
        },
        {
          "indexed": false,
          "name": "length",
          "type": "uint256"
        }
      ],
      "name": "newShareholder",
      "type": "event"
    },
    {
      "anonymous": false,
      "inputs": [
        {
          "indexed": false,
          "name": "_txpercentage",
          "type": "uint256"
        }
      ],
      "name": "Dividend",
      "type": "event"
    },
    {
      "anonymous": false,
      "inputs": [
        {
          "indexed": false,
          "name": "_winnerName",
          "type": "bytes32"
        },
        {
          "indexed": false,
          "name": "_countVotes",
          "type": "uint256"
        }
      ],
      "name": "votingSuccessful",
      "type": "event"
    },
    {
      "anonymous": false,
      "inputs": [
        {
          "indexed": false,
          "name": "_message",
          "type": "string"
        }
      ],
      "name": "adHocMessage",
      "type": "event"
    },
    {
      "anonymous": false,
      "inputs": [
        {
          "indexed": false,
          "name": "_revenue",
          "type": "uint256"
        },
        {
          "indexed": false,
          "name": "_revenueforecast",
          "type": "uint256"
        }
      ],
      "name": "quaterlyUpdate",
      "type": "event"
    },
    {
      "anonymous": false,
      "inputs": [
        {
          "indexed": false,
          "name": "_from",
          "type": "address"
        },
        {
          "indexed": false,
          "name": "_to",
          "type": "address"
        },
        {
          "indexed": false,
          "name": "_txamount",
          "type": "uint256"
        }
      ],
      "name": "Transfer",
      "type": "event"
    },
    {
      "anonymous": false,
      "inputs": [
        {
          "indexed": false,
          "name": "_from",
          "type": "address"
        },
        {
          "indexed": false,
          "name": "_to",
          "type": "address"
        },
        {
          "indexed": false,
          "name": "_txamount",
          "type": "uint256"
        }
      ],
      "name": "Approval",
      "type": "event"
    },
    {
      "constant": false,
      "inputs": [
        {
          "name": "_companyName",
          "type": "bytes32"
        },
        {
          "name": "_tokenTicker",
          "type": "bytes32"
        },
        {
          "name": "_totalamount",
          "type": "uint256"
        }
      ],
      "name": "createEquityToken",
      "outputs": [],
      "payable": false,
      "stateMutability": "nonpayable",
      "type": "function"
    },
    {
      "constant": true,
      "inputs": [
        {
          "name": "_addr",
          "type": "address"
        }
      ],
      "name": "getBalanceOfInEth",
      "outputs": [
        {
          "name": "",
          "type": "uint256"
        }
      ],
      "payable": false,
      "stateMutability": "view",
      "type": "function"
    },
    {
      "constant": true,
      "inputs": [
        {
          "name": "_addr",
          "type": "address"
        }
      ],
      "name": "balanceOf",
      "outputs": [
        {
          "name": "",
          "type": "uint256"
        }
      ],
      "payable": false,
      "stateMutability": "view",
      "type": "function"
    },
    {
      "constant": true,
      "inputs": [],
      "name": "totalSupply",
      "outputs": [
        {
          "name": "totalSupply_",
          "type": "uint256"
        }
      ],
      "payable": false,
      "stateMutability": "view",
      "type": "function"
    },
    {
      "constant": true,
      "inputs": [],
      "name": "getInfosEquityToken",
      "outputs": [
        {
          "name": "",
          "type": "uint256"
        },
        {
          "name": "",
          "type": "bytes32"
        },
        {
          "name": "",
          "type": "bytes32"
        },
        {
          "name": "",
          "type": "uint256"
        }
      ],
      "payable": false,
      "stateMutability": "view",
      "type": "function"
    },
    {
      "constant": true,
      "inputs": [],
      "name": "getAllAddressesEquityToken",
      "outputs": [
        {
          "name": "",
          "type": "address[]"
        }
      ],
      "payable": false,
      "stateMutability": "view",
      "type": "function"
    },
    {
      "constant": true,
      "inputs": [],
      "name": "getCompanyOwner",
      "outputs": [
        {
          "name": "",
          "type": "address"
        }
      ],
      "payable": false,
      "stateMutability": "view",
      "type": "function"
    },
    {
      "constant": false,
      "inputs": [
        {
          "name": "_addr",
          "type": "address"
        }
      ],
      "name": "setCompanyOwner",
      "outputs": [],
      "payable": false,
      "stateMutability": "nonpayable",
      "type": "function"
    },
    {
      "constant": false,
      "inputs": [
        {
          "name": "_txpercentage",
          "type": "uint256"
        }
      ],
      "name": "payDividend",
      "outputs": [],
      "payable": false,
      "stateMutability": "nonpayable",
      "type": "function"
    },
    {
      "constant": false,
      "inputs": [
        {
          "name": "_message",
          "type": "string"
        }
      ],
      "name": "sendAdHocMessage",
      "outputs": [],
      "payable": false,
      "stateMutability": "nonpayable",
      "type": "function"
    },
    {
      "constant": false,
      "inputs": [
        {
          "name": "_receiver",
          "type": "address"
        },
        {
          "name": "_txamount",
          "type": "uint256"
        }
      ],
      "name": "transfer",
      "outputs": [
        {
          "name": "success_",
          "type": "bool"
        }
      ],
      "payable": false,
      "stateMutability": "nonpayable",
      "type": "function"
    },
    {
      "constant": false,
      "inputs": [
        {
          "name": "_from",
          "type": "address"
        },
        {
          "name": "_to",
          "type": "address"
        },
        {
          "name": "_txamount",
          "type": "uint256"
        }
      ],
      "name": "transferFrom",
      "outputs": [
        {
          "name": "success_",
          "type": "bool"
        }
      ],
      "payable": false,
      "stateMutability": "nonpayable",
      "type": "function"
    },
    {
      "constant": false,
      "inputs": [
        {
          "name": "_spender",
          "type": "address"
        },
        {
          "name": "_txamount",
          "type": "uint256"
        }
      ],
      "name": "approve",
      "outputs": [
        {
          "name": "success_",
          "type": "bool"
        }
      ],
      "payable": false,
      "stateMutability": "nonpayable",
      "type": "function"
    },
    {
      "constant": true,
      "inputs": [
        {
          "name": "_owner",
          "type": "address"
        },
        {
          "name": "_spender",
          "type": "address"
        }
      ],
      "name": "allowance",
      "outputs": [
        {
          "name": "remaining",
          "type": "uint256"
        }
      ],
      "payable": false,
      "stateMutability": "view",
      "type": "function"
    }
  ],
  "bytecode": "0x60806040526305f5e100600a556001600b5534801561001d57600080fd5b50611d538061002d6000396000f3006080604052600436106100e6576000357c0100000000000000000000000000000000000000000000000000000000900463ffffffff168063095ea7b3146100eb5780630b366df1146101505780631348bf22146101bd57806318160ddd1461020d57806318d467181461023857806323b872dd1461028f5780632515994e146103145780632d3d3f9c146103415780634f86ef331461038457806370a0823114610407578063a9059cbb1461045e578063b19e9a76146104c3578063c018f1d01461050c578063c073d83614610575578063dad3e6dd146105e1578063dd62ed3e14610638575b600080fd5b3480156100f757600080fd5b50610136600480360381019080803573ffffffffffffffffffffffffffffffffffffffff169060200190929190803590602001909291905050506106af565b604051808215151515815260200191505060405180910390f35b34801561015c57600080fd5b5061017b60048036038101908080359060200190929190505050610888565b604051808273ffffffffffffffffffffffffffffffffffffffff1673ffffffffffffffffffffffffffffffffffffffff16815260200191505060405180910390f35b3480156101c957600080fd5b506101d26108c6565b604051808581526020018460001916600019168152602001836000191660001916815260200182815260200194505050505060405180910390f35b34801561021957600080fd5b506102226108f2565b6040518082815260200191505060405180910390f35b34801561024457600080fd5b50610279600480360381019080803573ffffffffffffffffffffffffffffffffffffffff169060200190929190505050610902565b6040518082815260200191505060405180910390f35b34801561029b57600080fd5b506102fa600480360381019080803573ffffffffffffffffffffffffffffffffffffffff169060200190929190803573ffffffffffffffffffffffffffffffffffffffff169060200190929190803590602001909291905050506109c2565b604051808215151515815260200191505060405180910390f35b34801561032057600080fd5b5061033f60048036038101908080359060200190929190505050610d8e565b005b34801561034d57600080fd5b50610382600480360381019080803573ffffffffffffffffffffffffffffffffffffffff169060200190929190505050611127565b005b34801561039057600080fd5b50610399611234565b60405180868152602001856000191660001916815260200184600019166000191681526020018381526020018273ffffffffffffffffffffffffffffffffffffffff1673ffffffffffffffffffffffffffffffffffffffff1681526020019550505050505060405180910390f35b34801561041357600080fd5b50610448600480360381019080803573ffffffffffffffffffffffffffffffffffffffff169060200190929190505050611278565b6040518082815260200191505060405180910390f35b34801561046a57600080fd5b506104a9600480360381019080803573ffffffffffffffffffffffffffffffffffffffff169060200190929190803590602001909291905050506112c0565b604051808215151515815260200191505060405180910390f35b3480156104cf57600080fd5b5061050a6004803603810190808035600019169060200190929190803560001916906020019092919080359060200190929190505050611598565b005b34801561051857600080fd5b50610573600480360381019080803590602001908201803590602001908080601f01602080910402602001604051908101604052809392919081815260200183838082843782019150505050505091929192905050506115b7565b005b34801561058157600080fd5b5061058a61171d565b6040518080602001828103825283818151815260200191508051906020019060200280838360005b838110156105cd5780820151818401526020810190506105b2565b505050509050019250505060405180910390f35b3480156105ed57600080fd5b506105f66117ab565b604051808273ffffffffffffffffffffffffffffffffffffffff1673ffffffffffffffffffffffffffffffffffffffff16815260200191505060405180910390f35b34801561064457600080fd5b50610699600480360381019080803573ffffffffffffffffffffffffffffffffffffffff169060200190929190803573ffffffffffffffffffffffffffffffffffffffff1690602001909291905050506117d7565b6040518082815260200191505060405180910390f35b6000816000600b54828115156106c157fe5b0614151561075d576040517f08c379a00000000000000000000000000000000000000000000000000000000081526004018080602001828103825260338152602001807f756e61626c6520746f206d6f6469667920746f6b656e2062616c616e6365732081526020017f61742074686973206772616e756c61726974790000000000000000000000000081525060400191505060405180910390fd5b82600360003373ffffffffffffffffffffffffffffffffffffffff1673ffffffffffffffffffffffffffffffffffffffff16815260200190815260200160002060008673ffffffffffffffffffffffffffffffffffffffff1673ffffffffffffffffffffffffffffffffffffffff168152602001908152602001600020819055507f8c5be1e5ebec7d5bd14f71427d1e84f3dd0314c0f7b2291e5b200ac8c7c3b925338585604051808473ffffffffffffffffffffffffffffffffffffffff1673ffffffffffffffffffffffffffffffffffffffff1681526020018373ffffffffffffffffffffffffffffffffffffffff1673ffffffffffffffffffffffffffffffffffffffff168152602001828152602001935050505060405180910390a1600191505092915050565b60098181548110151561089757fe5b906000526020600020016000915054906101000a900473ffffffffffffffffffffffffffffffffffffffff1681565b600080600080600460000154600460010154600460020154600460030154935093509350935090919293565b6000600460030154905080905090565b600073__ConvertLib____________________________6396e4ee3d61092784611278565b60036040518363ffffffff167c0100000000000000000000000000000000000000000000000000000000028152600401808381526020018281526020019250505060206040518083038186803b15801561098057600080fd5b505af4158015610994573d6000803e3d6000fd5b505050506040513d60208110156109aa57600080fd5b81019080805190602001909291905050509050919050565b600080826000600b54828115156109d557fe5b06141515610a71576040517f08c379a00000000000000000000000000000000000000000000000000000000081526004018080602001828103825260338152602001807f756e61626c6520746f206d6f6469667920746f6b656e2062616c616e6365732081526020017f61742074686973206772616e756c61726974790000000000000000000000000081525060400191505060405180910390fd5b600360008773ffffffffffffffffffffffffffffffffffffffff1673ffffffffffffffffffffffffffffffffffffffff16815260200190815260200160002060003373ffffffffffffffffffffffffffffffffffffffff1673ffffffffffffffffffffffffffffffffffffffff168152602001908152602001600020549150836000808873ffffffffffffffffffffffffffffffffffffffff1673ffffffffffffffffffffffffffffffffffffffff1681526020019081526020016000205410158015610b3e5750838210155b1515610bb2576040517f08c379a000000000000000000000000000000000000000000000000000000000815260040180806020018281038252601b8152602001807f6e6f20617070726f76616c20666f72207472616e73616374696f6e000000000081525060200191505060405180910390fd5b610c03846000808973ffffffffffffffffffffffffffffffffffffffff1673ffffffffffffffffffffffffffffffffffffffff1681526020019081526020016000205461185e90919063ffffffff16565b6000808873ffffffffffffffffffffffffffffffffffffffff1673ffffffffffffffffffffffffffffffffffffffff16815260200190815260200160002081905550610c96846000808873ffffffffffffffffffffffffffffffffffffffff1673ffffffffffffffffffffffffffffffffffffffff1681526020019081526020016000205461187f90919063ffffffff16565b6000808773ffffffffffffffffffffffffffffffffffffffff1673ffffffffffffffffffffffffffffffffffffffff16815260200190815260200160002081905550610ce1856118a0565b507fddf252ad1be2c89b69c2b068fc378daa952ba7f163c4a11628f55a4df523b3ef868686604051808473ffffffffffffffffffffffffffffffffffffffff1673ffffffffffffffffffffffffffffffffffffffff1681526020018373ffffffffffffffffffffffffffffffffffffffff1673ffffffffffffffffffffffffffffffffffffffff168152602001828152602001935050505060405180910390a16001925050509392505050565b6000806000806000735b424a76cd8f418a067149287a1c333a6d5ec9593373ffffffffffffffffffffffffffffffffffffffff16141515610e5d576040517f08c379a00000000000000000000000000000000000000000000000000000000081526004018080602001828103825260298152602001807f726571756972656d656e74206f6e6c794f776e6572206f6620436f6d70616e7981526020017f206d6f646966696572000000000000000000000000000000000000000000000081525060400191505060405180910390fd5b600193505b600980549050841015610f1d57610ef9600080600987815481101515610e8457fe5b9060005260206000200160009054906101000a900473ffffffffffffffffffffffffffffffffffffffff1673ffffffffffffffffffffffffffffffffffffffff1673ffffffffffffffffffffffffffffffffffffffff1681526020019081526020016000205487611a3b90919063ffffffff16565b9250610f0e838661187f90919063ffffffff16565b94508380600101945050610e62565b846000803373ffffffffffffffffffffffffffffffffffffffff1673ffffffffffffffffffffffffffffffffffffffff1681526020019081526020016000205410151515610ff9576040517f08c379a00000000000000000000000000000000000000000000000000000000081526004018080602001828103825260248152602001807f696e73756666696369656e742066756e64696e6720746f20706179206469766981526020017f64656e640000000000000000000000000000000000000000000000000000000081525060400191505060405180910390fd5b600191505b6009805490508210156110e85761109560008060098581548110151561102057fe5b9060005260206000200160009054906101000a900473ffffffffffffffffffffffffffffffffffffffff1673ffffffffffffffffffffffffffffffffffffffff1673ffffffffffffffffffffffffffffffffffffffff1681526020019081526020016000205487611a3b90919063ffffffff16565b90506110da6009838154811015156110a957fe5b9060005260206000200160009054906101000a900473ffffffffffffffffffffffffffffffffffffffff16826112c0565b508180600101925050610ffe565b7f69c382338c74e0d3a990efe1a52ae89dcf6a9ab705628ec4424f49cddd4e2f89866040518082815260200191505060405180910390a1505050505050565b735b424a76cd8f418a067149287a1c333a6d5ec9593373ffffffffffffffffffffffffffffffffffffffff161415156111ee576040517f08c379a00000000000000000000000000000000000000000000000000000000081526004018080602001828103825260298152602001807f726571756972656d656e74206f6e6c794f776e6572206f6620436f6d70616e7981526020017f206d6f646966696572000000000000000000000000000000000000000000000081525060400191505060405180910390fd5b806004800160006101000a81548173ffffffffffffffffffffffffffffffffffffffff021916908373ffffffffffffffffffffffffffffffffffffffff16021790555050565b60048060000154908060010154908060020154908060030154908060040160009054906101000a900473ffffffffffffffffffffffffffffffffffffffff16905085565b60008060008373ffffffffffffffffffffffffffffffffffffffff1673ffffffffffffffffffffffffffffffffffffffff168152602001908152602001600020549050919050565b6000816000600b54828115156112d257fe5b0614151561136e576040517f08c379a00000000000000000000000000000000000000000000000000000000081526004018080602001828103825260338152602001807f756e61626c6520746f206d6f6469667920746f6b656e2062616c616e6365732081526020017f61742074686973206772616e756c61726974790000000000000000000000000081525060400191505060405180910390fd5b826000803373ffffffffffffffffffffffffffffffffffffffff1673ffffffffffffffffffffffffffffffffffffffff1681526020019081526020016000205410156113bd5760009150611591565b61140e836000803373ffffffffffffffffffffffffffffffffffffffff1673ffffffffffffffffffffffffffffffffffffffff1681526020019081526020016000205461185e90919063ffffffff16565b6000803373ffffffffffffffffffffffffffffffffffffffff1673ffffffffffffffffffffffffffffffffffffffff168152602001908152602001600020819055506114a1836000808773ffffffffffffffffffffffffffffffffffffffff1673ffffffffffffffffffffffffffffffffffffffff1681526020019081526020016000205461187f90919063ffffffff16565b6000808673ffffffffffffffffffffffffffffffffffffffff1673ffffffffffffffffffffffffffffffffffffffff168152602001908152602001600020819055506114ec846118a0565b507fddf252ad1be2c89b69c2b068fc378daa952ba7f163c4a11628f55a4df523b3ef338585604051808473ffffffffffffffffffffffffffffffffffffffff1673ffffffffffffffffffffffffffffffffffffffff1681526020018373ffffffffffffffffffffffffffffffffffffffff1673ffffffffffffffffffffffffffffffffffffffff168152602001828152602001935050505060405180910390a1600191505b5092915050565b60006115a384611a79565b90506115b181858585611b45565b50505050565b735b424a76cd8f418a067149287a1c333a6d5ec9593373ffffffffffffffffffffffffffffffffffffffff1614151561167e576040517f08c379a00000000000000000000000000000000000000000000000000000000081526004018080602001828103825260298152602001807f726571756972656d656e74206f6e6c794f776e6572206f6620436f6d70616e7981526020017f206d6f646966696572000000000000000000000000000000000000000000000081525060400191505060405180910390fd5b7fd31837726e1c2300674c4f61cbca20d328982c580b36e10175d41d75abc3a020816040518080602001828103825283818151815260200191508051906020019080838360005b838110156116e05780820151818401526020810190506116c5565b50505050905090810190601f16801561170d5780820380516001836020036101000a031916815260200191505b509250505060405180910390a150565b606060098054806020026020016040519081016040528092919081815260200182805480156117a157602002820191906000526020600020905b8160009054906101000a900473ffffffffffffffffffffffffffffffffffffffff1673ffffffffffffffffffffffffffffffffffffffff1681526020019060010190808311611757575b5050505050905090565b60006004800160009054906101000a900473ffffffffffffffffffffffffffffffffffffffff16905090565b6000600360008473ffffffffffffffffffffffffffffffffffffffff1673ffffffffffffffffffffffffffffffffffffffff16815260200190815260200160002060008373ffffffffffffffffffffffffffffffffffffffff1673ffffffffffffffffffffffffffffffffffffffff16815260200190815260200160002054905092915050565b60008083831115151561187057600080fd5b82840390508091505092915050565b600080828401905083811015151561189657600080fd5b8091505092915050565b6000806118ac83611cd1565b156118ba5760009150611a35565b600160098490806001815401808255809150509060018203906000526020600020016000909192909190916101000a81548173ffffffffffffffffffffffffffffffffffffffff021916908373ffffffffffffffffffffffffffffffffffffffff16021790555003905080600160008573ffffffffffffffffffffffffffffffffffffffff1673ffffffffffffffffffffffffffffffffffffffff168152602001908152602001600020819055506001600260008573ffffffffffffffffffffffffffffffffffffffff1673ffffffffffffffffffffffffffffffffffffffff16815260200190815260200160002060006101000a81548160ff0219169083151502179055507f33dda5dca20a95bec563f7c6e810061b24d464536df0636a17d2d041b8b0c66d83600980549050604051808373ffffffffffffffffffffffffffffffffffffffff1673ffffffffffffffffffffffffffffffffffffffff1681526020018281526020019250505060405180910390a1600191505b50919050565b6000806000841415611a505760009150611a72565b8284029050828482811515611a6157fe5b04141515611a6e57600080fd5b8091505b5092915050565b60008060008091508382604051602001808360001916600019168152602001828152602001925050506040516020818303038152906040526040518082805190602001908083835b602083101515611ae65780518252602082019150602081019050602083039250611ac1565b6001836020036101000a0380198251168184511680821785525050505050509050019150506040518091039020600190049050611b2d60018361187f90919063ffffffff16565b50600a5481811515611b3b57fe5b0692505050919050565b60a06040519081016040528085815260200184600019168152602001836000191681526020018281526020013373ffffffffffffffffffffffffffffffffffffffff1681525060046000820151816000015560208201518160010190600019169055604082015181600201906000191690556060820151816003015560808201518160040160006101000a81548173ffffffffffffffffffffffffffffffffffffffff021916908373ffffffffffffffffffffffffffffffffffffffff160217905550905050611c14336118a0565b50806000803373ffffffffffffffffffffffffffffffffffffffff1673ffffffffffffffffffffffffffffffffffffffff168152602001908152602001600020819055507f63a291ebe44f54e4241914744d7bb9504ffbb9e14a03309176a7e720e787a9fd848233604051808481526020018381526020018273ffffffffffffffffffffffffffffffffffffffff1673ffffffffffffffffffffffffffffffffffffffff168152602001935050505060405180910390a150505050565b6000600260008373ffffffffffffffffffffffffffffffffffffffff1673ffffffffffffffffffffffffffffffffffffffff16815260200190815260200160002060009054906101000a900460ff1690509190505600a165627a7a72305820624f18e04452c885dc203bc1ee281cb9d5f6a726e242dcb5a2b2b532e4172c190029",
  "source": "pragma solidity ^0.4.24;\r\n\r\nimport \"./SafeMath.sol\";\r\nimport \"./ConvertLib.sol\";\r\nimport \"./EquityToken.sol\";\r\n\r\ncontract EquityTokenFactory {\r\n\r\n    using SafeMath for uint;\r\n\r\n    //@ToDo: indexing of from and to and tokenId beneficial, but dropped for mocha testing environment\r\n    event newTokenIssuance(uint tokenId, uint totalamount, address companyowner);\r\n\r\n    mapping (address => uint) OwnerToBalance; //@notes: Wallet of tokens and balances of an owner\r\n    mapping (address => uint) AddressToIndex; //@notes: at wich index of distribution array address can be found\r\n    mapping (address => bool) AddressExists; //@notes: required for check if address is already stakeholder, more efficient than iterating array\r\n    mapping (address => mapping (address => uint)) allowed; //@notes: allowance for transfer from _owner to _receiver to withdraw (ERC20)\r\n    \r\n    modifier checkGranularity(uint _amount){\r\n    require((_amount % granularity == 0), \"unable to modify token balances at this granularity\");\r\n    _;\r\n    }\r\n    \r\n    //ToDo: should be == ArtifactEquityToken.companyOwner; but node.js issues\r\n    modifier onlyOwnerOfCom() {\r\n    require(msg.sender == 0x5b424a76cd8f418a067149287a1c333a6d5ec959, \"requirement onlyOwner of Company modifier\");\r\n    _;\r\n  }  \r\n\r\n    struct EquityToken {\r\n      uint tokenId;\r\n      bytes32 companyName;\r\n      bytes32 tokenTicker;\r\n      uint totalamount;\r\n      address companyOwner;\r\n      }\r\n    \r\n    //@notes: the EquityToken\r\n    EquityToken public ArtifactEquityToken;\r\n        \r\n    //@notes: array of all owner and amount of one equity token.\r\n    address[] public TotalDistribution;\r\n    \r\n    //@dev: ensures, that tokenId is always 8 digits\r\n    uint idModulus = 10 ** 8;\r\n\r\n    //@dev: ensures, that granularity of shares is always natural figures\r\n    uint granularity = 1;\r\n\r\n  //@dev: public issuance function, requires approval and creates unique id\r\n  function createEquityToken(bytes32 _companyName, bytes32 _tokenTicker, uint _totalamount) public {\r\n  uint tokenId = _generateRandomTokenId(_companyName);\r\n  \r\n  //@ToDo: Approval Process (require)\r\n  _createEquityToken(tokenId, _companyName, _tokenTicker, _totalamount);\r\n  }\r\n\r\n  //@ToDo: constructor, as contract w/o function\r\n  //@dev: creates new Token, safes information in public array, maps array index with tokenid and transfers ownership\r\n  function _createEquityToken(uint _tokenId, bytes32 _companyName, bytes32 _tokenTicker, uint _totalamount) internal {\r\n  \r\n  ArtifactEquityToken = EquityToken(_tokenId, _companyName, _tokenTicker, _totalamount, msg.sender);\r\n  \r\n  _toShareholderbook(msg.sender);\r\n\r\n  OwnerToBalance[msg.sender] = _totalamount;\r\n\r\n  emit newTokenIssuance(_tokenId, _totalamount, msg.sender);\r\n  }\r\n\r\n  // @dev: generates an unique 8 digit tokenId by hashing string and a nonce\r\n  // @security: could error if uint + randNonce > 256 digits\r\n  function _generateRandomTokenId(bytes32 _companyName) private view returns (uint) {\r\n  uint randNonce = 0;\r\n  uint random = uint(keccak256(abi.encodePacked(_companyName, randNonce)));\r\n  randNonce.add(1);\r\n  return random % idModulus;\r\n  }\r\n\r\n\r\n// --- EquityToken ---\r\n\r\n  //@dev: adjustment and new length of shareholder book\r\n  event newShareholder(address newShareholder, uint length);\r\n\r\n  function getBalanceOfInEth(address _addr) public view returns(uint){\r\n\t\treturn ConvertLib.convert(balanceOf(_addr), 3);\r\n\t}\r\n\r\n  //@dev: balance for any owner\r\n  //@notes: ERC2 mandatory\r\n\tfunction balanceOf(address _addr) public view returns(uint) {\r\n\t\treturn OwnerToBalance[_addr];\r\n\t}\r\n\r\n  //@dev: total amount of a token \r\n  //@notes: ERC20 mandatory\r\n  function totalSupply() public view returns (uint totalSupply_){\r\n    return totalSupply_ = ArtifactEquityToken.totalamount;\r\n  }\r\n    //@dev: returns Infos of equity token, as struct is not returnable in current solidity version\r\n  \tfunction getInfosEquityToken() public view returns (uint, bytes32, bytes32, uint) {\r\n    \treturn (ArtifactEquityToken.tokenId, ArtifactEquityToken.companyName, ArtifactEquityToken.tokenTicker, \r\n    \t\tArtifactEquityToken.totalamount);\r\n  } \r\n\r\n    //@dev: iternal function to push new address to shareholder book, checks if address exists first\r\n    function _toShareholderbook(address _addr) internal returns(bool success_) {\r\n    if (_checkExistence(_addr)) return false;\r\n    \r\n    uint DistributionIndex = TotalDistribution.push(address(_addr)) - 1;\r\n    AddressToIndex[_addr] = DistributionIndex;\r\n    AddressExists[_addr] = true;\r\n\r\n    emit newShareholder(_addr, TotalDistribution.length);\r\n    return true;\r\n    }\r\n\r\n    //@dev: checks existence of address in shareholder book by using mapping (address => bool)\r\n    function _checkExistence(address _addr) internal view returns(bool success_) {\r\n      return AddressExists[_addr];\r\n    }\r\n\r\n    \r\n    //@dev: getter for TotalDistribution array\r\n    //@return: array with all addresses (owner)\r\n       function getAllAddressesEquityToken() public view returns(address[]) {\r\n       return TotalDistribution;\r\n          }\r\n\r\n       function getCompanyOwner() public view returns(address) {\r\n        return ArtifactEquityToken.companyOwner; \r\n       }\r\n\r\n       function setCompanyOwner(address _addr) public onlyOwnerOfCom() {\r\n         ArtifactEquityToken.companyOwner = _addr;\r\n       } \r\n     \r\n\r\n// --- EquityTokenBusiness --- \r\n  \r\n  //@dev: fires an event after percentage of dividend is determined and transfered    \r\n  event Dividend(uint _txpercentage);\r\n\r\n  //@notes: string as bytes32 only has space for 32 characters\r\n  event votingSuccessful(bytes32 _winnerName, uint _countVotes); \r\n  event adHocMessage(string _message);\r\n  event quaterlyUpdate(uint _revenue, uint _revenueforecast);\r\n\r\n  //@dev: pays a dividend to all owner of the shares depending on determined percentage of owners portfolio value\r\n  //@note: starts with index 1 in array, as 0 is contract deployer = companyowner in most cases\r\n  //@note: would be also possible with PAYABLE to pay in ether\r\n  function payDividend(uint _txpercentage) public onlyOwnerOfCom() {\r\n    uint _totaldividend;\r\n     for (uint i = 1; i < TotalDistribution.length; i++) {\r\n       uint _temp = _txpercentage.mul(OwnerToBalance[TotalDistribution[i]]);\r\n       _totaldividend = _totaldividend.add(_temp);\r\n     }\r\n\r\n    require((OwnerToBalance[msg.sender] >= _totaldividend),\"insufficient funding to pay dividend\");\r\n      \r\n      for (uint j = 1; j < TotalDistribution.length; j++) {\r\n      uint _txamount = _txpercentage.mul(OwnerToBalance[TotalDistribution[j]]);\r\n      transfer(TotalDistribution[j], _txamount);\r\n    }\r\n  \r\n    emit Dividend(_txpercentage);\r\n  }\r\n\r\n  //@dev: possible to broadcast adHocMessages for any size\r\n  function sendAdHocMessage(string _message) public onlyOwnerOfCom() {\r\n    emit adHocMessage(_message);\r\n  }\r\n\r\n\r\n\r\n// --- EquityTokenProcessing ---\r\n\r\n  //@ToDo: indexing of from and to and tokenId beneficial, but dropped for mocha testing environment\r\n  //@notes: ERC20 mandatory\r\n  event Transfer(address _from, address _to, uint _txamount);\r\n  event Approval(address _from, address _to, uint _txamount);\r\n  \r\n\r\n    //@dev: transfers token from A to B and fires event, additionally updates the TotalDistribution array (shareholder book)\r\n    //@notes: ERC20 mandatory\r\n    function transfer(address _receiver, uint _txamount) public checkGranularity(_txamount) returns(bool success_) {\r\n\t\tif (OwnerToBalance[msg.sender] < _txamount) return false;\r\n\t\tOwnerToBalance[msg.sender] = OwnerToBalance[msg.sender].sub(_txamount);\r\n\t\tOwnerToBalance[_receiver] = OwnerToBalance[_receiver].add(_txamount);\r\n\r\n    _toShareholderbook(_receiver);\r\n\r\n    emit Transfer(msg.sender, _receiver, _txamount);\r\n    return true;\r\n    }\r\n\r\n    //@dev: transfers token from A to B and fires event, additionally updates the TotalDistribution array (shareholder book); transferFrom should be used for withdrawing workflow\r\n    //@notes: ERC20 mandatory\r\n    function transferFrom(address _from, address _to, uint _txamount) public checkGranularity(_txamount) returns(bool success_) {\r\n\t\tuint allowance = allowed[_from][msg.sender];\r\n    require((OwnerToBalance[_from] >= _txamount && allowance >= _txamount), \"no approval for transaction\");\r\n\t\tOwnerToBalance[_from] = OwnerToBalance[_from].sub(_txamount);\r\n\t\tOwnerToBalance[_to] = OwnerToBalance[_to].add(_txamount);\r\n\r\n    _toShareholderbook(_to);\r\n\r\n    emit Transfer(_from, _to, _txamount);\r\n\t\treturn true;\r\n    }\r\n\r\n    //@dev: sender can approve an amount to be withdrawn by spender\r\n    //@notes: ERC20 mandatory\r\n    function approve(address _spender, uint _txamount) public checkGranularity(_txamount) returns(bool success_) {\r\n    allowed[msg.sender][_spender] = _txamount;\r\n    emit Approval(msg.sender, _spender, _txamount);\r\n    return true;\r\n    }\r\n\r\n    //@notes: ERC20 mandatory\r\n    function allowance(address _owner, address _spender) public view returns(uint remaining) {\r\n      return allowed[_owner][_spender];\r\n    }\r\n\r\n\r\n}",
  "sourcePath": "/mnt/c/Solidity/solidity_eto/contracts/EquityTokenFactory.sol",
  "compiler": {
    "name": "solc",
    "version": "0.4.24+commit.e67f0147.Emscripten.clang"
  },
  "schemaVersion": "2.0.1",
  "updatedAt": "2018-10-16T07:57:50.406Z"
}