{
  "contractName": "EquityTokenTransactionHelper",
  "abi": [
    {
      "constant": false,
      "inputs": [
        {
          "name": "_name",
          "type": "bytes32"
        },
        {
          "name": "_key",
          "type": "string"
        },
        {
          "name": "_documentHash",
          "type": "bytes32"
        }
      ],
      "name": "setDocument",
      "outputs": [],
      "payable": true,
      "stateMutability": "payable",
      "type": "function"
    },
    {
      "constant": false,
      "inputs": [
        {
          "name": "_proposal",
          "type": "uint256"
        }
      ],
      "name": "vote",
      "outputs": [],
      "payable": false,
      "stateMutability": "nonpayable",
      "type": "function"
    },
    {
      "constant": true,
      "inputs": [],
      "name": "defaultOperators",
      "outputs": [
        {
          "name": "",
          "type": "address[2]"
        }
      ],
      "payable": false,
      "stateMutability": "view",
      "type": "function"
    },
    {
      "constant": true,
      "inputs": [],
      "name": "name",
      "outputs": [
        {
          "name": "",
          "type": "bytes32"
        }
      ],
      "payable": false,
      "stateMutability": "view",
      "type": "function"
    },
    {
      "constant": false,
      "inputs": [],
      "name": "enableERC20",
      "outputs": [],
      "payable": false,
      "stateMutability": "nonpayable",
      "type": "function"
    },
    {
      "constant": false,
      "inputs": [
        {
          "name": "_spender",
          "type": "address"
        },
        {
          "name": "_txamount",
          "type": "uint256"
        }
      ],
      "name": "approve",
      "outputs": [
        {
          "name": "success_",
          "type": "bool"
        }
      ],
      "payable": false,
      "stateMutability": "nonpayable",
      "type": "function"
    },
    {
      "constant": true,
      "inputs": [
        {
          "name": "",
          "type": "uint256"
        }
      ],
      "name": "TotalDistribution",
      "outputs": [
        {
          "name": "",
          "type": "address"
        }
      ],
      "payable": false,
      "stateMutability": "view",
      "type": "function"
    },
    {
      "constant": true,
      "inputs": [],
      "name": "getInfosEquityToken",
      "outputs": [
        {
          "name": "",
          "type": "uint256"
        },
        {
          "name": "",
          "type": "bytes32"
        },
        {
          "name": "",
          "type": "bytes32"
        },
        {
          "name": "",
          "type": "uint256"
        },
        {
          "name": "",
          "type": "uint256"
        }
      ],
      "payable": false,
      "stateMutability": "view",
      "type": "function"
    },
    {
      "constant": true,
      "inputs": [],
      "name": "totalSupply",
      "outputs": [
        {
          "name": "",
          "type": "uint256"
        }
      ],
      "payable": false,
      "stateMutability": "view",
      "type": "function"
    },
    {
      "constant": true,
      "inputs": [
        {
          "name": "_addr",
          "type": "address"
        }
      ],
      "name": "getBalanceOfInEth",
      "outputs": [
        {
          "name": "",
          "type": "uint256"
        }
      ],
      "payable": false,
      "stateMutability": "view",
      "type": "function"
    },
    {
      "constant": false,
      "inputs": [
        {
          "name": "_address",
          "type": "address"
        }
      ],
      "name": "approveAccreditation",
      "outputs": [],
      "payable": false,
      "stateMutability": "nonpayable",
      "type": "function"
    },
    {
      "constant": false,
      "inputs": [
        {
          "name": "_trancheId",
          "type": "uint256"
        },
        {
          "name": "_from",
          "type": "address"
        },
        {
          "name": "_amount",
          "type": "uint256"
        },
        {
          "name": "_operatorData",
          "type": "bytes"
        }
      ],
      "name": "burnByTranche",
      "outputs": [],
      "payable": false,
      "stateMutability": "nonpayable",
      "type": "function"
    },
    {
      "constant": false,
      "inputs": [
        {
          "name": "_addr",
          "type": "address"
        }
      ],
      "name": "setCompanyOwner",
      "outputs": [],
      "payable": false,
      "stateMutability": "nonpayable",
      "type": "function"
    },
    {
      "constant": true,
      "inputs": [],
      "name": "isIssuable",
      "outputs": [
        {
          "name": "",
          "type": "bool"
        }
      ],
      "payable": false,
      "stateMutability": "view",
      "type": "function"
    },
    {
      "constant": true,
      "inputs": [],
      "name": "decimals",
      "outputs": [
        {
          "name": "",
          "type": "uint8"
        }
      ],
      "payable": false,
      "stateMutability": "view",
      "type": "function"
    },
    {
      "constant": false,
      "inputs": [
        {
          "name": "_from",
          "type": "address"
        },
        {
          "name": "_amount",
          "type": "uint256"
        },
        {
          "name": "_operatorData",
          "type": "bytes"
        }
      ],
      "name": "burn",
      "outputs": [],
      "payable": false,
      "stateMutability": "nonpayable",
      "type": "function"
    },
    {
      "constant": true,
      "inputs": [],
      "name": "isControllable",
      "outputs": [
        {
          "name": "",
          "type": "bool"
        }
      ],
      "payable": false,
      "stateMutability": "view",
      "type": "function"
    },
    {
      "constant": true,
      "inputs": [],
      "name": "granularity",
      "outputs": [
        {
          "name": "",
          "type": "uint256"
        }
      ],
      "payable": false,
      "stateMutability": "view",
      "type": "function"
    },
    {
      "constant": false,
      "inputs": [
        {
          "name": "_to",
          "type": "address"
        }
      ],
      "name": "delegate",
      "outputs": [],
      "payable": false,
      "stateMutability": "nonpayable",
      "type": "function"
    },
    {
      "constant": false,
      "inputs": [],
      "name": "winningProposal",
      "outputs": [
        {
          "name": "winnerName_",
          "type": "bytes32"
        }
      ],
      "payable": false,
      "stateMutability": "nonpayable",
      "type": "function"
    },
    {
      "constant": true,
      "inputs": [],
      "name": "getProposals",
      "outputs": [
        {
          "name": "",
          "type": "bytes32[]"
        }
      ],
      "payable": false,
      "stateMutability": "view",
      "type": "function"
    },
    {
      "constant": false,
      "inputs": [
        {
          "name": "_addr",
          "type": "address"
        }
      ],
      "name": "setGovernmentAddress",
      "outputs": [],
      "payable": false,
      "stateMutability": "nonpayable",
      "type": "function"
    },
    {
      "constant": false,
      "inputs": [
        {
          "name": "_adjustedLockup",
          "type": "uint256"
        }
      ],
      "name": "setLockup",
      "outputs": [],
      "payable": false,
      "stateMutability": "nonpayable",
      "type": "function"
    },
    {
      "constant": true,
      "inputs": [],
      "name": "accreditationFee",
      "outputs": [
        {
          "name": "",
          "type": "uint256"
        }
      ],
      "payable": false,
      "stateMutability": "view",
      "type": "function"
    },
    {
      "constant": true,
      "inputs": [
        {
          "name": "_addr",
          "type": "address"
        }
      ],
      "name": "balanceOf",
      "outputs": [
        {
          "name": "",
          "type": "uint256"
        }
      ],
      "payable": false,
      "stateMutability": "view",
      "type": "function"
    },
    {
      "constant": false,
      "inputs": [
        {
          "name": "_operator",
          "type": "address"
        }
      ],
      "name": "authorizeOperator",
      "outputs": [],
      "payable": false,
      "stateMutability": "nonpayable",
      "type": "function"
    },
    {
      "constant": true,
      "inputs": [],
      "name": "symbol",
      "outputs": [
        {
          "name": "",
          "type": "bytes32"
        }
      ],
      "payable": false,
      "stateMutability": "view",
      "type": "function"
    },
    {
      "constant": false,
      "inputs": [
        {
          "name": "_amount",
          "type": "uint256"
        },
        {
          "name": "_userData",
          "type": "bytes"
        },
        {
          "name": "_operatorData",
          "type": "bytes"
        }
      ],
      "name": "mint",
      "outputs": [],
      "payable": false,
      "stateMutability": "nonpayable",
      "type": "function"
    },
    {
      "constant": true,
      "inputs": [
        {
          "name": "_name",
          "type": "bytes32"
        }
      ],
      "name": "getDocument",
      "outputs": [
        {
          "name": "",
          "type": "string"
        },
        {
          "name": "",
          "type": "bytes32"
        }
      ],
      "payable": false,
      "stateMutability": "view",
      "type": "function"
    },
    {
      "constant": true,
      "inputs": [
        {
          "name": "_index",
          "type": "uint256"
        }
      ],
      "name": "getVoteCount",
      "outputs": [
        {
          "name": "voteCount_",
          "type": "uint256"
        }
      ],
      "payable": false,
      "stateMutability": "view",
      "type": "function"
    },
    {
      "constant": false,
      "inputs": [],
      "name": "stopIssuance",
      "outputs": [],
      "payable": false,
      "stateMutability": "nonpayable",
      "type": "function"
    },
    {
      "constant": false,
      "inputs": [
        {
          "name": "_message",
          "type": "string"
        }
      ],
      "name": "sendAdHocMessage",
      "outputs": [],
      "payable": false,
      "stateMutability": "nonpayable",
      "type": "function"
    },
    {
      "constant": true,
      "inputs": [],
      "name": "getAllAddressesEquityToken",
      "outputs": [
        {
          "name": "",
          "type": "address[]"
        }
      ],
      "payable": false,
      "stateMutability": "view",
      "type": "function"
    },
    {
      "constant": false,
      "inputs": [
        {
          "name": "_from",
          "type": "address"
        },
        {
          "name": "_amount",
          "type": "uint256"
        },
        {
          "name": "_operatorData",
          "type": "bytes"
        }
      ],
      "name": "operatorBurn",
      "outputs": [],
      "payable": false,
      "stateMutability": "nonpayable",
      "type": "function"
    },
    {
      "constant": true,
      "inputs": [
        {
          "name": "",
          "type": "uint256"
        }
      ],
      "name": "Proposals",
      "outputs": [
        {
          "name": "name",
          "type": "bytes32"
        },
        {
          "name": "voteCount",
          "type": "uint256"
        }
      ],
      "payable": false,
      "stateMutability": "view",
      "type": "function"
    },
    {
      "constant": true,
      "inputs": [],
      "name": "governmentAddress",
      "outputs": [
        {
          "name": "",
          "type": "address"
        }
      ],
      "payable": false,
      "stateMutability": "view",
      "type": "function"
    },
    {
      "constant": true,
      "inputs": [
        {
          "name": "_operator",
          "type": "address"
        },
        {
          "name": "_tokenHolder",
          "type": "address"
        }
      ],
      "name": "isOperatorFor",
      "outputs": [
        {
          "name": "",
          "type": "bool"
        }
      ],
      "payable": false,
      "stateMutability": "view",
      "type": "function"
    },
    {
      "constant": true,
      "inputs": [],
      "name": "getCompanyOwner",
      "outputs": [
        {
          "name": "",
          "type": "address"
        }
      ],
      "payable": false,
      "stateMutability": "view",
      "type": "function"
    },
    {
      "constant": false,
      "inputs": [
        {
          "name": "_trancheId",
          "type": "uint256"
        },
        {
          "name": "_from",
          "type": "address"
        },
        {
          "name": "_amount",
          "type": "uint256"
        },
        {
          "name": "_operatorData",
          "type": "bytes"
        }
      ],
      "name": "operatorBurnByTranche",
      "outputs": [],
      "payable": false,
      "stateMutability": "nonpayable",
      "type": "function"
    },
    {
      "constant": true,
      "inputs": [
        {
          "name": "_owner",
          "type": "address"
        },
        {
          "name": "_spender",
          "type": "address"
        }
      ],
      "name": "allowance",
      "outputs": [
        {
          "name": "remaining",
          "type": "uint256"
        }
      ],
      "payable": false,
      "stateMutability": "view",
      "type": "function"
    },
    {
      "constant": false,
      "inputs": [
        {
          "name": "_companyName",
          "type": "bytes32"
        },
        {
          "name": "_tokenTicker",
          "type": "bytes32"
        },
        {
          "name": "_granularity",
          "type": "uint256"
        }
      ],
      "name": "createToken",
      "outputs": [],
      "payable": false,
      "stateMutability": "nonpayable",
      "type": "function"
    },
    {
      "constant": true,
      "inputs": [
        {
          "name": "_addr",
          "type": "address"
        }
      ],
      "name": "tranchesOf",
      "outputs": [
        {
          "name": "",
          "type": "uint256[]"
        }
      ],
      "payable": false,
      "stateMutability": "view",
      "type": "function"
    },
    {
      "constant": false,
      "inputs": [
        {
          "name": "_companyName",
          "type": "bytes32"
        }
      ],
      "name": "clearRequest",
      "outputs": [],
      "payable": false,
      "stateMutability": "nonpayable",
      "type": "function"
    },
    {
      "constant": true,
      "inputs": [
        {
          "name": "_addr",
          "type": "address"
        },
        {
          "name": "_trancheId",
          "type": "uint256"
        }
      ],
      "name": "balanceOfByTranche",
      "outputs": [
        {
          "name": "",
          "type": "uint256"
        }
      ],
      "payable": false,
      "stateMutability": "view",
      "type": "function"
    },
    {
      "constant": true,
      "inputs": [
        {
          "name": "_from",
          "type": "address"
        }
      ],
      "name": "getDefaultTranches",
      "outputs": [
        {
          "name": "",
          "type": "uint256[]"
        }
      ],
      "payable": false,
      "stateMutability": "view",
      "type": "function"
    },
    {
      "constant": false,
      "inputs": [],
      "name": "disableERC20",
      "outputs": [],
      "payable": false,
      "stateMutability": "nonpayable",
      "type": "function"
    },
    {
      "constant": false,
      "inputs": [
        {
          "name": "_operator",
          "type": "address"
        }
      ],
      "name": "revokeOperator",
      "outputs": [],
      "payable": false,
      "stateMutability": "nonpayable",
      "type": "function"
    },
    {
      "constant": false,
      "inputs": [
        {
          "name": "proposalNames",
          "type": "bytes32[]"
        }
      ],
      "name": "startBallot",
      "outputs": [],
      "payable": false,
      "stateMutability": "nonpayable",
      "type": "function"
    },
    {
      "anonymous": false,
      "inputs": [
        {
          "indexed": false,
          "name": "_txpercentage",
          "type": "uint256"
        }
      ],
      "name": "Dividend",
      "type": "event"
    },
    {
      "anonymous": false,
      "inputs": [
        {
          "indexed": false,
          "name": "operator",
          "type": "address"
        },
        {
          "indexed": false,
          "name": "from",
          "type": "address"
        },
        {
          "indexed": false,
          "name": "to",
          "type": "address"
        },
        {
          "indexed": false,
          "name": "amount",
          "type": "uint256"
        },
        {
          "indexed": false,
          "name": "userData",
          "type": "bytes"
        },
        {
          "indexed": false,
          "name": "operatorData",
          "type": "bytes"
        }
      ],
      "name": "Sent",
      "type": "event"
    },
    {
      "anonymous": false,
      "inputs": [
        {
          "indexed": false,
          "name": "fromTranche",
          "type": "uint256"
        },
        {
          "indexed": false,
          "name": "operator",
          "type": "address"
        },
        {
          "indexed": false,
          "name": "from",
          "type": "address"
        },
        {
          "indexed": false,
          "name": "to",
          "type": "address"
        },
        {
          "indexed": false,
          "name": "amount",
          "type": "uint256"
        },
        {
          "indexed": false,
          "name": "userData",
          "type": "bytes"
        },
        {
          "indexed": false,
          "name": "operatorData",
          "type": "bytes"
        }
      ],
      "name": "SentByTranche",
      "type": "event"
    },
    {
      "anonymous": false,
      "inputs": [
        {
          "indexed": false,
          "name": "_message",
          "type": "string"
        },
        {
          "indexed": false,
          "name": "_company",
          "type": "address"
        }
      ],
      "name": "adHocMessage",
      "type": "event"
    },
    {
      "anonymous": false,
      "inputs": [
        {
          "indexed": false,
          "name": "winnerName",
          "type": "bytes32"
        },
        {
          "indexed": false,
          "name": "countVotes",
          "type": "uint256"
        }
      ],
      "name": "votingSuccessful",
      "type": "event"
    },
    {
      "anonymous": false,
      "inputs": [
        {
          "indexed": false,
          "name": "_from",
          "type": "address"
        },
        {
          "indexed": false,
          "name": "_to",
          "type": "address"
        },
        {
          "indexed": false,
          "name": "_txamount",
          "type": "uint256"
        }
      ],
      "name": "Approval",
      "type": "event"
    },
    {
      "anonymous": false,
      "inputs": [
        {
          "indexed": false,
          "name": "companyName",
          "type": "bytes32"
        },
        {
          "indexed": false,
          "name": "tokenTicker",
          "type": "bytes32"
        },
        {
          "indexed": false,
          "name": "companyOwner",
          "type": "address"
        }
      ],
      "name": "newTokenIssuance",
      "type": "event"
    },
    {
      "anonymous": false,
      "inputs": [
        {
          "indexed": false,
          "name": "operator",
          "type": "address"
        },
        {
          "indexed": false,
          "name": "to",
          "type": "address"
        },
        {
          "indexed": false,
          "name": "amount",
          "type": "uint256"
        },
        {
          "indexed": false,
          "name": "userData",
          "type": "bytes"
        },
        {
          "indexed": false,
          "name": "operatorData",
          "type": "bytes"
        }
      ],
      "name": "Minted",
      "type": "event"
    },
    {
      "anonymous": false,
      "inputs": [
        {
          "indexed": false,
          "name": "operator",
          "type": "address"
        },
        {
          "indexed": false,
          "name": "from",
          "type": "address"
        },
        {
          "indexed": false,
          "name": "amount",
          "type": "uint256"
        },
        {
          "indexed": false,
          "name": "operatorData",
          "type": "bytes"
        }
      ],
      "name": "Burned",
      "type": "event"
    },
    {
      "anonymous": false,
      "inputs": [
        {
          "indexed": false,
          "name": "trancheId",
          "type": "uint256"
        },
        {
          "indexed": false,
          "name": "operator",
          "type": "address"
        },
        {
          "indexed": false,
          "name": "to",
          "type": "address"
        },
        {
          "indexed": false,
          "name": "amount",
          "type": "uint256"
        },
        {
          "indexed": false,
          "name": "userData",
          "type": "bytes"
        },
        {
          "indexed": false,
          "name": "operatorData",
          "type": "bytes"
        }
      ],
      "name": "MintedByTranche",
      "type": "event"
    },
    {
      "anonymous": false,
      "inputs": [
        {
          "indexed": false,
          "name": "trancheId",
          "type": "uint256"
        },
        {
          "indexed": false,
          "name": "operator",
          "type": "address"
        },
        {
          "indexed": false,
          "name": "from",
          "type": "address"
        },
        {
          "indexed": false,
          "name": "amount",
          "type": "uint256"
        },
        {
          "indexed": false,
          "name": "operatorData",
          "type": "bytes"
        }
      ],
      "name": "BurnedByTranche",
      "type": "event"
    },
    {
      "anonymous": false,
      "inputs": [
        {
          "indexed": false,
          "name": "newShareholder",
          "type": "address"
        },
        {
          "indexed": false,
          "name": "length",
          "type": "uint256"
        }
      ],
      "name": "newShareholder",
      "type": "event"
    },
    {
      "anonymous": false,
      "inputs": [
        {
          "indexed": false,
          "name": "_from",
          "type": "address"
        },
        {
          "indexed": false,
          "name": "_to",
          "type": "address"
        },
        {
          "indexed": false,
          "name": "_txamount",
          "type": "uint256"
        }
      ],
      "name": "Transfer",
      "type": "event"
    },
    {
      "anonymous": false,
      "inputs": [
        {
          "indexed": false,
          "name": "operator",
          "type": "address"
        },
        {
          "indexed": false,
          "name": "tokenHolder",
          "type": "address"
        }
      ],
      "name": "AuthorizedOperator",
      "type": "event"
    },
    {
      "anonymous": false,
      "inputs": [
        {
          "indexed": true,
          "name": "operator",
          "type": "address"
        },
        {
          "indexed": true,
          "name": "tokenHolder",
          "type": "address"
        }
      ],
      "name": "RevokedOperator",
      "type": "event"
    },
    {
      "constant": false,
      "inputs": [
        {
          "name": "_to",
          "type": "address"
        },
        {
          "name": "_txamount",
          "type": "uint256"
        },
        {
          "name": "_userData",
          "type": "bytes"
        }
      ],
      "name": "send",
      "outputs": [
        {
          "name": "success_",
          "type": "bool"
        }
      ],
      "payable": false,
      "stateMutability": "nonpayable",
      "type": "function"
    },
    {
      "constant": false,
      "inputs": [
        {
          "name": "_to",
          "type": "address"
        },
        {
          "name": "_txamount",
          "type": "uint256"
        }
      ],
      "name": "send",
      "outputs": [
        {
          "name": "success_",
          "type": "bool"
        }
      ],
      "payable": false,
      "stateMutability": "nonpayable",
      "type": "function"
    },
    {
      "constant": false,
      "inputs": [
        {
          "name": "_from",
          "type": "address"
        },
        {
          "name": "_to",
          "type": "address"
        },
        {
          "name": "_txamount",
          "type": "uint256"
        },
        {
          "name": "_userData",
          "type": "bytes"
        },
        {
          "name": "_operatorData",
          "type": "bytes"
        }
      ],
      "name": "operatorSend",
      "outputs": [
        {
          "name": "success_",
          "type": "bool"
        }
      ],
      "payable": false,
      "stateMutability": "nonpayable",
      "type": "function"
    },
    {
      "constant": false,
      "inputs": [
        {
          "name": "_trancheId",
          "type": "uint256"
        },
        {
          "name": "_to",
          "type": "address"
        },
        {
          "name": "_txamount",
          "type": "uint256"
        },
        {
          "name": "_userData",
          "type": "bytes"
        }
      ],
      "name": "sendByTranche",
      "outputs": [
        {
          "name": "",
          "type": "uint256"
        }
      ],
      "payable": false,
      "stateMutability": "nonpayable",
      "type": "function"
    },
    {
      "constant": false,
      "inputs": [
        {
          "name": "_trancheId",
          "type": "uint256"
        },
        {
          "name": "_to",
          "type": "address"
        },
        {
          "name": "_txamount",
          "type": "uint256"
        }
      ],
      "name": "sendByTranche",
      "outputs": [
        {
          "name": "",
          "type": "uint256"
        }
      ],
      "payable": false,
      "stateMutability": "nonpayable",
      "type": "function"
    },
    {
      "constant": false,
      "inputs": [
        {
          "name": "_trancheId",
          "type": "uint256"
        },
        {
          "name": "_from",
          "type": "address"
        },
        {
          "name": "_to",
          "type": "address"
        },
        {
          "name": "_txamount",
          "type": "uint256"
        },
        {
          "name": "_userData",
          "type": "bytes"
        },
        {
          "name": "_operatorData",
          "type": "bytes"
        }
      ],
      "name": "operatorSendByTranche",
      "outputs": [
        {
          "name": "",
          "type": "uint256"
        }
      ],
      "payable": false,
      "stateMutability": "nonpayable",
      "type": "function"
    },
    {
      "constant": false,
      "inputs": [
        {
          "name": "_trancheId",
          "type": "uint256"
        },
        {
          "name": "_from",
          "type": "address"
        },
        {
          "name": "_to",
          "type": "address"
        },
        {
          "name": "_txamount",
          "type": "uint256"
        },
        {
          "name": "_userData",
          "type": "bytes"
        }
      ],
      "name": "canSend",
      "outputs": [
        {
          "name": "",
          "type": "bytes1"
        },
        {
          "name": "",
          "type": "bytes32"
        },
        {
          "name": "",
          "type": "uint256"
        }
      ],
      "payable": false,
      "stateMutability": "nonpayable",
      "type": "function"
    },
    {
      "constant": false,
      "inputs": [
        {
          "name": "_to",
          "type": "address"
        },
        {
          "name": "_txamount",
          "type": "uint256"
        }
      ],
      "name": "transfer",
      "outputs": [
        {
          "name": "success_",
          "type": "bool"
        }
      ],
      "payable": false,
      "stateMutability": "nonpayable",
      "type": "function"
    },
    {
      "constant": false,
      "inputs": [
        {
          "name": "_from",
          "type": "address"
        },
        {
          "name": "_to",
          "type": "address"
        },
        {
          "name": "_txamount",
          "type": "uint256"
        }
      ],
      "name": "transferFrom",
      "outputs": [
        {
          "name": "success_",
          "type": "bool"
        }
      ],
      "payable": false,
      "stateMutability": "nonpayable",
      "type": "function"
    },
    {
      "constant": false,
      "inputs": [
        {
          "name": "_txpercentage",
          "type": "uint256"
        }
      ],
      "name": "payDividend",
      "outputs": [],
      "payable": false,
      "stateMutability": "nonpayable",
      "type": "function"
    }
  ],
  "bytecode": "0x60806040526301e133806016556001601760006101000a81548160ff021916908315150217905550600060185564e8d4a51000601955670de0b6b3a7640000601b5534801561004d57600080fd5b50617da3806200005e6000396000f3006080604052600436106102b4576000357c0100000000000000000000000000000000000000000000000000000000900463ffffffff168063010648ca146102b95780630121b93f1461030357806306e485381461033057806306fdde0314610383578063070c87f9146103b6578063095ea7b3146103cd5780630b366df11461043257806312497cc81461049f5780631348bf221461052257806318160ddd1461057957806318d46718146105a45780631f2515b9146105fb57806323b872dd1461063e5780632515994e146106c35780632a88511a146106f05780632d3d3f9c1461078d5780632f1cae85146107d0578063313ce567146107ff57806344d17187146108305780634c783bf5146108c35780634f8d620b146108f2578063556f0dc71461095d5780635c19a95c14610988578063609ff1bd146109cb57806362564c48146109fe57806362ad1b8314610a6a5780636a13721914610b7b5780636ae6b45914610bbe5780636e4a219414610beb57806370a0823114610c16578063959b8c3f14610c6d57806395d89b4114610cb05780639bd9bbc614610ce3578063a3cba09a14610d8e578063a9059cbb14610e47578063b10d6b4114610eac578063b2c2f2e814610f65578063b8fe4c3f14610fa6578063c018f1d014610fbd578063c073d83614611026578063c3d9b9b114611092578063ce30b8d91461118f578063ce9d1fd714611222578063d0679d34146112dd578063d1dbe7d814611342578063d570ab3414611392578063d95b6371146113e9578063dad3e6dd14611464578063dbb8299b146114bb578063dd62ed3e14611558578063dfa94292146115cf578063e3da9f8f14611618578063e53286c5146116b0578063e75b0cf5146116e1578063f3be07eb14611742578063f922f216146117da578063fad8b32a146117f1578063fc1865a014611834575b600080fd5b6103016004803603810190808035600019169060200190929190803590602001908201803590602001919091929391929390803560001916906020019092919050505061189a565b005b34801561030f57600080fd5b5061032e60048036038101908080359060200190929190505050611a02565b005b34801561033c57600080fd5b50610345611b51565b6040518082600260200280838360005b83811015610370578082015181840152602081019050610355565b5050505090500191505060405180910390f35b34801561038f57600080fd5b50610398611bd2565b60405180826000191660001916815260200191505060405180910390f35b3480156103c257600080fd5b506103cb611bdc565b005b3480156103d957600080fd5b50610418600480360381019080803573ffffffffffffffffffffffffffffffffffffffff16906020019092919080359060200190929190505050611ce4565b604051808215151515815260200191505060405180910390f35b34801561043e57600080fd5b5061045d60048036038101908080359060200190929190505050611f67565b604051808273ffffffffffffffffffffffffffffffffffffffff1673ffffffffffffffffffffffffffffffffffffffff16815260200191505060405180910390f35b3480156104ab57600080fd5b5061050c60048036038101908080359060200190929190803573ffffffffffffffffffffffffffffffffffffffff16906020019092919080359060200190929190803590602001908201803590602001919091929391929390505050611fa5565b6040518082815260200191505060405180910390f35b34801561052e57600080fd5b50610537612008565b60405180868152602001856000191660001916815260200184600019166000191681526020018381526020018281526020019550505050505060405180910390f35b34801561058557600080fd5b5061058e612030565b6040518082815260200191505060405180910390f35b3480156105b057600080fd5b506105e5600480360381019080803573ffffffffffffffffffffffffffffffffffffffff16906020019092919050505061203a565b6040518082815260200191505060405180910390f35b34801561060757600080fd5b5061063c600480360381019080803573ffffffffffffffffffffffffffffffffffffffff1690602001909291905050506120fa565b005b34801561064a57600080fd5b506106a9600480360381019080803573ffffffffffffffffffffffffffffffffffffffff169060200190929190803573ffffffffffffffffffffffffffffffffffffffff1690602001909291908035906020019092919050505061221f565b604051808215151515815260200191505060405180910390f35b3480156106cf57600080fd5b506106ee60048036038101908080359060200190929190505050612507565b005b3480156106fc57600080fd5b5061078b60048036038101908080359060200190929190803573ffffffffffffffffffffffffffffffffffffffff16906020019092919080359060200190929190803590602001908201803590602001908080601f01602080910402602001604051908101604052809392919081815260200183838082843782019150505050505091929192905050506128ff565b005b34801561079957600080fd5b506107ce600480360381019080803573ffffffffffffffffffffffffffffffffffffffff1690602001909291905050506129b6565b005b3480156107dc57600080fd5b506107e5612ae5565b604051808215151515815260200191505060405180910390f35b34801561080b57600080fd5b50610814612af8565b604051808260ff1660ff16815260200191505060405180910390f35b34801561083c57600080fd5b506108c1600480360381019080803573ffffffffffffffffffffffffffffffffffffffff16906020019092919080359060200190929190803590602001908201803590602001908080601f0160208091040260200160405190810160405280939291908181526020018383808284378201915050505050509192919290505050612bab565b005b3480156108cf57600080fd5b506108d8612c60565b604051808215151515815260200191505060405180910390f35b3480156108fe57600080fd5b5061094760048036038101908080359060200190929190803573ffffffffffffffffffffffffffffffffffffffff16906020019092919080359060200190929190505050612cca565b6040518082815260200191505060405180910390f35b34801561096957600080fd5b50610972612d09565b6040518082815260200191505060405180910390f35b34801561099457600080fd5b506109c9600480360381019080803573ffffffffffffffffffffffffffffffffffffffff169060200190929190505050612d13565b005b3480156109d757600080fd5b506109e061316b565b60405180826000191660001916815260200191505060405180910390f35b348015610a0a57600080fd5b50610a13613256565b6040518080602001828103825283818151815260200191508051906020019060200280838360005b83811015610a56578082015181840152602081019050610a3b565b505050509050019250505060405180910390f35b348015610a7657600080fd5b50610b61600480360381019080803573ffffffffffffffffffffffffffffffffffffffff169060200190929190803573ffffffffffffffffffffffffffffffffffffffff16906020019092919080359060200190929190803590602001908201803590602001908080601f0160208091040260200160405190810160405280939291908181526020018383808284378201915050505050509192919290803590602001908201803590602001908080601f01602080910402602001604051908101604052809392919081815260200183838082843782019150505050505091929192905050506132c8565b604051808215151515815260200191505060405180910390f35b348015610b8757600080fd5b50610bbc600480360381019080803573ffffffffffffffffffffffffffffffffffffffff169060200190929190505050613389565b005b348015610bca57600080fd5b50610be960048036038101908080359060200190929190505050613562565b005b348015610bf757600080fd5b50610c00613657565b6040518082815260200191505060405180910390f35b348015610c2257600080fd5b50610c57600480360381019080803573ffffffffffffffffffffffffffffffffffffffff16906020019092919050505061365d565b6040518082815260200191505060405180910390f35b348015610c7957600080fd5b50610cae600480360381019080803573ffffffffffffffffffffffffffffffffffffffff1690602001909291905050506136a5565b005b348015610cbc57600080fd5b50610cc561389e565b60405180826000191660001916815260200191505060405180910390f35b348015610cef57600080fd5b50610d74600480360381019080803573ffffffffffffffffffffffffffffffffffffffff16906020019092919080359060200190929190803590602001908201803590602001908080601f01602080910402602001604051908101604052809392919081815260200183838082843782019150505050505091929192905050506138a8565b604051808215151515815260200191505060405180910390f35b348015610d9a57600080fd5b50610e4560048036038101908080359060200190929190803590602001908201803590602001908080601f0160208091040260200160405190810160405280939291908181526020018383808284378201915050505050509192919290803590602001908201803590602001908080601f01602080910402602001604051908101604052809392919081815260200183838082843782019150505050505091929192905050506138d3565b005b348015610e5357600080fd5b50610e92600480360381019080803573ffffffffffffffffffffffffffffffffffffffff16906020019092919080359060200190929190505050614190565b604051808215151515815260200191505060405180910390f35b348015610eb857600080fd5b50610edb6004803603810190808035600019169060200190929190505050614274565b60405180806020018360001916600019168152602001828103825284818151815260200191508051906020019080838360005b83811015610f29578082015181840152602081019050610f0e565b50505050905090810190601f168015610f565780820380516001836020036101000a031916815260200191505b50935050505060405180910390f35b348015610f7157600080fd5b50610f9060048036038101908080359060200190929190505050614492565b6040518082815260200191505060405180910390f35b348015610fb257600080fd5b50610fbb6144bf565b005b348015610fc957600080fd5b50611024600480360381019080803590602001908201803590602001908080601f01602080910402602001604051908101604052809392919081815260200183838082843782019150505050505091929192905050506145c7565b005b34801561103257600080fd5b5061103b61469a565b6040518080602001828103825283818151815260200191508051906020019060200280838360005b8381101561107e578082015181840152602081019050611063565b505050509050019250505060405180910390f35b34801561109e57600080fd5b5061111f60048036038101908080359060200190929190803573ffffffffffffffffffffffffffffffffffffffff169060200190929190803573ffffffffffffffffffffffffffffffffffffffff16906020019092919080359060200190929190803590602001908201803590602001919091929391929390505050614728565b60405180847effffffffffffffffffffffffffffffffffffffffffffffffffffffffffffff19167effffffffffffffffffffffffffffffffffffffffffffffffffffffffffffff191681526020018360001916600019168152602001828152602001935050505060405180910390f35b34801561119b57600080fd5b50611220600480360381019080803573ffffffffffffffffffffffffffffffffffffffff16906020019092919080359060200190929190803590602001908201803590602001908080601f0160208091040260200160405190810160405280939291908181526020018383808284378201915050505050509192919290505050614814565b005b34801561122e57600080fd5b506112c760048036038101908080359060200190929190803573ffffffffffffffffffffffffffffffffffffffff169060200190929190803573ffffffffffffffffffffffffffffffffffffffff169060200190929190803590602001909291908035906020019082018035906020019190919293919293908035906020019082018035906020019190919293919293905050506148c8565b6040518082815260200191505060405180910390f35b3480156112e957600080fd5b50611328600480360381019080803573ffffffffffffffffffffffffffffffffffffffff169060200190929190803590602001909291905050506149f4565b604051808215151515815260200191505060405180910390f35b34801561134e57600080fd5b5061136d60048036038101908080359060200190929190505050614a2e565b6040518083600019166000191681526020018281526020019250505060405180910390f35b34801561139e57600080fd5b506113a7614a61565b604051808273ffffffffffffffffffffffffffffffffffffffff1673ffffffffffffffffffffffffffffffffffffffff16815260200191505060405180910390f35b3480156113f557600080fd5b5061144a600480360381019080803573ffffffffffffffffffffffffffffffffffffffff169060200190929190803573ffffffffffffffffffffffffffffffffffffffff169060200190929190505050614a87565b604051808215151515815260200191505060405180910390f35b34801561147057600080fd5b50611479614b51565b604051808273ffffffffffffffffffffffffffffffffffffffff1673ffffffffffffffffffffffffffffffffffffffff16815260200191505060405180910390f35b3480156114c757600080fd5b5061155660048036038101908080359060200190929190803573ffffffffffffffffffffffffffffffffffffffff16906020019092919080359060200190929190803590602001908201803590602001908080601f0160208091040260200160405190810160405280939291908181526020018383808284378201915050505050509192919290505050614b7b565b005b34801561156457600080fd5b506115b9600480360381019080803573ffffffffffffffffffffffffffffffffffffffff169060200190929190803573ffffffffffffffffffffffffffffffffffffffff169060200190929190505050614c31565b6040518082815260200191505060405180910390f35b3480156115db57600080fd5b506116166004803603810190808035600019169060200190929190803560001916906020019092919080359060200190929190505050614d62565b005b34801561162457600080fd5b50611659600480360381019080803573ffffffffffffffffffffffffffffffffffffffff169060200190929190505050614fa3565b6040518080602001828103825283818151815260200191508051906020019060200280838360005b8381101561169c578082015181840152602081019050611681565b505050509050019250505060405180910390f35b3480156116bc57600080fd5b506116df600480360381019080803560001916906020019092919050505061503a565b005b3480156116ed57600080fd5b5061172c600480360381019080803573ffffffffffffffffffffffffffffffffffffffff16906020019092919080359060200190929190505050615071565b6040518082815260200191505060405180910390f35b34801561174e57600080fd5b50611783600480360381019080803573ffffffffffffffffffffffffffffffffffffffff1690602001909291905050506150cc565b6040518080602001828103825283818151815260200191508051906020019060200280838360005b838110156117c65780820151818401526020810190506117ab565b505050509050019250505060405180910390f35b3480156117e657600080fd5b506117ef6150de565b005b3480156117fd57600080fd5b50611832600480360381019080803573ffffffffffffffffffffffffffffffffffffffff1690602001909291905050506151e6565b005b34801561184057600080fd5b506118986004803603810190808035906020019082018035906020019080806020026020016040519081016040528093929190818152602001838360200280828437820191505050505050919291929050505061537c565b005b601b5434141515611939576040517f08c379a00000000000000000000000000000000000000000000000000000000081526004018080602001828103825260288152602001807f6e6f7420656e6f75676820657468657220696e20666f722070617961626c652081526020017f66756e6374696f6e00000000000000000000000000000000000000000000000081525060400191505060405180910390fd5b60156060604051908101604052808660001916815260200185858080601f01602080910402602001604051908101604052809392919081815260200183838082843782019150505050505081526020018360001916815250908060018154018082558091505090600182039060005260206000209060030201600090919290919091506000820151816000019060001916905560208201518160010190805190602001906119e8929190617bf0565b506040820151816002019060001916905550505050505050565b6000601e60003373ffffffffffffffffffffffffffffffffffffffff1673ffffffffffffffffffffffffffffffffffffffff16815260200190815260200160002090508060010160009054906101000a900460ff16151515611acc576040517f08c379a000000000000000000000000000000000000000000000000000000000815260040180806020018281038252600d8152602001807f416c726561647920766f7465640000000000000000000000000000000000000081525060200191505060405180910390fd5b60018160010160006101000a81548160ff021916908315150217905550818160020181905550611b298160000154601f84815481101515611b0957fe5b9060005260206000209060020201600101546154a490919063ffffffff16565b601f83815481101515611b3857fe5b9060005260206000209060020201600101819055505050565b611b59617c70565b6010600280602002604051908101604052809291908260028015611bc8576020028201915b8160009054906101000a900473ffffffffffffffffffffffffffffffffffffffff1673ffffffffffffffffffffffffffffffffffffffff1681526020019060010190808311611b7e575b5050505050905090565b6000600a54905090565b600f60009054906101000a900473ffffffffffffffffffffffffffffffffffffffff1673ffffffffffffffffffffffffffffffffffffffff163373ffffffffffffffffffffffffffffffffffffffff16141515611cc7576040517f08c379a00000000000000000000000000000000000000000000000000000000081526004018080602001828103825260298152602001807f726571756972656d656e74206f6e6c794f776e6572206f6620436f6d70616e7981526020017f206d6f646966696572000000000000000000000000000000000000000000000081525060400191505060405180910390fd5b6001601c60006101000a81548160ff021916908315150217905550565b6000816000600d5482811515611cf657fe5b06141515611d92576040517f08c379a00000000000000000000000000000000000000000000000000000000081526004018080602001828103825260338152602001807f756e61626c6520746f206d6f6469667920746f6b656e2062616c616e6365732081526020017f61742074686973206772616e756c61726974790000000000000000000000000081525060400191505060405180910390fd5b601c60009054906101000a900460ff161515611e3c576040517f08c379a00000000000000000000000000000000000000000000000000000000081526004018080602001828103825260258152602001807f657263323020636f6d7061746962696c69747920686173206265656e2064697381526020017f61626c656400000000000000000000000000000000000000000000000000000081525060400191505060405180910390fd5b82600660003373ffffffffffffffffffffffffffffffffffffffff1673ffffffffffffffffffffffffffffffffffffffff16815260200190815260200160002060008673ffffffffffffffffffffffffffffffffffffffff1673ffffffffffffffffffffffffffffffffffffffff168152602001908152602001600020819055507f8c5be1e5ebec7d5bd14f71427d1e84f3dd0314c0f7b2291e5b200ac8c7c3b925338585604051808473ffffffffffffffffffffffffffffffffffffffff1673ffffffffffffffffffffffffffffffffffffffff1681526020018373ffffffffffffffffffffffffffffffffffffffff1673ffffffffffffffffffffffffffffffffffffffff168152602001828152602001935050505060405180910390a1600191505092915050565b601481815481101515611f7657fe5b906000526020600020016000915054906101000a900473ffffffffffffffffffffffffffffffffffffffff1681565b600080611ff98733888888888080601f0160208091040260200160405190810160405280939291908181526020018383808284378201915050505050503360206040519081016040528060008152506154c5565b90508091505095945050505050565b6000806000806000600954600a54600b54600d54600e54945094509450945094509091929394565b6000600e54905090565b600073__ConvertLib____________________________6396e4ee3d61205f8461365d565b60036040518363ffffffff167c0100000000000000000000000000000000000000000000000000000000028152600401808381526020018281526020019250505060206040518083038186803b1580156120b857600080fd5b505af41580156120cc573d6000803e3d6000fd5b505050506040513d60208110156120e257600080fd5b81019080805190602001909291905050509050919050565b6002600760003373ffffffffffffffffffffffffffffffffffffffff1673ffffffffffffffffffffffffffffffffffffffff168152602001908152602001600020541415156121d7576040517f08c379a00000000000000000000000000000000000000000000000000000000081526004018080602001828103825260258152602001807f7265717569726573206164766f6361746520746f20617070726f766520696e7681526020017f6573746f7200000000000000000000000000000000000000000000000000000081525060400191505060405180910390fd5b6001600760008373ffffffffffffffffffffffffffffffffffffffff1673ffffffffffffffffffffffffffffffffffffffff1681526020019081526020016000208190555050565b6000601c60009054906101000a900460ff1615156122cb576040517f08c379a00000000000000000000000000000000000000000000000000000000081526004018080602001828103825260258152602001807f657263323020636f6d7061746962696c69747920686173206265656e2064697381526020017f61626c656400000000000000000000000000000000000000000000000000000081525060400191505060405180910390fd5b600660008573ffffffffffffffffffffffffffffffffffffffff1673ffffffffffffffffffffffffffffffffffffffff16815260200190815260200160002060003373ffffffffffffffffffffffffffffffffffffffff1673ffffffffffffffffffffffffffffffffffffffff1681526020019081526020016000205482111515156123bf576040517f08c379a000000000000000000000000000000000000000000000000000000000815260040180806020018281038252601b8152602001807f6e6f20617070726f76616c20666f72207472616e73616374696f6e000000000081525060200191505060405180910390fd5b61244e82600660008773ffffffffffffffffffffffffffffffffffffffff1673ffffffffffffffffffffffffffffffffffffffff16815260200190815260200160002060003373ffffffffffffffffffffffffffffffffffffffff1673ffffffffffffffffffffffffffffffffffffffff168152602001908152602001600020546161cc90919063ffffffff16565b600660008673ffffffffffffffffffffffffffffffffffffffff1673ffffffffffffffffffffffffffffffffffffffff16815260200190815260200160002060003373ffffffffffffffffffffffffffffffffffffffff1673ffffffffffffffffffffffffffffffffffffffff168152602001908152602001600020819055506124fc84848460206040519081016040528060008152503360206040519081016040528060008152506161ed565b600190509392505050565b6000806000806000600f60009054906101000a900473ffffffffffffffffffffffffffffffffffffffff1673ffffffffffffffffffffffffffffffffffffffff163373ffffffffffffffffffffffffffffffffffffffff161415156125fa576040517f08c379a00000000000000000000000000000000000000000000000000000000081526004018080602001828103825260298152602001807f726571756972656d656e74206f6e6c794f776e6572206f6620436f6d70616e7981526020017f206d6f646966696572000000000000000000000000000000000000000000000081525060400191505060405180910390fd5b600193505b6014805490508410156126c6576126a2606460008060148881548110151561262357fe5b9060005260206000200160009054906101000a900473ffffffffffffffffffffffffffffffffffffffff1673ffffffffffffffffffffffffffffffffffffffff1673ffffffffffffffffffffffffffffffffffffffff1681526020019081526020016000205481151561269257fe5b04876164c190919063ffffffff16565b92506126b783866154a490919063ffffffff16565b945083806001019450506125ff565b846000803373ffffffffffffffffffffffffffffffffffffffff1673ffffffffffffffffffffffffffffffffffffffff16815260200190815260200160002054101515156127a2576040517f08c379a00000000000000000000000000000000000000000000000000000000081526004018080602001828103825260248152602001807f696e73756666696369656e742066756e64696e6720746f20706179206469766981526020017f64656e640000000000000000000000000000000000000000000000000000000081525060400191505060405180910390fd5b600191505b6014805490508210156128c05761284a60646000806014868154811015156127cb57fe5b9060005260206000200160009054906101000a900473ffffffffffffffffffffffffffffffffffffffff1673ffffffffffffffffffffffffffffffffffffffff1673ffffffffffffffffffffffffffffffffffffffff1681526020019081526020016000205481151561283a57fe5b04876164c190919063ffffffff16565b90506128b33360148481548110151561285f57fe5b9060005260206000200160009054906101000a900473ffffffffffffffffffffffffffffffffffffffff168360206040519081016040528060008152503360206040519081016040528060008152506161ed565b81806001019250506127a7565b7f69c382338c74e0d3a990efe1a52ae89dcf6a9ab705628ec4424f49cddd4e2f89866040518082815260200191505060405180910390a1505050505050565b828073ffffffffffffffffffffffffffffffffffffffff163373ffffffffffffffffffffffffffffffffffffffff161415156129a3576040517f08c379a00000000000000000000000000000000000000000000000000000000081526004018080602001828103825260158152602001807f726571756972656d656e74206f6e6c794f776e6572000000000000000000000081525060200191505060405180910390fd5b6129af858585856164ff565b5050505050565b600f60009054906101000a900473ffffffffffffffffffffffffffffffffffffffff1673ffffffffffffffffffffffffffffffffffffffff163373ffffffffffffffffffffffffffffffffffffffff16141515612aa1576040517f08c379a00000000000000000000000000000000000000000000000000000000081526004018080602001828103825260298152602001807f726571756972656d656e74206f6e6c794f776e6572206f6620436f6d70616e7981526020017f206d6f646966696572000000000000000000000000000000000000000000000081525060400191505060405180910390fd5b80600f60006101000a81548173ffffffffffffffffffffffffffffffffffffffff021916908373ffffffffffffffffffffffffffffffffffffffff16021790555050565b601760009054906101000a900460ff1681565b6000601c60009054906101000a900460ff161515612ba4576040517f08c379a00000000000000000000000000000000000000000000000000000000081526004018080602001828103825260258152602001807f657263323020636f6d7061746962696c69747920686173206265656e2064697381526020017f61626c656400000000000000000000000000000000000000000000000000000081525060400191505060405180910390fd5b6012905090565b828073ffffffffffffffffffffffffffffffffffffffff163373ffffffffffffffffffffffffffffffffffffffff16141515612c4f576040517f08c379a00000000000000000000000000000000000000000000000000000000081526004018080602001828103825260158152602001807f726571756972656d656e74206f6e6c794f776e6572000000000000000000000081525060200191505060405180910390fd5b612c5a848484616ada565b50505050565b60008073ffffffffffffffffffffffffffffffffffffffff16601a60009054906101000a900473ffffffffffffffffffffffffffffffffffffffff1673ffffffffffffffffffffffffffffffffffffffff16141515612cc25760009050612cc7565b600190505b90565b600080612cfc8533868660206040519081016040528060008152503360206040519081016040528060008152506154c5565b9050809150509392505050565b6000600d54905090565b600080601e60003373ffffffffffffffffffffffffffffffffffffffff1673ffffffffffffffffffffffffffffffffffffffff16815260200190815260200160002091508160010160009054906101000a900460ff16151515612dde576040517f08c379a00000000000000000000000000000000000000000000000000000000081526004018080602001828103825260118152602001807f596f7520616c726561647920766f74656400000000000000000000000000000081525060200191505060405180910390fd5b3373ffffffffffffffffffffffffffffffffffffffff168373ffffffffffffffffffffffffffffffffffffffff1614151515612e82576040517f08c379a000000000000000000000000000000000000000000000000000000000815260040180806020018281038252601d8152602001807f53656c662d64656c65676174696f6e20697320646973616c6c6f77656400000081525060200191505060405180910390fd5b5b600073ffffffffffffffffffffffffffffffffffffffff16601e60008573ffffffffffffffffffffffffffffffffffffffff1673ffffffffffffffffffffffffffffffffffffffff16815260200190815260200160002060010160019054906101000a900473ffffffffffffffffffffffffffffffffffffffff1673ffffffffffffffffffffffffffffffffffffffff1614151561302957601e60008473ffffffffffffffffffffffffffffffffffffffff1673ffffffffffffffffffffffffffffffffffffffff16815260200190815260200160002060010160019054906101000a900473ffffffffffffffffffffffffffffffffffffffff1692503373ffffffffffffffffffffffffffffffffffffffff168373ffffffffffffffffffffffffffffffffffffffff1614151515613024576040517f08c379a000000000000000000000000000000000000000000000000000000000815260040180806020018281038252601a8152602001807f466f756e642073656c662d64656c65676174696f6e206c6f6f7000000000000081525060200191505060405180910390fd5b612e83565b60018260010160006101000a81548160ff021916908315150217905550828260010160016101000a81548173ffffffffffffffffffffffffffffffffffffffff021916908373ffffffffffffffffffffffffffffffffffffffff160217905550601e60008473ffffffffffffffffffffffffffffffffffffffff1673ffffffffffffffffffffffffffffffffffffffff16815260200190815260200160002090508060010160009054906101000a900460ff16156131495761311c8260000154601f83600201548154811015156130fc57fe5b9060005260206000209060020201600101546154a490919063ffffffff16565b601f826002015481548110151561312f57fe5b906000526020600020906002020160010181905550613166565b613164826000015482600001546154a490919063ffffffff16565b505b505050565b60008060008060009250600091505b601f805490508210156131e35782601f8381548110151561319757fe5b90600052602060002090600202016001015411156131d657601f828154811015156131be57fe5b90600052602060002090600202016001015492508190505b818060010192505061317a565b601f818154811015156131f257fe5b90600052602060002090600202016000015493507f64cc588a379a8af63188f3443e70b4fa4e3cdad188fd65e3b7b283c2084cddc784846040518083600019166000191681526020018281526020019250505060405180910390a183935050505090565b60608060008090505b601f805490508110156132c057601f8181548110151561327b57fe5b906000526020600020906002020160000154828281518110151561329b57fe5b906020019060200201906000191690816000191681525050808060010191505061325f565b819250505090565b60006132d43387614a87565b151561336e576040517f08c379a00000000000000000000000000000000000000000000000000000000081526004018080602001828103825260388152602001807f73656e646572206973206e6f7420617574686f72697a656420746f206f70657281526020017f6174652077697468205f66726f6d2773206163636f756e74000000000000000081525060400191505060405180910390fd5b61337c8686868633876161ed565b6001905095945050505050565b600f60009054906101000a900473ffffffffffffffffffffffffffffffffffffffff1673ffffffffffffffffffffffffffffffffffffffff163373ffffffffffffffffffffffffffffffffffffffff16141515613474576040517f08c379a00000000000000000000000000000000000000000000000000000000081526004018080602001828103825260298152602001807f726571756972656d656e74206f6e6c794f776e6572206f6620436f6d70616e7981526020017f206d6f646966696572000000000000000000000000000000000000000000000081525060400191505060405180910390fd5b6001151561348182617496565b151514151561351e576040517f08c379a00000000000000000000000000000000000000000000000000000000081526004018080602001828103825260308152602001807f5f61646472206164647265737320646f6573206e6f74206578697374206f722081526020017f69732030783020286275726e696e67290000000000000000000000000000000081525060400191505060405180910390fd5b80601a60006101000a81548173ffffffffffffffffffffffffffffffffffffffff021916908373ffffffffffffffffffffffffffffffffffffffff16021790555050565b600f60009054906101000a900473ffffffffffffffffffffffffffffffffffffffff1673ffffffffffffffffffffffffffffffffffffffff163373ffffffffffffffffffffffffffffffffffffffff1614151561364d576040517f08c379a00000000000000000000000000000000000000000000000000000000081526004018080602001828103825260298152602001807f726571756972656d656e74206f6e6c794f776e6572206f6620436f6d70616e7981526020017f206d6f646966696572000000000000000000000000000000000000000000000081525060400191505060405180910390fd5b8060168190555050565b601b5481565b60008060008373ffffffffffffffffffffffffffffffffffffffff1673ffffffffffffffffffffffffffffffffffffffff168152602001908152602001600020549050919050565b3373ffffffffffffffffffffffffffffffffffffffff168173ffffffffffffffffffffffffffffffffffffffff161415151561376f576040517f08c379a00000000000000000000000000000000000000000000000000000000081526004018080602001828103825260248152602001807f6d73672e73656e6465722063616e6e6f7420617574686f72697a65642068696d81526020017f73656c660000000000000000000000000000000000000000000000000000000081525060400191505060405180910390fd5b6001601d60008373ffffffffffffffffffffffffffffffffffffffff1673ffffffffffffffffffffffffffffffffffffffff16815260200190815260200160002060003373ffffffffffffffffffffffffffffffffffffffff1673ffffffffffffffffffffffffffffffffffffffff16815260200190815260200160002060006101000a81548160ff0219169083151502179055507ff4caeb2d6ca8932a215a353d0703c326ec2d81fc68170f320eb2ab49e9df61f98133604051808373ffffffffffffffffffffffffffffffffffffffff1673ffffffffffffffffffffffffffffffffffffffff1681526020018273ffffffffffffffffffffffffffffffffffffffff1673ffffffffffffffffffffffffffffffffffffffff1681526020019250505060405180910390a150565b6000600b54905090565b60006138c8338585853360206040519081016040528060008152506161ed565b600190509392505050565b6000836000600d54828115156138e557fe5b06141515613981576040517f08c379a00000000000000000000000000000000000000000000000000000000081526004018080602001828103825260338152602001807f756e61626c6520746f206d6f6469667920746f6b656e2062616c616e6365732081526020017f61742074686973206772616e756c61726974790000000000000000000000000081525060400191505060405180910390fd5b600f60009054906101000a900473ffffffffffffffffffffffffffffffffffffffff1673ffffffffffffffffffffffffffffffffffffffff163373ffffffffffffffffffffffffffffffffffffffff16141515613a6c576040517f08c379a00000000000000000000000000000000000000000000000000000000081526004018080602001828103825260298152602001807f726571756972656d656e74206f6e6c794f776e6572206f6620436f6d70616e7981526020017f206d6f646966696572000000000000000000000000000000000000000000000081525060400191505060405180910390fd5b6001151560086000600a546000191660001916815260200190815260200160002060009054906101000a900460ff161515141515613b38576040517f08c379a000000000000000000000000000000000000000000000000000000000815260040180806020018281038252602e8152602001807f7265717569726573206368616e676564207374617475732066726f6d2070656e81526020017f64696e6720746f2061637469766500000000000000000000000000000000000081525060400191505060405180910390fd5b60011515601760009054906101000a900460ff161515141515613bc3576040517f08c379a000000000000000000000000000000000000000000000000000000000815260040180806020018281038252601a8152602001807f746f6b656e2069737375616e63652069732066696e697368656400000000000081525060200191505060405180910390fd5b613bce600a546174d2565b9150606060405190810160405280868152602001428152602001600081525060036000848152602001908152602001600020600082015181600001556020820151816001015560408201518160020155905050613c3685600e546154a490919063ffffffff16565b600e81905550613c8d856000803373ffffffffffffffffffffffffffffffffffffffff1673ffffffffffffffffffffffffffffffffffffffff168152602001908152602001600020546154a490919063ffffffff16565b6000803373ffffffffffffffffffffffffffffffffffffffff1673ffffffffffffffffffffffffffffffffffffffff16815260200190815260200160002081905550613d3285600160003373ffffffffffffffffffffffffffffffffffffffff1673ffffffffffffffffffffffffffffffffffffffff1681526020019081526020016000206000858152602001908152602001600020546154a490919063ffffffff16565b600160003373ffffffffffffffffffffffffffffffffffffffff1673ffffffffffffffffffffffffffffffffffffffff168152602001908152602001600020600084815260200190815260200160002081905550600260003373ffffffffffffffffffffffffffffffffffffffff1673ffffffffffffffffffffffffffffffffffffffff1681526020019081526020016000208290806001815401808255809150509060018203906000526020600020016000909192909190915055507f2fe5be0146f74c5bce36c0b80911af6c7d86ff27e89d5cfa61fc681327954e5d3333878787604051808673ffffffffffffffffffffffffffffffffffffffff1673ffffffffffffffffffffffffffffffffffffffff1681526020018573ffffffffffffffffffffffffffffffffffffffff1673ffffffffffffffffffffffffffffffffffffffff1681526020018481526020018060200180602001838103835285818151815260200191508051906020019080838360005b83811015613ec3578082015181840152602081019050613ea8565b50505050905090810190601f168015613ef05780820380516001836020036101000a031916815260200191505b50838103825284818151815260200191508051906020019080838360005b83811015613f29578082015181840152602081019050613f0e565b50505050905090810190601f168015613f565780820380516001836020036101000a031916815260200191505b5097505050505050505060405180910390a17fc8d64290e05791ddb8e7c779289e066d776a0630d8fb0adb646a94b9ae85b772823333888888604051808781526020018673ffffffffffffffffffffffffffffffffffffffff1673ffffffffffffffffffffffffffffffffffffffff1681526020018573ffffffffffffffffffffffffffffffffffffffff1673ffffffffffffffffffffffffffffffffffffffff1681526020018481526020018060200180602001838103835285818151815260200191508051906020019080838360005b83811015614043578082015181840152602081019050614028565b50505050905090810190601f1680156140705780820380516001836020036101000a031916815260200191505b50838103825284818151815260200191508051906020019080838360005b838110156140a957808201518184015260208101905061408e565b50505050905090810190601f1680156140d65780820380516001836020036101000a031916815260200191505b509850505050505050505060405180910390a1601c60009054906101000a900460ff1615614189577fddf252ad1be2c89b69c2b068fc378daa952ba7f163c4a11628f55a4df523b3ef60003387604051808473ffffffffffffffffffffffffffffffffffffffff1681526020018373ffffffffffffffffffffffffffffffffffffffff1673ffffffffffffffffffffffffffffffffffffffff168152602001828152602001935050505060405180910390a15b5050505050565b6000601c60009054906101000a900460ff16151561423c576040517f08c379a00000000000000000000000000000000000000000000000000000000081526004018080602001828103825260258152602001807f657263323020636f6d7061746962696c69747920686173206265656e2064697381526020017f61626c656400000000000000000000000000000000000000000000000000000081525060400191505060405180910390fd5b61426a33848460206040519081016040528060008152503360206040519081016040528060008152506161ed565b6001905092915050565b60606000806002600760003373ffffffffffffffffffffffffffffffffffffffff1673ffffffffffffffffffffffffffffffffffffffff16815260200190815260200160002054141515614356576040517f08c379a00000000000000000000000000000000000000000000000000000000081526004018080602001828103825260278152602001807f7265717569726573206164766f6361746520746f2073656520646f776e6c6f6181526020017f642066696c65730000000000000000000000000000000000000000000000000081525060400191505060405180910390fd5b600090505b60158054905081101561448b57836000191660158281548110151561437c57fe5b90600052602060002090600302016000015460001916141561447e576015818154811015156143a757fe5b90600052602060002090600302016001016015828154811015156143c757fe5b906000526020600020906003020160020154818054600181600116156101000203166002900480601f01602080910402602001604051908101604052809291908181526020018280546001816001161561010002031660029004801561446e5780601f106144435761010080835404028352916020019161446e565b820191906000526020600020905b81548152906001019060200180831161445157829003601f168201915b505050505091509250925061448c565b808060010191505061435b565b5b50915091565b6000601f828154811015156144a357fe5b9060005260206000209060020201600101549050809050919050565b600f60009054906101000a900473ffffffffffffffffffffffffffffffffffffffff1673ffffffffffffffffffffffffffffffffffffffff163373ffffffffffffffffffffffffffffffffffffffff161415156145aa576040517f08c379a00000000000000000000000000000000000000000000000000000000081526004018080602001828103825260298152602001807f726571756972656d656e74206f6e6c794f776e6572206f6620436f6d70616e7981526020017f206d6f646966696572000000000000000000000000000000000000000000000081525060400191505060405180910390fd5b6000601760006101000a81548160ff021916908315150217905550565b7f075025aecd552649e85b634e268857a6a478f698de831a3b01d0055e73888d20813360405180806020018373ffffffffffffffffffffffffffffffffffffffff1673ffffffffffffffffffffffffffffffffffffffff168152602001828103825284818151815260200191508051906020019080838360005b8381101561465c578082015181840152602081019050614641565b50505050905090810190601f1680156146895780820380516001836020036101000a031916815260200191505b50935050505060405180910390a150565b6060601480548060200260200160405190810160405280929190818152602001828054801561471e57602002820191906000526020600020905b8160009054906101000a900473ffffffffffffffffffffffffffffffffffffffff1673ffffffffffffffffffffffffffffffffffffffff16815260200190600101908083116146d4575b5050505050905090565b60008060008061477f8a8a8a8a8a8a8080601f0160208091040260200160405190810160405280939291908181526020018383808284378201915050505050503360206040519081016040528060008152506154c5565b905060008111156147da57807f0100000000000000000000000000000000000000000000000000000000000000907f737563636573730000000000000000000000000000000000000000000000000090935093509350614807565b806000907f6661696c75726500000000000000000000000000000000000000000000000000909350935093505b5096509650969350505050565b61481e3384614a87565b15156148b8576040517f08c379a00000000000000000000000000000000000000000000000000000000081526004018080602001828103825260388152602001807f73656e646572206973206e6f7420617574686f72697a656420746f206f70657281526020017f6174652077697468205f66726f6d2773206163636f756e74000000000000000081525060400191505060405180910390fd5b6148c3838383616ada565b505050565b6000806148d5338a614a87565b151561496f576040517f08c379a00000000000000000000000000000000000000000000000000000000081526004018080602001828103825260388152602001807f73656e646572206973206e6f7420617574686f72697a656420746f206f70657281526020017f6174652077697468205f66726f6d2773206163636f756e74000000000000000081525060400191505060405180910390fd5b6149e28a8a8a8a8a8a8080601f016020809104026020016040519081016040528093929190818152602001838380828437820191505050505050338a8a8080601f0160208091040260200160405190810160405280939291908181526020018383808284378201915050505050506154c5565b90508091505098975050505050505050565b6000614a2433848460206040519081016040528060008152503360206040519081016040528060008152506161ed565b6001905092915050565b601f81815481101515614a3d57fe5b90600052602060002090600202016000915090508060000154908060010154905082565b601a60009054906101000a900473ffffffffffffffffffffffffffffffffffffffff1681565b60008173ffffffffffffffffffffffffffffffffffffffff168373ffffffffffffffffffffffffffffffffffffffff161480614b495750601d60008473ffffffffffffffffffffffffffffffffffffffff1673ffffffffffffffffffffffffffffffffffffffff16815260200190815260200160002060008373ffffffffffffffffffffffffffffffffffffffff1673ffffffffffffffffffffffffffffffffffffffff16815260200190815260200160002060009054906101000a900460ff165b905092915050565b6000600f60009054906101000a900473ffffffffffffffffffffffffffffffffffffffff16905090565b614b853384614a87565b1515614c1f576040517f08c379a00000000000000000000000000000000000000000000000000000000081526004018080602001828103825260388152602001807f73656e646572206973206e6f7420617574686f72697a656420746f206f70657281526020017f6174652077697468205f66726f6d2773206163636f756e74000000000000000081525060400191505060405180910390fd5b614c2b848484846164ff565b50505050565b6000601c60009054906101000a900460ff161515614cdd576040517f08c379a00000000000000000000000000000000000000000000000000000000081526004018080602001828103825260258152602001807f657263323020636f6d7061746962696c69747920686173206265656e2064697381526020017f61626c656400000000000000000000000000000000000000000000000000000081525060400191505060405180910390fd5b600660008473ffffffffffffffffffffffffffffffffffffffff1673ffffffffffffffffffffffffffffffffffffffff16815260200190815260200160002060008373ffffffffffffffffffffffffffffffffffffffff1673ffffffffffffffffffffffffffffffffffffffff16815260200190815260200160002054905092915050565b60018110151515614d6f57fe5b614d78836174d2565b60098190555082600a816000191690555081600b81600019169055507f4100000000000000000000000000000000000000000000000000000000000000600c60006101000a81548160ff02191690837f0100000000000000000000000000000000000000000000000000000000000000900402179055506000600e8190555080600d819055506001601c60006101000a81548160ff02191690831515021790555033600f60006101000a81548173ffffffffffffffffffffffffffffffffffffffff021916908373ffffffffffffffffffffffffffffffffffffffff16021790555060408051908101604052803373ffffffffffffffffffffffffffffffffffffffff1673ffffffffffffffffffffffffffffffffffffffff168152602001601a60009054906101000a900473ffffffffffffffffffffffffffffffffffffffff1673ffffffffffffffffffffffffffffffffffffffff1673ffffffffffffffffffffffffffffffffffffffff168152506010906002614ef9929190617c92565b50612710601281905550620f4240601381905550614f163361759c565b507f9ae979c8e1266c2f250aee2ce3946e415bd909a9cf1821aab705834932fd12ad600a54600b543360405180846000191660001916815260200183600019166000191681526020018273ffffffffffffffffffffffffffffffffffffffff1673ffffffffffffffffffffffffffffffffffffffff168152602001935050505060405180910390a1505050565b6060600260008373ffffffffffffffffffffffffffffffffffffffff1673ffffffffffffffffffffffffffffffffffffffff16815260200190815260200160002080548060200260200160405190810160405280929190818152602001828054801561502e57602002820191906000526020600020905b81548152602001906001019080831161501a575b50505050509050919050565b600160086000836000191660001916815260200190815260200160002060006101000a81548160ff02191690831515021790555050565b6000600160008473ffffffffffffffffffffffffffffffffffffffff1673ffffffffffffffffffffffffffffffffffffffff168152602001908152602001600020600083815260200190815260200160002054905092915050565b60606150d782614fa3565b9050919050565b600f60009054906101000a900473ffffffffffffffffffffffffffffffffffffffff1673ffffffffffffffffffffffffffffffffffffffff163373ffffffffffffffffffffffffffffffffffffffff161415156151c9576040517f08c379a00000000000000000000000000000000000000000000000000000000081526004018080602001828103825260298152602001807f726571756972656d656e74206f6e6c794f776e6572206f6620436f6d70616e7981526020017f206d6f646966696572000000000000000000000000000000000000000000000081525060400191505060405180910390fd5b6000601c60006101000a81548160ff021916908315150217905550565b3373ffffffffffffffffffffffffffffffffffffffff168173ffffffffffffffffffffffffffffffffffffffff161415151561528a576040517f08c379a00000000000000000000000000000000000000000000000000000000081526004018080602001828103825260208152602001807f6d73672e73656e6465722063616e6e6f74207265766f6b652068696d73656c6681525060200191505060405180910390fd5b6000601d60008373ffffffffffffffffffffffffffffffffffffffff1673ffffffffffffffffffffffffffffffffffffffff16815260200190815260200160002060003373ffffffffffffffffffffffffffffffffffffffff1673ffffffffffffffffffffffffffffffffffffffff16815260200190815260200160002060006101000a81548160ff0219169083151502179055503373ffffffffffffffffffffffffffffffffffffffff168173ffffffffffffffffffffffffffffffffffffffff167f50546e66e5f44d728365dc3908c63bc5cfeeab470722c1677e3073a6ac294aa160405160405180910390a350565b60008090505b815181101561541357601f604080519081016040528084848151811015156153a657fe5b9060200190602002015160001916815260200160008152509080600181540180825580915050906001820390600052602060002090600202016000909192909190915060008201518160000190600019169055602082015181600101555050508080600101915050615382565b6000803373ffffffffffffffffffffffffffffffffffffffff1673ffffffffffffffffffffffffffffffffffffffff16815260200190815260200160002054601e60003373ffffffffffffffffffffffffffffffffffffffff1673ffffffffffffffffffffffffffffffffffffffff168152602001908152602001600020600001819055506154a0617737565b5050565b60008082840190508381101515156154bb57600080fd5b8091505092915050565b6000846000600d54828115156154d757fe5b06141515615573576040517f08c379a00000000000000000000000000000000000000000000000000000000081526004018080602001828103825260338152602001807f756e61626c6520746f206d6f6469667920746f6b656e2062616c616e6365732081526020017f61742074686973206772616e756c61726974790000000000000000000000000081525060400191505060405180910390fd5b866001600760008373ffffffffffffffffffffffffffffffffffffffff1673ffffffffffffffffffffffffffffffffffffffff16815260200190815260200160002054141515615651576040517f08c379a00000000000000000000000000000000000000000000000000000000081526004018080602001828103825260268152602001807f726571756972656d656e74206f66207375636365737366756c204b594320707281526020017f6f746f636f6c000000000000000000000000000000000000000000000000000081525060400191505060405180910390fd5b6001151561565e89617496565b15151415156156fb576040517f08c379a000000000000000000000000000000000000000000000000000000000815260040180806020018281038252602e8152602001807f5f746f206164647265737320646f6573206e6f74206578697374206f7220697381526020017f2030783020286275726e696e672900000000000000000000000000000000000081525060400191505060405180910390fd5b86600160008b73ffffffffffffffffffffffffffffffffffffffff1673ffffffffffffffffffffffffffffffffffffffff16815260200190815260200160002060008c815260200190815260200160002054101515156157e9576040517f08c379a000000000000000000000000000000000000000000000000000000000815260040180806020018281038252603e8152602001807f6e6f7420656e6f756768207472616e6368652d73706563696669632066756e6481526020017f696e6720666f72207472616e73616374696f6e206f6e206163636f756e74000081525060400191505060405180910390fd5b600115156157f68b61796b565b1515141515615893576040517f08c379a00000000000000000000000000000000000000000000000000000000081526004018080602001828103825260278152602001807f6c6f636b757020706572696f64206e6f74206f76657220666f7220746869732081526020017f7472616e6368650000000000000000000000000000000000000000000000000081525060400191505060405180910390fd5b60125460148054905011151515615912576040517f08c379a00000000000000000000000000000000000000000000000000000000081526004018080602001828103825260188152602001807f6d61782e20616d6f756e74206f6620696e766573746f7273000000000000000081525060200191505060405180910390fd5b615963876000808c73ffffffffffffffffffffffffffffffffffffffff1673ffffffffffffffffffffffffffffffffffffffff168152602001908152602001600020546161cc90919063ffffffff16565b6000808b73ffffffffffffffffffffffffffffffffffffffff1673ffffffffffffffffffffffffffffffffffffffff168152602001908152602001600020819055506159f6876000808b73ffffffffffffffffffffffffffffffffffffffff1673ffffffffffffffffffffffffffffffffffffffff168152602001908152602001600020546154a490919063ffffffff16565b6000808a73ffffffffffffffffffffffffffffffffffffffff1673ffffffffffffffffffffffffffffffffffffffff168152602001908152602001600020819055506013546000808a73ffffffffffffffffffffffffffffffffffffffff1673ffffffffffffffffffffffffffffffffffffffff1681526020019081526020016000205411151515615b16576040517f08c379a000000000000000000000000000000000000000000000000000000000815260040180806020018281038252602b8152602001807f6d61782e20616d6f756e74206f6620736861726573206279206f6e6520696e7681526020017f6573746f7220283130252900000000000000000000000000000000000000000081525060400191505060405180910390fd5b615b1f8861759c565b507f06b541ddaa720db2b10a4d0cdac39b8d360425fc073085fac19bc82614677987858a8a8a8a89604051808773ffffffffffffffffffffffffffffffffffffffff1673ffffffffffffffffffffffffffffffffffffffff1681526020018673ffffffffffffffffffffffffffffffffffffffff1673ffffffffffffffffffffffffffffffffffffffff1681526020018573ffffffffffffffffffffffffffffffffffffffff1673ffffffffffffffffffffffffffffffffffffffff1681526020018481526020018060200180602001838103835285818151815260200191508051906020019080838360005b83811015615c27578082015181840152602081019050615c0c565b50505050905090810190601f168015615c545780820380516001836020036101000a031916815260200191505b50838103825284818151815260200191508051906020019080838360005b83811015615c8d578082015181840152602081019050615c72565b50505050905090810190601f168015615cba5780820380516001836020036101000a031916815260200191505b509850505050505050505060405180910390a1615cd56179ab565b925060606040519081016040528088815260200142815260200160165481525060036000858152602001908152602001600020600082015181600001556020820151816001015560408201518160020155905050615d8c87600160008c73ffffffffffffffffffffffffffffffffffffffff1673ffffffffffffffffffffffffffffffffffffffff16815260200190815260200160002060008d8152602001908152602001600020546161cc90919063ffffffff16565b600160008b73ffffffffffffffffffffffffffffffffffffffff1673ffffffffffffffffffffffffffffffffffffffff16815260200190815260200160002060008c815260200190815260200160002081905550615e4387600160008b73ffffffffffffffffffffffffffffffffffffffff1673ffffffffffffffffffffffffffffffffffffffff1681526020019081526020016000206000868152602001908152602001600020546154a490919063ffffffff16565b600160008a73ffffffffffffffffffffffffffffffffffffffff1673ffffffffffffffffffffffffffffffffffffffff168152602001908152602001600020600085815260200190815260200160002081905550600260008973ffffffffffffffffffffffffffffffffffffffff1673ffffffffffffffffffffffffffffffffffffffff1681526020019081526020016000208390806001815401808255809150509060018203906000526020600020016000909192909190915055507fe04fc8b1d10312fa8c6ef57ef457c0a0a45442cfa662ff31c2f73213d98517f08a868b8b8b8b8a604051808881526020018773ffffffffffffffffffffffffffffffffffffffff1673ffffffffffffffffffffffffffffffffffffffff1681526020018673ffffffffffffffffffffffffffffffffffffffff1673ffffffffffffffffffffffffffffffffffffffff1681526020018573ffffffffffffffffffffffffffffffffffffffff1673ffffffffffffffffffffffffffffffffffffffff1681526020018481526020018060200180602001838103835285818151815260200191508051906020019080838360005b8381101561600e578082015181840152602081019050615ff3565b50505050905090810190601f16801561603b5780820380516001836020036101000a031916815260200191505b50838103825284818151815260200191508051906020019080838360005b83811015616074578082015181840152602081019050616059565b50505050905090810190601f1680156160a15780820380516001836020036101000a031916815260200191505b50995050505050505050505060405180910390a160008060008b73ffffffffffffffffffffffffffffffffffffffff1673ffffffffffffffffffffffffffffffffffffffff1681526020019081526020016000205414156161075761610589617a8b565b505b601c60009054906101000a900460ff16156161bc577fddf252ad1be2c89b69c2b068fc378daa952ba7f163c4a11628f55a4df523b3ef898989604051808473ffffffffffffffffffffffffffffffffffffffff1673ffffffffffffffffffffffffffffffffffffffff1681526020018373ffffffffffffffffffffffffffffffffffffffff1673ffffffffffffffffffffffffffffffffffffffff168152602001828152602001935050505060405180910390a15b8292505050979650505050505050565b6000808383111515156161de57600080fd5b82840390508091505092915050565b6060600080600080886000808d73ffffffffffffffffffffffffffffffffffffffff1673ffffffffffffffffffffffffffffffffffffffff16815260200190815260200160002054101515156162d1576040517f08c379a00000000000000000000000000000000000000000000000000000000081526004018080602001828103825260358152602001807f6e6f7420656e6f7567682067656e6572616c2066756e64696e6720666f72207481526020017f72616e73616374696f6e206f6e206163636f756e74000000000000000000000081525060400191505060405180910390fd5b600260008c73ffffffffffffffffffffffffffffffffffffffff1673ffffffffffffffffffffffffffffffffffffffff16815260200190815260200160002080548060200260200160405190810160405280929190818152602001828054801561635a57602002820191906000526020600020905b815481526020019060010190808311616346575b5050505050945060009350600192505b888410156164b457848386510381518110151561638357fe5b9060200190602002015191506163a2848a6161cc90919063ffffffff16565b600160008d73ffffffffffffffffffffffffffffffffffffffff1673ffffffffffffffffffffffffffffffffffffffff1681526020019081526020016000206000848152602001908152602001600020541015156164215761641b828c8c616413888e6161cc90919063ffffffff16565b8c8c8c6154c5565b506164b4565b600160008c73ffffffffffffffffffffffffffffffffffffffff1673ffffffffffffffffffffffffffffffffffffffff1681526020019081526020016000206000838152602001908152602001600020549050616483828c8c848c8c8c6154c5565b5061649781856154a490919063ffffffff16565b93506164ad6001846154a490919063ffffffff16565b925061636a565b5050505050505050505050565b60008060008414156164d657600091506164f8565b82840290508284828115156164e757fe5b041415156164f457600080fd5b8091505b5092915050565b816000600d548281151561650f57fe5b061415156165ab576040517f08c379a00000000000000000000000000000000000000000000000000000000081526004018080602001828103825260338152602001807f756e61626c6520746f206d6f6469667920746f6b656e2062616c616e6365732081526020017f61742074686973206772616e756c61726974790000000000000000000000000081525060400191505060405180910390fd5b82600160008673ffffffffffffffffffffffffffffffffffffffff1673ffffffffffffffffffffffffffffffffffffffff16815260200190815260200160002060008781526020019081526020016000205410151515616699576040517f08c379a000000000000000000000000000000000000000000000000000000000815260040180806020018281038252602b8152602001807f6e6f7420656e6f756768207472616e6368652d73706563696669632066756e6481526020017f696e6720746f206275726e00000000000000000000000000000000000000000081525060400191505060405180910390fd5b6166ae83600e546161cc90919063ffffffff16565b600e81905550616705836000808773ffffffffffffffffffffffffffffffffffffffff1673ffffffffffffffffffffffffffffffffffffffff168152602001908152602001600020546161cc90919063ffffffff16565b6000808673ffffffffffffffffffffffffffffffffffffffff1673ffffffffffffffffffffffffffffffffffffffff168152602001908152602001600020819055506167aa83600160008773ffffffffffffffffffffffffffffffffffffffff1673ffffffffffffffffffffffffffffffffffffffff1681526020019081526020016000206000888152602001908152602001600020546161cc90919063ffffffff16565b507fa1c85a30dec08aa526dc5a3ca33087f723335ec5c1614ecf0036da150a6971c88533868686604051808681526020018573ffffffffffffffffffffffffffffffffffffffff1673ffffffffffffffffffffffffffffffffffffffff1681526020018473ffffffffffffffffffffffffffffffffffffffff1673ffffffffffffffffffffffffffffffffffffffff16815260200183815260200180602001828103825283818151815260200191508051906020019080838360005b83811015616881578082015181840152602081019050616866565b50505050905090810190601f1680156168ae5780820380516001836020036101000a031916815260200191505b50965050505050505060405180910390a17fea01d24fee0ecbb349ab449ea41d11599fd91ba758653579b30d38d63e2adedb33858585604051808573ffffffffffffffffffffffffffffffffffffffff1673ffffffffffffffffffffffffffffffffffffffff1681526020018473ffffffffffffffffffffffffffffffffffffffff1673ffffffffffffffffffffffffffffffffffffffff16815260200183815260200180602001828103825283818151815260200191508051906020019080838360005b8381101561698e578082015181840152602081019050616973565b50505050905090810190601f1680156169bb5780820380516001836020036101000a031916815260200191505b509550505050505060405180910390a160008060008673ffffffffffffffffffffffffffffffffffffffff1673ffffffffffffffffffffffffffffffffffffffff168152602001908152602001600020541415616a1d57616a1b84617a8b565b505b601c60009054906101000a900460ff1615616ad3577fddf252ad1be2c89b69c2b068fc378daa952ba7f163c4a11628f55a4df523b3ef84600085604051808473ffffffffffffffffffffffffffffffffffffffff1673ffffffffffffffffffffffffffffffffffffffff1681526020018373ffffffffffffffffffffffffffffffffffffffff1673ffffffffffffffffffffffffffffffffffffffff168152602001828152602001935050505060405180910390a15b5050505050565b6000806060600080866000600d5482811515616af257fe5b06141515616b8e576040517f08c379a00000000000000000000000000000000000000000000000000000000081526004018080602001828103825260338152602001807f756e61626c6520746f206d6f6469667920746f6b656e2062616c616e6365732081526020017f61742074686973206772616e756c61726974790000000000000000000000000081525060400191505060405180910390fd5b876000808b73ffffffffffffffffffffffffffffffffffffffff1673ffffffffffffffffffffffffffffffffffffffff1681526020019081526020016000205410151515616c44576040517f08c379a000000000000000000000000000000000000000000000000000000000815260040180806020018281038252601a8152602001807f6e6f7420656e6f7567682066756e64696e6720746f206275726e00000000000081525060200191505060405180910390fd5b60009550600194505b8786101561727757600260008a73ffffffffffffffffffffffffffffffffffffffff1673ffffffffffffffffffffffffffffffffffffffff168152602001908152602001600020805480602002602001604051908101604052809291908181526020018280548015616cde57602002820191906000526020600020905b815481526020019060010190808311616cca575b505050505093508385855103815181101515616cf657fe5b906020019060200201519250616d1586896161cc90919063ffffffff16565b600160008b73ffffffffffffffffffffffffffffffffffffffff1673ffffffffffffffffffffffffffffffffffffffff168152602001908152602001600020600085815260200190815260200160002054101515616fce57616d94616d83878a6161cc90919063ffffffff16565b600e546161cc90919063ffffffff16565b600e81905550616dfd616db0878a6161cc90919063ffffffff16565b6000808c73ffffffffffffffffffffffffffffffffffffffff1673ffffffffffffffffffffffffffffffffffffffff168152602001908152602001600020546161cc90919063ffffffff16565b6000808b73ffffffffffffffffffffffffffffffffffffffff1673ffffffffffffffffffffffffffffffffffffffff16815260200190815260200160002081905550616eb4616e55878a6161cc90919063ffffffff16565b600160008c73ffffffffffffffffffffffffffffffffffffffff1673ffffffffffffffffffffffffffffffffffffffff1681526020019081526020016000206000868152602001908152602001600020546161cc90919063ffffffff16565b507fa1c85a30dec08aa526dc5a3ca33087f723335ec5c1614ecf0036da150a6971c883338b8b8b604051808681526020018573ffffffffffffffffffffffffffffffffffffffff1673ffffffffffffffffffffffffffffffffffffffff1681526020018473ffffffffffffffffffffffffffffffffffffffff1673ffffffffffffffffffffffffffffffffffffffff16815260200183815260200180602001828103825283818151815260200191508051906020019080838360005b83811015616f8b578082015181840152602081019050616f70565b50505050905090810190601f168015616fb85780820380516001836020036101000a031916815260200191505b50965050505050505060405180910390a1617277565b600160008a73ffffffffffffffffffffffffffffffffffffffff1673ffffffffffffffffffffffffffffffffffffffff168152602001908152602001600020600084815260200190815260200160002054915061703682600e546161cc90919063ffffffff16565b600e8190555061708d826000808c73ffffffffffffffffffffffffffffffffffffffff1673ffffffffffffffffffffffffffffffffffffffff168152602001908152602001600020546161cc90919063ffffffff16565b6000808b73ffffffffffffffffffffffffffffffffffffffff1673ffffffffffffffffffffffffffffffffffffffff1681526020019081526020016000208190555061713282600160008c73ffffffffffffffffffffffffffffffffffffffff1673ffffffffffffffffffffffffffffffffffffffff1681526020019081526020016000206000868152602001908152602001600020546161cc90919063ffffffff16565b5061714682876154a490919063ffffffff16565b955061715c6001866154a490919063ffffffff16565b94507fa1c85a30dec08aa526dc5a3ca33087f723335ec5c1614ecf0036da150a6971c883338b8b8b604051808681526020018573ffffffffffffffffffffffffffffffffffffffff1673ffffffffffffffffffffffffffffffffffffffff1681526020018473ffffffffffffffffffffffffffffffffffffffff1673ffffffffffffffffffffffffffffffffffffffff16815260200183815260200180602001828103825283818151815260200191508051906020019080838360005b83811015617234578082015181840152602081019050617219565b50505050905090810190601f1680156172615780820380516001836020036101000a031916815260200191505b50965050505050505060405180910390a1616c4d565b7fea01d24fee0ecbb349ab449ea41d11599fd91ba758653579b30d38d63e2adedb338a8a8a604051808573ffffffffffffffffffffffffffffffffffffffff1673ffffffffffffffffffffffffffffffffffffffff1681526020018473ffffffffffffffffffffffffffffffffffffffff1673ffffffffffffffffffffffffffffffffffffffff16815260200183815260200180602001828103825283818151815260200191508051906020019080838360005b8381101561734657808201518184015260208101905061732b565b50505050905090810190601f1680156173735780820380516001836020036101000a031916815260200191505b509550505050505060405180910390a160008060008b73ffffffffffffffffffffffffffffffffffffffff1673ffffffffffffffffffffffffffffffffffffffff1681526020019081526020016000205414156173d5576173d389617a8b565b505b601c60009054906101000a900460ff161561748b577fddf252ad1be2c89b69c2b068fc378daa952ba7f163c4a11628f55a4df523b3ef8960008a604051808473ffffffffffffffffffffffffffffffffffffffff1673ffffffffffffffffffffffffffffffffffffffff1681526020018373ffffffffffffffffffffffffffffffffffffffff1673ffffffffffffffffffffffffffffffffffffffff168152602001828152602001935050505060405180910390a15b505050505050505050565b60008060008373ffffffffffffffffffffffffffffffffffffffff1614156174c157600091506174cc565b823b90506000811491505b50919050565b60008082601854604051602001808360001916600019168152602001828152602001925050506040516020818303038152906040526040518082805190602001908083835b60208310151561753c5780518252602082019150602081019050602083039250617517565b6001836020036101000a038019825116818451168082178552505050505050905001915050604051809103902060019004905061758560016018546154a490919063ffffffff16565b506019548181151561759357fe5b06915050919050565b6000806175a883617b16565b156175b65760009150617731565b600160148490806001815401808255809150509060018203906000526020600020016000909192909190916101000a81548173ffffffffffffffffffffffffffffffffffffffff021916908373ffffffffffffffffffffffffffffffffffffffff16021790555003905080600560008573ffffffffffffffffffffffffffffffffffffffff1673ffffffffffffffffffffffffffffffffffffffff168152602001908152602001600020819055506001600460008573ffffffffffffffffffffffffffffffffffffffff1673ffffffffffffffffffffffffffffffffffffffff16815260200190815260200160002060006101000a81548160ff0219169083151502179055507f33dda5dca20a95bec563f7c6e810061b24d464536df0636a17d2d041b8b0c66d83601480549050604051808373ffffffffffffffffffffffffffffffffffffffff1673ffffffffffffffffffffffffffffffffffffffff1681526020018281526020019250505060405180910390a1600191505b50919050565b6000600190505b601480549050811015617968576000601e600060148481548110151561776057fe5b9060005260206000200160009054906101000a900473ffffffffffffffffffffffffffffffffffffffff1673ffffffffffffffffffffffffffffffffffffffff1673ffffffffffffffffffffffffffffffffffffffff16815260200190815260200160002060000154141515617864576040517f08c379a000000000000000000000000000000000000000000000000000000000815260040180806020018281038252602a8152602001807f54686520726967687420746f20766f746520616c72656164792068617320626581526020017f656e206772616e7465640000000000000000000000000000000000000000000081525060400191505060405180910390fd5b60008060148381548110151561787657fe5b9060005260206000200160009054906101000a900473ffffffffffffffffffffffffffffffffffffffff1673ffffffffffffffffffffffffffffffffffffffff1673ffffffffffffffffffffffffffffffffffffffff16815260200190815260200160002054601e60006014848154811015156178ef57fe5b9060005260206000200160009054906101000a900473ffffffffffffffffffffffffffffffffffffffff1673ffffffffffffffffffffffffffffffffffffffff1673ffffffffffffffffffffffffffffffffffffffff16815260200190815260200160002060000181905550808060010191505061773e565b50565b6000806003600084815260200190815260200160002060020154600360008581526020019081526020016000206001015401905080421015915050919050565b60008060185460405160200180807f72616e646f6d537472696e670000000000000000000000000000000000000000815250600c018281526020019150506040516020818303038152906040526040518082805190602001908083835b602083101515617a2d5780518252602082019150602081019050602083039250617a08565b6001836020036101000a0380198251168184511680821785525050505050509050019150506040518091039020600190049050617a7660016018546154a490919063ffffffff16565b5060195481811515617a8457fe5b0691505090565b600080600560008473ffffffffffffffffffffffffffffffffffffffff1673ffffffffffffffffffffffffffffffffffffffff168152602001908152602001600020549050601481815481101515617adf57fe5b9060005260206000200160006101000a81549073ffffffffffffffffffffffffffffffffffffffff02191690556001915050919050565b600060011515617b2583617496565b1515141515617b9c576040517f08c379a00000000000000000000000000000000000000000000000000000000081526004018080602001828103825260158152602001807f6e6f74206120726567756c61722061646472657373000000000000000000000081525060200191505060405180910390fd5b600460008373ffffffffffffffffffffffffffffffffffffffff1673ffffffffffffffffffffffffffffffffffffffff16815260200190815260200160002060009054906101000a900460ff169050919050565b828054600181600116156101000203166002900490600052602060002090601f016020900481019282601f10617c3157805160ff1916838001178555617c5f565b82800160010185558215617c5f579182015b82811115617c5e578251825591602001919060010190617c43565b5b509050617c6c9190617d0f565b5090565b6040805190810160405280600290602082028038833980820191505090505090565b8260028101928215617cfe579160200282015b82811115617cfd5782518260006101000a81548173ffffffffffffffffffffffffffffffffffffffff021916908373ffffffffffffffffffffffffffffffffffffffff16021790555091602001919060010190617ca5565b5b509050617d0b9190617d34565b5090565b617d3191905b80821115617d2d576000816000905550600101617d15565b5090565b90565b617d7491905b80821115617d7057600081816101000a81549073ffffffffffffffffffffffffffffffffffffffff021916905550600101617d3a565b5090565b905600a165627a7a723058208fc1fc5c11c1ffda6a21c6ecdc422c5443b7ab7c7c622e60ccd2463214300b4a0029",
  "source": "pragma solidity ^0.4.24;\r\n\r\nimport \"./ConvertLib.sol\";\r\nimport \"./SafeMath.sol\";\r\nimport \"./EquityTokenFactory.sol\";\r\nimport \"./EquityToken.sol\";\r\nimport \"./EquityTokenTransaction.sol\";\r\n\r\ncontract EquityTokenTransactionHelper is EquityTokenTransaction {\r\n\r\n//-----TokenTransactions------------------------------------------------------------------------------------------------------------------\r\n  /* This section determines transaction protocolls of the issued equity token\r\n        - this section contains the public but forwarding send functions!\r\n        -\r\n        */\r\n\r\n    ///@dev fires an event after percentage of dividend is determined and transfered    \r\n    event Dividend(uint _txpercentage);\r\n\r\n    ///@notice native ERC777 send function\r\n    function send(address _to, uint _txamount) public returns(bool success_) {\r\n        _doSend(msg.sender, _to, _txamount, \"\", msg.sender, \"\");\r\n        return true;\r\n    }\r\n\r\n    function send(address _to, uint _txamount, bytes _userData) public returns(bool success_) {\r\n        _doSend(msg.sender, _to, _txamount, _userData, msg.sender, \"\");\r\n        return true;\r\n    }\r\n  \r\n    ///@notice Send _amount of tokens on behalf of the address _from to the address _to.\r\n    ///@param _userData Data generated by the user to be sent to the recipient\r\n    ///@param _operatorData Data generated by the operator to be sent to the recipient\r\n    ///@notice ERC777 mandatory\r\n    function operatorSend(address _from, address _to, uint _txamount, bytes _userData, bytes _operatorData) public returns(bool success_) {\r\n        require((isOperatorFor(msg.sender, _from)), \"sender is not authorized to operate with _from's account\");\r\n        _doSend(_from, _to, _txamount, _userData, msg.sender, _operatorData);\r\n        return true;\r\n    }\r\n\r\n    ///@return returning a trancheId allows to further distinct equity-tranches into sub-tranches by token holder\r\n    /// this enables token governance on company AND on token holder level (sub-tranches)\r\n    ///@notice native EIP1410 send function\r\n    function sendByTranche(uint _trancheId, address _to, uint _txamount) external returns(uint) {\r\n        uint receiverTrancheId_ = _doSend(_trancheId, msg.sender, _to, _txamount, \"\", msg.sender, \"\");\r\n        return receiverTrancheId_;\r\n    }\r\n    function sendByTranche(uint _trancheId, address _to, uint _txamount, bytes _userData) external returns(uint) {\r\n        uint receiverTrancheId_ = _doSend(_trancheId, msg.sender, _to, _txamount, _userData, msg.sender, \"\");\r\n        return receiverTrancheId_;\r\n    }\r\n\r\n    ///@notice Send _amount of tokens on behalf of the address _from to the address _to\r\n    ///@notice EIP1410 mandatory for backward interoperability with ERC777\r\n    function operatorSendByTranche(uint _trancheId, address _from, address _to, uint _txamount, bytes _userData, bytes _operatorData) external returns(uint) {\r\n        require((isOperatorFor(msg.sender, _from)), \"sender is not authorized to operate with _from's account\");\r\n        uint receiverTrancheId_ = _doSend(_trancheId, _from, _to, _txamount, _userData, msg.sender, _operatorData);\r\n        return receiverTrancheId_;\r\n    }\r\n\r\n    ///@dev transfers of security might fail to multiple reasons (e.g. identity of sender and receiver, trading limits, meta state of token)\r\n    ///@dev relies on EIP1066 for Ethereum Standard Codes (ESC) and ERC770 for tranching\r\n    ///@dev only possible to read error code of 'doSend -> require' statement with assembly { call } for more elaborated error messages (see Ethereum documentation)\r\n    ///@return ESC (byte), optional specific reason for failure (bytes32), (NOT IMPLEMENTED) destinantion tranche of the token beeing transfered (uint)\r\n    ///@notice EIP1400 proposal\r\n    function canSend(uint _trancheId, address _from, address _to, uint _txamount, bytes _userData) external returns(byte, bytes32, uint) {\r\n        uint receiverTrancheId_ = _doSend(_trancheId, _from, _to, _txamount, _userData, msg.sender, \"\");\r\n        if(receiverTrancheId_ > 0) {\r\n        return (hex\"01\", \"success\", receiverTrancheId_);}\r\n        else {\r\n        return (hex\"00\", \"failure\", receiverTrancheId_);}\r\n    }\r\n\r\n    ///@dev transfers token from A to B and fires event, additionally updates the TotalDistribution array (shareholder book)\r\n    ///@notice ERC20 mandatory\r\n    ///@dev with _preventLocking parameter, should return _doSend(msg.sender, _to, _txamount, \"\", msg.sender, \"\", false) false here!\r\n    function transfer(address _to, uint _txamount) public isERC20 returns(bool success_) {\r\n        _doSend(msg.sender, _to, _txamount, \"\", msg.sender, \"\");\r\n        return true;\r\n    }\r\n\r\n    ///@dev transfers token from A to B and fires event, additionally updates the TotalDistribution array (shareholder book); transferFrom should be used for withdrawing workflow\r\n    ///@notice ERC20 mandatory\r\n    function transferFrom(address _from, address _to, uint _txamount) public isERC20 returns(bool success_) {\r\n        require((_txamount <= allowed[_from][msg.sender]), \"no approval for transaction\");\r\n\r\n        //@security cannot be after doSend because of tokensReceived re-entry\r\n        allowed[_from][msg.sender] = allowed[_from][msg.sender].sub(_txamount);\r\n        _doSend(_from, _to, _txamount, \"\", msg.sender, \"\");\r\n        return true;\r\n    }\r\n\r\n    ///@dev pays a dividend to all owner of the shares depending on determined percentage of owners portfolio value\r\n    // dividend is uint (no decimals allowed) -> owners balance has to be divided by 100, to calculate in %\r\n    ///@notice starts with index 1 in array, as 0 is contract deployer = companyowner in most cases\r\n    ///@notice would be also possible with PAYABLE to pay in ether and withdraw() to send ether, but with stocks more elegant\r\n    ///@notice uses default tranches to pay for dividend\r\n    function payDividend(uint _txpercentage) external onlyOwnerOfCom {\r\n        uint _totaldividend;\r\n        for (uint i = 1; i < TotalDistribution.length; i++) {\r\n            uint _temp = _txpercentage.mul(OwnerToBalance[TotalDistribution[i]]/100);\r\n            _totaldividend = _totaldividend.add(_temp);\r\n        }\r\n        require((OwnerToBalance[msg.sender] >= _totaldividend), \"insufficient funding to pay dividend\");\r\n        for (uint j = 1; j < TotalDistribution.length; j++) {\r\n            uint _txamount = _txpercentage.mul(OwnerToBalance[TotalDistribution[j]]/100);\r\n            _doSend(msg.sender, TotalDistribution[j], _txamount, \"\", msg.sender, \"\");\r\n        }\r\n        emit Dividend(_txpercentage);\r\n    }\r\n    \r\n//-----TokenTransactions------------------------------------------------------------------------------------------------------------------    \r\n} ",
  "sourcePath": "/mnt/c/Solidity/solidity_eto/contracts/EquityTokenTransactionHelper.sol",
  "compiler": {
    "name": "solc",
    "version": "0.4.24+commit.e67f0147.Emscripten.clang"
  },
  "schemaVersion": "2.0.1",
  "updatedAt": "2018-12-17T20:42:23.667Z"
}