{
  "contractName": "EquityTokenFactory",
  "abi": [
    {
      "constant": true,
      "inputs": [
        {
          "name": "",
          "type": "uint256"
        }
      ],
      "name": "AllEquityToken",
      "outputs": [
        {
          "name": "tokenId",
          "type": "uint256"
        },
        {
          "name": "companyName",
          "type": "string"
        },
        {
          "name": "tokenTicker",
          "type": "string"
        },
        {
          "name": "totalamount",
          "type": "uint256"
        },
        {
          "name": "nominalvalue",
          "type": "uint256"
        }
      ],
      "payable": false,
      "stateMutability": "view",
      "type": "function"
    },
    {
      "inputs": [],
      "payable": false,
      "stateMutability": "nonpayable",
      "type": "constructor"
    },
    {
      "anonymous": false,
      "inputs": [
        {
          "indexed": true,
          "name": "tokenId",
          "type": "uint256"
        },
        {
          "indexed": false,
          "name": "totalamount",
          "type": "uint256"
        },
        {
          "indexed": false,
          "name": "nominalvalue",
          "type": "uint256"
        }
      ],
      "name": "newTokenIssuance",
      "type": "event"
    },
    {
      "constant": false,
      "inputs": [
        {
          "name": "_companyName",
          "type": "string"
        },
        {
          "name": "_tokenTicker",
          "type": "string"
        },
        {
          "name": "_totalamount",
          "type": "uint256"
        },
        {
          "name": "_nominalvalue",
          "type": "uint256"
        }
      ],
      "name": "createEquityToken",
      "outputs": [],
      "payable": false,
      "stateMutability": "nonpayable",
      "type": "function"
    }
  ],
  "bytecode": "0x60806040526305f5e10060045534801561001857600080fd5b50610751806100286000396000f30060806040526004361061004c576000357c0100000000000000000000000000000000000000000000000000000000900463ffffffff168063124748e214610051578063923a891914610178575b600080fd5b34801561005d57600080fd5b5061007c6004803603810190808035906020019092919050505061023b565b604051808681526020018060200180602001858152602001848152602001838103835287818151815260200191508051906020019080838360005b838110156100d25780820151818401526020810190506100b7565b50505050905090810190601f1680156100ff5780820380516001836020036101000a031916815260200191505b50838103825286818151815260200191508051906020019080838360005b8381101561013857808201518184015260208101905061011d565b50505050905090810190601f1680156101655780820380516001836020036101000a031916815260200191505b5097505050505050505060405180910390f35b34801561018457600080fd5b50610239600480360381019080803590602001908201803590602001908080601f0160208091040260200160405190810160405280939291908181526020018383808284378201915050505050509192919290803590602001908201803590602001908080601f016020809104026020016040519081016040528093929190818152602001838380828437820191505050505050919291929080359060200190929190803590602001909291905050506103b0565b005b60038181548110151561024a57fe5b9060005260206000209060050201600091509050806000015490806001018054600181600116156101000203166002900480601f0160208091040260200160405190810160405280929190818152602001828054600181600116156101000203166002900480156102fc5780601f106102d1576101008083540402835291602001916102fc565b820191906000526020600020905b8154815290600101906020018083116102df57829003601f168201915b505050505090806002018054600181600116156101000203166002900480601f01602080910402602001604051908101604052809291908181526020018280546001816001161561010002031660029004801561039a5780601f1061036f5761010080835404028352916020019161039a565b820191906000526020600020905b81548152906001019060200180831161037d57829003601f168201915b5050505050908060030154908060040154905085565b60006103bb856103d1565b90506103ca81868686866104d5565b5050505050565b600080600080915083826040516020018083805190602001908083835b60208310151561041357805182526020820191506020810190506020830392506103ee565b6001836020036101000a038019825116818451168082178552505050505050905001828152602001925050506040516020818303038152906040526040518082805190602001908083835b602083101515610483578051825260208201915060208101905060208303925061045e565b6001836020036101000a03801982511681845116808217855250505050505090500191505060405180910390206001900490508180600101925050600454818115156104cb57fe5b0692505050919050565b60006001600360a0604051908101604052808981526020018881526020018781526020018681526020018581525090806001815401808255809150509060018203906000526020600020906005020160009091929091909150600082015181600001556020820151816001019080519060200190610554929190610680565b506040820151816002019080519060200190610571929190610680565b5060608201518160030155608082015181600401555050039050826000803373ffffffffffffffffffffffffffffffffffffffff1673ffffffffffffffffffffffffffffffffffffffff16815260200190815260200160002081905550336001600088815260200190815260200160002060006101000a81548173ffffffffffffffffffffffffffffffffffffffff021916908373ffffffffffffffffffffffffffffffffffffffff160217905550806002600088815260200190815260200160002081905550857f53a17e314a0d49dac5969913b5815abbebc5582aacfbbafb2536bc1f22ef6c438484604051808381526020018281526020019250505060405180910390a2505050505050565b828054600181600116156101000203166002900490600052602060002090601f016020900481019282601f106106c157805160ff19168380011785556106ef565b828001600101855582156106ef579182015b828111156106ee5782518255916020019190600101906106d3565b5b5090506106fc9190610700565b5090565b61072291905b8082111561071e576000816000905550600101610706565b5090565b905600a165627a7a72305820bf751990f0e7e343ca73cbe355b097da882aa87b0a69f6a14b31ba8c68e962ca0029",
  "source": "pragma solidity ^0.4.24;\r\n\r\nimport \"./ConvertLib.sol\";\r\n\r\ncontract EquityTokenFactory {\r\n    \r\n    event newTokenIssuance(uint indexed tokenId, uint totalamount, uint nominalvalue);\r\n    \r\n    mapping (address => uint) OwnerAmountCount; // Anzahl an Aktien eines Inhabers\r\n    mapping (uint => address) EquityToOwner; // Liste mit Inhabern einer Aktie\r\n    mapping (uint => uint) IdToIndex;\r\n\r\n    struct EquityToken {\r\n      uint tokenId;\r\n      string companyName;\r\n      string tokenTicker;\r\n      uint totalamount;\r\n      uint nominalvalue;\r\n      }\r\n\r\n    EquityToken[] public AllEquityToken;\r\n\r\n    constructor() public {\r\n\t\t// OwnerAmountCount[msg.sender] = 10000;   \r\n\t}  \r\n\r\n  // ensures, that tokenId is always 8 digits\r\n  uint idModulus = 10 ** 8;\r\n\r\n  function createEquityToken(string _companyName, string _tokenTicker, uint _totalamount, uint _nominalvalue) public {\r\n  uint tokenId = _generateRandomTokenId(_companyName);\r\n  // Approval Process (require)\r\n  _createEquityToken(tokenId, _companyName, _tokenTicker, _totalamount, _nominalvalue);\r\n  }\r\n\r\n  function _createEquityToken(uint _tokenId, string _companyName, string _tokenTicker, uint _totalamount, uint _nominalvalue) internal {\r\n  uint arrayIndex = AllEquityToken.push(EquityToken(_tokenId, _companyName, _tokenTicker, _totalamount, _nominalvalue)) - 1;\r\n  OwnerAmountCount[msg.sender] = _totalamount;\r\n  EquityToOwner[_tokenId] = msg.sender;\r\n  IdToIndex[_tokenId] = arrayIndex;\r\n  emit newTokenIssuance(_tokenId, _totalamount, _nominalvalue);\r\n  }\r\n\r\n  // @dev: generates an unique 8 digit tokenId by hashing string and a nonce\r\n  // @security: could error if uint + randNonce > 256 digits\r\n  function _generateRandomTokenId(string _companyName) private view returns (uint) {\r\n  uint randNonce = 0;\r\n  uint random = uint(keccak256(abi.encodePacked(_companyName, randNonce)));\r\n  randNonce++;\r\n  return random % idModulus;\r\n  }\r\n\r\n  \r\n}",
  "sourcePath": "/mnt/c/Solidity/solidity_eto/contracts/EquityTokenFactory.sol",
  "compiler": {
    "name": "solc",
    "version": "0.4.24+commit.e67f0147.Emscripten.clang"
  },
  "schemaVersion": "2.0.1",
  "updatedAt": "2018-09-22T15:58:09.700Z"
}