{
  "contractName": "EquityToken",
  "abi": [
    {
      "constant": true,
      "inputs": [],
      "name": "defaultOperators",
      "outputs": [
        {
          "name": "",
          "type": "address[2]"
        }
      ],
      "payable": false,
      "stateMutability": "view",
      "type": "function"
    },
    {
      "constant": true,
      "inputs": [
        {
          "name": "",
          "type": "uint256"
        }
      ],
      "name": "TotalDistribution",
      "outputs": [
        {
          "name": "",
          "type": "address"
        }
      ],
      "payable": false,
      "stateMutability": "view",
      "type": "function"
    },
    {
      "constant": false,
      "inputs": [
        {
          "name": "_address",
          "type": "address"
        }
      ],
      "name": "approveAccreditation",
      "outputs": [],
      "payable": false,
      "stateMutability": "nonpayable",
      "type": "function"
    },
    {
      "constant": false,
      "inputs": [
        {
          "name": "_trancheId",
          "type": "uint256"
        },
        {
          "name": "_from",
          "type": "address"
        },
        {
          "name": "_amount",
          "type": "uint256"
        },
        {
          "name": "_operatorData",
          "type": "bytes"
        }
      ],
      "name": "burnByTranche",
      "outputs": [],
      "payable": false,
      "stateMutability": "nonpayable",
      "type": "function"
    },
    {
      "constant": true,
      "inputs": [],
      "name": "isIssuable",
      "outputs": [
        {
          "name": "",
          "type": "bool"
        }
      ],
      "payable": false,
      "stateMutability": "view",
      "type": "function"
    },
    {
      "constant": false,
      "inputs": [
        {
          "name": "_from",
          "type": "address"
        },
        {
          "name": "_amount",
          "type": "uint256"
        },
        {
          "name": "_operatorData",
          "type": "bytes"
        }
      ],
      "name": "burn",
      "outputs": [],
      "payable": false,
      "stateMutability": "nonpayable",
      "type": "function"
    },
    {
      "constant": true,
      "inputs": [],
      "name": "isControllable",
      "outputs": [
        {
          "name": "",
          "type": "bool"
        }
      ],
      "payable": false,
      "stateMutability": "view",
      "type": "function"
    },
    {
      "constant": false,
      "inputs": [
        {
          "name": "_addr",
          "type": "address"
        }
      ],
      "name": "setGovernmentAddress",
      "outputs": [],
      "payable": false,
      "stateMutability": "nonpayable",
      "type": "function"
    },
    {
      "constant": false,
      "inputs": [
        {
          "name": "adjustedLockup",
          "type": "uint256"
        }
      ],
      "name": "setLockup",
      "outputs": [],
      "payable": false,
      "stateMutability": "nonpayable",
      "type": "function"
    },
    {
      "constant": true,
      "inputs": [],
      "name": "accreditationFee",
      "outputs": [
        {
          "name": "",
          "type": "uint256"
        }
      ],
      "payable": false,
      "stateMutability": "view",
      "type": "function"
    },
    {
      "constant": true,
      "inputs": [
        {
          "name": "",
          "type": "uint256"
        }
      ],
      "name": "AllTranches",
      "outputs": [
        {
          "name": "",
          "type": "uint256"
        }
      ],
      "payable": false,
      "stateMutability": "view",
      "type": "function"
    },
    {
      "constant": false,
      "inputs": [
        {
          "name": "_operator",
          "type": "address"
        }
      ],
      "name": "authorizeOperator",
      "outputs": [],
      "payable": false,
      "stateMutability": "nonpayable",
      "type": "function"
    },
    {
      "constant": false,
      "inputs": [],
      "name": "stopIssuance",
      "outputs": [],
      "payable": false,
      "stateMutability": "nonpayable",
      "type": "function"
    },
    {
      "constant": false,
      "inputs": [
        {
          "name": "_from",
          "type": "address"
        },
        {
          "name": "_amount",
          "type": "uint256"
        },
        {
          "name": "_operatorData",
          "type": "bytes"
        }
      ],
      "name": "operatorBurn",
      "outputs": [],
      "payable": false,
      "stateMutability": "nonpayable",
      "type": "function"
    },
    {
      "constant": true,
      "inputs": [
        {
          "name": "",
          "type": "uint256"
        }
      ],
      "name": "Proposals",
      "outputs": [
        {
          "name": "name",
          "type": "bytes32"
        },
        {
          "name": "voteCount",
          "type": "uint256"
        }
      ],
      "payable": false,
      "stateMutability": "view",
      "type": "function"
    },
    {
      "constant": true,
      "inputs": [],
      "name": "governmentAddress",
      "outputs": [
        {
          "name": "",
          "type": "address"
        }
      ],
      "payable": false,
      "stateMutability": "view",
      "type": "function"
    },
    {
      "constant": true,
      "inputs": [
        {
          "name": "_operator",
          "type": "address"
        },
        {
          "name": "_tokenHolder",
          "type": "address"
        }
      ],
      "name": "isOperatorFor",
      "outputs": [
        {
          "name": "",
          "type": "bool"
        }
      ],
      "payable": false,
      "stateMutability": "view",
      "type": "function"
    },
    {
      "constant": false,
      "inputs": [
        {
          "name": "_trancheId",
          "type": "uint256"
        },
        {
          "name": "_from",
          "type": "address"
        },
        {
          "name": "_amount",
          "type": "uint256"
        },
        {
          "name": "_operatorData",
          "type": "bytes"
        }
      ],
      "name": "operatorBurnByTranche",
      "outputs": [],
      "payable": false,
      "stateMutability": "nonpayable",
      "type": "function"
    },
    {
      "constant": false,
      "inputs": [
        {
          "name": "_companyOwner",
          "type": "address"
        },
        {
          "name": "_amount",
          "type": "uint256"
        },
        {
          "name": "_userData",
          "type": "bytes"
        },
        {
          "name": "_operatorData",
          "type": "bytes"
        }
      ],
      "name": "mint",
      "outputs": [],
      "payable": false,
      "stateMutability": "nonpayable",
      "type": "function"
    },
    {
      "constant": false,
      "inputs": [
        {
          "name": "_companyName",
          "type": "bytes32"
        },
        {
          "name": "_tokenTicker",
          "type": "bytes32"
        },
        {
          "name": "_granularity",
          "type": "uint256"
        }
      ],
      "name": "createToken",
      "outputs": [],
      "payable": false,
      "stateMutability": "nonpayable",
      "type": "function"
    },
    {
      "constant": false,
      "inputs": [
        {
          "name": "_companyName",
          "type": "bytes32"
        }
      ],
      "name": "clearRequest",
      "outputs": [],
      "payable": false,
      "stateMutability": "nonpayable",
      "type": "function"
    },
    {
      "constant": false,
      "inputs": [
        {
          "name": "_operator",
          "type": "address"
        }
      ],
      "name": "revokeOperator",
      "outputs": [],
      "payable": false,
      "stateMutability": "nonpayable",
      "type": "function"
    },
    {
      "anonymous": false,
      "inputs": [
        {
          "indexed": false,
          "name": "_message",
          "type": "string"
        },
        {
          "indexed": false,
          "name": "_company",
          "type": "address"
        }
      ],
      "name": "adHocMessage",
      "type": "event"
    },
    {
      "anonymous": false,
      "inputs": [
        {
          "indexed": false,
          "name": "winnerName",
          "type": "bytes32"
        },
        {
          "indexed": false,
          "name": "countVotes",
          "type": "uint256"
        }
      ],
      "name": "votingSuccessful",
      "type": "event"
    },
    {
      "anonymous": false,
      "inputs": [
        {
          "indexed": false,
          "name": "_from",
          "type": "address"
        },
        {
          "indexed": false,
          "name": "_to",
          "type": "address"
        },
        {
          "indexed": false,
          "name": "_txamount",
          "type": "uint256"
        }
      ],
      "name": "Approval",
      "type": "event"
    },
    {
      "anonymous": false,
      "inputs": [
        {
          "indexed": false,
          "name": "companyName",
          "type": "bytes32"
        },
        {
          "indexed": false,
          "name": "tokenTicker",
          "type": "bytes32"
        },
        {
          "indexed": false,
          "name": "companyOwner",
          "type": "address"
        }
      ],
      "name": "newTokenIssuance",
      "type": "event"
    },
    {
      "anonymous": false,
      "inputs": [
        {
          "indexed": false,
          "name": "operator",
          "type": "address"
        },
        {
          "indexed": false,
          "name": "to",
          "type": "address"
        },
        {
          "indexed": false,
          "name": "amount",
          "type": "uint256"
        },
        {
          "indexed": false,
          "name": "userData",
          "type": "bytes"
        },
        {
          "indexed": false,
          "name": "operatorData",
          "type": "bytes"
        }
      ],
      "name": "Minted",
      "type": "event"
    },
    {
      "anonymous": false,
      "inputs": [
        {
          "indexed": false,
          "name": "operator",
          "type": "address"
        },
        {
          "indexed": false,
          "name": "from",
          "type": "address"
        },
        {
          "indexed": false,
          "name": "amount",
          "type": "uint256"
        },
        {
          "indexed": false,
          "name": "operatorData",
          "type": "bytes"
        }
      ],
      "name": "Burned",
      "type": "event"
    },
    {
      "anonymous": false,
      "inputs": [
        {
          "indexed": false,
          "name": "trancheId",
          "type": "uint256"
        },
        {
          "indexed": false,
          "name": "operator",
          "type": "address"
        },
        {
          "indexed": false,
          "name": "to",
          "type": "address"
        },
        {
          "indexed": false,
          "name": "amount",
          "type": "uint256"
        },
        {
          "indexed": false,
          "name": "userData",
          "type": "bytes"
        },
        {
          "indexed": false,
          "name": "operatorData",
          "type": "bytes"
        }
      ],
      "name": "MintedByTranche",
      "type": "event"
    },
    {
      "anonymous": false,
      "inputs": [
        {
          "indexed": false,
          "name": "trancheId",
          "type": "uint256"
        },
        {
          "indexed": false,
          "name": "operator",
          "type": "address"
        },
        {
          "indexed": false,
          "name": "from",
          "type": "address"
        },
        {
          "indexed": false,
          "name": "amount",
          "type": "uint256"
        },
        {
          "indexed": false,
          "name": "operatorData",
          "type": "bytes"
        }
      ],
      "name": "BurnedByTranche",
      "type": "event"
    },
    {
      "anonymous": false,
      "inputs": [
        {
          "indexed": false,
          "name": "_from",
          "type": "address"
        },
        {
          "indexed": false,
          "name": "_to",
          "type": "address"
        },
        {
          "indexed": false,
          "name": "_txamount",
          "type": "uint256"
        }
      ],
      "name": "Transfer",
      "type": "event"
    },
    {
      "anonymous": false,
      "inputs": [
        {
          "indexed": false,
          "name": "newShareholder",
          "type": "address"
        },
        {
          "indexed": false,
          "name": "length",
          "type": "uint256"
        }
      ],
      "name": "newShareholder",
      "type": "event"
    },
    {
      "anonymous": false,
      "inputs": [
        {
          "indexed": false,
          "name": "operator",
          "type": "address"
        },
        {
          "indexed": false,
          "name": "tokenHolder",
          "type": "address"
        }
      ],
      "name": "AuthorizedOperator",
      "type": "event"
    },
    {
      "anonymous": false,
      "inputs": [
        {
          "indexed": true,
          "name": "operator",
          "type": "address"
        },
        {
          "indexed": true,
          "name": "tokenHolder",
          "type": "address"
        }
      ],
      "name": "RevokedOperator",
      "type": "event"
    },
    {
      "constant": true,
      "inputs": [],
      "name": "name",
      "outputs": [
        {
          "name": "",
          "type": "bytes32"
        }
      ],
      "payable": false,
      "stateMutability": "view",
      "type": "function"
    },
    {
      "constant": true,
      "inputs": [],
      "name": "symbol",
      "outputs": [
        {
          "name": "",
          "type": "bytes32"
        }
      ],
      "payable": false,
      "stateMutability": "view",
      "type": "function"
    },
    {
      "constant": true,
      "inputs": [],
      "name": "granularity",
      "outputs": [
        {
          "name": "",
          "type": "uint256"
        }
      ],
      "payable": false,
      "stateMutability": "view",
      "type": "function"
    },
    {
      "constant": true,
      "inputs": [
        {
          "name": "_addr",
          "type": "address"
        }
      ],
      "name": "getBalanceOfInEth",
      "outputs": [
        {
          "name": "",
          "type": "uint256"
        }
      ],
      "payable": false,
      "stateMutability": "view",
      "type": "function"
    },
    {
      "constant": true,
      "inputs": [
        {
          "name": "_addr",
          "type": "address"
        }
      ],
      "name": "balanceOf",
      "outputs": [
        {
          "name": "",
          "type": "uint256"
        }
      ],
      "payable": false,
      "stateMutability": "view",
      "type": "function"
    },
    {
      "constant": true,
      "inputs": [
        {
          "name": "_addr",
          "type": "address"
        },
        {
          "name": "_tranche",
          "type": "uint256"
        }
      ],
      "name": "balanceOfByTranche",
      "outputs": [
        {
          "name": "",
          "type": "uint256"
        }
      ],
      "payable": false,
      "stateMutability": "view",
      "type": "function"
    },
    {
      "constant": true,
      "inputs": [
        {
          "name": "_addr",
          "type": "address"
        }
      ],
      "name": "tranchesOf",
      "outputs": [
        {
          "name": "",
          "type": "uint256[]"
        }
      ],
      "payable": false,
      "stateMutability": "view",
      "type": "function"
    },
    {
      "constant": true,
      "inputs": [],
      "name": "totalSupply",
      "outputs": [
        {
          "name": "",
          "type": "uint256"
        }
      ],
      "payable": false,
      "stateMutability": "view",
      "type": "function"
    },
    {
      "constant": true,
      "inputs": [],
      "name": "getInfosEquityToken",
      "outputs": [
        {
          "name": "",
          "type": "bytes32"
        },
        {
          "name": "",
          "type": "bytes32"
        },
        {
          "name": "",
          "type": "uint256"
        },
        {
          "name": "",
          "type": "uint256"
        },
        {
          "name": "",
          "type": "uint256[]"
        }
      ],
      "payable": false,
      "stateMutability": "view",
      "type": "function"
    },
    {
      "constant": true,
      "inputs": [],
      "name": "getAllAddressesEquityToken",
      "outputs": [
        {
          "name": "",
          "type": "address[]"
        }
      ],
      "payable": false,
      "stateMutability": "view",
      "type": "function"
    },
    {
      "constant": true,
      "inputs": [],
      "name": "getCompanyOwner",
      "outputs": [
        {
          "name": "",
          "type": "address"
        }
      ],
      "payable": false,
      "stateMutability": "view",
      "type": "function"
    },
    {
      "constant": false,
      "inputs": [
        {
          "name": "_addr",
          "type": "address"
        }
      ],
      "name": "setCompanyOwner",
      "outputs": [],
      "payable": false,
      "stateMutability": "nonpayable",
      "type": "function"
    },
    {
      "constant": false,
      "inputs": [
        {
          "name": "_message",
          "type": "string"
        }
      ],
      "name": "sendAdHocMessage",
      "outputs": [],
      "payable": false,
      "stateMutability": "nonpayable",
      "type": "function"
    },
    {
      "constant": false,
      "inputs": [
        {
          "name": "proposalNames",
          "type": "bytes32[]"
        }
      ],
      "name": "startBallot",
      "outputs": [],
      "payable": false,
      "stateMutability": "nonpayable",
      "type": "function"
    },
    {
      "constant": false,
      "inputs": [
        {
          "name": "_to",
          "type": "address"
        }
      ],
      "name": "delegate",
      "outputs": [],
      "payable": false,
      "stateMutability": "nonpayable",
      "type": "function"
    },
    {
      "constant": false,
      "inputs": [
        {
          "name": "_proposal",
          "type": "uint256"
        }
      ],
      "name": "vote",
      "outputs": [],
      "payable": false,
      "stateMutability": "nonpayable",
      "type": "function"
    },
    {
      "constant": false,
      "inputs": [],
      "name": "winningProposal",
      "outputs": [
        {
          "name": "winnerName_",
          "type": "bytes32"
        }
      ],
      "payable": false,
      "stateMutability": "nonpayable",
      "type": "function"
    },
    {
      "constant": true,
      "inputs": [],
      "name": "getProposals",
      "outputs": [
        {
          "name": "",
          "type": "bytes32[]"
        }
      ],
      "payable": false,
      "stateMutability": "view",
      "type": "function"
    },
    {
      "constant": true,
      "inputs": [
        {
          "name": "_index",
          "type": "uint256"
        }
      ],
      "name": "getVoteCount",
      "outputs": [
        {
          "name": "voteCount_",
          "type": "uint256"
        }
      ],
      "payable": false,
      "stateMutability": "view",
      "type": "function"
    },
    {
      "constant": false,
      "inputs": [],
      "name": "disableERC20",
      "outputs": [],
      "payable": false,
      "stateMutability": "nonpayable",
      "type": "function"
    },
    {
      "constant": false,
      "inputs": [],
      "name": "enableERC20",
      "outputs": [],
      "payable": false,
      "stateMutability": "nonpayable",
      "type": "function"
    },
    {
      "constant": true,
      "inputs": [],
      "name": "decimals",
      "outputs": [
        {
          "name": "",
          "type": "uint8"
        }
      ],
      "payable": false,
      "stateMutability": "view",
      "type": "function"
    },
    {
      "constant": false,
      "inputs": [
        {
          "name": "_spender",
          "type": "address"
        },
        {
          "name": "_txamount",
          "type": "uint256"
        }
      ],
      "name": "approve",
      "outputs": [
        {
          "name": "success_",
          "type": "bool"
        }
      ],
      "payable": false,
      "stateMutability": "nonpayable",
      "type": "function"
    },
    {
      "constant": true,
      "inputs": [
        {
          "name": "_owner",
          "type": "address"
        },
        {
          "name": "_spender",
          "type": "address"
        }
      ],
      "name": "allowance",
      "outputs": [
        {
          "name": "remaining",
          "type": "uint256"
        }
      ],
      "payable": false,
      "stateMutability": "view",
      "type": "function"
    }
  ],
  "bytecode": "0x60806040526001601160006101000a81548160ff02191690831515021790555060006012556305f5e100601355612710601455620f4240601555670de0b6b3a76400006017556301e13380601a5534801561005957600080fd5b506157da806200006a6000396000f300608060405260043610610230576000357c0100000000000000000000000000000000000000000000000000000000900463ffffffff1680630121b93f1461023557806306e485381461026257806306fdde03146102b5578063070c87f9146102e8578063095ea7b3146102ff5780630b366df1146103645780631348bf22146103d157806318160ddd1461046957806318d46718146104945780631f2515b9146104eb5780632a88511a1461052e5780632d3d3f9c146105cb5780632f1cae851461060e578063313ce5671461063d57806344d171871461066e5780634c783bf514610701578063556f0dc7146107305780635c19a95c1461075b578063609ff1bd1461079e57806362564c48146107d15780636a1372191461083d5780636ae6b459146108805780636e4a2194146108ad57806370a08231146108d857806380d987ca1461092f578063959b8c3f1461097057806395d89b41146109b3578063b2c2f2e8146109e6578063b8fe4c3f14610a27578063c018f1d014610a3e578063c073d83614610aa7578063ce30b8d914610b13578063d1dbe7d814610ba6578063d570ab3414610bf6578063d95b637114610c4d578063dad3e6dd14610cc8578063dbb8299b14610d1f578063dcdc7dd014610dbc578063dd62ed3e14610e95578063dfa9429214610f0c578063e3da9f8f14610f55578063e53286c514610fed578063e75b0cf51461101e578063f922f2161461107f578063fad8b32a14611096578063fc1865a0146110d9575b600080fd5b34801561024157600080fd5b506102606004803603810190808035906020019092919050505061113f565b005b34801561026e57600080fd5b5061027761128e565b6040518082600260200280838360005b838110156102a2578082015181840152602081019050610287565b5050505090500191505060405180910390f35b3480156102c157600080fd5b506102ca61130f565b60405180826000191660001916815260200191505060405180910390f35b3480156102f457600080fd5b506102fd611319565b005b34801561030b57600080fd5b5061034a600480360381019080803573ffffffffffffffffffffffffffffffffffffffff16906020019092919080359060200190929190505050611421565b604051808215151515815260200191505060405180910390f35b34801561037057600080fd5b5061038f600480360381019080803590602001909291905050506116a4565b604051808273ffffffffffffffffffffffffffffffffffffffff1673ffffffffffffffffffffffffffffffffffffffff16815260200191505060405180910390f35b3480156103dd57600080fd5b506103e66116e2565b604051808660001916600019168152602001856000191660001916815260200184815260200183815260200180602001828103825283818151815260200191508051906020019060200280838360005b83811015610451578082015181840152602081019050610436565b50505050905001965050505050505060405180910390f35b34801561047557600080fd5b5061047e61175b565b6040518082815260200191505060405180910390f35b3480156104a057600080fd5b506104d5600480360381019080803573ffffffffffffffffffffffffffffffffffffffff169060200190929190505050611765565b6040518082815260200191505060405180910390f35b3480156104f757600080fd5b5061052c600480360381019080803573ffffffffffffffffffffffffffffffffffffffff169060200190929190505050611825565b005b34801561053a57600080fd5b506105c960048036038101908080359060200190929190803573ffffffffffffffffffffffffffffffffffffffff16906020019092919080359060200190929190803590602001908201803590602001908080601f016020809104026020016040519081016040528093929190818152602001838380828437820191505050505050919291929050505061196e565b005b3480156105d757600080fd5b5061060c600480360381019080803573ffffffffffffffffffffffffffffffffffffffff169060200190929190505050611a25565b005b34801561061a57600080fd5b50610623611b54565b604051808215151515815260200191505060405180910390f35b34801561064957600080fd5b50610652611b67565b604051808260ff1660ff16815260200191505060405180910390f35b34801561067a57600080fd5b506106ff600480360381019080803573ffffffffffffffffffffffffffffffffffffffff16906020019092919080359060200190929190803590602001908201803590602001908080601f0160208091040260200160405190810160405280939291908181526020018383808284378201915050505050509192919290505050611c1a565b005b34801561070d57600080fd5b50610716611ccf565b604051808215151515815260200191505060405180910390f35b34801561073c57600080fd5b50610745611d39565b6040518082815260200191505060405180910390f35b34801561076757600080fd5b5061079c600480360381019080803573ffffffffffffffffffffffffffffffffffffffff169060200190929190505050611d43565b005b3480156107aa57600080fd5b506107b361219b565b60405180826000191660001916815260200191505060405180910390f35b3480156107dd57600080fd5b506107e6612371565b6040518080602001828103825283818151815260200191508051906020019060200280838360005b8381101561082957808201518184015260208101905061080e565b505050509050019250505060405180910390f35b34801561084957600080fd5b5061087e600480360381019080803573ffffffffffffffffffffffffffffffffffffffff1690602001909291905050506123e3565b005b34801561088c57600080fd5b506108ab600480360381019080803590602001909291905050506125dd565b005b3480156108b957600080fd5b506108c26126d2565b6040518082815260200191505060405180910390f35b3480156108e457600080fd5b50610919600480360381019080803573ffffffffffffffffffffffffffffffffffffffff1690602001909291905050506126d8565b6040518082815260200191505060405180910390f35b34801561093b57600080fd5b5061095a60048036038101908080359060200190929190505050612720565b6040518082815260200191505060405180910390f35b34801561097c57600080fd5b506109b1600480360381019080803573ffffffffffffffffffffffffffffffffffffffff169060200190929190505050612743565b005b3480156109bf57600080fd5b506109c861293c565b60405180826000191660001916815260200191505060405180910390f35b3480156109f257600080fd5b50610a1160048036038101908080359060200190929190505050612946565b6040518082815260200191505060405180910390f35b348015610a3357600080fd5b50610a3c612973565b005b348015610a4a57600080fd5b50610aa5600480360381019080803590602001908201803590602001908080601f0160208091040260200160405190810160405280939291908181526020018383808284378201915050505050509192919290505050612a7b565b005b348015610ab357600080fd5b50610abc612c39565b6040518080602001828103825283818151815260200191508051906020019060200280838360005b83811015610aff578082015181840152602081019050610ae4565b505050509050019250505060405180910390f35b348015610b1f57600080fd5b50610ba4600480360381019080803573ffffffffffffffffffffffffffffffffffffffff16906020019092919080359060200190929190803590602001908201803590602001908080601f0160208091040260200160405190810160405280939291908181526020018383808284378201915050505050509192919290505050612cc7565b005b348015610bb257600080fd5b50610bd160048036038101908080359060200190929190505050612d7b565b6040518083600019166000191681526020018281526020019250505060405180910390f35b348015610c0257600080fd5b50610c0b612dae565b604051808273ffffffffffffffffffffffffffffffffffffffff1673ffffffffffffffffffffffffffffffffffffffff16815260200191505060405180910390f35b348015610c5957600080fd5b50610cae600480360381019080803573ffffffffffffffffffffffffffffffffffffffff169060200190929190803573ffffffffffffffffffffffffffffffffffffffff169060200190929190505050612dd4565b604051808215151515815260200191505060405180910390f35b348015610cd457600080fd5b50610cdd612e9e565b604051808273ffffffffffffffffffffffffffffffffffffffff1673ffffffffffffffffffffffffffffffffffffffff16815260200191505060405180910390f35b348015610d2b57600080fd5b50610dba60048036038101908080359060200190929190803573ffffffffffffffffffffffffffffffffffffffff16906020019092919080359060200190929190803590602001908201803590602001908080601f0160208091040260200160405190810160405280939291908181526020018383808284378201915050505050509192919290505050612ec8565b005b348015610dc857600080fd5b50610e93600480360381019080803573ffffffffffffffffffffffffffffffffffffffff16906020019092919080359060200190929190803590602001908201803590602001908080601f0160208091040260200160405190810160405280939291908181526020018383808284378201915050505050509192919290803590602001908201803590602001908080601f0160208091040260200160405190810160405280939291908181526020018383808284378201915050505050509192919290505050612f7e565b005b348015610ea157600080fd5b50610ef6600480360381019080803573ffffffffffffffffffffffffffffffffffffffff169060200190929190803573ffffffffffffffffffffffffffffffffffffffff169060200190929190505050613838565b6040518082815260200191505060405180910390f35b348015610f1857600080fd5b50610f536004803603810190808035600019169060200190929190803560001916906020019092919080359060200190929190505050613969565b005b348015610f6157600080fd5b50610f96600480360381019080803573ffffffffffffffffffffffffffffffffffffffff169060200190929190505050613bf7565b6040518080602001828103825283818151815260200191508051906020019060200280838360005b83811015610fd9578082015181840152602081019050610fbe565b505050509050019250505060405180910390f35b348015610ff957600080fd5b5061101c6004803603810190808035600019169060200190929190505050613c8e565b005b34801561102a57600080fd5b50611069600480360381019080803573ffffffffffffffffffffffffffffffffffffffff16906020019092919080359060200190929190505050613db2565b6040518082815260200191505060405180910390f35b34801561108b57600080fd5b50611094613e0d565b005b3480156110a257600080fd5b506110d7600480360381019080803573ffffffffffffffffffffffffffffffffffffffff169060200190929190505050613f15565b005b3480156110e557600080fd5b5061113d600480360381019080803590602001908201803590602001908080602002602001604051908101604052809392919081815260200183836020028082843782019150505050505091929192905050506140ab565b005b6000601b60003373ffffffffffffffffffffffffffffffffffffffff1673ffffffffffffffffffffffffffffffffffffffff16815260200190815260200160002090508060010160009054906101000a900460ff16151515611209576040517f08c379a000000000000000000000000000000000000000000000000000000000815260040180806020018281038252600d8152602001807f416c726561647920766f7465640000000000000000000000000000000000000081525060200191505060405180910390fd5b60018160010160006101000a81548160ff0219169083151502179055508181600201819055506112668160000154601c8481548110151561124657fe5b9060005260206000209060020201600101546142bf90919063ffffffff16565b601c8381548110151561127557fe5b9060005260206000209060020201600101819055505050565b6112966156cc565b600d600280602002604051908101604052809291908260028015611305576020028201915b8160009054906101000a900473ffffffffffffffffffffffffffffffffffffffff1673ffffffffffffffffffffffffffffffffffffffff16815260200190600101908083116112bb575b5050505050905090565b6000600854905090565b600c60009054906101000a900473ffffffffffffffffffffffffffffffffffffffff1673ffffffffffffffffffffffffffffffffffffffff163373ffffffffffffffffffffffffffffffffffffffff16141515611404576040517f08c379a00000000000000000000000000000000000000000000000000000000081526004018080602001828103825260298152602001807f726571756972656d656e74206f6e6c794f776e6572206f6620436f6d70616e7981526020017f206d6f646966696572000000000000000000000000000000000000000000000081525060400191505060405180910390fd5b6001601860006101000a81548160ff021916908315150217905550565b6000816000600a548281151561143357fe5b061415156114cf576040517f08c379a00000000000000000000000000000000000000000000000000000000081526004018080602001828103825260338152602001807f756e61626c6520746f206d6f6469667920746f6b656e2062616c616e6365732081526020017f61742074686973206772616e756c61726974790000000000000000000000000081525060400191505060405180910390fd5b601860009054906101000a900460ff161515611579576040517f08c379a00000000000000000000000000000000000000000000000000000000081526004018080602001828103825260258152602001807f657263323020636f6d7061746962696c69747920686173206265656e2064697381526020017f61626c656400000000000000000000000000000000000000000000000000000081525060400191505060405180910390fd5b82600560003373ffffffffffffffffffffffffffffffffffffffff1673ffffffffffffffffffffffffffffffffffffffff16815260200190815260200160002060008673ffffffffffffffffffffffffffffffffffffffff1673ffffffffffffffffffffffffffffffffffffffff168152602001908152602001600020819055507f8c5be1e5ebec7d5bd14f71427d1e84f3dd0314c0f7b2291e5b200ac8c7c3b925338585604051808473ffffffffffffffffffffffffffffffffffffffff1673ffffffffffffffffffffffffffffffffffffffff1681526020018373ffffffffffffffffffffffffffffffffffffffff1673ffffffffffffffffffffffffffffffffffffffff168152602001828152602001935050505060405180910390a1600191505092915050565b600f818154811015156116b357fe5b906000526020600020016000915054906101000a900473ffffffffffffffffffffffffffffffffffffffff1681565b6000806000806060600854600954600a54600b5460108080548060200260200160405190810160405280929190818152602001828054801561174357602002820191906000526020600020905b81548152602001906001019080831161172f575b50505050509050945094509450945094509091929394565b6000600b54905090565b600073__ConvertLib____________________________6396e4ee3d61178a846126d8565b60036040518363ffffffff167c0100000000000000000000000000000000000000000000000000000000028152600401808381526020018281526020019250505060206040518083038186803b1580156117e357600080fd5b505af41580156117f7573d6000803e3d6000fd5b505050506040513d602081101561180d57600080fd5b81019080805190602001909291905050509050919050565b6002600660003373ffffffffffffffffffffffffffffffffffffffff1673ffffffffffffffffffffffffffffffffffffffff16815260200190815260200160002060009054906101000a900460ff1660ff16141515611912576040517f08c379a00000000000000000000000000000000000000000000000000000000081526004018080602001828103825260258152602001807f7265717569726573206164766f6361746520746f20617070726f766520696e7681526020017f6573746f7200000000000000000000000000000000000000000000000000000081525060400191505060405180910390fd5b6001600660008373ffffffffffffffffffffffffffffffffffffffff1673ffffffffffffffffffffffffffffffffffffffff16815260200190815260200160002060006101000a81548160ff021916908360ff16021790555050565b828073ffffffffffffffffffffffffffffffffffffffff163373ffffffffffffffffffffffffffffffffffffffff16141515611a12576040517f08c379a00000000000000000000000000000000000000000000000000000000081526004018080602001828103825260158152602001807f726571756972656d656e74206f6e6c794f776e6572000000000000000000000081525060200191505060405180910390fd5b611a1e858585856142e0565b5050505050565b600c60009054906101000a900473ffffffffffffffffffffffffffffffffffffffff1673ffffffffffffffffffffffffffffffffffffffff163373ffffffffffffffffffffffffffffffffffffffff16141515611b10576040517f08c379a00000000000000000000000000000000000000000000000000000000081526004018080602001828103825260298152602001807f726571756972656d656e74206f6e6c794f776e6572206f6620436f6d70616e7981526020017f206d6f646966696572000000000000000000000000000000000000000000000081525060400191505060405180910390fd5b80600c60006101000a81548173ffffffffffffffffffffffffffffffffffffffff021916908373ffffffffffffffffffffffffffffffffffffffff16021790555050565b601160009054906101000a900460ff1681565b6000601860009054906101000a900460ff161515611c13576040517f08c379a00000000000000000000000000000000000000000000000000000000081526004018080602001828103825260258152602001807f657263323020636f6d7061746962696c69747920686173206265656e2064697381526020017f61626c656400000000000000000000000000000000000000000000000000000081525060400191505060405180910390fd5b6012905090565b828073ffffffffffffffffffffffffffffffffffffffff163373ffffffffffffffffffffffffffffffffffffffff16141515611cbe576040517f08c379a00000000000000000000000000000000000000000000000000000000081526004018080602001828103825260158152602001807f726571756972656d656e74206f6e6c794f776e6572000000000000000000000081525060200191505060405180910390fd5b611cc9848484614869565b50505050565b60008073ffffffffffffffffffffffffffffffffffffffff16601660009054906101000a900473ffffffffffffffffffffffffffffffffffffffff1673ffffffffffffffffffffffffffffffffffffffff16141515611d315760009050611d36565b600190505b90565b6000600a54905090565b600080601b60003373ffffffffffffffffffffffffffffffffffffffff1673ffffffffffffffffffffffffffffffffffffffff16815260200190815260200160002091508160010160009054906101000a900460ff16151515611e0e576040517f08c379a00000000000000000000000000000000000000000000000000000000081526004018080602001828103825260118152602001807f596f7520616c726561647920766f74656400000000000000000000000000000081525060200191505060405180910390fd5b3373ffffffffffffffffffffffffffffffffffffffff168373ffffffffffffffffffffffffffffffffffffffff1614151515611eb2576040517f08c379a000000000000000000000000000000000000000000000000000000000815260040180806020018281038252601d8152602001807f53656c662d64656c65676174696f6e20697320646973616c6c6f77656400000081525060200191505060405180910390fd5b5b600073ffffffffffffffffffffffffffffffffffffffff16601b60008573ffffffffffffffffffffffffffffffffffffffff1673ffffffffffffffffffffffffffffffffffffffff16815260200190815260200160002060010160019054906101000a900473ffffffffffffffffffffffffffffffffffffffff1673ffffffffffffffffffffffffffffffffffffffff1614151561205957601b60008473ffffffffffffffffffffffffffffffffffffffff1673ffffffffffffffffffffffffffffffffffffffff16815260200190815260200160002060010160019054906101000a900473ffffffffffffffffffffffffffffffffffffffff1692503373ffffffffffffffffffffffffffffffffffffffff168373ffffffffffffffffffffffffffffffffffffffff1614151515612054576040517f08c379a000000000000000000000000000000000000000000000000000000000815260040180806020018281038252601a8152602001807f466f756e642073656c662d64656c65676174696f6e206c6f6f7000000000000081525060200191505060405180910390fd5b611eb3565b60018260010160006101000a81548160ff021916908315150217905550828260010160016101000a81548173ffffffffffffffffffffffffffffffffffffffff021916908373ffffffffffffffffffffffffffffffffffffffff160217905550601b60008473ffffffffffffffffffffffffffffffffffffffff1673ffffffffffffffffffffffffffffffffffffffff16815260200190815260200160002090508060010160009054906101000a900460ff16156121795761214c8260000154601c836002015481548110151561212c57fe5b9060005260206000209060020201600101546142bf90919063ffffffff16565b601c826002015481548110151561215f57fe5b906000526020600020906002020160010181905550612196565b612194826000015482600001546142bf90919063ffffffff16565b505b505050565b600080600080600c60009054906101000a900473ffffffffffffffffffffffffffffffffffffffff1673ffffffffffffffffffffffffffffffffffffffff163373ffffffffffffffffffffffffffffffffffffffff1614151561228c576040517f08c379a00000000000000000000000000000000000000000000000000000000081526004018080602001828103825260298152602001807f726571756972656d656e74206f6e6c794f776e6572206f6620436f6d70616e7981526020017f206d6f646966696572000000000000000000000000000000000000000000000081525060400191505060405180910390fd5b60009250600091505b601c805490508210156122fe5782601c838154811015156122b257fe5b90600052602060002090600202016001015411156122f157601c828154811015156122d957fe5b90600052602060002090600202016001015492508190505b8180600101925050612295565b601c8181548110151561230d57fe5b90600052602060002090600202016000015493507f64cc588a379a8af63188f3443e70b4fa4e3cdad188fd65e3b7b283c2084cddc784846040518083600019166000191681526020018281526020019250505060405180910390a183935050505090565b60608060008090505b601c805490508110156123db57601c8181548110151561239657fe5b90600052602060002090600202016000015482828151811015156123b657fe5b906020019060200201906000191690816000191681525050808060010191505061237a565b819250505090565b600c60009054906101000a900473ffffffffffffffffffffffffffffffffffffffff1673ffffffffffffffffffffffffffffffffffffffff163373ffffffffffffffffffffffffffffffffffffffff161415156124ce576040517f08c379a00000000000000000000000000000000000000000000000000000000081526004018080602001828103825260298152602001807f726571756972656d656e74206f6e6c794f776e6572206f6620436f6d70616e7981526020017f206d6f646966696572000000000000000000000000000000000000000000000081525060400191505060405180910390fd5b600073ffffffffffffffffffffffffffffffffffffffff168173ffffffffffffffffffffffffffffffffffffffff1614151515612599576040517f08c379a00000000000000000000000000000000000000000000000000000000081526004018080602001828103825260308152602001807f5f61646472206164647265737320646f6573206e6f74206578697374206f722081526020017f69732030783020286275726e696e67290000000000000000000000000000000081525060400191505060405180910390fd5b80601660006101000a81548173ffffffffffffffffffffffffffffffffffffffff021916908373ffffffffffffffffffffffffffffffffffffffff16021790555050565b600c60009054906101000a900473ffffffffffffffffffffffffffffffffffffffff1673ffffffffffffffffffffffffffffffffffffffff163373ffffffffffffffffffffffffffffffffffffffff161415156126c8576040517f08c379a00000000000000000000000000000000000000000000000000000000081526004018080602001828103825260298152602001807f726571756972656d656e74206f6e6c794f776e6572206f6620436f6d70616e7981526020017f206d6f646966696572000000000000000000000000000000000000000000000081525060400191505060405180910390fd5b80601a8190555050565b60175481565b60008060008373ffffffffffffffffffffffffffffffffffffffff1673ffffffffffffffffffffffffffffffffffffffff168152602001908152602001600020549050919050565b60108181548110151561272f57fe5b906000526020600020016000915090505481565b3373ffffffffffffffffffffffffffffffffffffffff168173ffffffffffffffffffffffffffffffffffffffff161415151561280d576040517f08c379a00000000000000000000000000000000000000000000000000000000081526004018080602001828103825260248152602001807f6d73672e73656e6465722063616e6e6f7420617574686f72697a65642068696d81526020017f73656c660000000000000000000000000000000000000000000000000000000081525060400191505060405180910390fd5b6001601960008373ffffffffffffffffffffffffffffffffffffffff1673ffffffffffffffffffffffffffffffffffffffff16815260200190815260200160002060003373ffffffffffffffffffffffffffffffffffffffff1673ffffffffffffffffffffffffffffffffffffffff16815260200190815260200160002060006101000a81548160ff0219169083151502179055507ff4caeb2d6ca8932a215a353d0703c326ec2d81fc68170f320eb2ab49e9df61f98133604051808373ffffffffffffffffffffffffffffffffffffffff1673ffffffffffffffffffffffffffffffffffffffff1681526020018273ffffffffffffffffffffffffffffffffffffffff1673ffffffffffffffffffffffffffffffffffffffff1681526020019250505060405180910390a150565b6000600954905090565b6000601c8281548110151561295757fe5b9060005260206000209060020201600101549050809050919050565b600c60009054906101000a900473ffffffffffffffffffffffffffffffffffffffff1673ffffffffffffffffffffffffffffffffffffffff163373ffffffffffffffffffffffffffffffffffffffff16141515612a5e576040517f08c379a00000000000000000000000000000000000000000000000000000000081526004018080602001828103825260298152602001807f726571756972656d656e74206f6e6c794f776e6572206f6620436f6d70616e7981526020017f206d6f646966696572000000000000000000000000000000000000000000000081525060400191505060405180910390fd5b6000601160006101000a81548160ff021916908315150217905550565b600c60009054906101000a900473ffffffffffffffffffffffffffffffffffffffff1673ffffffffffffffffffffffffffffffffffffffff163373ffffffffffffffffffffffffffffffffffffffff16141515612b66576040517f08c379a00000000000000000000000000000000000000000000000000000000081526004018080602001828103825260298152602001807f726571756972656d656e74206f6e6c794f776e6572206f6620436f6d70616e7981526020017f206d6f646966696572000000000000000000000000000000000000000000000081525060400191505060405180910390fd5b7f075025aecd552649e85b634e268857a6a478f698de831a3b01d0055e73888d20813360405180806020018373ffffffffffffffffffffffffffffffffffffffff1673ffffffffffffffffffffffffffffffffffffffff168152602001828103825284818151815260200191508051906020019080838360005b83811015612bfb578082015181840152602081019050612be0565b50505050905090810190601f168015612c285780820380516001836020036101000a031916815260200191505b50935050505060405180910390a150565b6060600f805480602002602001604051908101604052809291908181526020018280548015612cbd57602002820191906000526020600020905b8160009054906101000a900473ffffffffffffffffffffffffffffffffffffffff1673ffffffffffffffffffffffffffffffffffffffff1681526020019060010190808311612c73575b5050505050905090565b612cd13384612dd4565b1515612d6b576040517f08c379a00000000000000000000000000000000000000000000000000000000081526004018080602001828103825260388152602001807f73656e646572206973206e6f7420617574686f72697a656420746f206f70657281526020017f6174652077697468205f66726f6d2773206163636f756e74000000000000000081525060400191505060405180910390fd5b612d76838383614869565b505050565b601c81815481101515612d8a57fe5b90600052602060002090600202016000915090508060000154908060010154905082565b601660009054906101000a900473ffffffffffffffffffffffffffffffffffffffff1681565b60008173ffffffffffffffffffffffffffffffffffffffff168373ffffffffffffffffffffffffffffffffffffffff161480612e965750601960008473ffffffffffffffffffffffffffffffffffffffff1673ffffffffffffffffffffffffffffffffffffffff16815260200190815260200160002060008373ffffffffffffffffffffffffffffffffffffffff1673ffffffffffffffffffffffffffffffffffffffff16815260200190815260200160002060009054906101000a900460ff165b905092915050565b6000600c60009054906101000a900473ffffffffffffffffffffffffffffffffffffffff16905090565b612ed23384612dd4565b1515612f6c576040517f08c379a00000000000000000000000000000000000000000000000000000000081526004018080602001828103825260388152602001807f73656e646572206973206e6f7420617574686f72697a656420746f206f70657281526020017f6174652077697468205f66726f6d2773206163636f756e74000000000000000081525060400191505060405180910390fd5b612f78848484846142e0565b50505050565b6000836000600a5482811515612f9057fe5b0614151561302c576040517f08c379a00000000000000000000000000000000000000000000000000000000081526004018080602001828103825260338152602001807f756e61626c6520746f206d6f6469667920746f6b656e2062616c616e6365732081526020017f61742074686973206772616e756c61726974790000000000000000000000000081525060400191505060405180910390fd5b600c60009054906101000a900473ffffffffffffffffffffffffffffffffffffffff1673ffffffffffffffffffffffffffffffffffffffff163373ffffffffffffffffffffffffffffffffffffffff16141515613117576040517f08c379a00000000000000000000000000000000000000000000000000000000081526004018080602001828103825260298152602001807f726571756972656d656e74206f6e6c794f776e6572206f6620436f6d70616e7981526020017f206d6f646966696572000000000000000000000000000000000000000000000081525060400191505060405180910390fd5b60011515601160009054906101000a900460ff1615151415156131a2576040517f08c379a000000000000000000000000000000000000000000000000000000000815260040180806020018281038252601a8152602001807f746f6b656e2069737375616e63652069732066696e697368656400000000000081525060200191505060405180910390fd5b6131ad600854615146565b9150601082908060018154018082558091505090600182039060005260206000200160009091929091909150555060a0604051908101604052808681526020017f41000000000000000000000000000000000000000000000000000000000000007effffffffffffffffffffffffffffffffffffffffffffffffffffffffffffff191681526020014281526020016014548152602001601554815250600360008481526020019081526020016000206000820151816000015560208201518160010160006101000a81548160ff02191690837f0100000000000000000000000000000000000000000000000000000000000000900402179055506040820151816002015560608201518160030155608082015181600401559050506132dd85600b546142bf90919063ffffffff16565b600b81905550613334856000808973ffffffffffffffffffffffffffffffffffffffff1673ffffffffffffffffffffffffffffffffffffffff168152602001908152602001600020546142bf90919063ffffffff16565b6000808873ffffffffffffffffffffffffffffffffffffffff1673ffffffffffffffffffffffffffffffffffffffff168152602001908152602001600020819055506133d985600160008973ffffffffffffffffffffffffffffffffffffffff1673ffffffffffffffffffffffffffffffffffffffff1681526020019081526020016000206000858152602001908152602001600020546142bf90919063ffffffff16565b600160008873ffffffffffffffffffffffffffffffffffffffff1673ffffffffffffffffffffffffffffffffffffffff168152602001908152602001600020600084815260200190815260200160002081905550600260008773ffffffffffffffffffffffffffffffffffffffff1673ffffffffffffffffffffffffffffffffffffffff1681526020019081526020016000208290806001815401808255809150509060018203906000526020600020016000909192909190915055507f2fe5be0146f74c5bce36c0b80911af6c7d86ff27e89d5cfa61fc681327954e5d3387878787604051808673ffffffffffffffffffffffffffffffffffffffff1673ffffffffffffffffffffffffffffffffffffffff1681526020018573ffffffffffffffffffffffffffffffffffffffff1673ffffffffffffffffffffffffffffffffffffffff1681526020018481526020018060200180602001838103835285818151815260200191508051906020019080838360005b8381101561356a57808201518184015260208101905061354f565b50505050905090810190601f1680156135975780820380516001836020036101000a031916815260200191505b50838103825284818151815260200191508051906020019080838360005b838110156135d05780820151818401526020810190506135b5565b50505050905090810190601f1680156135fd5780820380516001836020036101000a031916815260200191505b5097505050505050505060405180910390a17fc8d64290e05791ddb8e7c779289e066d776a0630d8fb0adb646a94b9ae85b772823388888888604051808781526020018673ffffffffffffffffffffffffffffffffffffffff1673ffffffffffffffffffffffffffffffffffffffff1681526020018573ffffffffffffffffffffffffffffffffffffffff1673ffffffffffffffffffffffffffffffffffffffff1681526020018481526020018060200180602001838103835285818151815260200191508051906020019080838360005b838110156136ea5780820151818401526020810190506136cf565b50505050905090810190601f1680156137175780820380516001836020036101000a031916815260200191505b50838103825284818151815260200191508051906020019080838360005b83811015613750578082015181840152602081019050613735565b50505050905090810190601f16801561377d5780820380516001836020036101000a031916815260200191505b509850505050505050505060405180910390a1601860009054906101000a900460ff1615613830577fddf252ad1be2c89b69c2b068fc378daa952ba7f163c4a11628f55a4df523b3ef60008787604051808473ffffffffffffffffffffffffffffffffffffffff1681526020018373ffffffffffffffffffffffffffffffffffffffff1673ffffffffffffffffffffffffffffffffffffffff168152602001828152602001935050505060405180910390a15b505050505050565b6000601860009054906101000a900460ff1615156138e4576040517f08c379a00000000000000000000000000000000000000000000000000000000081526004018080602001828103825260258152602001807f657263323020636f6d7061746962696c69747920686173206265656e2064697381526020017f61626c656400000000000000000000000000000000000000000000000000000081525060400191505060405180910390fd5b600560008473ffffffffffffffffffffffffffffffffffffffff1673ffffffffffffffffffffffffffffffffffffffff16815260200190815260200160002060008373ffffffffffffffffffffffffffffffffffffffff1673ffffffffffffffffffffffffffffffffffffffff16815260200190815260200160002054905092915050565b6001151560076000856000191660001916815260200190815260200160002060009054906101000a900460ff161515141515613a33576040517f08c379a000000000000000000000000000000000000000000000000000000000815260040180806020018281038252602e8152602001807f7265717569726573206368616e676564207374617475732066726f6d2070656e81526020017f64696e6720746f2061637469766500000000000000000000000000000000000081525060400191505060405180910390fd5b60018110151515613a4057fe5b826008816000191690555081600981600019169055506000600b8190555080600a819055506001601860006101000a81548160ff02191690831515021790555033600c60006101000a81548173ffffffffffffffffffffffffffffffffffffffff021916908373ffffffffffffffffffffffffffffffffffffffff16021790555060408051908101604052803373ffffffffffffffffffffffffffffffffffffffff1673ffffffffffffffffffffffffffffffffffffffff168152602001601660009054906101000a900473ffffffffffffffffffffffffffffffffffffffff1673ffffffffffffffffffffffffffffffffffffffff1673ffffffffffffffffffffffffffffffffffffffff16815250600d906002613b609291906156ee565b50613b6a33615210565b507f9ae979c8e1266c2f250aee2ce3946e415bd909a9cf1821aab705834932fd12ad6008546009543360405180846000191660001916815260200183600019166000191681526020018273ffffffffffffffffffffffffffffffffffffffff1673ffffffffffffffffffffffffffffffffffffffff168152602001935050505060405180910390a1505050565b6060600260008373ffffffffffffffffffffffffffffffffffffffff1673ffffffffffffffffffffffffffffffffffffffff168152602001908152602001600020805480602002602001604051908101604052809291908181526020018280548015613c8257602002820191906000526020600020905b815481526020019060010190808311613c6e575b50505050509050919050565b6002600660003373ffffffffffffffffffffffffffffffffffffffff1673ffffffffffffffffffffffffffffffffffffffff16815260200190815260200160002060009054906101000a900460ff1660ff16141515613d7b576040517f08c379a00000000000000000000000000000000000000000000000000000000081526004018080602001828103825260238152602001807f7265717569726573206164766f6361746520746f20616374697661746520746f81526020017f6b656e000000000000000000000000000000000000000000000000000000000081525060400191505060405180910390fd5b600160076000836000191660001916815260200190815260200160002060006101000a81548160ff02191690831515021790555050565b6000600160008473ffffffffffffffffffffffffffffffffffffffff1673ffffffffffffffffffffffffffffffffffffffff168152602001908152602001600020600083815260200190815260200160002054905092915050565b600c60009054906101000a900473ffffffffffffffffffffffffffffffffffffffff1673ffffffffffffffffffffffffffffffffffffffff163373ffffffffffffffffffffffffffffffffffffffff16141515613ef8576040517f08c379a00000000000000000000000000000000000000000000000000000000081526004018080602001828103825260298152602001807f726571756972656d656e74206f6e6c794f776e6572206f6620436f6d70616e7981526020017f206d6f646966696572000000000000000000000000000000000000000000000081525060400191505060405180910390fd5b6000601860006101000a81548160ff021916908315150217905550565b3373ffffffffffffffffffffffffffffffffffffffff168173ffffffffffffffffffffffffffffffffffffffff1614151515613fb9576040517f08c379a00000000000000000000000000000000000000000000000000000000081526004018080602001828103825260208152602001807f6d73672e73656e6465722063616e6e6f74207265766f6b652068696d73656c6681525060200191505060405180910390fd5b6000601960008373ffffffffffffffffffffffffffffffffffffffff1673ffffffffffffffffffffffffffffffffffffffff16815260200190815260200160002060003373ffffffffffffffffffffffffffffffffffffffff1673ffffffffffffffffffffffffffffffffffffffff16815260200190815260200160002060006101000a81548160ff0219169083151502179055503373ffffffffffffffffffffffffffffffffffffffff168173ffffffffffffffffffffffffffffffffffffffff167f50546e66e5f44d728365dc3908c63bc5cfeeab470722c1677e3073a6ac294aa160405160405180910390a350565b6000600c60009054906101000a900473ffffffffffffffffffffffffffffffffffffffff1673ffffffffffffffffffffffffffffffffffffffff163373ffffffffffffffffffffffffffffffffffffffff16141515614198576040517f08c379a00000000000000000000000000000000000000000000000000000000081526004018080602001828103825260298152602001807f726571756972656d656e74206f6e6c794f776e6572206f6620436f6d70616e7981526020017f206d6f646966696572000000000000000000000000000000000000000000000081525060400191505060405180910390fd5b600090505b815181101561422e57601c604080519081016040528084848151811015156141c157fe5b906020019060200201516000191681526020016000815250908060018154018082558091505090600182039060005260206000209060020201600090919290919091506000820151816000019060001916905560208201518160010155505050808060010191505061419d565b6000803373ffffffffffffffffffffffffffffffffffffffff1673ffffffffffffffffffffffffffffffffffffffff16815260200190815260200160002054601b60003373ffffffffffffffffffffffffffffffffffffffff1673ffffffffffffffffffffffffffffffffffffffff168152602001908152602001600020600001819055506142bb615361565b5050565b60008082840190508381101515156142d657600080fd5b8091505092915050565b816000600a54828115156142f057fe5b0614151561438c576040517f08c379a00000000000000000000000000000000000000000000000000000000081526004018080602001828103825260338152602001807f756e61626c6520746f206d6f6469667920746f6b656e2062616c616e6365732081526020017f61742074686973206772616e756c61726974790000000000000000000000000081525060400191505060405180910390fd5b82600160008673ffffffffffffffffffffffffffffffffffffffff1673ffffffffffffffffffffffffffffffffffffffff1681526020019081526020016000206000878152602001908152602001600020541015151561447a576040517f08c379a000000000000000000000000000000000000000000000000000000000815260040180806020018281038252602b8152602001807f6e6f7420656e6f756768207472616e6368652d73706563696669632066756e6481526020017f696e6720746f206275726e00000000000000000000000000000000000000000081525060400191505060405180910390fd5b61448f83600b5461559590919063ffffffff16565b600b819055506144e6836000808773ffffffffffffffffffffffffffffffffffffffff1673ffffffffffffffffffffffffffffffffffffffff1681526020019081526020016000205461559590919063ffffffff16565b6000808673ffffffffffffffffffffffffffffffffffffffff1673ffffffffffffffffffffffffffffffffffffffff1681526020019081526020016000208190555061458b83600160008773ffffffffffffffffffffffffffffffffffffffff1673ffffffffffffffffffffffffffffffffffffffff16815260200190815260200160002060008881526020019081526020016000205461559590919063ffffffff16565b507fa1c85a30dec08aa526dc5a3ca33087f723335ec5c1614ecf0036da150a6971c88533868686604051808681526020018573ffffffffffffffffffffffffffffffffffffffff1673ffffffffffffffffffffffffffffffffffffffff1681526020018473ffffffffffffffffffffffffffffffffffffffff1673ffffffffffffffffffffffffffffffffffffffff16815260200183815260200180602001828103825283818151815260200191508051906020019080838360005b83811015614662578082015181840152602081019050614647565b50505050905090810190601f16801561468f5780820380516001836020036101000a031916815260200191505b50965050505050505060405180910390a17fea01d24fee0ecbb349ab449ea41d11599fd91ba758653579b30d38d63e2adedb33858585604051808573ffffffffffffffffffffffffffffffffffffffff1673ffffffffffffffffffffffffffffffffffffffff1681526020018473ffffffffffffffffffffffffffffffffffffffff1673ffffffffffffffffffffffffffffffffffffffff16815260200183815260200180602001828103825283818151815260200191508051906020019080838360005b8381101561476f578082015181840152602081019050614754565b50505050905090810190601f16801561479c5780820380516001836020036101000a031916815260200191505b509550505050505060405180910390a1601860009054906101000a900460ff1615614862577fddf252ad1be2c89b69c2b068fc378daa952ba7f163c4a11628f55a4df523b3ef84600085604051808473ffffffffffffffffffffffffffffffffffffffff1673ffffffffffffffffffffffffffffffffffffffff1681526020018373ffffffffffffffffffffffffffffffffffffffff1673ffffffffffffffffffffffffffffffffffffffff168152602001828152602001935050505060405180910390a15b5050505050565b600080600080856000600a548281151561487f57fe5b0614151561491b576040517f08c379a00000000000000000000000000000000000000000000000000000000081526004018080602001828103825260338152602001807f756e61626c6520746f206d6f6469667920746f6b656e2062616c616e6365732081526020017f61742074686973206772616e756c61726974790000000000000000000000000081525060400191505060405180910390fd5b866000808a73ffffffffffffffffffffffffffffffffffffffff1673ffffffffffffffffffffffffffffffffffffffff16815260200190815260200160002054101515156149d1576040517f08c379a000000000000000000000000000000000000000000000000000000000815260040180806020018281038252601a8152602001807f6e6f7420656e6f7567682066756e64696e6720746f206275726e00000000000081525060200191505060405180910390fd5b60009450600193505b86851015614f7a57601084601080549050038154811015156149f857fe5b90600052602060002001549250614a18858861559590919063ffffffff16565b600160008a73ffffffffffffffffffffffffffffffffffffffff1673ffffffffffffffffffffffffffffffffffffffff168152602001908152602001600020600085815260200190815260200160002054101515614cd157614a97614a86868961559590919063ffffffff16565b600b5461559590919063ffffffff16565b600b81905550614b00614ab3868961559590919063ffffffff16565b6000808b73ffffffffffffffffffffffffffffffffffffffff1673ffffffffffffffffffffffffffffffffffffffff1681526020019081526020016000205461559590919063ffffffff16565b6000808a73ffffffffffffffffffffffffffffffffffffffff1673ffffffffffffffffffffffffffffffffffffffff16815260200190815260200160002081905550614bb7614b58868961559590919063ffffffff16565b600160008b73ffffffffffffffffffffffffffffffffffffffff1673ffffffffffffffffffffffffffffffffffffffff16815260200190815260200160002060008681526020019081526020016000205461559590919063ffffffff16565b507fa1c85a30dec08aa526dc5a3ca33087f723335ec5c1614ecf0036da150a6971c883338a8a8a604051808681526020018573ffffffffffffffffffffffffffffffffffffffff1673ffffffffffffffffffffffffffffffffffffffff1681526020018473ffffffffffffffffffffffffffffffffffffffff1673ffffffffffffffffffffffffffffffffffffffff16815260200183815260200180602001828103825283818151815260200191508051906020019080838360005b83811015614c8e578082015181840152602081019050614c73565b50505050905090810190601f168015614cbb5780820380516001836020036101000a031916815260200191505b50965050505050505060405180910390a1614f7a565b600160008973ffffffffffffffffffffffffffffffffffffffff1673ffffffffffffffffffffffffffffffffffffffff1681526020019081526020016000206000848152602001908152602001600020549150614d3982600b5461559590919063ffffffff16565b600b81905550614d90826000808b73ffffffffffffffffffffffffffffffffffffffff1673ffffffffffffffffffffffffffffffffffffffff1681526020019081526020016000205461559590919063ffffffff16565b6000808a73ffffffffffffffffffffffffffffffffffffffff1673ffffffffffffffffffffffffffffffffffffffff16815260200190815260200160002081905550614e3582600160008b73ffffffffffffffffffffffffffffffffffffffff1673ffffffffffffffffffffffffffffffffffffffff16815260200190815260200160002060008681526020019081526020016000205461559590919063ffffffff16565b50614e4982866142bf90919063ffffffff16565b9450614e5f6001856142bf90919063ffffffff16565b93507fa1c85a30dec08aa526dc5a3ca33087f723335ec5c1614ecf0036da150a6971c883338a8a8a604051808681526020018573ffffffffffffffffffffffffffffffffffffffff1673ffffffffffffffffffffffffffffffffffffffff1681526020018473ffffffffffffffffffffffffffffffffffffffff1673ffffffffffffffffffffffffffffffffffffffff16815260200183815260200180602001828103825283818151815260200191508051906020019080838360005b83811015614f37578082015181840152602081019050614f1c565b50505050905090810190601f168015614f645780820380516001836020036101000a031916815260200191505b50965050505050505060405180910390a16149da565b7fea01d24fee0ecbb349ab449ea41d11599fd91ba758653579b30d38d63e2adedb33898989604051808573ffffffffffffffffffffffffffffffffffffffff1673ffffffffffffffffffffffffffffffffffffffff1681526020018473ffffffffffffffffffffffffffffffffffffffff1673ffffffffffffffffffffffffffffffffffffffff16815260200183815260200180602001828103825283818151815260200191508051906020019080838360005b8381101561504957808201518184015260208101905061502e565b50505050905090810190601f1680156150765780820380516001836020036101000a031916815260200191505b509550505050505060405180910390a1601860009054906101000a900460ff161561513c577fddf252ad1be2c89b69c2b068fc378daa952ba7f163c4a11628f55a4df523b3ef88600089604051808473ffffffffffffffffffffffffffffffffffffffff1673ffffffffffffffffffffffffffffffffffffffff1681526020018373ffffffffffffffffffffffffffffffffffffffff1673ffffffffffffffffffffffffffffffffffffffff168152602001828152602001935050505060405180910390a15b5050505050505050565b60008082601254604051602001808360001916600019168152602001828152602001925050506040516020818303038152906040526040518082805190602001908083835b6020831015156151b0578051825260208201915060208101905060208303925061518b565b6001836020036101000a03801982511681845116808217855250505050505090500191505060405180910390206001900490506151f960016012546142bf90919063ffffffff16565b506013548181151561520757fe5b06915050919050565b600061521b826155b6565b15615229576000905061535c565b600f8290806001815401808255809150509060018203906000526020600020016000909192909190916101000a81548173ffffffffffffffffffffffffffffffffffffffff021916908373ffffffffffffffffffffffffffffffffffffffff160217905550506001600460008473ffffffffffffffffffffffffffffffffffffffff1673ffffffffffffffffffffffffffffffffffffffff16815260200190815260200160002060006101000a81548160ff0219169083151502179055507f33dda5dca20a95bec563f7c6e810061b24d464536df0636a17d2d041b8b0c66d82600f80549050604051808373ffffffffffffffffffffffffffffffffffffffff1673ffffffffffffffffffffffffffffffffffffffff1681526020018281526020019250505060405180910390a1600190505b919050565b6000600190505b600f80549050811015615592576000601b6000600f8481548110151561538a57fe5b9060005260206000200160009054906101000a900473ffffffffffffffffffffffffffffffffffffffff1673ffffffffffffffffffffffffffffffffffffffff1673ffffffffffffffffffffffffffffffffffffffff1681526020019081526020016000206000015414151561548e576040517f08c379a000000000000000000000000000000000000000000000000000000000815260040180806020018281038252602a8152602001807f54686520726967687420746f20766f746520616c72656164792068617320626581526020017f656e206772616e7465640000000000000000000000000000000000000000000081525060400191505060405180910390fd5b600080600f838154811015156154a057fe5b9060005260206000200160009054906101000a900473ffffffffffffffffffffffffffffffffffffffff1673ffffffffffffffffffffffffffffffffffffffff1673ffffffffffffffffffffffffffffffffffffffff16815260200190815260200160002054601b6000600f8481548110151561551957fe5b9060005260206000200160009054906101000a900473ffffffffffffffffffffffffffffffffffffffff1673ffffffffffffffffffffffffffffffffffffffff1673ffffffffffffffffffffffffffffffffffffffff168152602001908152602001600020600001819055508080600101915050615368565b50565b6000808383111515156155a757600080fd5b82840390508091505092915050565b6000600115156155c583615690565b151514151561563c576040517f08c379a00000000000000000000000000000000000000000000000000000000081526004018080602001828103825260158152602001807f6e6f74206120726567756c61722061646472657373000000000000000000000081525060200191505060405180910390fd5b600460008373ffffffffffffffffffffffffffffffffffffffff1673ffffffffffffffffffffffffffffffffffffffff16815260200190815260200160002060009054906101000a900460ff169050919050565b60008060008373ffffffffffffffffffffffffffffffffffffffff1614156156bb57600091506156c6565b823b90506000811491505b50919050565b6040805190810160405280600290602082028038833980820191505090505090565b826002810192821561575a579160200282015b828111156157595782518260006101000a81548173ffffffffffffffffffffffffffffffffffffffff021916908373ffffffffffffffffffffffffffffffffffffffff16021790555091602001919060010190615701565b5b509050615767919061576b565b5090565b6157ab91905b808211156157a757600081816101000a81549073ffffffffffffffffffffffffffffffffffffffff021916905550600101615771565b5090565b905600a165627a7a72305820d057e1a26cb62283b220461e6b1ba2ef3412b35012becc882ace1a16caae7e320029",
  "source": "pragma solidity ^0.4.24;\r\n\r\nimport \"./ConvertLib.sol\";\r\nimport \"./SafeMath.sol\";\r\nimport \"./EquityTokenFactory.sol\";\r\n\r\ncontract EquityToken is EquityTokenFactory {\r\n\r\n//-----EquityToken------------------------------------------------------------------------------------------------------------------------\r\n    /* This structure determines the business logic of a token (i.e. quasi-share)\r\n        - \r\n        */\r\n\r\n    ///@notice string as bytes32 only has space for 32 characters\r\n    event adHocMessage(string _message, address _company);\r\n    //////////////////////////////////ToDo automatic quarterly update\r\n    ///event quaterlyUpdate(uint _revenue, uint _revenueforecast);\r\n\r\n    ///@notice ERC20 optional, ERC777 mandatory\r\n    function name() public view returns(bytes32) {\r\n        return companyName;\r\n    }\r\n\r\n    ///@notice ERC20 optional, ERC777 mandatory\r\n    function symbol() public view returns(bytes32) {\r\n        return tokenTicker;\r\n    }\r\n\r\n    ///@dev smallest part of token not divisible\r\n    ///@notice ERC777 mandatory\r\n    function granularity() public view returns(uint) {\r\n        return granular;\r\n    }\r\n\r\n    ///@notice convert balance of token in ETH or other currencies\r\n    function getBalanceOfInEth(address _addr) public view returns(uint) {\r\n\t\treturn ConvertLib.convert(balanceOf(_addr), 3);\r\n    }\r\n\r\n    ///@dev balance for any owner\r\n    ///@notice ERC20 mandatory, ERC777 mandatory\r\n    function balanceOf(address _addr) public view returns(uint) {\r\n\t\treturn OwnerToBalance[_addr];\r\n\t}\r\n\r\n    ///@dev balance for any owner for specific tranche\r\n    ///@notice EIP1410 proposal\r\n    function balanceOfByTranche(address _addr, uint _tranche) public view returns(uint) {\r\n\t\treturn OwnerToTrancheToBalance[_addr][_tranche];\r\n\t}\r\n\r\n    \r\n    ///@dev tranches of a tokenholder\r\n    ///@notice EIP1410 proposal\r\n    function tranchesOf(address _addr) public view returns(uint[]) {\r\n        return OwnerToTranches[_addr];\r\n    }\r\n\r\n    ///@dev total amount of a token \r\n    ///@notice ERC20 mandatory, ERC777 mandatory\r\n    function totalSupply() public view returns(uint) {\r\n        return totalAmount;\r\n    }\r\n    \r\n    ///@dev returns Infos of equity token, as struct is not returnable in current solidity version\r\n    function getInfosEquityToken() public view returns(bytes32, bytes32, uint, uint, uint[]) {\r\n        return (companyName, tokenTicker, granular, totalAmount, AllTranches);\r\n    } \r\n   \r\n    ///@dev getter for TotalDistribution array\r\n    ///@return array with all addresses (owner)\r\n    function getAllAddressesEquityToken() public view returns(address[]) {\r\n        return TotalDistribution;\r\n    }\r\n\r\n    function getCompanyOwner() public view returns(address) {\r\n        return companyOwner;\r\n    }\r\n\r\n    function setCompanyOwner(address _addr) public onlyOwnerOfCom {\r\n        companyOwner = _addr;\r\n    }\r\n  \r\n\r\n    ///@dev possibiliy to broadcast adHocMessages for any size\r\n    function sendAdHocMessage(string _message) public onlyOwnerOfCom {\r\n        emit adHocMessage(_message, msg.sender);\r\n    }\r\n//-----EquityToken------------------------------------------------------------------------------------------------------------------------\r\n\r\n//-----Voting-----------------------------------------------------------------------------------------------------------------------------\r\n    /* This structure allows a company to propose multiple proposals for an issue, voters can than choose one of the proposals \r\n        - the owning company works as an administrator and can start ballots\r\n        - the number of votes are linked to the amount of shares a voter posseses (1:1)\r\n        - voters can pass their right to vote\r\n        - the winning proposal is calculated and broadcasted automatically\r\n        */\r\n\r\n    event votingSuccessful(bytes32 winnerName, uint countVotes); \r\n        \r\n    mapping(address => Voter) AddressToVoter;\r\n\r\n    struct Voter {\r\n        uint weight; ///@notice weight is accumulated by # shares\r\n        bool voted;  ///@notice if true, that person already voted\r\n        address delegate; ///@notice person delegates right to vote to\r\n        uint vote;   ///@notice index of the voted proposal\r\n    }\r\n\r\n    ///@dev this is a type for a single proposal\r\n    struct Proposal {\r\n        bytes32 name; \r\n        uint voteCount; // number of accumulated votes\r\n    }\r\n \r\n    ///@notice all proposals of that company\r\n    Proposal[] public Proposals;\r\n\r\n    ///@notice create a new ballot, only possible for owner of company\r\n    function startBallot(bytes32[] proposalNames) public onlyOwnerOfCom {\r\n        for (uint i = 0; i < proposalNames.length; i++) {\r\n            Proposals.push(Proposal({name: proposalNames[i], voteCount: 0}));\r\n        }\r\n\r\n        ///@dev allocates voting weight = # of shares\r\n        AddressToVoter[msg.sender].weight = OwnerToBalance[msg.sender];\r\n        _giveRightToVote();\r\n    }\r\n\r\n    ///@dev give voter the right to vote on this ballot\r\n    ///@notice starts with index 1 in array, as 0 is ballot starter = companyowner in most cases\r\n    function _giveRightToVote() internal {\r\n        for (uint j = 1; j < TotalDistribution.length; j++) {\r\n            require(AddressToVoter[TotalDistribution[j]].weight == 0, \"The right to vote already has been granted\");\r\n            AddressToVoter[TotalDistribution[j]].weight = OwnerToBalance[TotalDistribution[j]];\r\n        }\r\n    }\r\n\r\n    ///@dev possibility to delegate your vote to another voter\r\n    function delegate(address _to) public {\r\n        Voter storage sender = AddressToVoter[msg.sender];\r\n        require(!sender.voted, \"You already voted\");\r\n        require(_to != msg.sender, \"Self-delegation is disallowed\");\r\n        ///@dev forwards delegation as long as _to also forwarded his right to vote\r\n        //@security use careful, as could get looped -> high gas costs\r\n        while (AddressToVoter[_to].delegate != address(0)) {\r\n            _to = AddressToVoter[_to].delegate;\r\n\r\n            require(_to != msg.sender, \"Found self-delegation loop\");\r\n        }\r\n\r\n        ///@notice since \"sender\" is a reference, this modifies AddressToVoter[msg.sender].voted\r\n        sender.voted = true;\r\n        sender.delegate = _to;\r\n        Voter storage delegate_ = AddressToVoter[_to];\r\n        \r\n        ///@notice if delegate already voted, add sender weight to proposal, else add weight of sender and delegate\r\n        if (delegate_.voted) {\r\n            Proposals[delegate_.vote].voteCount = Proposals[delegate_.vote].voteCount.add(sender.weight);\r\n        } else {\r\n            delegate_.weight.add(sender.weight);\r\n        }\r\n    }\r\n\r\n    ///@dev give your vote for specific proposal\r\n    //@security if proposal is out of range, this will automatically throw and revert changes\r\n    function vote(uint _proposal) public {\r\n        Voter storage sender = AddressToVoter[msg.sender];\r\n        require(!sender.voted, \"Already voted\");\r\n        sender.voted = true;\r\n        sender.vote = _proposal;\r\n        \r\n        Proposals[_proposal].voteCount = Proposals[_proposal].voteCount.add(sender.weight);\r\n    }\r\n\r\n    ///@dev computes the winning proposal, gets proposal name from array and returns, fires event\r\n    function winningProposal() public onlyOwnerOfCom returns(bytes32 winnerName_) {\r\n        uint winningVoteCount = 0;\r\n        for (uint p = 0; p < Proposals.length; p++) {\r\n            if (Proposals[p].voteCount > winningVoteCount) {\r\n                winningVoteCount = Proposals[p].voteCount;\r\n                uint winningProposal_ = p;\r\n            }\r\n        }\r\n\r\n        winnerName_ = Proposals[winningProposal_].name;\r\n        emit votingSuccessful(winnerName_, winningVoteCount);\r\n        return winnerName_;  \r\n    }\r\n\r\n    ///@notice for EVM could be possible to work with fixed array e.g. 3 proposals\r\n    function getProposals() public view returns(bytes32[]){\r\n        bytes32[] memory proposals_;\r\n        for (uint i = 0; i < Proposals.length; i++){\r\n            proposals_[i] = Proposals[i].name;\r\n        }\r\n        return proposals_;\r\n    }\r\n\r\n    function getVoteCount(uint _index) public view returns(uint voteCount_) {\r\n        return voteCount_ = Proposals[_index].voteCount;\r\n    }\r\n//-----Voting-----------------------------------------------------------------------------------------------------------------------------\r\n\r\n//-----ERC20BackwardCompatibility---------------------------------------------------------------------------------------------------------\r\n    /* This section determines obsolete erc20 methods that are only implemented to maintain backwards compatibility.\r\n       Further erc20 compatibility can be disabled, then the methods will fail.\r\n        - \r\n        */\r\n\r\n    ///@notice indexing of from and to and tokenId beneficial, but dropped for mocha testing environment\r\n    event Approval(address _from, address _to, uint _txamount);\r\n\r\n    modifier erc20() {\r\n        require((erc20compatible), \"erc20 compatibility has been disabled\");\r\n        _;\r\n    }  \r\n\r\n    ///@notice disables the ERC20 interface. \r\n    function disableERC20() public onlyOwnerOfCom {\r\n        erc20compatible = false;\r\n        //setInterfaceImplementation(\"ERC20Token\", 0x0);\r\n    }\r\n\r\n    ///@notice enables the ERC20 interface.\r\n    function enableERC20() public onlyOwnerOfCom {\r\n        erc20compatible = true;\r\n        //setInterfaceImplementation(\"ERC20Token\", this);\r\n    }\r\n\r\n    ///@dev number of decimals token uses, divide token amount by number of decimals to get user representation\r\n    ///@notice ERC20 optional, ERC777 mandatory to be 18\r\n    function decimals() public view erc20 returns(uint8) { \r\n        return uint8(18);\r\n    }\r\n\r\n    ///@dev sender can approve an amount to be withdrawn by spender\r\n    ///@notice ERC20 mandatory\r\n    function approve(address _spender, uint _txamount) public checkGranularity(_txamount) erc20 returns(bool success_) {\r\n        allowed[msg.sender][_spender] = _txamount;\r\n        emit Approval(msg.sender, _spender, _txamount);\r\n        return true;\r\n    }\r\n  \r\n    ///@notice ERC20 mandatory\r\n    function allowance(address _owner, address _spender) public view erc20 returns(uint remaining) {\r\n        return allowed[_owner][_spender];\r\n    }\r\n\r\n  //-----ERC20BackwardCompatibility---------------------------------------------------------------------------------------------------------    \r\n\r\n}",
  "sourcePath": "/mnt/c/Solidity/solidity_eto/contracts/EquityToken.sol",
  "compiler": {
    "name": "solc",
    "version": "0.4.24+commit.e67f0147.Emscripten.clang"
  },
  "schemaVersion": "2.0.1",
  "updatedAt": "2018-11-02T12:13:24.687Z"
}