{
  "contractName": "TokenProcessingLayer",
  "abi": [
    {
      "constant": true,
      "inputs": [
        {
          "name": "",
          "type": "uint256"
        }
      ],
      "name": "AllEquityToken",
      "outputs": [
        {
          "name": "tokenId",
          "type": "uint256"
        },
        {
          "name": "companyName",
          "type": "string"
        },
        {
          "name": "tokenTicker",
          "type": "string"
        },
        {
          "name": "totalamount",
          "type": "uint256"
        },
        {
          "name": "nominalvalue",
          "type": "uint256"
        }
      ],
      "payable": false,
      "stateMutability": "view",
      "type": "function"
    },
    {
      "constant": true,
      "inputs": [
        {
          "name": "addr",
          "type": "address"
        }
      ],
      "name": "getBalanceInEth",
      "outputs": [
        {
          "name": "",
          "type": "uint256"
        }
      ],
      "payable": false,
      "stateMutability": "view",
      "type": "function"
    },
    {
      "constant": false,
      "inputs": [
        {
          "name": "_companyName",
          "type": "string"
        },
        {
          "name": "_tokenTicker",
          "type": "string"
        },
        {
          "name": "_totalamount",
          "type": "uint256"
        },
        {
          "name": "_nominalvalue",
          "type": "uint256"
        }
      ],
      "name": "createEquityToken",
      "outputs": [],
      "payable": false,
      "stateMutability": "nonpayable",
      "type": "function"
    },
    {
      "constant": true,
      "inputs": [
        {
          "name": "index",
          "type": "uint256"
        }
      ],
      "name": "getInfosEquityToken",
      "outputs": [
        {
          "name": "",
          "type": "uint256"
        },
        {
          "name": "",
          "type": "string"
        },
        {
          "name": "",
          "type": "string"
        },
        {
          "name": "",
          "type": "uint256"
        },
        {
          "name": "",
          "type": "uint256"
        }
      ],
      "payable": false,
      "stateMutability": "view",
      "type": "function"
    },
    {
      "constant": true,
      "inputs": [
        {
          "name": "addr",
          "type": "address"
        }
      ],
      "name": "getBalance",
      "outputs": [
        {
          "name": "",
          "type": "uint256"
        }
      ],
      "payable": false,
      "stateMutability": "view",
      "type": "function"
    },
    {
      "anonymous": false,
      "inputs": [
        {
          "indexed": true,
          "name": "_from",
          "type": "address"
        },
        {
          "indexed": true,
          "name": "_to",
          "type": "address"
        },
        {
          "indexed": false,
          "name": "_value",
          "type": "uint256"
        }
      ],
      "name": "Transfer",
      "type": "event"
    },
    {
      "anonymous": false,
      "inputs": [
        {
          "indexed": true,
          "name": "tokenId",
          "type": "uint256"
        },
        {
          "indexed": false,
          "name": "totalamount",
          "type": "uint256"
        },
        {
          "indexed": false,
          "name": "nominalvalue",
          "type": "uint256"
        }
      ],
      "name": "newTokenIssuance",
      "type": "event"
    },
    {
      "constant": false,
      "inputs": [
        {
          "name": "receiver",
          "type": "address"
        },
        {
          "name": "amount",
          "type": "uint256"
        }
      ],
      "name": "sendToken",
      "outputs": [
        {
          "name": "sufficient",
          "type": "bool"
        }
      ],
      "payable": false,
      "stateMutability": "nonpayable",
      "type": "function"
    }
  ],
  "bytecode": "0x60806040526305f5e100600455610e0e8061001b6000396000f300608060405260043610610078576000357c0100000000000000000000000000000000000000000000000000000000900463ffffffff168063124748e21461007d578063412664ae146101a45780637bd703e814610209578063923a891914610260578063c9cca20d14610323578063f8b2cb4f1461044a575b600080fd5b34801561008957600080fd5b506100a8600480360381019080803590602001909291905050506104a1565b604051808681526020018060200180602001858152602001848152602001838103835287818151815260200191508051906020019080838360005b838110156100fe5780820151818401526020810190506100e3565b50505050905090810190601f16801561012b5780820380516001836020036101000a031916815260200191505b50838103825286818151815260200191508051906020019080838360005b83811015610164578082015181840152602081019050610149565b50505050905090810190601f1680156101915780820380516001836020036101000a031916815260200191505b5097505050505050505060405180910390f35b3480156101b057600080fd5b506101ef600480360381019080803573ffffffffffffffffffffffffffffffffffffffff16906020019092919080359060200190929190505050610616565b604051808215151515815260200191505060405180910390f35b34801561021557600080fd5b5061024a600480360381019080803573ffffffffffffffffffffffffffffffffffffffff16906020019092919050505061076f565b6040518082815260200191505060405180910390f35b34801561026c57600080fd5b50610321600480360381019080803590602001908201803590602001908080601f0160208091040260200160405190810160405280939291908181526020018383808284378201915050505050509192919290803590602001908201803590602001908080601f0160208091040260200160405190810160405280939291908181526020018383808284378201915050505050509192919290803590602001909291908035906020019092919050505061082f565b005b34801561032f57600080fd5b5061034e60048036038101908080359060200190929190505050610850565b604051808681526020018060200180602001858152602001848152602001838103835287818151815260200191508051906020019080838360005b838110156103a4578082015181840152602081019050610389565b50505050905090810190601f1680156103d15780820380516001836020036101000a031916815260200191505b50838103825286818151815260200191508051906020019080838360005b8381101561040a5780820151818401526020810190506103ef565b50505050905090810190601f1680156104375780820380516001836020036101000a031916815260200191505b5097505050505050505060405180910390f35b34801561045657600080fd5b5061048b600480360381019080803573ffffffffffffffffffffffffffffffffffffffff169060200190929190505050610a46565b6040518082815260200191505060405180910390f35b6003818154811015156104b057fe5b9060005260206000209060050201600091509050806000015490806001018054600181600116156101000203166002900480601f0160208091040260200160405190810160405280929190818152602001828054600181600116156101000203166002900480156105625780601f1061053757610100808354040283529160200191610562565b820191906000526020600020905b81548152906001019060200180831161054557829003601f168201915b505050505090806002018054600181600116156101000203166002900480601f0160208091040260200160405190810160405280929190818152602001828054600181600116156101000203166002900480156106005780601f106105d557610100808354040283529160200191610600565b820191906000526020600020905b8154815290600101906020018083116105e357829003601f168201915b5050505050908060030154908060040154905085565b6000816000803373ffffffffffffffffffffffffffffffffffffffff1673ffffffffffffffffffffffffffffffffffffffff1681526020019081526020016000205410156106675760009050610769565b816000803373ffffffffffffffffffffffffffffffffffffffff1673ffffffffffffffffffffffffffffffffffffffff16815260200190815260200160002060008282540392505081905550816000808573ffffffffffffffffffffffffffffffffffffffff1673ffffffffffffffffffffffffffffffffffffffff168152602001908152602001600020600082825401925050819055508273ffffffffffffffffffffffffffffffffffffffff163373ffffffffffffffffffffffffffffffffffffffff167fddf252ad1be2c89b69c2b068fc378daa952ba7f163c4a11628f55a4df523b3ef846040518082815260200191505060405180910390a3600190505b92915050565b600073__ConvertLib____________________________6396e4ee3d61079484610a46565b60026040518363ffffffff167c0100000000000000000000000000000000000000000000000000000000028152600401808381526020018281526020019250505060206040518083038186803b1580156107ed57600080fd5b505af4158015610801573d6000803e3d6000fd5b505050506040513d602081101561081757600080fd5b81019080805190602001909291905050509050919050565b600061083a85610a8e565b90506108498186868686610b92565b5050505050565b600060608060008060038681548110151561086757fe5b90600052602060002090600502016000015460038781548110151561088857fe5b90600052602060002090600502016001016003888154811015156108a857fe5b90600052602060002090600502016002016003898154811015156108c857fe5b90600052602060002090600502016003015460038a8154811015156108e957fe5b906000526020600020906005020160040154838054600181600116156101000203166002900480601f0160208091040260200160405190810160405280929190818152602001828054600181600116156101000203166002900480156109905780601f1061096557610100808354040283529160200191610990565b820191906000526020600020905b81548152906001019060200180831161097357829003601f168201915b50505050509350828054600181600116156101000203166002900480601f016020809104026020016040519081016040528092919081815260200182805460018160011615610100020316600290048015610a2c5780601f10610a0157610100808354040283529160200191610a2c565b820191906000526020600020905b815481529060010190602001808311610a0f57829003601f168201915b505050505092509450945094509450945091939590929450565b60008060008373ffffffffffffffffffffffffffffffffffffffff1673ffffffffffffffffffffffffffffffffffffffff168152602001908152602001600020549050919050565b600080600080915083826040516020018083805190602001908083835b602083101515610ad05780518252602082019150602081019050602083039250610aab565b6001836020036101000a038019825116818451168082178552505050505050905001828152602001925050506040516020818303038152906040526040518082805190602001908083835b602083101515610b405780518252602082019150602081019050602083039250610b1b565b6001836020036101000a0380198251168184511680821785525050505050509050019150506040518091039020600190049050818060010192505060045481811515610b8857fe5b0692505050919050565b60006001600360a0604051908101604052808981526020018881526020018781526020018681526020018581525090806001815401808255809150509060018203906000526020600020906005020160009091929091909150600082015181600001556020820151816001019080519060200190610c11929190610d3d565b506040820151816002019080519060200190610c2e929190610d3d565b5060608201518160030155608082015181600401555050039050826000803373ffffffffffffffffffffffffffffffffffffffff1673ffffffffffffffffffffffffffffffffffffffff16815260200190815260200160002081905550336001600088815260200190815260200160002060006101000a81548173ffffffffffffffffffffffffffffffffffffffff021916908373ffffffffffffffffffffffffffffffffffffffff160217905550806002600088815260200190815260200160002081905550857f53a17e314a0d49dac5969913b5815abbebc5582aacfbbafb2536bc1f22ef6c438484604051808381526020018281526020019250505060405180910390a2505050505050565b828054600181600116156101000203166002900490600052602060002090601f016020900481019282601f10610d7e57805160ff1916838001178555610dac565b82800160010185558215610dac579182015b82811115610dab578251825591602001919060010190610d90565b5b509050610db99190610dbd565b5090565b610ddf91905b80821115610ddb576000816000905550600101610dc3565b5090565b905600a165627a7a72305820de1424f447a5c90f9a01a9d6dc6905a9b83b2948d872101cfa0d4bd7c421c45e0029",
  "source": "pragma solidity ^0.4.24;\r\n\r\nimport \"./ConvertLib.sol\";\r\nimport \"./EquityTokenFactory.sol\";\r\nimport \"./EquityToken.sol\";\r\n\r\ncontract TokenProcessingLayer is EquityToken {\r\n    event Transfer(address indexed _from, address indexed _to, uint _value);\r\n\r\n    function sendToken(address receiver, uint amount) public returns(bool sufficient) {\r\n\t\tif (OwnerAmountCount[msg.sender] < amount) return false;\r\n\t\tOwnerAmountCount[msg.sender] -= amount;\r\n\t\tOwnerAmountCount[receiver] += amount;\r\n\t\temit Transfer(msg.sender, receiver, amount);\r\n\t\treturn true;\r\n    }\r\n}",
  "sourcePath": "/mnt/c/Solidity/solidity_eto/contracts/TokenProcessingLayer.sol",
  "compiler": {
    "name": "solc",
    "version": "0.4.24+commit.e67f0147.Emscripten.clang"
  },
  "schemaVersion": "2.0.1",
  "updatedAt": "2018-09-22T15:58:09.709Z"
}